{
	"contracts/GeckoGold_flattened.sol": {
		"GeckoGold": {
			"abi": [
				{
					"inputs": [],
					"stateMutability": "nonpayable",
					"type": "constructor"
				},
				{
					"inputs": [
						{
							"internalType": "address",
							"name": "spender",
							"type": "address"
						},
						{
							"internalType": "uint256",
							"name": "allowance",
							"type": "uint256"
						},
						{
							"internalType": "uint256",
							"name": "needed",
							"type": "uint256"
						}
					],
					"name": "ERC20InsufficientAllowance",
					"type": "error"
				},
				{
					"inputs": [
						{
							"internalType": "address",
							"name": "sender",
							"type": "address"
						},
						{
							"internalType": "uint256",
							"name": "balance",
							"type": "uint256"
						},
						{
							"internalType": "uint256",
							"name": "needed",
							"type": "uint256"
						}
					],
					"name": "ERC20InsufficientBalance",
					"type": "error"
				},
				{
					"inputs": [
						{
							"internalType": "address",
							"name": "approver",
							"type": "address"
						}
					],
					"name": "ERC20InvalidApprover",
					"type": "error"
				},
				{
					"inputs": [
						{
							"internalType": "address",
							"name": "receiver",
							"type": "address"
						}
					],
					"name": "ERC20InvalidReceiver",
					"type": "error"
				},
				{
					"inputs": [
						{
							"internalType": "address",
							"name": "sender",
							"type": "address"
						}
					],
					"name": "ERC20InvalidSender",
					"type": "error"
				},
				{
					"inputs": [
						{
							"internalType": "address",
							"name": "spender",
							"type": "address"
						}
					],
					"name": "ERC20InvalidSpender",
					"type": "error"
				},
				{
					"inputs": [
						{
							"internalType": "address",
							"name": "owner",
							"type": "address"
						}
					],
					"name": "OwnableInvalidOwner",
					"type": "error"
				},
				{
					"inputs": [
						{
							"internalType": "address",
							"name": "account",
							"type": "address"
						}
					],
					"name": "OwnableUnauthorizedAccount",
					"type": "error"
				},
				{
					"anonymous": false,
					"inputs": [
						{
							"indexed": true,
							"internalType": "address",
							"name": "owner",
							"type": "address"
						},
						{
							"indexed": true,
							"internalType": "address",
							"name": "spender",
							"type": "address"
						},
						{
							"indexed": false,
							"internalType": "uint256",
							"name": "value",
							"type": "uint256"
						}
					],
					"name": "Approval",
					"type": "event"
				},
				{
					"anonymous": false,
					"inputs": [
						{
							"indexed": true,
							"internalType": "address",
							"name": "user",
							"type": "address"
						},
						{
							"indexed": false,
							"internalType": "uint256",
							"name": "newPoints",
							"type": "uint256"
						}
					],
					"name": "EngagementPointsUpdated",
					"type": "event"
				},
				{
					"anonymous": false,
					"inputs": [
						{
							"indexed": true,
							"internalType": "address",
							"name": "previousOwner",
							"type": "address"
						},
						{
							"indexed": true,
							"internalType": "address",
							"name": "newOwner",
							"type": "address"
						}
					],
					"name": "OwnershipTransferred",
					"type": "event"
				},
				{
					"anonymous": false,
					"inputs": [
						{
							"indexed": true,
							"internalType": "address",
							"name": "user",
							"type": "address"
						},
						{
							"indexed": false,
							"internalType": "uint256",
							"name": "amount",
							"type": "uint256"
						}
					],
					"name": "RewardClaimed",
					"type": "event"
				},
				{
					"anonymous": false,
					"inputs": [
						{
							"indexed": true,
							"internalType": "address",
							"name": "user",
							"type": "address"
						},
						{
							"indexed": false,
							"internalType": "uint256",
							"name": "amount",
							"type": "uint256"
						}
					],
					"name": "TokensBurned",
					"type": "event"
				},
				{
					"anonymous": false,
					"inputs": [
						{
							"indexed": true,
							"internalType": "address",
							"name": "from",
							"type": "address"
						},
						{
							"indexed": true,
							"internalType": "address",
							"name": "to",
							"type": "address"
						},
						{
							"indexed": false,
							"internalType": "uint256",
							"name": "value",
							"type": "uint256"
						}
					],
					"name": "Transfer",
					"type": "event"
				},
				{
					"inputs": [],
					"name": "MAX_ENGAGEMENT_POINTS",
					"outputs": [
						{
							"internalType": "uint256",
							"name": "",
							"type": "uint256"
						}
					],
					"stateMutability": "view",
					"type": "function"
				},
				{
					"inputs": [],
					"name": "MAX_TAX_RATE",
					"outputs": [
						{
							"internalType": "uint256",
							"name": "",
							"type": "uint256"
						}
					],
					"stateMutability": "view",
					"type": "function"
				},
				{
					"inputs": [],
					"name": "MAX_TRANSFER_AMOUNT",
					"outputs": [
						{
							"internalType": "uint256",
							"name": "",
							"type": "uint256"
						}
					],
					"stateMutability": "view",
					"type": "function"
				},
				{
					"inputs": [],
					"name": "TOTAL_SUPPLY",
					"outputs": [
						{
							"internalType": "uint256",
							"name": "",
							"type": "uint256"
						}
					],
					"stateMutability": "view",
					"type": "function"
				},
				{
					"inputs": [
						{
							"internalType": "address",
							"name": "_address",
							"type": "address"
						}
					],
					"name": "addToWhitelist",
					"outputs": [],
					"stateMutability": "nonpayable",
					"type": "function"
				},
				{
					"inputs": [
						{
							"internalType": "address",
							"name": "owner",
							"type": "address"
						},
						{
							"internalType": "address",
							"name": "spender",
							"type": "address"
						}
					],
					"name": "allowance",
					"outputs": [
						{
							"internalType": "uint256",
							"name": "",
							"type": "uint256"
						}
					],
					"stateMutability": "view",
					"type": "function"
				},
				{
					"inputs": [
						{
							"internalType": "address",
							"name": "spender",
							"type": "address"
						},
						{
							"internalType": "uint256",
							"name": "value",
							"type": "uint256"
						}
					],
					"name": "approve",
					"outputs": [
						{
							"internalType": "bool",
							"name": "",
							"type": "bool"
						}
					],
					"stateMutability": "nonpayable",
					"type": "function"
				},
				{
					"inputs": [
						{
							"internalType": "address",
							"name": "account",
							"type": "address"
						}
					],
					"name": "balance",
					"outputs": [
						{
							"internalType": "uint256",
							"name": "",
							"type": "uint256"
						}
					],
					"stateMutability": "view",
					"type": "function"
				},
				{
					"inputs": [
						{
							"internalType": "address",
							"name": "account",
							"type": "address"
						}
					],
					"name": "balanceOf",
					"outputs": [
						{
							"internalType": "uint256",
							"name": "",
							"type": "uint256"
						}
					],
					"stateMutability": "view",
					"type": "function"
				},
				{
					"inputs": [
						{
							"internalType": "uint256",
							"name": "amount",
							"type": "uint256"
						}
					],
					"name": "burn",
					"outputs": [],
					"stateMutability": "nonpayable",
					"type": "function"
				},
				{
					"inputs": [
						{
							"internalType": "uint256",
							"name": "amount",
							"type": "uint256"
						}
					],
					"name": "burnSupply",
					"outputs": [],
					"stateMutability": "nonpayable",
					"type": "function"
				},
				{
					"inputs": [],
					"name": "claimReward",
					"outputs": [],
					"stateMutability": "nonpayable",
					"type": "function"
				},
				{
					"inputs": [],
					"name": "decimals",
					"outputs": [
						{
							"internalType": "uint8",
							"name": "",
							"type": "uint8"
						}
					],
					"stateMutability": "view",
					"type": "function"
				},
				{
					"inputs": [
						{
							"internalType": "address",
							"name": "user",
							"type": "address"
						},
						{
							"internalType": "uint256",
							"name": "points",
							"type": "uint256"
						}
					],
					"name": "deductEngagementPoints",
					"outputs": [],
					"stateMutability": "nonpayable",
					"type": "function"
				},
				{
					"inputs": [],
					"name": "enableTrading",
					"outputs": [],
					"stateMutability": "nonpayable",
					"type": "function"
				},
				{
					"inputs": [
						{
							"internalType": "address",
							"name": "",
							"type": "address"
						}
					],
					"name": "engagementPoints",
					"outputs": [
						{
							"internalType": "uint256",
							"name": "",
							"type": "uint256"
						}
					],
					"stateMutability": "view",
					"type": "function"
				},
				{
					"inputs": [],
					"name": "name",
					"outputs": [
						{
							"internalType": "string",
							"name": "",
							"type": "string"
						}
					],
					"stateMutability": "view",
					"type": "function"
				},
				{
					"inputs": [],
					"name": "owner",
					"outputs": [
						{
							"internalType": "address",
							"name": "",
							"type": "address"
						}
					],
					"stateMutability": "view",
					"type": "function"
				},
				{
					"inputs": [],
					"name": "pause",
					"outputs": [],
					"stateMutability": "nonpayable",
					"type": "function"
				},
				{
					"inputs": [],
					"name": "paused",
					"outputs": [
						{
							"internalType": "bool",
							"name": "",
							"type": "bool"
						}
					],
					"stateMutability": "view",
					"type": "function"
				},
				{
					"inputs": [
						{
							"internalType": "address",
							"name": "_address",
							"type": "address"
						}
					],
					"name": "removeFromWhitelist",
					"outputs": [],
					"stateMutability": "nonpayable",
					"type": "function"
				},
				{
					"inputs": [],
					"name": "renounceOwnership",
					"outputs": [],
					"stateMutability": "nonpayable",
					"type": "function"
				},
				{
					"inputs": [
						{
							"internalType": "address",
							"name": "token",
							"type": "address"
						},
						{
							"internalType": "uint256",
							"name": "amount",
							"type": "uint256"
						}
					],
					"name": "rescueTokens",
					"outputs": [],
					"stateMutability": "nonpayable",
					"type": "function"
				},
				{
					"inputs": [
						{
							"internalType": "address",
							"name": "_address",
							"type": "address"
						},
						{
							"internalType": "bool",
							"name": "_isBlacklisted",
							"type": "bool"
						}
					],
					"name": "setBlacklist",
					"outputs": [],
					"stateMutability": "nonpayable",
					"type": "function"
				},
				{
					"inputs": [
						{
							"internalType": "uint256",
							"name": "newTaxRate",
							"type": "uint256"
						}
					],
					"name": "setTaxRate",
					"outputs": [],
					"stateMutability": "nonpayable",
					"type": "function"
				},
				{
					"inputs": [],
					"name": "symbol",
					"outputs": [
						{
							"internalType": "string",
							"name": "",
							"type": "string"
						}
					],
					"stateMutability": "view",
					"type": "function"
				},
				{
					"inputs": [],
					"name": "taxRate",
					"outputs": [
						{
							"internalType": "uint256",
							"name": "",
							"type": "uint256"
						}
					],
					"stateMutability": "view",
					"type": "function"
				},
				{
					"inputs": [],
					"name": "totalSupply",
					"outputs": [
						{
							"internalType": "uint256",
							"name": "",
							"type": "uint256"
						}
					],
					"stateMutability": "view",
					"type": "function"
				},
				{
					"inputs": [],
					"name": "tradingEnabled",
					"outputs": [
						{
							"internalType": "bool",
							"name": "",
							"type": "bool"
						}
					],
					"stateMutability": "view",
					"type": "function"
				},
				{
					"inputs": [],
					"name": "tradingStartBlock",
					"outputs": [
						{
							"internalType": "uint256",
							"name": "",
							"type": "uint256"
						}
					],
					"stateMutability": "view",
					"type": "function"
				},
				{
					"inputs": [
						{
							"internalType": "address",
							"name": "recipient",
							"type": "address"
						},
						{
							"internalType": "uint256",
							"name": "amount",
							"type": "uint256"
						}
					],
					"name": "transfer",
					"outputs": [
						{
							"internalType": "bool",
							"name": "",
							"type": "bool"
						}
					],
					"stateMutability": "nonpayable",
					"type": "function"
				},
				{
					"inputs": [
						{
							"internalType": "address",
							"name": "from",
							"type": "address"
						},
						{
							"internalType": "address",
							"name": "to",
							"type": "address"
						},
						{
							"internalType": "uint256",
							"name": "value",
							"type": "uint256"
						}
					],
					"name": "transferFrom",
					"outputs": [
						{
							"internalType": "bool",
							"name": "",
							"type": "bool"
						}
					],
					"stateMutability": "nonpayable",
					"type": "function"
				},
				{
					"inputs": [
						{
							"internalType": "address",
							"name": "newOwner",
							"type": "address"
						}
					],
					"name": "transferOwnership",
					"outputs": [],
					"stateMutability": "nonpayable",
					"type": "function"
				},
				{
					"inputs": [],
					"name": "unpause",
					"outputs": [],
					"stateMutability": "nonpayable",
					"type": "function"
				},
				{
					"inputs": [
						{
							"internalType": "address",
							"name": "user",
							"type": "address"
						},
						{
							"internalType": "uint256",
							"name": "points",
							"type": "uint256"
						}
					],
					"name": "updateEngagementPoints",
					"outputs": [],
					"stateMutability": "nonpayable",
					"type": "function"
				},
				{
					"inputs": [],
					"name": "withdrawBalance",
					"outputs": [],
					"stateMutability": "nonpayable",
					"type": "function"
				}
			],
			"devdoc": {
				"errors": {
					"ERC20InsufficientAllowance(address,uint256,uint256)": [
						{
							"details": "Indicates a failure with the `spender`’s `allowance`. Used in transfers.",
							"params": {
								"allowance": "Amount of tokens a `spender` is allowed to operate with.",
								"needed": "Minimum amount required to perform a transfer.",
								"spender": "Address that may be allowed to operate on tokens without being their owner."
							}
						}
					],
					"ERC20InsufficientBalance(address,uint256,uint256)": [
						{
							"details": "Indicates an error related to the current `balance` of a `sender`. Used in transfers.",
							"params": {
								"balance": "Current balance for the interacting account.",
								"needed": "Minimum amount required to perform a transfer.",
								"sender": "Address whose tokens are being transferred."
							}
						}
					],
					"ERC20InvalidApprover(address)": [
						{
							"details": "Indicates a failure with the `approver` of a token to be approved. Used in approvals.",
							"params": {
								"approver": "Address initiating an approval operation."
							}
						}
					],
					"ERC20InvalidReceiver(address)": [
						{
							"details": "Indicates a failure with the token `receiver`. Used in transfers.",
							"params": {
								"receiver": "Address to which tokens are being transferred."
							}
						}
					],
					"ERC20InvalidSender(address)": [
						{
							"details": "Indicates a failure with the token `sender`. Used in transfers.",
							"params": {
								"sender": "Address whose tokens are being transferred."
							}
						}
					],
					"ERC20InvalidSpender(address)": [
						{
							"details": "Indicates a failure with the `spender` to be approved. Used in approvals.",
							"params": {
								"spender": "Address that may be allowed to operate on tokens without being their owner."
							}
						}
					],
					"OwnableInvalidOwner(address)": [
						{
							"details": "The owner is not a valid owner account. (eg. `address(0)`)"
						}
					],
					"OwnableUnauthorizedAccount(address)": [
						{
							"details": "The caller account is not authorized to perform an operation."
						}
					]
				},
				"events": {
					"Approval(address,address,uint256)": {
						"details": "Emitted when the allowance of a `spender` for an `owner` is set by a call to {approve}. `value` is the new allowance."
					},
					"Transfer(address,address,uint256)": {
						"details": "Emitted when `value` tokens are moved from one account (`from`) to another (`to`). Note that `value` may be zero."
					}
				},
				"kind": "dev",
				"methods": {
					"allowance(address,address)": {
						"details": "See {IERC20-allowance}."
					},
					"approve(address,uint256)": {
						"details": "See {IERC20-approve}. NOTE: If `value` is the maximum `uint256`, the allowance is not updated on `transferFrom`. This is semantically equivalent to an infinite approval. Requirements: - `spender` cannot be the zero address."
					},
					"balanceOf(address)": {
						"details": "See {IERC20-balanceOf}."
					},
					"decimals()": {
						"details": "Returns the number of decimals used to get its user representation. For example, if `decimals` equals `2`, a balance of `505` tokens should be displayed to a user as `5.05` (`505 / 10 ** 2`). Tokens usually opt for a value of 18, imitating the relationship between Ether and Wei. This is the default value returned by this function, unless it's overridden. NOTE: This information is only used for _display_ purposes: it in no way affects any of the arithmetic of the contract, including {IERC20-balanceOf} and {IERC20-transfer}."
					},
					"name()": {
						"details": "Returns the name of the token."
					},
					"owner()": {
						"details": "Returns the address of the current owner."
					},
					"renounceOwnership()": {
						"details": "Leaves the contract without owner. It will not be possible to call `onlyOwner` functions. Can only be called by the current owner. NOTE: Renouncing ownership will leave the contract without an owner, thereby disabling any functionality that is only available to the owner."
					},
					"symbol()": {
						"details": "Returns the symbol of the token, usually a shorter version of the name."
					},
					"totalSupply()": {
						"details": "See {IERC20-totalSupply}."
					},
					"transferFrom(address,address,uint256)": {
						"details": "See {IERC20-transferFrom}. Skips emitting an {Approval} event indicating an allowance update. This is not required by the ERC. See {xref-ERC20-_approve-address-address-uint256-bool-}[_approve]. NOTE: Does not update the allowance if the current allowance is the maximum `uint256`. Requirements: - `from` and `to` cannot be the zero address. - `from` must have a balance of at least `value`. - the caller must have allowance for ``from``'s tokens of at least `value`."
					},
					"transferOwnership(address)": {
						"details": "Transfers ownership of the contract to a new account (`newOwner`). Can only be called by the current owner."
					}
				},
				"version": 1
			},
			"evm": {
				"assembly": "    /* \"contracts/GeckoGold_flattened.sol\":28099:34685  contract GeckoGold is ERC20, Ownable, ReentrancyGuard {... */\n  mstore(0x40, 0x80)\n    /* \"contracts/GeckoGold_flattened.sol\":28319:28320  2 */\n  0x02\n    /* \"contracts/GeckoGold_flattened.sol\":28294:28320  uint256 public taxRate = 2 */\n  0x07\n  sstore\n    /* \"contracts/GeckoGold_flattened.sol\":28916:28921  false */\n  0x00\n    /* \"contracts/GeckoGold_flattened.sol\":28887:28921  bool public tradingEnabled = false */\n  0x0d\n  exp(0x0100, 0x00)\n  dup2\n  sload\n  dup2\n  0xff\n  mul\n  not\n  and\n  swap1\n  dup4\n  iszero\n  iszero\n  mul\n  or\n  swap1\n  sstore\n  pop\n    /* \"contracts/GeckoGold_flattened.sol\":28948:28953  false */\n  0x00\n    /* \"contracts/GeckoGold_flattened.sol\":28927:28953  bool public paused = false */\n  0x0d\n  exp(0x0100, 0x01)\n  dup2\n  sload\n  dup2\n  0xff\n  mul\n  not\n  and\n  swap1\n  dup4\n  iszero\n  iszero\n  mul\n  or\n  swap1\n  sstore\n  pop\n    /* \"contracts/GeckoGold_flattened.sol\":28960:29520  constructor() ERC20(\"GeckoGold\", \"GECKO\") Ownable(msg.sender) {... */\n  callvalue\n  dup1\n  iszero\n  tag_1\n  jumpi\n  0x00\n  dup1\n  revert\ntag_1:\n  pop\n    /* \"contracts/GeckoGold_flattened.sol\":29010:29020  msg.sender */\n  caller\n    /* \"contracts/GeckoGold_flattened.sol\":12501:12614  constructor(string memory name_, string memory symbol_) {... */\n  mload(0x40)\n  dup1\n  0x40\n  add\n  0x40\n  mstore\n  dup1\n  0x09\n  dup2\n  mstore\n  0x20\n  add\n  0x4765636b6f476f6c640000000000000000000000000000000000000000000000\n  dup2\n  mstore\n  pop\n  mload(0x40)\n  dup1\n  0x40\n  add\n  0x40\n  mstore\n  dup1\n  0x05\n  dup2\n  mstore\n  0x20\n  add\n  0x4745434b4f000000000000000000000000000000000000000000000000000000\n  dup2\n  mstore\n  pop\n    /* \"contracts/GeckoGold_flattened.sol\":12575:12580  name_ */\n  dup2\n    /* \"contracts/GeckoGold_flattened.sol\":12567:12572  _name */\n  0x03\n    /* \"contracts/GeckoGold_flattened.sol\":12567:12580  _name = name_ */\n  swap1\n  dup2\n  tag_7\n  swap2\n  swap1\n  tag_8\n  jump\t// in\ntag_7:\n  pop\n    /* \"contracts/GeckoGold_flattened.sol\":12600:12607  symbol_ */\n  dup1\n    /* \"contracts/GeckoGold_flattened.sol\":12590:12597  _symbol */\n  0x04\n    /* \"contracts/GeckoGold_flattened.sol\":12590:12607  _symbol = symbol_ */\n  swap1\n  dup2\n  tag_9\n  swap2\n  swap1\n  tag_8\n  jump\t// in\ntag_9:\n  pop\n    /* \"contracts/GeckoGold_flattened.sol\":12501:12614  constructor(string memory name_, string memory symbol_) {... */\n  pop\n  pop\n    /* \"contracts/GeckoGold_flattened.sol\":23069:23070  0 */\n  0x00\n    /* \"contracts/GeckoGold_flattened.sol\":23045:23071  initialOwner == address(0) */\n  0xffffffffffffffffffffffffffffffffffffffff\n  and\n    /* \"contracts/GeckoGold_flattened.sol\":23045:23057  initialOwner */\n  dup2\n    /* \"contracts/GeckoGold_flattened.sol\":23045:23071  initialOwner == address(0) */\n  0xffffffffffffffffffffffffffffffffffffffff\n  and\n  sub\n    /* \"contracts/GeckoGold_flattened.sol\":23041:23136  if (initialOwner == address(0)) {... */\n  tag_11\n  jumpi\n    /* \"contracts/GeckoGold_flattened.sol\":23122:23123  0 */\n  0x00\n    /* \"contracts/GeckoGold_flattened.sol\":23094:23125  OwnableInvalidOwner(address(0)) */\n  mload(0x40)\n  0x1e4fbdf700000000000000000000000000000000000000000000000000000000\n  dup2\n  mstore\n  0x04\n  add\n  tag_12\n  swap2\n  swap1\n  tag_13\n  jump\t// in\ntag_12:\n  mload(0x40)\n  dup1\n  swap2\n  sub\n  swap1\n  revert\n    /* \"contracts/GeckoGold_flattened.sol\":23041:23136  if (initialOwner == address(0)) {... */\ntag_11:\n    /* \"contracts/GeckoGold_flattened.sol\":23145:23177  _transferOwnership(initialOwner) */\n  tag_14\n    /* \"contracts/GeckoGold_flattened.sol\":23164:23176  initialOwner */\n  dup2\n    /* \"contracts/GeckoGold_flattened.sol\":23145:23163  _transferOwnership */\n  shl(0x20, tag_15)\n    /* \"contracts/GeckoGold_flattened.sol\":23145:23177  _transferOwnership(initialOwner) */\n  0x20\n  shr\n  jump\t// in\ntag_14:\n    /* \"contracts/GeckoGold_flattened.sol\":22997:23184  constructor(address initialOwner) {... */\n  pop\n    /* \"contracts/GeckoGold_flattened.sol\":26623:26624  1 */\n  0x01\n    /* \"contracts/GeckoGold_flattened.sol\":26728:26735  _status */\n  0x06\n    /* \"contracts/GeckoGold_flattened.sol\":26728:26750  _status = _NOT_ENTERED */\n  dup2\n  swap1\n  sstore\n  pop\n    /* \"contracts/GeckoGold_flattened.sol\":29097:29141  _mint(msg.sender, (TOTAL_SUPPLY * 25) / 100) */\n  tag_18\n    /* \"contracts/GeckoGold_flattened.sol\":29103:29113  msg.sender */\n  caller\n    /* \"contracts/GeckoGold_flattened.sol\":29137:29140  100 */\n  0x64\n    /* \"contracts/GeckoGold_flattened.sol\":29131:29133  25 */\n  0x19\n    /* \"contracts/GeckoGold_flattened.sol\":28261:28287  420_690_000_000 * 10 ** 18 */\n  0x054f529ca52576bc6892000000\n    /* \"contracts/GeckoGold_flattened.sol\":29116:29133  TOTAL_SUPPLY * 25 */\n  tag_19\n  swap2\n  swap1\n  tag_20\n  jump\t// in\ntag_19:\n    /* \"contracts/GeckoGold_flattened.sol\":29115:29140  (TOTAL_SUPPLY * 25) / 100 */\n  tag_21\n  swap2\n  swap1\n  tag_22\n  jump\t// in\ntag_21:\n    /* \"contracts/GeckoGold_flattened.sol\":29097:29102  _mint */\n  shl(0x20, tag_23)\n    /* \"contracts/GeckoGold_flattened.sol\":29097:29141  _mint(msg.sender, (TOTAL_SUPPLY * 25) / 100) */\n  0x20\n  shr\n  jump\t// in\ntag_18:\n    /* \"contracts/GeckoGold_flattened.sol\":29199:29275  _mint(0x02bFf1B7B4e9F2483b429afbA11DDB474F552678, (TOTAL_SUPPLY * 25) / 100) */\n  tag_24\n    /* \"contracts/GeckoGold_flattened.sol\":29205:29247  0x02bFf1B7B4e9F2483b429afbA11DDB474F552678 */\n  0x02bff1b7b4e9f2483b429afba11ddb474f552678\n    /* \"contracts/GeckoGold_flattened.sol\":29271:29274  100 */\n  0x64\n    /* \"contracts/GeckoGold_flattened.sol\":29265:29267  25 */\n  0x19\n    /* \"contracts/GeckoGold_flattened.sol\":28261:28287  420_690_000_000 * 10 ** 18 */\n  0x054f529ca52576bc6892000000\n    /* \"contracts/GeckoGold_flattened.sol\":29250:29267  TOTAL_SUPPLY * 25 */\n  tag_25\n  swap2\n  swap1\n  tag_20\n  jump\t// in\ntag_25:\n    /* \"contracts/GeckoGold_flattened.sol\":29249:29274  (TOTAL_SUPPLY * 25) / 100 */\n  tag_26\n  swap2\n  swap1\n  tag_22\n  jump\t// in\ntag_26:\n    /* \"contracts/GeckoGold_flattened.sol\":29199:29204  _mint */\n  shl(0x20, tag_23)\n    /* \"contracts/GeckoGold_flattened.sol\":29199:29275  _mint(0x02bFf1B7B4e9F2483b429afbA11DDB474F552678, (TOTAL_SUPPLY * 25) / 100) */\n  0x20\n  shr\n  jump\t// in\ntag_24:\n    /* \"contracts/GeckoGold_flattened.sol\":29396:29472  _mint(0x78F48f0a33277Ac7ff8672f9a71596759cf489D2, (TOTAL_SUPPLY * 50) / 100) */\n  tag_27\n    /* \"contracts/GeckoGold_flattened.sol\":29402:29444  0x78F48f0a33277Ac7ff8672f9a71596759cf489D2 */\n  0x78f48f0a33277ac7ff8672f9a71596759cf489d2\n    /* \"contracts/GeckoGold_flattened.sol\":29468:29471  100 */\n  0x64\n    /* \"contracts/GeckoGold_flattened.sol\":29462:29464  50 */\n  0x32\n    /* \"contracts/GeckoGold_flattened.sol\":28261:28287  420_690_000_000 * 10 ** 18 */\n  0x054f529ca52576bc6892000000\n    /* \"contracts/GeckoGold_flattened.sol\":29447:29464  TOTAL_SUPPLY * 50 */\n  tag_28\n  swap2\n  swap1\n  tag_20\n  jump\t// in\ntag_28:\n    /* \"contracts/GeckoGold_flattened.sol\":29446:29471  (TOTAL_SUPPLY * 50) / 100 */\n  tag_29\n  swap2\n  swap1\n  tag_22\n  jump\t// in\ntag_29:\n    /* \"contracts/GeckoGold_flattened.sol\":29396:29401  _mint */\n  shl(0x20, tag_23)\n    /* \"contracts/GeckoGold_flattened.sol\":29396:29472  _mint(0x78F48f0a33277Ac7ff8672f9a71596759cf489D2, (TOTAL_SUPPLY * 50) / 100) */\n  0x20\n  shr\n  jump\t// in\ntag_27:\n    /* \"contracts/GeckoGold_flattened.sol\":28099:34685  contract GeckoGold is ERC20, Ownable, ReentrancyGuard {... */\n  jump(tag_30)\n    /* \"contracts/GeckoGold_flattened.sol\":24684:24871  function _transferOwnership(address newOwner) internal virtual {... */\ntag_15:\n    /* \"contracts/GeckoGold_flattened.sol\":24757:24773  address oldOwner */\n  0x00\n    /* \"contracts/GeckoGold_flattened.sol\":24776:24782  _owner */\n  0x05\n  0x00\n  swap1\n  sload\n  swap1\n  0x0100\n  exp\n  swap1\n  div\n  0xffffffffffffffffffffffffffffffffffffffff\n  and\n    /* \"contracts/GeckoGold_flattened.sol\":24757:24782  address oldOwner = _owner */\n  swap1\n  pop\n    /* \"contracts/GeckoGold_flattened.sol\":24801:24809  newOwner */\n  dup2\n    /* \"contracts/GeckoGold_flattened.sol\":24792:24798  _owner */\n  0x05\n  0x00\n    /* \"contracts/GeckoGold_flattened.sol\":24792:24809  _owner = newOwner */\n  0x0100\n  exp\n  dup2\n  sload\n  dup2\n  0xffffffffffffffffffffffffffffffffffffffff\n  mul\n  not\n  and\n  swap1\n  dup4\n  0xffffffffffffffffffffffffffffffffffffffff\n  and\n  mul\n  or\n  swap1\n  sstore\n  pop\n    /* \"contracts/GeckoGold_flattened.sol\":24855:24863  newOwner */\n  dup2\n    /* \"contracts/GeckoGold_flattened.sol\":24824:24864  OwnershipTransferred(oldOwner, newOwner) */\n  0xffffffffffffffffffffffffffffffffffffffff\n  and\n    /* \"contracts/GeckoGold_flattened.sol\":24845:24853  oldOwner */\n  dup2\n    /* \"contracts/GeckoGold_flattened.sol\":24824:24864  OwnershipTransferred(oldOwner, newOwner) */\n  0xffffffffffffffffffffffffffffffffffffffff\n  and\n  0x8be0079c531659141344cd1fd0a4f28419497f9722a3daafe3b4186f6b6457e0\n  mload(0x40)\n  mload(0x40)\n  dup1\n  swap2\n  sub\n  swap1\n  log3\n    /* \"contracts/GeckoGold_flattened.sol\":24747:24871  {... */\n  pop\n    /* \"contracts/GeckoGold_flattened.sol\":24684:24871  function _transferOwnership(address newOwner) internal virtual {... */\n  pop\n  jump\t// out\n    /* \"contracts/GeckoGold_flattened.sol\":18358:18566  function _mint(address account, uint256 value) internal {... */\ntag_23:\n    /* \"contracts/GeckoGold_flattened.sol\":18447:18448  0 */\n  0x00\n    /* \"contracts/GeckoGold_flattened.sol\":18428:18449  account == address(0) */\n  0xffffffffffffffffffffffffffffffffffffffff\n  and\n    /* \"contracts/GeckoGold_flattened.sol\":18428:18435  account */\n  dup3\n    /* \"contracts/GeckoGold_flattened.sol\":18428:18449  account == address(0) */\n  0xffffffffffffffffffffffffffffffffffffffff\n  and\n  sub\n    /* \"contracts/GeckoGold_flattened.sol\":18424:18515  if (account == address(0)) {... */\n  tag_33\n  jumpi\n    /* \"contracts/GeckoGold_flattened.sol\":18501:18502  0 */\n  0x00\n    /* \"contracts/GeckoGold_flattened.sol\":18472:18504  ERC20InvalidReceiver(address(0)) */\n  mload(0x40)\n  0xec442f0500000000000000000000000000000000000000000000000000000000\n  dup2\n  mstore\n  0x04\n  add\n  tag_34\n  swap2\n  swap1\n  tag_13\n  jump\t// in\ntag_34:\n  mload(0x40)\n  dup1\n  swap2\n  sub\n  swap1\n  revert\n    /* \"contracts/GeckoGold_flattened.sol\":18424:18515  if (account == address(0)) {... */\ntag_33:\n    /* \"contracts/GeckoGold_flattened.sol\":18524:18559  _update(address(0), account, value) */\n  tag_35\n    /* \"contracts/GeckoGold_flattened.sol\":18540:18541  0 */\n  0x00\n    /* \"contracts/GeckoGold_flattened.sol\":18544:18551  account */\n  dup4\n    /* \"contracts/GeckoGold_flattened.sol\":18553:18558  value */\n  dup4\n    /* \"contracts/GeckoGold_flattened.sol\":18524:18531  _update */\n  shl(0x20, tag_36)\n    /* \"contracts/GeckoGold_flattened.sol\":18524:18559  _update(address(0), account, value) */\n  0x20\n  shr\n  jump\t// in\ntag_35:\n    /* \"contracts/GeckoGold_flattened.sol\":18358:18566  function _mint(address account, uint256 value) internal {... */\n  pop\n  pop\n  jump\t// out\n    /* \"contracts/GeckoGold_flattened.sol\":16908:18015  function _update(address from, address to, uint256 value) internal virtual {... */\ntag_36:\n    /* \"contracts/GeckoGold_flattened.sol\":17013:17014  0 */\n  0x00\n    /* \"contracts/GeckoGold_flattened.sol\":16997:17015  from == address(0) */\n  0xffffffffffffffffffffffffffffffffffffffff\n  and\n    /* \"contracts/GeckoGold_flattened.sol\":16997:17001  from */\n  dup4\n    /* \"contracts/GeckoGold_flattened.sol\":16997:17015  from == address(0) */\n  0xffffffffffffffffffffffffffffffffffffffff\n  and\n  sub\n    /* \"contracts/GeckoGold_flattened.sol\":16993:17533  if (from == address(0)) {... */\n  tag_38\n  jumpi\n    /* \"contracts/GeckoGold_flattened.sol\":17149:17154  value */\n  dup1\n    /* \"contracts/GeckoGold_flattened.sol\":17133:17145  _totalSupply */\n  0x02\n  0x00\n    /* \"contracts/GeckoGold_flattened.sol\":17133:17154  _totalSupply += value */\n  dup3\n  dup3\n  sload\n  tag_39\n  swap2\n  swap1\n  tag_40\n  jump\t// in\ntag_39:\n  swap3\n  pop\n  pop\n  dup2\n  swap1\n  sstore\n  pop\n    /* \"contracts/GeckoGold_flattened.sol\":16993:17533  if (from == address(0)) {... */\n  jump(tag_41)\ntag_38:\n    /* \"contracts/GeckoGold_flattened.sol\":17185:17204  uint256 fromBalance */\n  0x00\n    /* \"contracts/GeckoGold_flattened.sol\":17207:17216  _balances */\n  dup1\n    /* \"contracts/GeckoGold_flattened.sol\":17207:17222  _balances[from] */\n  0x00\n    /* \"contracts/GeckoGold_flattened.sol\":17217:17221  from */\n  dup6\n    /* \"contracts/GeckoGold_flattened.sol\":17207:17222  _balances[from] */\n  0xffffffffffffffffffffffffffffffffffffffff\n  and\n  0xffffffffffffffffffffffffffffffffffffffff\n  and\n  dup2\n  mstore\n  0x20\n  add\n  swap1\n  dup2\n  mstore\n  0x20\n  add\n  0x00\n  keccak256\n  sload\n    /* \"contracts/GeckoGold_flattened.sol\":17185:17222  uint256 fromBalance = _balances[from] */\n  swap1\n  pop\n    /* \"contracts/GeckoGold_flattened.sol\":17254:17259  value */\n  dup2\n    /* \"contracts/GeckoGold_flattened.sol\":17240:17251  fromBalance */\n  dup2\n    /* \"contracts/GeckoGold_flattened.sol\":17240:17259  fromBalance < value */\n  lt\n    /* \"contracts/GeckoGold_flattened.sol\":17236:17351  if (fromBalance < value) {... */\n  iszero\n  tag_42\n  jumpi\n    /* \"contracts/GeckoGold_flattened.sol\":17311:17315  from */\n  dup4\n    /* \"contracts/GeckoGold_flattened.sol\":17317:17328  fromBalance */\n  dup2\n    /* \"contracts/GeckoGold_flattened.sol\":17330:17335  value */\n  dup4\n    /* \"contracts/GeckoGold_flattened.sol\":17286:17336  ERC20InsufficientBalance(from, fromBalance, value) */\n  mload(0x40)\n  0xe450d38c00000000000000000000000000000000000000000000000000000000\n  dup2\n  mstore\n  0x04\n  add\n  tag_43\n  swap4\n  swap3\n  swap2\n  swap1\n  tag_44\n  jump\t// in\ntag_43:\n  mload(0x40)\n  dup1\n  swap2\n  sub\n  swap1\n  revert\n    /* \"contracts/GeckoGold_flattened.sol\":17236:17351  if (fromBalance < value) {... */\ntag_42:\n    /* \"contracts/GeckoGold_flattened.sol\":17503:17508  value */\n  dup2\n    /* \"contracts/GeckoGold_flattened.sol\":17489:17500  fromBalance */\n  dup2\n    /* \"contracts/GeckoGold_flattened.sol\":17489:17508  fromBalance - value */\n  sub\n    /* \"contracts/GeckoGold_flattened.sol\":17471:17480  _balances */\n  0x00\n    /* \"contracts/GeckoGold_flattened.sol\":17471:17486  _balances[from] */\n  dup1\n    /* \"contracts/GeckoGold_flattened.sol\":17481:17485  from */\n  dup7\n    /* \"contracts/GeckoGold_flattened.sol\":17471:17486  _balances[from] */\n  0xffffffffffffffffffffffffffffffffffffffff\n  and\n  0xffffffffffffffffffffffffffffffffffffffff\n  and\n  dup2\n  mstore\n  0x20\n  add\n  swap1\n  dup2\n  mstore\n  0x20\n  add\n  0x00\n  keccak256\n    /* \"contracts/GeckoGold_flattened.sol\":17471:17508  _balances[from] = fromBalance - value */\n  dup2\n  swap1\n  sstore\n  pop\n    /* \"contracts/GeckoGold_flattened.sol\":17171:17533  {... */\n  pop\n    /* \"contracts/GeckoGold_flattened.sol\":16993:17533  if (from == address(0)) {... */\ntag_41:\n    /* \"contracts/GeckoGold_flattened.sol\":17561:17562  0 */\n  0x00\n    /* \"contracts/GeckoGold_flattened.sol\":17547:17563  to == address(0) */\n  0xffffffffffffffffffffffffffffffffffffffff\n  and\n    /* \"contracts/GeckoGold_flattened.sol\":17547:17549  to */\n  dup3\n    /* \"contracts/GeckoGold_flattened.sol\":17547:17563  to == address(0) */\n  0xffffffffffffffffffffffffffffffffffffffff\n  and\n  sub\n    /* \"contracts/GeckoGold_flattened.sol\":17543:17968  if (to == address(0)) {... */\n  tag_45\n  jumpi\n    /* \"contracts/GeckoGold_flattened.sol\":17726:17731  value */\n  dup1\n    /* \"contracts/GeckoGold_flattened.sol\":17710:17722  _totalSupply */\n  0x02\n  0x00\n    /* \"contracts/GeckoGold_flattened.sol\":17710:17731  _totalSupply -= value */\n  dup3\n  dup3\n  sload\n  sub\n  swap3\n  pop\n  pop\n  dup2\n  swap1\n  sstore\n  pop\n    /* \"contracts/GeckoGold_flattened.sol\":17543:17968  if (to == address(0)) {... */\n  jump(tag_46)\ntag_45:\n    /* \"contracts/GeckoGold_flattened.sol\":17938:17943  value */\n  dup1\n    /* \"contracts/GeckoGold_flattened.sol\":17921:17930  _balances */\n  0x00\n    /* \"contracts/GeckoGold_flattened.sol\":17921:17934  _balances[to] */\n  dup1\n    /* \"contracts/GeckoGold_flattened.sol\":17931:17933  to */\n  dup5\n    /* \"contracts/GeckoGold_flattened.sol\":17921:17934  _balances[to] */\n  0xffffffffffffffffffffffffffffffffffffffff\n  and\n  0xffffffffffffffffffffffffffffffffffffffff\n  and\n  dup2\n  mstore\n  0x20\n  add\n  swap1\n  dup2\n  mstore\n  0x20\n  add\n  0x00\n  keccak256\n  0x00\n    /* \"contracts/GeckoGold_flattened.sol\":17921:17943  _balances[to] += value */\n  dup3\n  dup3\n  sload\n  add\n  swap3\n  pop\n  pop\n  dup2\n  swap1\n  sstore\n  pop\n    /* \"contracts/GeckoGold_flattened.sol\":17543:17968  if (to == address(0)) {... */\ntag_46:\n    /* \"contracts/GeckoGold_flattened.sol\":17998:18000  to */\n  dup2\n    /* \"contracts/GeckoGold_flattened.sol\":17983:18008  Transfer(from, to, value) */\n  0xffffffffffffffffffffffffffffffffffffffff\n  and\n    /* \"contracts/GeckoGold_flattened.sol\":17992:17996  from */\n  dup4\n    /* \"contracts/GeckoGold_flattened.sol\":17983:18008  Transfer(from, to, value) */\n  0xffffffffffffffffffffffffffffffffffffffff\n  and\n  0xddf252ad1be2c89b69c2b068fc378daa952ba7f163c4a11628f55a4df523b3ef\n    /* \"contracts/GeckoGold_flattened.sol\":18002:18007  value */\n  dup4\n    /* \"contracts/GeckoGold_flattened.sol\":17983:18008  Transfer(from, to, value) */\n  mload(0x40)\n  tag_47\n  swap2\n  swap1\n  tag_48\n  jump\t// in\ntag_47:\n  mload(0x40)\n  dup1\n  swap2\n  sub\n  swap1\n  log3\n    /* \"contracts/GeckoGold_flattened.sol\":16908:18015  function _update(address from, address to, uint256 value) internal virtual {... */\n  pop\n  pop\n  pop\n  jump\t// out\n    /* \"#utility.yul\":7:106   */\ntag_49:\n    /* \"#utility.yul\":59:65   */\n  0x00\n    /* \"#utility.yul\":93:98   */\n  dup2\n    /* \"#utility.yul\":87:99   */\n  mload\n    /* \"#utility.yul\":77:99   */\n  swap1\n  pop\n    /* \"#utility.yul\":7:106   */\n  swap2\n  swap1\n  pop\n  jump\t// out\n    /* \"#utility.yul\":112:292   */\ntag_50:\n    /* \"#utility.yul\":160:237   */\n  0x4e487b7100000000000000000000000000000000000000000000000000000000\n    /* \"#utility.yul\":157:158   */\n  0x00\n    /* \"#utility.yul\":150:238   */\n  mstore\n    /* \"#utility.yul\":257:261   */\n  0x41\n    /* \"#utility.yul\":254:255   */\n  0x04\n    /* \"#utility.yul\":247:262   */\n  mstore\n    /* \"#utility.yul\":281:285   */\n  0x24\n    /* \"#utility.yul\":278:279   */\n  0x00\n    /* \"#utility.yul\":271:286   */\n  revert\n    /* \"#utility.yul\":298:478   */\ntag_51:\n    /* \"#utility.yul\":346:423   */\n  0x4e487b7100000000000000000000000000000000000000000000000000000000\n    /* \"#utility.yul\":343:344   */\n  0x00\n    /* \"#utility.yul\":336:424   */\n  mstore\n    /* \"#utility.yul\":443:447   */\n  0x22\n    /* \"#utility.yul\":440:441   */\n  0x04\n    /* \"#utility.yul\":433:448   */\n  mstore\n    /* \"#utility.yul\":467:471   */\n  0x24\n    /* \"#utility.yul\":464:465   */\n  0x00\n    /* \"#utility.yul\":457:472   */\n  revert\n    /* \"#utility.yul\":484:804   */\ntag_52:\n    /* \"#utility.yul\":528:534   */\n  0x00\n    /* \"#utility.yul\":565:566   */\n  0x02\n    /* \"#utility.yul\":559:563   */\n  dup3\n    /* \"#utility.yul\":555:567   */\n  div\n    /* \"#utility.yul\":545:567   */\n  swap1\n  pop\n    /* \"#utility.yul\":612:613   */\n  0x01\n    /* \"#utility.yul\":606:610   */\n  dup3\n    /* \"#utility.yul\":602:614   */\n  and\n    /* \"#utility.yul\":633:651   */\n  dup1\n    /* \"#utility.yul\":623:704   */\n  tag_80\n  jumpi\n    /* \"#utility.yul\":689:693   */\n  0x7f\n    /* \"#utility.yul\":681:687   */\n  dup3\n    /* \"#utility.yul\":677:694   */\n  and\n    /* \"#utility.yul\":667:694   */\n  swap2\n  pop\n    /* \"#utility.yul\":623:704   */\ntag_80:\n    /* \"#utility.yul\":751:753   */\n  0x20\n    /* \"#utility.yul\":743:749   */\n  dup3\n    /* \"#utility.yul\":740:754   */\n  lt\n    /* \"#utility.yul\":720:738   */\n  dup2\n    /* \"#utility.yul\":717:755   */\n  sub\n    /* \"#utility.yul\":714:798   */\n  tag_81\n  jumpi\n    /* \"#utility.yul\":770:788   */\n  tag_82\n  tag_51\n  jump\t// in\ntag_82:\n    /* \"#utility.yul\":714:798   */\ntag_81:\n    /* \"#utility.yul\":535:804   */\n  pop\n    /* \"#utility.yul\":484:804   */\n  swap2\n  swap1\n  pop\n  jump\t// out\n    /* \"#utility.yul\":810:951   */\ntag_53:\n    /* \"#utility.yul\":859:863   */\n  0x00\n    /* \"#utility.yul\":882:885   */\n  dup2\n    /* \"#utility.yul\":874:885   */\n  swap1\n  pop\n    /* \"#utility.yul\":905:908   */\n  dup2\n    /* \"#utility.yul\":902:903   */\n  0x00\n    /* \"#utility.yul\":895:909   */\n  mstore\n    /* \"#utility.yul\":939:943   */\n  0x20\n    /* \"#utility.yul\":936:937   */\n  0x00\n    /* \"#utility.yul\":926:944   */\n  keccak256\n    /* \"#utility.yul\":918:944   */\n  swap1\n  pop\n    /* \"#utility.yul\":810:951   */\n  swap2\n  swap1\n  pop\n  jump\t// out\n    /* \"#utility.yul\":957:1050   */\ntag_54:\n    /* \"#utility.yul\":994:1000   */\n  0x00\n    /* \"#utility.yul\":1041:1043   */\n  0x20\n    /* \"#utility.yul\":1036:1038   */\n  0x1f\n    /* \"#utility.yul\":1029:1034   */\n  dup4\n    /* \"#utility.yul\":1025:1039   */\n  add\n    /* \"#utility.yul\":1021:1044   */\n  div\n    /* \"#utility.yul\":1011:1044   */\n  swap1\n  pop\n    /* \"#utility.yul\":957:1050   */\n  swap2\n  swap1\n  pop\n  jump\t// out\n    /* \"#utility.yul\":1056:1163   */\ntag_55:\n    /* \"#utility.yul\":1100:1108   */\n  0x00\n    /* \"#utility.yul\":1150:1155   */\n  dup3\n    /* \"#utility.yul\":1144:1148   */\n  dup3\n    /* \"#utility.yul\":1140:1156   */\n  shl\n    /* \"#utility.yul\":1119:1156   */\n  swap1\n  pop\n    /* \"#utility.yul\":1056:1163   */\n  swap3\n  swap2\n  pop\n  pop\n  jump\t// out\n    /* \"#utility.yul\":1169:1562   */\ntag_56:\n    /* \"#utility.yul\":1238:1244   */\n  0x00\n    /* \"#utility.yul\":1288:1289   */\n  0x08\n    /* \"#utility.yul\":1276:1286   */\n  dup4\n    /* \"#utility.yul\":1272:1290   */\n  mul\n    /* \"#utility.yul\":1311:1408   */\n  tag_87\n    /* \"#utility.yul\":1341:1407   */\n  0xffffffffffffffffffffffffffffffffffffffffffffffffffffffffffffffff\n    /* \"#utility.yul\":1330:1339   */\n  dup3\n    /* \"#utility.yul\":1311:1408   */\n  tag_55\n  jump\t// in\ntag_87:\n    /* \"#utility.yul\":1429:1468   */\n  tag_88\n    /* \"#utility.yul\":1459:1467   */\n  dup7\n    /* \"#utility.yul\":1448:1457   */\n  dup4\n    /* \"#utility.yul\":1429:1468   */\n  tag_55\n  jump\t// in\ntag_88:\n    /* \"#utility.yul\":1417:1468   */\n  swap6\n  pop\n    /* \"#utility.yul\":1501:1505   */\n  dup1\n    /* \"#utility.yul\":1497:1506   */\n  not\n    /* \"#utility.yul\":1490:1495   */\n  dup5\n    /* \"#utility.yul\":1486:1507   */\n  and\n    /* \"#utility.yul\":1477:1507   */\n  swap4\n  pop\n    /* \"#utility.yul\":1550:1554   */\n  dup1\n    /* \"#utility.yul\":1540:1548   */\n  dup7\n    /* \"#utility.yul\":1536:1555   */\n  and\n    /* \"#utility.yul\":1529:1534   */\n  dup5\n    /* \"#utility.yul\":1526:1556   */\n  or\n    /* \"#utility.yul\":1516:1556   */\n  swap3\n  pop\n    /* \"#utility.yul\":1245:1562   */\n  pop\n  pop\n    /* \"#utility.yul\":1169:1562   */\n  swap4\n  swap3\n  pop\n  pop\n  pop\n  jump\t// out\n    /* \"#utility.yul\":1568:1645   */\ntag_57:\n    /* \"#utility.yul\":1605:1612   */\n  0x00\n    /* \"#utility.yul\":1634:1639   */\n  dup2\n    /* \"#utility.yul\":1623:1639   */\n  swap1\n  pop\n    /* \"#utility.yul\":1568:1645   */\n  swap2\n  swap1\n  pop\n  jump\t// out\n    /* \"#utility.yul\":1651:1711   */\ntag_58:\n    /* \"#utility.yul\":1679:1682   */\n  0x00\n    /* \"#utility.yul\":1700:1705   */\n  dup2\n    /* \"#utility.yul\":1693:1705   */\n  swap1\n  pop\n    /* \"#utility.yul\":1651:1711   */\n  swap2\n  swap1\n  pop\n  jump\t// out\n    /* \"#utility.yul\":1717:1859   */\ntag_59:\n    /* \"#utility.yul\":1767:1776   */\n  0x00\n    /* \"#utility.yul\":1800:1853   */\n  tag_92\n    /* \"#utility.yul\":1818:1852   */\n  tag_93\n    /* \"#utility.yul\":1827:1851   */\n  tag_94\n    /* \"#utility.yul\":1845:1850   */\n  dup5\n    /* \"#utility.yul\":1827:1851   */\n  tag_57\n  jump\t// in\ntag_94:\n    /* \"#utility.yul\":1818:1852   */\n  tag_58\n  jump\t// in\ntag_93:\n    /* \"#utility.yul\":1800:1853   */\n  tag_57\n  jump\t// in\ntag_92:\n    /* \"#utility.yul\":1787:1853   */\n  swap1\n  pop\n    /* \"#utility.yul\":1717:1859   */\n  swap2\n  swap1\n  pop\n  jump\t// out\n    /* \"#utility.yul\":1865:1940   */\ntag_60:\n    /* \"#utility.yul\":1908:1911   */\n  0x00\n    /* \"#utility.yul\":1929:1934   */\n  dup2\n    /* \"#utility.yul\":1922:1934   */\n  swap1\n  pop\n    /* \"#utility.yul\":1865:1940   */\n  swap2\n  swap1\n  pop\n  jump\t// out\n    /* \"#utility.yul\":1946:2215   */\ntag_61:\n    /* \"#utility.yul\":2056:2095   */\n  tag_97\n    /* \"#utility.yul\":2087:2094   */\n  dup4\n    /* \"#utility.yul\":2056:2095   */\n  tag_59\n  jump\t// in\ntag_97:\n    /* \"#utility.yul\":2117:2208   */\n  tag_98\n    /* \"#utility.yul\":2166:2207   */\n  tag_99\n    /* \"#utility.yul\":2190:2206   */\n  dup3\n    /* \"#utility.yul\":2166:2207   */\n  tag_60\n  jump\t// in\ntag_99:\n    /* \"#utility.yul\":2158:2164   */\n  dup5\n    /* \"#utility.yul\":2151:2155   */\n  dup5\n    /* \"#utility.yul\":2145:2156   */\n  sload\n    /* \"#utility.yul\":2117:2208   */\n  tag_56\n  jump\t// in\ntag_98:\n    /* \"#utility.yul\":2111:2115   */\n  dup3\n    /* \"#utility.yul\":2104:2209   */\n  sstore\n    /* \"#utility.yul\":2022:2215   */\n  pop\n    /* \"#utility.yul\":1946:2215   */\n  pop\n  pop\n  pop\n  jump\t// out\n    /* \"#utility.yul\":2221:2294   */\ntag_62:\n    /* \"#utility.yul\":2266:2269   */\n  0x00\n    /* \"#utility.yul\":2221:2294   */\n  swap1\n  jump\t// out\n    /* \"#utility.yul\":2300:2489   */\ntag_63:\n    /* \"#utility.yul\":2377:2409   */\n  tag_102\n  tag_62\n  jump\t// in\ntag_102:\n    /* \"#utility.yul\":2418:2483   */\n  tag_103\n    /* \"#utility.yul\":2476:2482   */\n  dup2\n    /* \"#utility.yul\":2468:2474   */\n  dup5\n    /* \"#utility.yul\":2462:2466   */\n  dup5\n    /* \"#utility.yul\":2418:2483   */\n  tag_61\n  jump\t// in\ntag_103:\n    /* \"#utility.yul\":2353:2489   */\n  pop\n    /* \"#utility.yul\":2300:2489   */\n  pop\n  pop\n  jump\t// out\n    /* \"#utility.yul\":2495:2681   */\ntag_64:\n    /* \"#utility.yul\":2555:2675   */\ntag_105:\n    /* \"#utility.yul\":2572:2575   */\n  dup2\n    /* \"#utility.yul\":2565:2570   */\n  dup2\n    /* \"#utility.yul\":2562:2576   */\n  lt\n    /* \"#utility.yul\":2555:2675   */\n  iszero\n  tag_107\n  jumpi\n    /* \"#utility.yul\":2626:2665   */\n  tag_108\n    /* \"#utility.yul\":2663:2664   */\n  0x00\n    /* \"#utility.yul\":2656:2661   */\n  dup3\n    /* \"#utility.yul\":2626:2665   */\n  tag_63\n  jump\t// in\ntag_108:\n    /* \"#utility.yul\":2599:2600   */\n  0x01\n    /* \"#utility.yul\":2592:2597   */\n  dup2\n    /* \"#utility.yul\":2588:2601   */\n  add\n    /* \"#utility.yul\":2579:2601   */\n  swap1\n  pop\n    /* \"#utility.yul\":2555:2675   */\n  jump(tag_105)\ntag_107:\n    /* \"#utility.yul\":2495:2681   */\n  pop\n  pop\n  jump\t// out\n    /* \"#utility.yul\":2687:3230   */\ntag_65:\n    /* \"#utility.yul\":2788:2790   */\n  0x1f\n    /* \"#utility.yul\":2783:2786   */\n  dup3\n    /* \"#utility.yul\":2780:2791   */\n  gt\n    /* \"#utility.yul\":2777:3223   */\n  iszero\n  tag_110\n  jumpi\n    /* \"#utility.yul\":2822:2860   */\n  tag_111\n    /* \"#utility.yul\":2854:2859   */\n  dup2\n    /* \"#utility.yul\":2822:2860   */\n  tag_53\n  jump\t// in\ntag_111:\n    /* \"#utility.yul\":2906:2935   */\n  tag_112\n    /* \"#utility.yul\":2924:2934   */\n  dup5\n    /* \"#utility.yul\":2906:2935   */\n  tag_54\n  jump\t// in\ntag_112:\n    /* \"#utility.yul\":2896:2904   */\n  dup2\n    /* \"#utility.yul\":2892:2936   */\n  add\n    /* \"#utility.yul\":3089:3091   */\n  0x20\n    /* \"#utility.yul\":3077:3087   */\n  dup6\n    /* \"#utility.yul\":3074:3092   */\n  lt\n    /* \"#utility.yul\":3071:3120   */\n  iszero\n  tag_113\n  jumpi\n    /* \"#utility.yul\":3110:3118   */\n  dup2\n    /* \"#utility.yul\":3095:3118   */\n  swap1\n  pop\n    /* \"#utility.yul\":3071:3120   */\ntag_113:\n    /* \"#utility.yul\":3133:3213   */\n  tag_114\n    /* \"#utility.yul\":3189:3211   */\n  tag_115\n    /* \"#utility.yul\":3207:3210   */\n  dup6\n    /* \"#utility.yul\":3189:3211   */\n  tag_54\n  jump\t// in\ntag_115:\n    /* \"#utility.yul\":3179:3187   */\n  dup4\n    /* \"#utility.yul\":3175:3212   */\n  add\n    /* \"#utility.yul\":3162:3173   */\n  dup3\n    /* \"#utility.yul\":3133:3213   */\n  tag_64\n  jump\t// in\ntag_114:\n    /* \"#utility.yul\":2792:3223   */\n  pop\n  pop\n    /* \"#utility.yul\":2777:3223   */\ntag_110:\n    /* \"#utility.yul\":2687:3230   */\n  pop\n  pop\n  pop\n  jump\t// out\n    /* \"#utility.yul\":3236:3353   */\ntag_66:\n    /* \"#utility.yul\":3290:3298   */\n  0x00\n    /* \"#utility.yul\":3340:3345   */\n  dup3\n    /* \"#utility.yul\":3334:3338   */\n  dup3\n    /* \"#utility.yul\":3330:3346   */\n  shr\n    /* \"#utility.yul\":3309:3346   */\n  swap1\n  pop\n    /* \"#utility.yul\":3236:3353   */\n  swap3\n  swap2\n  pop\n  pop\n  jump\t// out\n    /* \"#utility.yul\":3359:3528   */\ntag_67:\n    /* \"#utility.yul\":3403:3409   */\n  0x00\n    /* \"#utility.yul\":3436:3487   */\n  tag_118\n    /* \"#utility.yul\":3484:3485   */\n  0x00\n    /* \"#utility.yul\":3480:3486   */\n  not\n    /* \"#utility.yul\":3472:3477   */\n  dup5\n    /* \"#utility.yul\":3469:3470   */\n  0x08\n    /* \"#utility.yul\":3465:3478   */\n  mul\n    /* \"#utility.yul\":3436:3487   */\n  tag_66\n  jump\t// in\ntag_118:\n    /* \"#utility.yul\":3432:3488   */\n  not\n    /* \"#utility.yul\":3517:3521   */\n  dup1\n    /* \"#utility.yul\":3511:3515   */\n  dup4\n    /* \"#utility.yul\":3507:3522   */\n  and\n    /* \"#utility.yul\":3497:3522   */\n  swap2\n  pop\n    /* \"#utility.yul\":3410:3528   */\n  pop\n    /* \"#utility.yul\":3359:3528   */\n  swap3\n  swap2\n  pop\n  pop\n  jump\t// out\n    /* \"#utility.yul\":3533:3828   */\ntag_68:\n    /* \"#utility.yul\":3609:3613   */\n  0x00\n    /* \"#utility.yul\":3755:3784   */\n  tag_120\n    /* \"#utility.yul\":3780:3783   */\n  dup4\n    /* \"#utility.yul\":3774:3778   */\n  dup4\n    /* \"#utility.yul\":3755:3784   */\n  tag_67\n  jump\t// in\ntag_120:\n    /* \"#utility.yul\":3747:3784   */\n  swap2\n  pop\n    /* \"#utility.yul\":3817:3820   */\n  dup3\n    /* \"#utility.yul\":3814:3815   */\n  0x02\n    /* \"#utility.yul\":3810:3821   */\n  mul\n    /* \"#utility.yul\":3804:3808   */\n  dup3\n    /* \"#utility.yul\":3801:3822   */\n  or\n    /* \"#utility.yul\":3793:3822   */\n  swap1\n  pop\n    /* \"#utility.yul\":3533:3828   */\n  swap3\n  swap2\n  pop\n  pop\n  jump\t// out\n    /* \"#utility.yul\":3833:5228   */\ntag_8:\n    /* \"#utility.yul\":3950:3987   */\n  tag_122\n    /* \"#utility.yul\":3983:3986   */\n  dup3\n    /* \"#utility.yul\":3950:3987   */\n  tag_49\n  jump\t// in\ntag_122:\n    /* \"#utility.yul\":4052:4070   */\n  0xffffffffffffffff\n    /* \"#utility.yul\":4044:4050   */\n  dup2\n    /* \"#utility.yul\":4041:4071   */\n  gt\n    /* \"#utility.yul\":4038:4094   */\n  iszero\n  tag_123\n  jumpi\n    /* \"#utility.yul\":4074:4092   */\n  tag_124\n  tag_50\n  jump\t// in\ntag_124:\n    /* \"#utility.yul\":4038:4094   */\ntag_123:\n    /* \"#utility.yul\":4118:4156   */\n  tag_125\n    /* \"#utility.yul\":4150:4154   */\n  dup3\n    /* \"#utility.yul\":4144:4155   */\n  sload\n    /* \"#utility.yul\":4118:4156   */\n  tag_52\n  jump\t// in\ntag_125:\n    /* \"#utility.yul\":4203:4270   */\n  tag_126\n    /* \"#utility.yul\":4263:4269   */\n  dup3\n    /* \"#utility.yul\":4255:4261   */\n  dup3\n    /* \"#utility.yul\":4249:4253   */\n  dup6\n    /* \"#utility.yul\":4203:4270   */\n  tag_65\n  jump\t// in\ntag_126:\n    /* \"#utility.yul\":4297:4298   */\n  0x00\n    /* \"#utility.yul\":4321:4325   */\n  0x20\n    /* \"#utility.yul\":4308:4325   */\n  swap1\n  pop\n    /* \"#utility.yul\":4353:4355   */\n  0x1f\n    /* \"#utility.yul\":4345:4351   */\n  dup4\n    /* \"#utility.yul\":4342:4356   */\n  gt\n    /* \"#utility.yul\":4370:4371   */\n  0x01\n    /* \"#utility.yul\":4365:4983   */\n  dup2\n  eq\n  tag_128\n  jumpi\n    /* \"#utility.yul\":5027:5028   */\n  0x00\n    /* \"#utility.yul\":5044:5050   */\n  dup5\n    /* \"#utility.yul\":5041:5118   */\n  iszero\n  tag_129\n  jumpi\n    /* \"#utility.yul\":5093:5102   */\n  dup3\n    /* \"#utility.yul\":5088:5091   */\n  dup8\n    /* \"#utility.yul\":5084:5103   */\n  add\n    /* \"#utility.yul\":5078:5104   */\n  mload\n    /* \"#utility.yul\":5069:5104   */\n  swap1\n  pop\n    /* \"#utility.yul\":5041:5118   */\ntag_129:\n    /* \"#utility.yul\":5144:5211   */\n  tag_130\n    /* \"#utility.yul\":5204:5210   */\n  dup6\n    /* \"#utility.yul\":5197:5202   */\n  dup3\n    /* \"#utility.yul\":5144:5211   */\n  tag_68\n  jump\t// in\ntag_130:\n    /* \"#utility.yul\":5138:5142   */\n  dup7\n    /* \"#utility.yul\":5131:5212   */\n  sstore\n    /* \"#utility.yul\":5000:5222   */\n  pop\n    /* \"#utility.yul\":4335:5222   */\n  jump(tag_127)\n    /* \"#utility.yul\":4365:4983   */\ntag_128:\n    /* \"#utility.yul\":4417:4421   */\n  0x1f\n    /* \"#utility.yul\":4413:4422   */\n  not\n    /* \"#utility.yul\":4405:4411   */\n  dup5\n    /* \"#utility.yul\":4401:4423   */\n  and\n    /* \"#utility.yul\":4451:4488   */\n  tag_131\n    /* \"#utility.yul\":4483:4487   */\n  dup7\n    /* \"#utility.yul\":4451:4488   */\n  tag_53\n  jump\t// in\ntag_131:\n    /* \"#utility.yul\":4510:4511   */\n  0x00\n    /* \"#utility.yul\":4524:4732   */\ntag_132:\n    /* \"#utility.yul\":4538:4545   */\n  dup3\n    /* \"#utility.yul\":4535:4536   */\n  dup2\n    /* \"#utility.yul\":4532:4546   */\n  lt\n    /* \"#utility.yul\":4524:4732   */\n  iszero\n  tag_134\n  jumpi\n    /* \"#utility.yul\":4617:4626   */\n  dup5\n    /* \"#utility.yul\":4612:4615   */\n  dup10\n    /* \"#utility.yul\":4608:4627   */\n  add\n    /* \"#utility.yul\":4602:4628   */\n  mload\n    /* \"#utility.yul\":4594:4600   */\n  dup3\n    /* \"#utility.yul\":4587:4629   */\n  sstore\n    /* \"#utility.yul\":4668:4669   */\n  0x01\n    /* \"#utility.yul\":4660:4666   */\n  dup3\n    /* \"#utility.yul\":4656:4670   */\n  add\n    /* \"#utility.yul\":4646:4670   */\n  swap2\n  pop\n    /* \"#utility.yul\":4715:4717   */\n  0x20\n    /* \"#utility.yul\":4704:4713   */\n  dup6\n    /* \"#utility.yul\":4700:4718   */\n  add\n    /* \"#utility.yul\":4687:4718   */\n  swap5\n  pop\n    /* \"#utility.yul\":4561:4565   */\n  0x20\n    /* \"#utility.yul\":4558:4559   */\n  dup2\n    /* \"#utility.yul\":4554:4566   */\n  add\n    /* \"#utility.yul\":4549:4566   */\n  swap1\n  pop\n    /* \"#utility.yul\":4524:4732   */\n  jump(tag_132)\ntag_134:\n    /* \"#utility.yul\":4760:4766   */\n  dup7\n    /* \"#utility.yul\":4751:4758   */\n  dup4\n    /* \"#utility.yul\":4748:4767   */\n  lt\n    /* \"#utility.yul\":4745:4924   */\n  iszero\n  tag_135\n  jumpi\n    /* \"#utility.yul\":4818:4827   */\n  dup5\n    /* \"#utility.yul\":4813:4816   */\n  dup10\n    /* \"#utility.yul\":4809:4828   */\n  add\n    /* \"#utility.yul\":4803:4829   */\n  mload\n    /* \"#utility.yul\":4861:4909   */\n  tag_136\n    /* \"#utility.yul\":4903:4907   */\n  0x1f\n    /* \"#utility.yul\":4895:4901   */\n  dup10\n    /* \"#utility.yul\":4891:4908   */\n  and\n    /* \"#utility.yul\":4880:4889   */\n  dup3\n    /* \"#utility.yul\":4861:4909   */\n  tag_67\n  jump\t// in\ntag_136:\n    /* \"#utility.yul\":4853:4859   */\n  dup4\n    /* \"#utility.yul\":4846:4910   */\n  sstore\n    /* \"#utility.yul\":4768:4924   */\n  pop\n    /* \"#utility.yul\":4745:4924   */\ntag_135:\n    /* \"#utility.yul\":4970:4971   */\n  0x01\n    /* \"#utility.yul\":4966:4967   */\n  0x02\n    /* \"#utility.yul\":4958:4964   */\n  dup9\n    /* \"#utility.yul\":4954:4968   */\n  mul\n    /* \"#utility.yul\":4950:4972   */\n  add\n    /* \"#utility.yul\":4944:4948   */\n  dup9\n    /* \"#utility.yul\":4937:4973   */\n  sstore\n    /* \"#utility.yul\":4372:4983   */\n  pop\n  pop\n  pop\n    /* \"#utility.yul\":4335:5222   */\ntag_127:\n  pop\n    /* \"#utility.yul\":3925:5228   */\n  pop\n  pop\n  pop\n    /* \"#utility.yul\":3833:5228   */\n  pop\n  pop\n  jump\t// out\n    /* \"#utility.yul\":5234:5360   */\ntag_69:\n    /* \"#utility.yul\":5271:5278   */\n  0x00\n    /* \"#utility.yul\":5311:5353   */\n  0xffffffffffffffffffffffffffffffffffffffff\n    /* \"#utility.yul\":5304:5309   */\n  dup3\n    /* \"#utility.yul\":5300:5354   */\n  and\n    /* \"#utility.yul\":5289:5354   */\n  swap1\n  pop\n    /* \"#utility.yul\":5234:5360   */\n  swap2\n  swap1\n  pop\n  jump\t// out\n    /* \"#utility.yul\":5366:5462   */\ntag_70:\n    /* \"#utility.yul\":5403:5410   */\n  0x00\n    /* \"#utility.yul\":5432:5456   */\n  tag_139\n    /* \"#utility.yul\":5450:5455   */\n  dup3\n    /* \"#utility.yul\":5432:5456   */\n  tag_69\n  jump\t// in\ntag_139:\n    /* \"#utility.yul\":5421:5456   */\n  swap1\n  pop\n    /* \"#utility.yul\":5366:5462   */\n  swap2\n  swap1\n  pop\n  jump\t// out\n    /* \"#utility.yul\":5468:5586   */\ntag_71:\n    /* \"#utility.yul\":5555:5579   */\n  tag_141\n    /* \"#utility.yul\":5573:5578   */\n  dup2\n    /* \"#utility.yul\":5555:5579   */\n  tag_70\n  jump\t// in\ntag_141:\n    /* \"#utility.yul\":5550:5553   */\n  dup3\n    /* \"#utility.yul\":5543:5580   */\n  mstore\n    /* \"#utility.yul\":5468:5586   */\n  pop\n  pop\n  jump\t// out\n    /* \"#utility.yul\":5592:5814   */\ntag_13:\n    /* \"#utility.yul\":5685:5689   */\n  0x00\n    /* \"#utility.yul\":5723:5725   */\n  0x20\n    /* \"#utility.yul\":5712:5721   */\n  dup3\n    /* \"#utility.yul\":5708:5726   */\n  add\n    /* \"#utility.yul\":5700:5726   */\n  swap1\n  pop\n    /* \"#utility.yul\":5736:5807   */\n  tag_143\n    /* \"#utility.yul\":5804:5805   */\n  0x00\n    /* \"#utility.yul\":5793:5802   */\n  dup4\n    /* \"#utility.yul\":5789:5806   */\n  add\n    /* \"#utility.yul\":5780:5786   */\n  dup5\n    /* \"#utility.yul\":5736:5807   */\n  tag_71\n  jump\t// in\ntag_143:\n    /* \"#utility.yul\":5592:5814   */\n  swap3\n  swap2\n  pop\n  pop\n  jump\t// out\n    /* \"#utility.yul\":5820:6000   */\ntag_72:\n    /* \"#utility.yul\":5868:5945   */\n  0x4e487b7100000000000000000000000000000000000000000000000000000000\n    /* \"#utility.yul\":5865:5866   */\n  0x00\n    /* \"#utility.yul\":5858:5946   */\n  mstore\n    /* \"#utility.yul\":5965:5969   */\n  0x11\n    /* \"#utility.yul\":5962:5963   */\n  0x04\n    /* \"#utility.yul\":5955:5970   */\n  mstore\n    /* \"#utility.yul\":5989:5993   */\n  0x24\n    /* \"#utility.yul\":5986:5987   */\n  0x00\n    /* \"#utility.yul\":5979:5994   */\n  revert\n    /* \"#utility.yul\":6006:6416   */\ntag_20:\n    /* \"#utility.yul\":6046:6053   */\n  0x00\n    /* \"#utility.yul\":6069:6089   */\n  tag_146\n    /* \"#utility.yul\":6087:6088   */\n  dup3\n    /* \"#utility.yul\":6069:6089   */\n  tag_57\n  jump\t// in\ntag_146:\n    /* \"#utility.yul\":6064:6089   */\n  swap2\n  pop\n    /* \"#utility.yul\":6103:6123   */\n  tag_147\n    /* \"#utility.yul\":6121:6122   */\n  dup4\n    /* \"#utility.yul\":6103:6123   */\n  tag_57\n  jump\t// in\ntag_147:\n    /* \"#utility.yul\":6098:6123   */\n  swap3\n  pop\n    /* \"#utility.yul\":6158:6159   */\n  dup3\n    /* \"#utility.yul\":6155:6156   */\n  dup3\n    /* \"#utility.yul\":6151:6160   */\n  mul\n    /* \"#utility.yul\":6180:6210   */\n  tag_148\n    /* \"#utility.yul\":6198:6209   */\n  dup2\n    /* \"#utility.yul\":6180:6210   */\n  tag_57\n  jump\t// in\ntag_148:\n    /* \"#utility.yul\":6169:6210   */\n  swap2\n  pop\n    /* \"#utility.yul\":6359:6360   */\n  dup3\n    /* \"#utility.yul\":6350:6357   */\n  dup3\n    /* \"#utility.yul\":6346:6361   */\n  div\n    /* \"#utility.yul\":6343:6344   */\n  dup5\n    /* \"#utility.yul\":6340:6362   */\n  eq\n    /* \"#utility.yul\":6320:6321   */\n  dup4\n    /* \"#utility.yul\":6313:6322   */\n  iszero\n    /* \"#utility.yul\":6293:6376   */\n  or\n    /* \"#utility.yul\":6270:6409   */\n  tag_149\n  jumpi\n    /* \"#utility.yul\":6389:6407   */\n  tag_150\n  tag_72\n  jump\t// in\ntag_150:\n    /* \"#utility.yul\":6270:6409   */\ntag_149:\n    /* \"#utility.yul\":6054:6416   */\n  pop\n    /* \"#utility.yul\":6006:6416   */\n  swap3\n  swap2\n  pop\n  pop\n  jump\t// out\n    /* \"#utility.yul\":6422:6602   */\ntag_73:\n    /* \"#utility.yul\":6470:6547   */\n  0x4e487b7100000000000000000000000000000000000000000000000000000000\n    /* \"#utility.yul\":6467:6468   */\n  0x00\n    /* \"#utility.yul\":6460:6548   */\n  mstore\n    /* \"#utility.yul\":6567:6571   */\n  0x12\n    /* \"#utility.yul\":6564:6565   */\n  0x04\n    /* \"#utility.yul\":6557:6572   */\n  mstore\n    /* \"#utility.yul\":6591:6595   */\n  0x24\n    /* \"#utility.yul\":6588:6589   */\n  0x00\n    /* \"#utility.yul\":6581:6596   */\n  revert\n    /* \"#utility.yul\":6608:6793   */\ntag_22:\n    /* \"#utility.yul\":6648:6649   */\n  0x00\n    /* \"#utility.yul\":6665:6685   */\n  tag_153\n    /* \"#utility.yul\":6683:6684   */\n  dup3\n    /* \"#utility.yul\":6665:6685   */\n  tag_57\n  jump\t// in\ntag_153:\n    /* \"#utility.yul\":6660:6685   */\n  swap2\n  pop\n    /* \"#utility.yul\":6699:6719   */\n  tag_154\n    /* \"#utility.yul\":6717:6718   */\n  dup4\n    /* \"#utility.yul\":6699:6719   */\n  tag_57\n  jump\t// in\ntag_154:\n    /* \"#utility.yul\":6694:6719   */\n  swap3\n  pop\n    /* \"#utility.yul\":6738:6739   */\n  dup3\n    /* \"#utility.yul\":6728:6763   */\n  tag_155\n  jumpi\n    /* \"#utility.yul\":6743:6761   */\n  tag_156\n  tag_73\n  jump\t// in\ntag_156:\n    /* \"#utility.yul\":6728:6763   */\ntag_155:\n    /* \"#utility.yul\":6785:6786   */\n  dup3\n    /* \"#utility.yul\":6782:6783   */\n  dup3\n    /* \"#utility.yul\":6778:6787   */\n  div\n    /* \"#utility.yul\":6773:6787   */\n  swap1\n  pop\n    /* \"#utility.yul\":6608:6793   */\n  swap3\n  swap2\n  pop\n  pop\n  jump\t// out\n    /* \"#utility.yul\":6799:6990   */\ntag_40:\n    /* \"#utility.yul\":6839:6842   */\n  0x00\n    /* \"#utility.yul\":6858:6878   */\n  tag_158\n    /* \"#utility.yul\":6876:6877   */\n  dup3\n    /* \"#utility.yul\":6858:6878   */\n  tag_57\n  jump\t// in\ntag_158:\n    /* \"#utility.yul\":6853:6878   */\n  swap2\n  pop\n    /* \"#utility.yul\":6892:6912   */\n  tag_159\n    /* \"#utility.yul\":6910:6911   */\n  dup4\n    /* \"#utility.yul\":6892:6912   */\n  tag_57\n  jump\t// in\ntag_159:\n    /* \"#utility.yul\":6887:6912   */\n  swap3\n  pop\n    /* \"#utility.yul\":6935:6936   */\n  dup3\n    /* \"#utility.yul\":6932:6933   */\n  dup3\n    /* \"#utility.yul\":6928:6937   */\n  add\n    /* \"#utility.yul\":6921:6937   */\n  swap1\n  pop\n    /* \"#utility.yul\":6956:6959   */\n  dup1\n    /* \"#utility.yul\":6953:6954   */\n  dup3\n    /* \"#utility.yul\":6950:6960   */\n  gt\n    /* \"#utility.yul\":6947:6983   */\n  iszero\n  tag_160\n  jumpi\n    /* \"#utility.yul\":6963:6981   */\n  tag_161\n  tag_72\n  jump\t// in\ntag_161:\n    /* \"#utility.yul\":6947:6983   */\ntag_160:\n    /* \"#utility.yul\":6799:6990   */\n  swap3\n  swap2\n  pop\n  pop\n  jump\t// out\n    /* \"#utility.yul\":6996:7114   */\ntag_74:\n    /* \"#utility.yul\":7083:7107   */\n  tag_163\n    /* \"#utility.yul\":7101:7106   */\n  dup2\n    /* \"#utility.yul\":7083:7107   */\n  tag_57\n  jump\t// in\ntag_163:\n    /* \"#utility.yul\":7078:7081   */\n  dup3\n    /* \"#utility.yul\":7071:7108   */\n  mstore\n    /* \"#utility.yul\":6996:7114   */\n  pop\n  pop\n  jump\t// out\n    /* \"#utility.yul\":7120:7562   */\ntag_44:\n    /* \"#utility.yul\":7269:7273   */\n  0x00\n    /* \"#utility.yul\":7307:7309   */\n  0x60\n    /* \"#utility.yul\":7296:7305   */\n  dup3\n    /* \"#utility.yul\":7292:7310   */\n  add\n    /* \"#utility.yul\":7284:7310   */\n  swap1\n  pop\n    /* \"#utility.yul\":7320:7391   */\n  tag_165\n    /* \"#utility.yul\":7388:7389   */\n  0x00\n    /* \"#utility.yul\":7377:7386   */\n  dup4\n    /* \"#utility.yul\":7373:7390   */\n  add\n    /* \"#utility.yul\":7364:7370   */\n  dup7\n    /* \"#utility.yul\":7320:7391   */\n  tag_71\n  jump\t// in\ntag_165:\n    /* \"#utility.yul\":7401:7473   */\n  tag_166\n    /* \"#utility.yul\":7469:7471   */\n  0x20\n    /* \"#utility.yul\":7458:7467   */\n  dup4\n    /* \"#utility.yul\":7454:7472   */\n  add\n    /* \"#utility.yul\":7445:7451   */\n  dup6\n    /* \"#utility.yul\":7401:7473   */\n  tag_74\n  jump\t// in\ntag_166:\n    /* \"#utility.yul\":7483:7555   */\n  tag_167\n    /* \"#utility.yul\":7551:7553   */\n  0x40\n    /* \"#utility.yul\":7540:7549   */\n  dup4\n    /* \"#utility.yul\":7536:7554   */\n  add\n    /* \"#utility.yul\":7527:7533   */\n  dup5\n    /* \"#utility.yul\":7483:7555   */\n  tag_74\n  jump\t// in\ntag_167:\n    /* \"#utility.yul\":7120:7562   */\n  swap5\n  swap4\n  pop\n  pop\n  pop\n  pop\n  jump\t// out\n    /* \"#utility.yul\":7568:7790   */\ntag_48:\n    /* \"#utility.yul\":7661:7665   */\n  0x00\n    /* \"#utility.yul\":7699:7701   */\n  0x20\n    /* \"#utility.yul\":7688:7697   */\n  dup3\n    /* \"#utility.yul\":7684:7702   */\n  add\n    /* \"#utility.yul\":7676:7702   */\n  swap1\n  pop\n    /* \"#utility.yul\":7712:7783   */\n  tag_169\n    /* \"#utility.yul\":7780:7781   */\n  0x00\n    /* \"#utility.yul\":7769:7778   */\n  dup4\n    /* \"#utility.yul\":7765:7782   */\n  add\n    /* \"#utility.yul\":7756:7762   */\n  dup5\n    /* \"#utility.yul\":7712:7783   */\n  tag_74\n  jump\t// in\ntag_169:\n    /* \"#utility.yul\":7568:7790   */\n  swap3\n  swap2\n  pop\n  pop\n  jump\t// out\n    /* \"contracts/GeckoGold_flattened.sol\":28099:34685  contract GeckoGold is ERC20, Ownable, ReentrancyGuard {... */\ntag_30:\n  dataSize(sub_0)\n  dup1\n  dataOffset(sub_0)\n  0x00\n  codecopy\n  0x00\n  return\nstop\n\nsub_0: assembly {\n        /* \"contracts/GeckoGold_flattened.sol\":28099:34685  contract GeckoGold is ERC20, Ownable, ReentrancyGuard {... */\n      mstore(0x40, 0x80)\n      callvalue\n      dup1\n      iszero\n      tag_1\n      jumpi\n      0x00\n      dup1\n      revert\n    tag_1:\n      pop\n      jumpi(tag_2, lt(calldatasize, 0x04))\n      shr(0xe0, calldataload(0x00))\n      dup1\n      0x8456cb59\n      gt\n      tag_39\n      jumpi\n      dup1\n      0xb88a802f\n      gt\n      tag_40\n      jumpi\n      dup1\n      0xdd62ed3e\n      gt\n      tag_41\n      jumpi\n      dup1\n      0xdd62ed3e\n      eq\n      tag_34\n      jumpi\n      dup1\n      0xe3d670d7\n      eq\n      tag_35\n      jumpi\n      dup1\n      0xe43252d7\n      eq\n      tag_36\n      jumpi\n      dup1\n      0xf2fde38b\n      eq\n      tag_37\n      jumpi\n      dup1\n      0xfc1b3113\n      eq\n      tag_38\n      jumpi\n      jump(tag_2)\n    tag_41:\n      dup1\n      0xb88a802f\n      eq\n      tag_30\n      jumpi\n      dup1\n      0xc6d69a30\n      eq\n      tag_31\n      jumpi\n      dup1\n      0xd595c331\n      eq\n      tag_32\n      jumpi\n      dup1\n      0xd798cbd2\n      eq\n      tag_33\n      jumpi\n      jump(tag_2)\n    tag_40:\n      dup1\n      0x8fa81732\n      gt\n      tag_42\n      jumpi\n      dup1\n      0x8fa81732\n      eq\n      tag_25\n      jumpi\n      dup1\n      0x902d55a5\n      eq\n      tag_26\n      jumpi\n      dup1\n      0x95d89b41\n      eq\n      tag_27\n      jumpi\n      dup1\n      0xa9059cbb\n      eq\n      tag_28\n      jumpi\n      dup1\n      0xaabd801d\n      eq\n      tag_29\n      jumpi\n      jump(tag_2)\n    tag_42:\n      dup1\n      0x8456cb59\n      eq\n      tag_21\n      jumpi\n      dup1\n      0x8a8c523c\n      eq\n      tag_22\n      jumpi\n      dup1\n      0x8ab1d681\n      eq\n      tag_23\n      jumpi\n      dup1\n      0x8da5cb5b\n      eq\n      tag_24\n      jumpi\n      jump(tag_2)\n    tag_39:\n      dup1\n      0x42966c68\n      gt\n      tag_43\n      jumpi\n      dup1\n      0x5fd8c710\n      gt\n      tag_44\n      jumpi\n      dup1\n      0x5fd8c710\n      eq\n      tag_16\n      jumpi\n      dup1\n      0x70a08231\n      eq\n      tag_17\n      jumpi\n      dup1\n      0x715018a6\n      eq\n      tag_18\n      jumpi\n      dup1\n      0x771a3a1d\n      eq\n      tag_19\n      jumpi\n      dup1\n      0x819edfbc\n      eq\n      tag_20\n      jumpi\n      jump(tag_2)\n    tag_44:\n      dup1\n      0x42966c68\n      eq\n      tag_12\n      jumpi\n      dup1\n      0x4ada218b\n      eq\n      tag_13\n      jumpi\n      dup1\n      0x57376198\n      eq\n      tag_14\n      jumpi\n      dup1\n      0x5c975abb\n      eq\n      tag_15\n      jumpi\n      jump(tag_2)\n    tag_43:\n      dup1\n      0x18160ddd\n      gt\n      tag_45\n      jumpi\n      dup1\n      0x18160ddd\n      eq\n      tag_7\n      jumpi\n      dup1\n      0x23b872dd\n      eq\n      tag_8\n      jumpi\n      dup1\n      0x2576f999\n      eq\n      tag_9\n      jumpi\n      dup1\n      0x313ce567\n      eq\n      tag_10\n      jumpi\n      dup1\n      0x3f4ba83a\n      eq\n      tag_11\n      jumpi\n      jump(tag_2)\n    tag_45:\n      dup1\n      0x06fdde03\n      eq\n      tag_3\n      jumpi\n      dup1\n      0x095ea7b3\n      eq\n      tag_4\n      jumpi\n      dup1\n      0x153b0d1e\n      eq\n      tag_5\n      jumpi\n      dup1\n      0x17386e2c\n      eq\n      tag_6\n      jumpi\n    tag_2:\n      0x00\n      dup1\n      revert\n        /* \"contracts/GeckoGold_flattened.sol\":12679:12768  function name() public view virtual returns (string memory) {... */\n    tag_3:\n      tag_46\n      tag_47\n      jump\t// in\n    tag_46:\n      mload(0x40)\n      tag_48\n      swap2\n      swap1\n      tag_49\n      jump\t// in\n    tag_48:\n      mload(0x40)\n      dup1\n      swap2\n      sub\n      swap1\n      return\n        /* \"contracts/GeckoGold_flattened.sol\":14898:15084  function approve(address spender, uint256 value) public virtual returns (bool) {... */\n    tag_4:\n      tag_50\n      0x04\n      dup1\n      calldatasize\n      sub\n      dup2\n      add\n      swap1\n      tag_51\n      swap2\n      swap1\n      tag_52\n      jump\t// in\n    tag_51:\n      tag_53\n      jump\t// in\n    tag_50:\n      mload(0x40)\n      tag_54\n      swap2\n      swap1\n      tag_55\n      jump\t// in\n    tag_54:\n      mload(0x40)\n      dup1\n      swap2\n      sub\n      swap1\n      return\n        /* \"contracts/GeckoGold_flattened.sol\":29575:29719  function setBlacklist(address _address, bool _isBlacklisted) external onlyOwner {... */\n    tag_5:\n      tag_56\n      0x04\n      dup1\n      calldatasize\n      sub\n      dup2\n      add\n      swap1\n      tag_57\n      swap2\n      swap1\n      tag_58\n      jump\t// in\n    tag_57:\n      tag_59\n      jump\t// in\n    tag_56:\n      stop\n        /* \"contracts/GeckoGold_flattened.sol\":32775:33045  function deductEngagementPoints(address user, uint256 points) external onlyOwner {... */\n    tag_6:\n      tag_60\n      0x04\n      dup1\n      calldatasize\n      sub\n      dup2\n      add\n      swap1\n      tag_61\n      swap2\n      swap1\n      tag_52\n      jump\t// in\n    tag_61:\n      tag_62\n      jump\t// in\n    tag_60:\n      stop\n        /* \"contracts/GeckoGold_flattened.sol\":13749:13846  function totalSupply() public view virtual returns (uint256) {... */\n    tag_7:\n      tag_63\n      tag_64\n      jump\t// in\n    tag_63:\n      mload(0x40)\n      tag_65\n      swap2\n      swap1\n      tag_66\n      jump\t// in\n    tag_65:\n      mload(0x40)\n      dup1\n      swap2\n      sub\n      swap1\n      return\n        /* \"contracts/GeckoGold_flattened.sol\":15676:15920  function transferFrom(address from, address to, uint256 value) public virtual returns (bool) {... */\n    tag_8:\n      tag_67\n      0x04\n      dup1\n      calldatasize\n      sub\n      dup2\n      add\n      swap1\n      tag_68\n      swap2\n      swap1\n      tag_69\n      jump\t// in\n    tag_68:\n      tag_70\n      jump\t// in\n    tag_67:\n      mload(0x40)\n      tag_71\n      swap2\n      swap1\n      tag_55\n      jump\t// in\n    tag_71:\n      mload(0x40)\n      dup1\n      swap2\n      sub\n      swap1\n      return\n        /* \"contracts/GeckoGold_flattened.sol\":28739:28790  mapping(address => uint256) public engagementPoints */\n    tag_9:\n      tag_72\n      0x04\n      dup1\n      calldatasize\n      sub\n      dup2\n      add\n      swap1\n      tag_73\n      swap2\n      swap1\n      tag_74\n      jump\t// in\n    tag_73:\n      tag_75\n      jump\t// in\n    tag_72:\n      mload(0x40)\n      tag_76\n      swap2\n      swap1\n      tag_66\n      jump\t// in\n    tag_76:\n      mload(0x40)\n      dup1\n      swap2\n      sub\n      swap1\n      return\n        /* \"contracts/GeckoGold_flattened.sol\":13607:13689  function decimals() public view virtual returns (uint8) {... */\n    tag_10:\n      tag_77\n      tag_78\n      jump\t// in\n    tag_77:\n      mload(0x40)\n      tag_79\n      swap2\n      swap1\n      tag_80\n      jump\t// in\n    tag_79:\n      mload(0x40)\n      dup1\n      swap2\n      sub\n      swap1\n      return\n        /* \"contracts/GeckoGold_flattened.sol\":34381:34450  function unpause() external onlyOwner {... */\n    tag_11:\n      tag_81\n      tag_82\n      jump\t// in\n    tag_81:\n      stop\n        /* \"contracts/GeckoGold_flattened.sol\":32036:32164  function burn(uint256 amount) external {... */\n    tag_12:\n      tag_83\n      0x04\n      dup1\n      calldatasize\n      sub\n      dup2\n      add\n      swap1\n      tag_84\n      swap2\n      swap1\n      tag_85\n      jump\t// in\n    tag_84:\n      tag_86\n      jump\t// in\n    tag_83:\n      stop\n        /* \"contracts/GeckoGold_flattened.sol\":28887:28921  bool public tradingEnabled = false */\n    tag_13:\n      tag_87\n      tag_88\n      jump\t// in\n    tag_87:\n      mload(0x40)\n      tag_89\n      swap2\n      swap1\n      tag_55\n      jump\t// in\n    tag_89:\n      mload(0x40)\n      dup1\n      swap2\n      sub\n      swap1\n      return\n        /* \"contracts/GeckoGold_flattened.sol\":34138:34266  function rescueTokens(address token, uint256 amount) external onlyOwner {... */\n    tag_14:\n      tag_90\n      0x04\n      dup1\n      calldatasize\n      sub\n      dup2\n      add\n      swap1\n      tag_91\n      swap2\n      swap1\n      tag_52\n      jump\t// in\n    tag_91:\n      tag_92\n      jump\t// in\n    tag_90:\n      stop\n        /* \"contracts/GeckoGold_flattened.sol\":28927:28953  bool public paused = false */\n    tag_15:\n      tag_93\n      tag_94\n      jump\t// in\n    tag_93:\n      mload(0x40)\n      tag_95\n      swap2\n      swap1\n      tag_55\n      jump\t// in\n    tag_95:\n      mload(0x40)\n      dup1\n      swap2\n      sub\n      swap1\n      return\n        /* \"contracts/GeckoGold_flattened.sol\":33966:34090  function withdrawBalance() external onlyOwner nonReentrant {... */\n    tag_16:\n      tag_96\n      tag_97\n      jump\t// in\n    tag_96:\n      stop\n        /* \"contracts/GeckoGold_flattened.sol\":13904:14020  function balanceOf(address account) public view virtual returns (uint256) {... */\n    tag_17:\n      tag_98\n      0x04\n      dup1\n      calldatasize\n      sub\n      dup2\n      add\n      swap1\n      tag_99\n      swap2\n      swap1\n      tag_74\n      jump\t// in\n    tag_99:\n      tag_100\n      jump\t// in\n    tag_98:\n      mload(0x40)\n      tag_101\n      swap2\n      swap1\n      tag_66\n      jump\t// in\n    tag_101:\n      mload(0x40)\n      dup1\n      swap2\n      sub\n      swap1\n      return\n        /* \"contracts/GeckoGold_flattened.sol\":24065:24166  function renounceOwnership() public virtual onlyOwner {... */\n    tag_18:\n      tag_102\n      tag_103\n      jump\t// in\n    tag_102:\n      stop\n        /* \"contracts/GeckoGold_flattened.sol\":28294:28320  uint256 public taxRate = 2 */\n    tag_19:\n      tag_104\n      tag_105\n      jump\t// in\n    tag_104:\n      mload(0x40)\n      tag_106\n      swap2\n      swap1\n      tag_66\n      jump\t// in\n    tag_106:\n      mload(0x40)\n      dup1\n      swap2\n      sub\n      swap1\n      return\n        /* \"contracts/GeckoGold_flattened.sol\":28525:28578  uint256 public constant MAX_ENGAGEMENT_POINTS = 10000 */\n    tag_20:\n      tag_107\n      tag_108\n      jump\t// in\n    tag_107:\n      mload(0x40)\n      tag_109\n      swap2\n      swap1\n      tag_66\n      jump\t// in\n    tag_109:\n      mload(0x40)\n      dup1\n      swap2\n      sub\n      swap1\n      return\n        /* \"contracts/GeckoGold_flattened.sol\":34309:34375  function pause() external onlyOwner {... */\n    tag_21:\n      tag_110\n      tag_111\n      jump\t// in\n    tag_110:\n      stop\n        /* \"contracts/GeckoGold_flattened.sol\":30737:30861  function enableTrading() external onlyOwner {... */\n    tag_22:\n      tag_112\n      tag_113\n      jump\t// in\n    tag_112:\n      stop\n        /* \"contracts/GeckoGold_flattened.sol\":31069:31188  function removeFromWhitelist(address _address) external onlyOwner {... */\n    tag_23:\n      tag_114\n      0x04\n      dup1\n      calldatasize\n      sub\n      dup2\n      add\n      swap1\n      tag_115\n      swap2\n      swap1\n      tag_74\n      jump\t// in\n    tag_115:\n      tag_116\n      jump\t// in\n    tag_114:\n      stop\n        /* \"contracts/GeckoGold_flattened.sol\":23410:23495  function owner() public view virtual returns (address) {... */\n    tag_24:\n      tag_117\n      tag_118\n      jump\t// in\n    tag_117:\n      mload(0x40)\n      tag_119\n      swap2\n      swap1\n      tag_120\n      jump\t// in\n    tag_119:\n      mload(0x40)\n      dup1\n      swap2\n      sub\n      swap1\n      return\n        /* \"contracts/GeckoGold_flattened.sol\":28336:28377  uint256 public constant MAX_TAX_RATE = 10 */\n    tag_25:\n      tag_121\n      tag_122\n      jump\t// in\n    tag_121:\n      mload(0x40)\n      tag_123\n      swap2\n      swap1\n      tag_66\n      jump\t// in\n    tag_123:\n      mload(0x40)\n      dup1\n      swap2\n      sub\n      swap1\n      return\n        /* \"contracts/GeckoGold_flattened.sol\":28222:28287  uint256 public constant TOTAL_SUPPLY = 420_690_000_000 * 10 ** 18 */\n    tag_26:\n      tag_124\n      tag_125\n      jump\t// in\n    tag_124:\n      mload(0x40)\n      tag_126\n      swap2\n      swap1\n      tag_66\n      jump\t// in\n    tag_126:\n      mload(0x40)\n      dup1\n      swap2\n      sub\n      swap1\n      return\n        /* \"contracts/GeckoGold_flattened.sol\":12881:12974  function symbol() public view virtual returns (string memory) {... */\n    tag_27:\n      tag_127\n      tag_128\n      jump\t// in\n    tag_127:\n      mload(0x40)\n      tag_129\n      swap2\n      swap1\n      tag_49\n      jump\t// in\n    tag_129:\n      mload(0x40)\n      dup1\n      swap2\n      sub\n      swap1\n      return\n        /* \"contracts/GeckoGold_flattened.sol\":31461:31965  function transfer(address recipient, uint256 amount) public override notBlacklisted(msg.sender) tradingGuard(msg.sender) whenNotPaused noSelfTransfer(recipient) returns (bool) {... */\n    tag_28:\n      tag_130\n      0x04\n      dup1\n      calldatasize\n      sub\n      dup2\n      add\n      swap1\n      tag_131\n      swap2\n      swap1\n      tag_52\n      jump\t// in\n    tag_131:\n      tag_132\n      jump\t// in\n    tag_130:\n      mload(0x40)\n      tag_133\n      swap2\n      swap1\n      tag_55\n      jump\t// in\n    tag_133:\n      mload(0x40)\n      dup1\n      swap2\n      sub\n      swap1\n      return\n        /* \"contracts/GeckoGold_flattened.sol\":32415:32725  function updateEngagementPoints(address user, uint256 points) external onlyOwner {... */\n    tag_29:\n      tag_134\n      0x04\n      dup1\n      calldatasize\n      sub\n      dup2\n      add\n      swap1\n      tag_135\n      swap2\n      swap1\n      tag_52\n      jump\t// in\n    tag_135:\n      tag_136\n      jump\t// in\n    tag_134:\n      stop\n        /* \"contracts/GeckoGold_flattened.sol\":33111:33705  function claimReward() external whenNotPaused notBlacklisted(msg.sender) cooldownPeriod(msg.sender) {... */\n    tag_30:\n      tag_137\n      tag_138\n      jump\t// in\n    tag_137:\n      stop\n        /* \"contracts/GeckoGold_flattened.sol\":31221:31396  function setTaxRate(uint256 newTaxRate) external onlyOwner {... */\n    tag_31:\n      tag_139\n      0x04\n      dup1\n      calldatasize\n      sub\n      dup2\n      add\n      swap1\n      tag_140\n      swap2\n      swap1\n      tag_85\n      jump\t// in\n    tag_140:\n      tag_141\n      jump\t// in\n    tag_139:\n      stop\n        /* \"contracts/GeckoGold_flattened.sol\":32227:32365  function burnSupply(uint256 amount) external onlyOwner {... */\n    tag_32:\n      tag_142\n      0x04\n      dup1\n      calldatasize\n      sub\n      dup2\n      add\n      swap1\n      tag_143\n      swap2\n      swap1\n      tag_85\n      jump\t// in\n    tag_143:\n      tag_144\n      jump\t// in\n    tag_142:\n      stop\n        /* \"contracts/GeckoGold_flattened.sol\":28849:28881  uint256 public tradingStartBlock */\n    tag_33:\n      tag_145\n      tag_146\n      jump\t// in\n    tag_145:\n      mload(0x40)\n      tag_147\n      swap2\n      swap1\n      tag_66\n      jump\t// in\n    tag_147:\n      mload(0x40)\n      dup1\n      swap2\n      sub\n      swap1\n      return\n        /* \"contracts/GeckoGold_flattened.sol\":14451:14591  function allowance(address owner, address spender) public view virtual returns (uint256) {... */\n    tag_34:\n      tag_148\n      0x04\n      dup1\n      calldatasize\n      sub\n      dup2\n      add\n      swap1\n      tag_149\n      swap2\n      swap1\n      tag_150\n      jump\t// in\n    tag_149:\n      tag_151\n      jump\t// in\n    tag_148:\n      mload(0x40)\n      tag_152\n      swap2\n      swap1\n      tag_66\n      jump\t// in\n    tag_152:\n      mload(0x40)\n      dup1\n      swap2\n      sub\n      swap1\n      return\n        /* \"contracts/GeckoGold_flattened.sol\":33766:33874  function balance(address account) external view returns (uint256) {... */\n    tag_35:\n      tag_153\n      0x04\n      dup1\n      calldatasize\n      sub\n      dup2\n      add\n      swap1\n      tag_154\n      swap2\n      swap1\n      tag_74\n      jump\t// in\n    tag_154:\n      tag_155\n      jump\t// in\n    tag_153:\n      mload(0x40)\n      tag_156\n      swap2\n      swap1\n      tag_66\n      jump\t// in\n    tag_156:\n      mload(0x40)\n      dup1\n      swap2\n      sub\n      swap1\n      return\n        /* \"contracts/GeckoGold_flattened.sol\":30906:31019  function addToWhitelist(address _address) external onlyOwner {... */\n    tag_36:\n      tag_157\n      0x04\n      dup1\n      calldatasize\n      sub\n      dup2\n      add\n      swap1\n      tag_158\n      swap2\n      swap1\n      tag_74\n      jump\t// in\n    tag_158:\n      tag_159\n      jump\t// in\n    tag_157:\n      stop\n        /* \"contracts/GeckoGold_flattened.sol\":24315:24530  function transferOwnership(address newOwner) public virtual onlyOwner {... */\n    tag_37:\n      tag_160\n      0x04\n      dup1\n      calldatasize\n      sub\n      dup2\n      add\n      swap1\n      tag_161\n      swap2\n      swap1\n      tag_74\n      jump\t// in\n    tag_161:\n      tag_162\n      jump\t// in\n    tag_160:\n      stop\n        /* \"contracts/GeckoGold_flattened.sol\":28417:28483  uint256 public constant MAX_TRANSFER_AMOUNT = 1_000_000 * 10 ** 18 */\n    tag_38:\n      tag_163\n      tag_164\n      jump\t// in\n    tag_163:\n      mload(0x40)\n      tag_165\n      swap2\n      swap1\n      tag_66\n      jump\t// in\n    tag_165:\n      mload(0x40)\n      dup1\n      swap2\n      sub\n      swap1\n      return\n        /* \"contracts/GeckoGold_flattened.sol\":12679:12768  function name() public view virtual returns (string memory) {... */\n    tag_47:\n        /* \"contracts/GeckoGold_flattened.sol\":12724:12737  string memory */\n      0x60\n        /* \"contracts/GeckoGold_flattened.sol\":12756:12761  _name */\n      0x03\n        /* \"contracts/GeckoGold_flattened.sol\":12749:12761  return _name */\n      dup1\n      sload\n      tag_167\n      swap1\n      tag_168\n      jump\t// in\n    tag_167:\n      dup1\n      0x1f\n      add\n      0x20\n      dup1\n      swap2\n      div\n      mul\n      0x20\n      add\n      mload(0x40)\n      swap1\n      dup2\n      add\n      0x40\n      mstore\n      dup1\n      swap3\n      swap2\n      swap1\n      dup2\n      dup2\n      mstore\n      0x20\n      add\n      dup3\n      dup1\n      sload\n      tag_169\n      swap1\n      tag_168\n      jump\t// in\n    tag_169:\n      dup1\n      iszero\n      tag_170\n      jumpi\n      dup1\n      0x1f\n      lt\n      tag_171\n      jumpi\n      0x0100\n      dup1\n      dup4\n      sload\n      div\n      mul\n      dup4\n      mstore\n      swap2\n      0x20\n      add\n      swap2\n      jump(tag_170)\n    tag_171:\n      dup3\n      add\n      swap2\n      swap1\n      0x00\n      mstore\n      keccak256(0x00, 0x20)\n      swap1\n    tag_172:\n      dup2\n      sload\n      dup2\n      mstore\n      swap1\n      0x01\n      add\n      swap1\n      0x20\n      add\n      dup1\n      dup4\n      gt\n      tag_172\n      jumpi\n      dup3\n      swap1\n      sub\n      0x1f\n      and\n      dup3\n      add\n      swap2\n    tag_170:\n      pop\n      pop\n      pop\n      pop\n      pop\n      swap1\n      pop\n        /* \"contracts/GeckoGold_flattened.sol\":12679:12768  function name() public view virtual returns (string memory) {... */\n      swap1\n      jump\t// out\n        /* \"contracts/GeckoGold_flattened.sol\":14898:15084  function approve(address spender, uint256 value) public virtual returns (bool) {... */\n    tag_53:\n        /* \"contracts/GeckoGold_flattened.sol\":14971:14975  bool */\n      0x00\n        /* \"contracts/GeckoGold_flattened.sol\":14987:15000  address owner */\n      dup1\n        /* \"contracts/GeckoGold_flattened.sol\":15003:15015  _msgSender() */\n      tag_174\n        /* \"contracts/GeckoGold_flattened.sol\":15003:15013  _msgSender */\n      tag_175\n        /* \"contracts/GeckoGold_flattened.sol\":15003:15015  _msgSender() */\n      jump\t// in\n    tag_174:\n        /* \"contracts/GeckoGold_flattened.sol\":14987:15015  address owner = _msgSender() */\n      swap1\n      pop\n        /* \"contracts/GeckoGold_flattened.sol\":15025:15056  _approve(owner, spender, value) */\n      tag_176\n        /* \"contracts/GeckoGold_flattened.sol\":15034:15039  owner */\n      dup2\n        /* \"contracts/GeckoGold_flattened.sol\":15041:15048  spender */\n      dup6\n        /* \"contracts/GeckoGold_flattened.sol\":15050:15055  value */\n      dup6\n        /* \"contracts/GeckoGold_flattened.sol\":15025:15033  _approve */\n      tag_177\n        /* \"contracts/GeckoGold_flattened.sol\":15025:15056  _approve(owner, spender, value) */\n      jump\t// in\n    tag_176:\n        /* \"contracts/GeckoGold_flattened.sol\":15073:15077  true */\n      0x01\n        /* \"contracts/GeckoGold_flattened.sol\":15066:15077  return true */\n      swap2\n      pop\n      pop\n        /* \"contracts/GeckoGold_flattened.sol\":14898:15084  function approve(address spender, uint256 value) public virtual returns (bool) {... */\n      swap3\n      swap2\n      pop\n      pop\n      jump\t// out\n        /* \"contracts/GeckoGold_flattened.sol\":29575:29719  function setBlacklist(address _address, bool _isBlacklisted) external onlyOwner {... */\n    tag_59:\n        /* \"contracts/GeckoGold_flattened.sol\":23303:23316  _checkOwner() */\n      tag_179\n        /* \"contracts/GeckoGold_flattened.sol\":23303:23314  _checkOwner */\n      tag_180\n        /* \"contracts/GeckoGold_flattened.sol\":23303:23316  _checkOwner() */\n      jump\t// in\n    tag_179:\n        /* \"contracts/GeckoGold_flattened.sol\":29698:29712  _isBlacklisted */\n      dup1\n        /* \"contracts/GeckoGold_flattened.sol\":29665:29685  blacklistedAddresses */\n      0x08\n        /* \"contracts/GeckoGold_flattened.sol\":29665:29695  blacklistedAddresses[_address] */\n      0x00\n        /* \"contracts/GeckoGold_flattened.sol\":29686:29694  _address */\n      dup5\n        /* \"contracts/GeckoGold_flattened.sol\":29665:29695  blacklistedAddresses[_address] */\n      0xffffffffffffffffffffffffffffffffffffffff\n      and\n      0xffffffffffffffffffffffffffffffffffffffff\n      and\n      dup2\n      mstore\n      0x20\n      add\n      swap1\n      dup2\n      mstore\n      0x20\n      add\n      0x00\n      keccak256\n      0x00\n        /* \"contracts/GeckoGold_flattened.sol\":29665:29712  blacklistedAddresses[_address] = _isBlacklisted */\n      0x0100\n      exp\n      dup2\n      sload\n      dup2\n      0xff\n      mul\n      not\n      and\n      swap1\n      dup4\n      iszero\n      iszero\n      mul\n      or\n      swap1\n      sstore\n      pop\n        /* \"contracts/GeckoGold_flattened.sol\":29575:29719  function setBlacklist(address _address, bool _isBlacklisted) external onlyOwner {... */\n      pop\n      pop\n      jump\t// out\n        /* \"contracts/GeckoGold_flattened.sol\":32775:33045  function deductEngagementPoints(address user, uint256 points) external onlyOwner {... */\n    tag_62:\n        /* \"contracts/GeckoGold_flattened.sol\":23303:23316  _checkOwner() */\n      tag_183\n        /* \"contracts/GeckoGold_flattened.sol\":23303:23314  _checkOwner */\n      tag_180\n        /* \"contracts/GeckoGold_flattened.sol\":23303:23316  _checkOwner() */\n      jump\t// in\n    tag_183:\n        /* \"contracts/GeckoGold_flattened.sol\":32900:32906  points */\n      dup1\n        /* \"contracts/GeckoGold_flattened.sol\":32874:32890  engagementPoints */\n      0x0a\n        /* \"contracts/GeckoGold_flattened.sol\":32874:32896  engagementPoints[user] */\n      0x00\n        /* \"contracts/GeckoGold_flattened.sol\":32891:32895  user */\n      dup5\n        /* \"contracts/GeckoGold_flattened.sol\":32874:32896  engagementPoints[user] */\n      0xffffffffffffffffffffffffffffffffffffffff\n      and\n      0xffffffffffffffffffffffffffffffffffffffff\n      and\n      dup2\n      mstore\n      0x20\n      add\n      swap1\n      dup2\n      mstore\n      0x20\n      add\n      0x00\n      keccak256\n      sload\n        /* \"contracts/GeckoGold_flattened.sol\":32874:32906  engagementPoints[user] >= points */\n      lt\n      iszero\n        /* \"contracts/GeckoGold_flattened.sol\":32866:32928  require(engagementPoints[user] >= points, \"Not enough points\") */\n      tag_185\n      jumpi\n      mload(0x40)\n      0x08c379a000000000000000000000000000000000000000000000000000000000\n      dup2\n      mstore\n      0x04\n      add\n      tag_186\n      swap1\n      tag_187\n      jump\t// in\n    tag_186:\n      mload(0x40)\n      dup1\n      swap2\n      sub\n      swap1\n      revert\n    tag_185:\n        /* \"contracts/GeckoGold_flattened.sol\":32964:32970  points */\n      dup1\n        /* \"contracts/GeckoGold_flattened.sol\":32938:32954  engagementPoints */\n      0x0a\n        /* \"contracts/GeckoGold_flattened.sol\":32938:32960  engagementPoints[user] */\n      0x00\n        /* \"contracts/GeckoGold_flattened.sol\":32955:32959  user */\n      dup5\n        /* \"contracts/GeckoGold_flattened.sol\":32938:32960  engagementPoints[user] */\n      0xffffffffffffffffffffffffffffffffffffffff\n      and\n      0xffffffffffffffffffffffffffffffffffffffff\n      and\n      dup2\n      mstore\n      0x20\n      add\n      swap1\n      dup2\n      mstore\n      0x20\n      add\n      0x00\n      keccak256\n      0x00\n        /* \"contracts/GeckoGold_flattened.sol\":32938:32970  engagementPoints[user] -= points */\n      dup3\n      dup3\n      sload\n      tag_188\n      swap2\n      swap1\n      tag_189\n      jump\t// in\n    tag_188:\n      swap3\n      pop\n      pop\n      dup2\n      swap1\n      sstore\n      pop\n        /* \"contracts/GeckoGold_flattened.sol\":33009:33013  user */\n      dup2\n        /* \"contracts/GeckoGold_flattened.sol\":32985:33038  EngagementPointsUpdated(user, engagementPoints[user]) */\n      0xffffffffffffffffffffffffffffffffffffffff\n      and\n      0x40547f371cf37574d1a01eeeb1593f8db1a3e44286bba3b92cf2867707c9e473\n        /* \"contracts/GeckoGold_flattened.sol\":33015:33031  engagementPoints */\n      0x0a\n        /* \"contracts/GeckoGold_flattened.sol\":33015:33037  engagementPoints[user] */\n      0x00\n        /* \"contracts/GeckoGold_flattened.sol\":33032:33036  user */\n      dup6\n        /* \"contracts/GeckoGold_flattened.sol\":33015:33037  engagementPoints[user] */\n      0xffffffffffffffffffffffffffffffffffffffff\n      and\n      0xffffffffffffffffffffffffffffffffffffffff\n      and\n      dup2\n      mstore\n      0x20\n      add\n      swap1\n      dup2\n      mstore\n      0x20\n      add\n      0x00\n      keccak256\n      sload\n        /* \"contracts/GeckoGold_flattened.sol\":32985:33038  EngagementPointsUpdated(user, engagementPoints[user]) */\n      mload(0x40)\n      tag_190\n      swap2\n      swap1\n      tag_66\n      jump\t// in\n    tag_190:\n      mload(0x40)\n      dup1\n      swap2\n      sub\n      swap1\n      log2\n        /* \"contracts/GeckoGold_flattened.sol\":32775:33045  function deductEngagementPoints(address user, uint256 points) external onlyOwner {... */\n      pop\n      pop\n      jump\t// out\n        /* \"contracts/GeckoGold_flattened.sol\":13749:13846  function totalSupply() public view virtual returns (uint256) {... */\n    tag_64:\n        /* \"contracts/GeckoGold_flattened.sol\":13801:13808  uint256 */\n      0x00\n        /* \"contracts/GeckoGold_flattened.sol\":13827:13839  _totalSupply */\n      sload(0x02)\n        /* \"contracts/GeckoGold_flattened.sol\":13820:13839  return _totalSupply */\n      swap1\n      pop\n        /* \"contracts/GeckoGold_flattened.sol\":13749:13846  function totalSupply() public view virtual returns (uint256) {... */\n      swap1\n      jump\t// out\n        /* \"contracts/GeckoGold_flattened.sol\":15676:15920  function transferFrom(address from, address to, uint256 value) public virtual returns (bool) {... */\n    tag_70:\n        /* \"contracts/GeckoGold_flattened.sol\":15763:15767  bool */\n      0x00\n        /* \"contracts/GeckoGold_flattened.sol\":15779:15794  address spender */\n      dup1\n        /* \"contracts/GeckoGold_flattened.sol\":15797:15809  _msgSender() */\n      tag_193\n        /* \"contracts/GeckoGold_flattened.sol\":15797:15807  _msgSender */\n      tag_175\n        /* \"contracts/GeckoGold_flattened.sol\":15797:15809  _msgSender() */\n      jump\t// in\n    tag_193:\n        /* \"contracts/GeckoGold_flattened.sol\":15779:15809  address spender = _msgSender() */\n      swap1\n      pop\n        /* \"contracts/GeckoGold_flattened.sol\":15819:15856  _spendAllowance(from, spender, value) */\n      tag_194\n        /* \"contracts/GeckoGold_flattened.sol\":15835:15839  from */\n      dup6\n        /* \"contracts/GeckoGold_flattened.sol\":15841:15848  spender */\n      dup3\n        /* \"contracts/GeckoGold_flattened.sol\":15850:15855  value */\n      dup6\n        /* \"contracts/GeckoGold_flattened.sol\":15819:15834  _spendAllowance */\n      tag_195\n        /* \"contracts/GeckoGold_flattened.sol\":15819:15856  _spendAllowance(from, spender, value) */\n      jump\t// in\n    tag_194:\n        /* \"contracts/GeckoGold_flattened.sol\":15866:15892  _transfer(from, to, value) */\n      tag_196\n        /* \"contracts/GeckoGold_flattened.sol\":15876:15880  from */\n      dup6\n        /* \"contracts/GeckoGold_flattened.sol\":15882:15884  to */\n      dup6\n        /* \"contracts/GeckoGold_flattened.sol\":15886:15891  value */\n      dup6\n        /* \"contracts/GeckoGold_flattened.sol\":15866:15875  _transfer */\n      tag_197\n        /* \"contracts/GeckoGold_flattened.sol\":15866:15892  _transfer(from, to, value) */\n      jump\t// in\n    tag_196:\n        /* \"contracts/GeckoGold_flattened.sol\":15909:15913  true */\n      0x01\n        /* \"contracts/GeckoGold_flattened.sol\":15902:15913  return true */\n      swap2\n      pop\n      pop\n        /* \"contracts/GeckoGold_flattened.sol\":15676:15920  function transferFrom(address from, address to, uint256 value) public virtual returns (bool) {... */\n      swap4\n      swap3\n      pop\n      pop\n      pop\n      jump\t// out\n        /* \"contracts/GeckoGold_flattened.sol\":28739:28790  mapping(address => uint256) public engagementPoints */\n    tag_75:\n      mstore(0x20, 0x0a)\n      dup1\n      0x00\n      mstore\n      keccak256(0x00, 0x40)\n      0x00\n      swap2\n      pop\n      swap1\n      pop\n      sload\n      dup2\n      jump\t// out\n        /* \"contracts/GeckoGold_flattened.sol\":13607:13689  function decimals() public view virtual returns (uint8) {... */\n    tag_78:\n        /* \"contracts/GeckoGold_flattened.sol\":13656:13661  uint8 */\n      0x00\n        /* \"contracts/GeckoGold_flattened.sol\":13680:13682  18 */\n      0x12\n        /* \"contracts/GeckoGold_flattened.sol\":13673:13682  return 18 */\n      swap1\n      pop\n        /* \"contracts/GeckoGold_flattened.sol\":13607:13689  function decimals() public view virtual returns (uint8) {... */\n      swap1\n      jump\t// out\n        /* \"contracts/GeckoGold_flattened.sol\":34381:34450  function unpause() external onlyOwner {... */\n    tag_82:\n        /* \"contracts/GeckoGold_flattened.sol\":23303:23316  _checkOwner() */\n      tag_200\n        /* \"contracts/GeckoGold_flattened.sol\":23303:23314  _checkOwner */\n      tag_180\n        /* \"contracts/GeckoGold_flattened.sol\":23303:23316  _checkOwner() */\n      jump\t// in\n    tag_200:\n        /* \"contracts/GeckoGold_flattened.sol\":34438:34443  false */\n      0x00\n        /* \"contracts/GeckoGold_flattened.sol\":34429:34435  paused */\n      0x0d\n      0x01\n        /* \"contracts/GeckoGold_flattened.sol\":34429:34443  paused = false */\n      0x0100\n      exp\n      dup2\n      sload\n      dup2\n      0xff\n      mul\n      not\n      and\n      swap1\n      dup4\n      iszero\n      iszero\n      mul\n      or\n      swap1\n      sstore\n      pop\n        /* \"contracts/GeckoGold_flattened.sol\":34381:34450  function unpause() external onlyOwner {... */\n      jump\t// out\n        /* \"contracts/GeckoGold_flattened.sol\":32036:32164  function burn(uint256 amount) external {... */\n    tag_86:\n        /* \"contracts/GeckoGold_flattened.sol\":32085:32110  _burn(msg.sender, amount) */\n      tag_203\n        /* \"contracts/GeckoGold_flattened.sol\":32091:32101  msg.sender */\n      caller\n        /* \"contracts/GeckoGold_flattened.sol\":32103:32109  amount */\n      dup3\n        /* \"contracts/GeckoGold_flattened.sol\":32085:32090  _burn */\n      tag_204\n        /* \"contracts/GeckoGold_flattened.sol\":32085:32110  _burn(msg.sender, amount) */\n      jump\t// in\n    tag_203:\n        /* \"contracts/GeckoGold_flattened.sol\":32138:32148  msg.sender */\n      caller\n        /* \"contracts/GeckoGold_flattened.sol\":32125:32157  TokensBurned(msg.sender, amount) */\n      0xffffffffffffffffffffffffffffffffffffffff\n      and\n      0xfd38818f5291bf0bb3a2a48aadc06ba8757865d1dabd804585338aab3009dcb6\n        /* \"contracts/GeckoGold_flattened.sol\":32150:32156  amount */\n      dup3\n        /* \"contracts/GeckoGold_flattened.sol\":32125:32157  TokensBurned(msg.sender, amount) */\n      mload(0x40)\n      tag_205\n      swap2\n      swap1\n      tag_66\n      jump\t// in\n    tag_205:\n      mload(0x40)\n      dup1\n      swap2\n      sub\n      swap1\n      log2\n        /* \"contracts/GeckoGold_flattened.sol\":32036:32164  function burn(uint256 amount) external {... */\n      pop\n      jump\t// out\n        /* \"contracts/GeckoGold_flattened.sol\":28887:28921  bool public tradingEnabled = false */\n    tag_88:\n      0x0d\n      0x00\n      swap1\n      sload\n      swap1\n      0x0100\n      exp\n      swap1\n      div\n      0xff\n      and\n      dup2\n      jump\t// out\n        /* \"contracts/GeckoGold_flattened.sol\":34138:34266  function rescueTokens(address token, uint256 amount) external onlyOwner {... */\n    tag_92:\n        /* \"contracts/GeckoGold_flattened.sol\":23303:23316  _checkOwner() */\n      tag_207\n        /* \"contracts/GeckoGold_flattened.sol\":23303:23314  _checkOwner */\n      tag_180\n        /* \"contracts/GeckoGold_flattened.sol\":23303:23316  _checkOwner() */\n      jump\t// in\n    tag_207:\n        /* \"contracts/GeckoGold_flattened.sol\":34227:34232  token */\n      dup2\n        /* \"contracts/GeckoGold_flattened.sol\":34220:34242  IERC20(token).transfer */\n      0xffffffffffffffffffffffffffffffffffffffff\n      and\n      0xa9059cbb\n        /* \"contracts/GeckoGold_flattened.sol\":34243:34250  owner() */\n      tag_209\n        /* \"contracts/GeckoGold_flattened.sol\":34243:34248  owner */\n      tag_118\n        /* \"contracts/GeckoGold_flattened.sol\":34243:34250  owner() */\n      jump\t// in\n    tag_209:\n        /* \"contracts/GeckoGold_flattened.sol\":34252:34258  amount */\n      dup4\n        /* \"contracts/GeckoGold_flattened.sol\":34220:34259  IERC20(token).transfer(owner(), amount) */\n      mload(0x40)\n      dup4\n      0xffffffff\n      and\n      0xe0\n      shl\n      dup2\n      mstore\n      0x04\n      add\n      tag_210\n      swap3\n      swap2\n      swap1\n      tag_211\n      jump\t// in\n    tag_210:\n      0x20\n      mload(0x40)\n      dup1\n      dup4\n      sub\n      dup2\n      0x00\n      dup8\n      gas\n      call\n      iszero\n      dup1\n      iszero\n      tag_213\n      jumpi\n      returndatasize\n      0x00\n      dup1\n      returndatacopy\n      revert(0x00, returndatasize)\n    tag_213:\n      pop\n      pop\n      pop\n      pop\n      mload(0x40)\n      returndatasize\n      not(0x1f)\n      0x1f\n      dup3\n      add\n      and\n      dup3\n      add\n      dup1\n      0x40\n      mstore\n      pop\n      dup2\n      add\n      swap1\n      tag_214\n      swap2\n      swap1\n      tag_215\n      jump\t// in\n    tag_214:\n      pop\n        /* \"contracts/GeckoGold_flattened.sol\":34138:34266  function rescueTokens(address token, uint256 amount) external onlyOwner {... */\n      pop\n      pop\n      jump\t// out\n        /* \"contracts/GeckoGold_flattened.sol\":28927:28953  bool public paused = false */\n    tag_94:\n      0x0d\n      0x01\n      swap1\n      sload\n      swap1\n      0x0100\n      exp\n      swap1\n      div\n      0xff\n      and\n      dup2\n      jump\t// out\n        /* \"contracts/GeckoGold_flattened.sol\":33966:34090  function withdrawBalance() external onlyOwner nonReentrant {... */\n    tag_97:\n        /* \"contracts/GeckoGold_flattened.sol\":23303:23316  _checkOwner() */\n      tag_217\n        /* \"contracts/GeckoGold_flattened.sol\":23303:23314  _checkOwner */\n      tag_180\n        /* \"contracts/GeckoGold_flattened.sol\":23303:23316  _checkOwner() */\n      jump\t// in\n    tag_217:\n        /* \"contracts/GeckoGold_flattened.sol\":27168:27189  _nonReentrantBefore() */\n      tag_219\n        /* \"contracts/GeckoGold_flattened.sol\":27168:27187  _nonReentrantBefore */\n      tag_220\n        /* \"contracts/GeckoGold_flattened.sol\":27168:27189  _nonReentrantBefore() */\n      jump\t// in\n    tag_219:\n        /* \"contracts/GeckoGold_flattened.sol\":34043:34050  owner() */\n      tag_222\n        /* \"contracts/GeckoGold_flattened.sol\":34043:34048  owner */\n      tag_118\n        /* \"contracts/GeckoGold_flattened.sol\":34043:34050  owner() */\n      jump\t// in\n    tag_222:\n        /* \"contracts/GeckoGold_flattened.sol\":34035:34060  payable(owner()).transfer */\n      0xffffffffffffffffffffffffffffffffffffffff\n      and\n        /* \"contracts/GeckoGold_flattened.sol\":34035:34083  payable(owner()).transfer(address(this).balance) */\n      0x08fc\n        /* \"contracts/GeckoGold_flattened.sol\":34061:34082  address(this).balance */\n      selfbalance\n        /* \"contracts/GeckoGold_flattened.sol\":34035:34083  payable(owner()).transfer(address(this).balance) */\n      swap1\n      dup2\n      iszero\n      mul\n      swap1\n      mload(0x40)\n      0x00\n      mload(0x40)\n      dup1\n      dup4\n      sub\n      dup2\n      dup6\n      dup9\n      dup9\n      call\n      swap4\n      pop\n      pop\n      pop\n      pop\n      iszero\n      dup1\n      iszero\n      tag_224\n      jumpi\n      returndatasize\n      0x00\n      dup1\n      returndatacopy\n      revert(0x00, returndatasize)\n    tag_224:\n      pop\n        /* \"contracts/GeckoGold_flattened.sol\":27210:27230  _nonReentrantAfter() */\n      tag_225\n        /* \"contracts/GeckoGold_flattened.sol\":27210:27228  _nonReentrantAfter */\n      tag_226\n        /* \"contracts/GeckoGold_flattened.sol\":27210:27230  _nonReentrantAfter() */\n      jump\t// in\n    tag_225:\n        /* \"contracts/GeckoGold_flattened.sol\":33966:34090  function withdrawBalance() external onlyOwner nonReentrant {... */\n      jump\t// out\n        /* \"contracts/GeckoGold_flattened.sol\":13904:14020  function balanceOf(address account) public view virtual returns (uint256) {... */\n    tag_100:\n        /* \"contracts/GeckoGold_flattened.sol\":13969:13976  uint256 */\n      0x00\n        /* \"contracts/GeckoGold_flattened.sol\":13995:14004  _balances */\n      dup1\n        /* \"contracts/GeckoGold_flattened.sol\":13995:14013  _balances[account] */\n      0x00\n        /* \"contracts/GeckoGold_flattened.sol\":14005:14012  account */\n      dup4\n        /* \"contracts/GeckoGold_flattened.sol\":13995:14013  _balances[account] */\n      0xffffffffffffffffffffffffffffffffffffffff\n      and\n      0xffffffffffffffffffffffffffffffffffffffff\n      and\n      dup2\n      mstore\n      0x20\n      add\n      swap1\n      dup2\n      mstore\n      0x20\n      add\n      0x00\n      keccak256\n      sload\n        /* \"contracts/GeckoGold_flattened.sol\":13988:14013  return _balances[account] */\n      swap1\n      pop\n        /* \"contracts/GeckoGold_flattened.sol\":13904:14020  function balanceOf(address account) public view virtual returns (uint256) {... */\n      swap2\n      swap1\n      pop\n      jump\t// out\n        /* \"contracts/GeckoGold_flattened.sol\":24065:24166  function renounceOwnership() public virtual onlyOwner {... */\n    tag_103:\n        /* \"contracts/GeckoGold_flattened.sol\":23303:23316  _checkOwner() */\n      tag_229\n        /* \"contracts/GeckoGold_flattened.sol\":23303:23314  _checkOwner */\n      tag_180\n        /* \"contracts/GeckoGold_flattened.sol\":23303:23316  _checkOwner() */\n      jump\t// in\n    tag_229:\n        /* \"contracts/GeckoGold_flattened.sol\":24129:24159  _transferOwnership(address(0)) */\n      tag_231\n        /* \"contracts/GeckoGold_flattened.sol\":24156:24157  0 */\n      0x00\n        /* \"contracts/GeckoGold_flattened.sol\":24129:24147  _transferOwnership */\n      tag_232\n        /* \"contracts/GeckoGold_flattened.sol\":24129:24159  _transferOwnership(address(0)) */\n      jump\t// in\n    tag_231:\n        /* \"contracts/GeckoGold_flattened.sol\":24065:24166  function renounceOwnership() public virtual onlyOwner {... */\n      jump\t// out\n        /* \"contracts/GeckoGold_flattened.sol\":28294:28320  uint256 public taxRate = 2 */\n    tag_105:\n      sload(0x07)\n      dup2\n      jump\t// out\n        /* \"contracts/GeckoGold_flattened.sol\":28525:28578  uint256 public constant MAX_ENGAGEMENT_POINTS = 10000 */\n    tag_108:\n        /* \"contracts/GeckoGold_flattened.sol\":28573:28578  10000 */\n      0x2710\n        /* \"contracts/GeckoGold_flattened.sol\":28525:28578  uint256 public constant MAX_ENGAGEMENT_POINTS = 10000 */\n      dup2\n      jump\t// out\n        /* \"contracts/GeckoGold_flattened.sol\":34309:34375  function pause() external onlyOwner {... */\n    tag_111:\n        /* \"contracts/GeckoGold_flattened.sol\":23303:23316  _checkOwner() */\n      tag_234\n        /* \"contracts/GeckoGold_flattened.sol\":23303:23314  _checkOwner */\n      tag_180\n        /* \"contracts/GeckoGold_flattened.sol\":23303:23316  _checkOwner() */\n      jump\t// in\n    tag_234:\n        /* \"contracts/GeckoGold_flattened.sol\":34364:34368  true */\n      0x01\n        /* \"contracts/GeckoGold_flattened.sol\":34355:34361  paused */\n      0x0d\n      0x01\n        /* \"contracts/GeckoGold_flattened.sol\":34355:34368  paused = true */\n      0x0100\n      exp\n      dup2\n      sload\n      dup2\n      0xff\n      mul\n      not\n      and\n      swap1\n      dup4\n      iszero\n      iszero\n      mul\n      or\n      swap1\n      sstore\n      pop\n        /* \"contracts/GeckoGold_flattened.sol\":34309:34375  function pause() external onlyOwner {... */\n      jump\t// out\n        /* \"contracts/GeckoGold_flattened.sol\":30737:30861  function enableTrading() external onlyOwner {... */\n    tag_113:\n        /* \"contracts/GeckoGold_flattened.sol\":23303:23316  _checkOwner() */\n      tag_237\n        /* \"contracts/GeckoGold_flattened.sol\":23303:23314  _checkOwner */\n      tag_180\n        /* \"contracts/GeckoGold_flattened.sol\":23303:23316  _checkOwner() */\n      jump\t// in\n    tag_237:\n        /* \"contracts/GeckoGold_flattened.sol\":30808:30812  true */\n      0x01\n        /* \"contracts/GeckoGold_flattened.sol\":30791:30805  tradingEnabled */\n      0x0d\n      0x00\n        /* \"contracts/GeckoGold_flattened.sol\":30791:30812  tradingEnabled = true */\n      0x0100\n      exp\n      dup2\n      sload\n      dup2\n      0xff\n      mul\n      not\n      and\n      swap1\n      dup4\n      iszero\n      iszero\n      mul\n      or\n      swap1\n      sstore\n      pop\n        /* \"contracts/GeckoGold_flattened.sol\":30842:30854  block.number */\n      number\n        /* \"contracts/GeckoGold_flattened.sol\":30822:30839  tradingStartBlock */\n      0x0c\n        /* \"contracts/GeckoGold_flattened.sol\":30822:30854  tradingStartBlock = block.number */\n      dup2\n      swap1\n      sstore\n      pop\n        /* \"contracts/GeckoGold_flattened.sol\":30737:30861  function enableTrading() external onlyOwner {... */\n      jump\t// out\n        /* \"contracts/GeckoGold_flattened.sol\":31069:31188  function removeFromWhitelist(address _address) external onlyOwner {... */\n    tag_116:\n        /* \"contracts/GeckoGold_flattened.sol\":23303:23316  _checkOwner() */\n      tag_240\n        /* \"contracts/GeckoGold_flattened.sol\":23303:23314  _checkOwner */\n      tag_180\n        /* \"contracts/GeckoGold_flattened.sol\":23303:23316  _checkOwner() */\n      jump\t// in\n    tag_240:\n        /* \"contracts/GeckoGold_flattened.sol\":31176:31181  false */\n      0x00\n        /* \"contracts/GeckoGold_flattened.sol\":31145:31163  whitelistAddresses */\n      0x09\n        /* \"contracts/GeckoGold_flattened.sol\":31145:31173  whitelistAddresses[_address] */\n      0x00\n        /* \"contracts/GeckoGold_flattened.sol\":31164:31172  _address */\n      dup4\n        /* \"contracts/GeckoGold_flattened.sol\":31145:31173  whitelistAddresses[_address] */\n      0xffffffffffffffffffffffffffffffffffffffff\n      and\n      0xffffffffffffffffffffffffffffffffffffffff\n      and\n      dup2\n      mstore\n      0x20\n      add\n      swap1\n      dup2\n      mstore\n      0x20\n      add\n      0x00\n      keccak256\n      0x00\n        /* \"contracts/GeckoGold_flattened.sol\":31145:31181  whitelistAddresses[_address] = false */\n      0x0100\n      exp\n      dup2\n      sload\n      dup2\n      0xff\n      mul\n      not\n      and\n      swap1\n      dup4\n      iszero\n      iszero\n      mul\n      or\n      swap1\n      sstore\n      pop\n        /* \"contracts/GeckoGold_flattened.sol\":31069:31188  function removeFromWhitelist(address _address) external onlyOwner {... */\n      pop\n      jump\t// out\n        /* \"contracts/GeckoGold_flattened.sol\":23410:23495  function owner() public view virtual returns (address) {... */\n    tag_118:\n        /* \"contracts/GeckoGold_flattened.sol\":23456:23463  address */\n      0x00\n        /* \"contracts/GeckoGold_flattened.sol\":23482:23488  _owner */\n      0x05\n      0x00\n      swap1\n      sload\n      swap1\n      0x0100\n      exp\n      swap1\n      div\n      0xffffffffffffffffffffffffffffffffffffffff\n      and\n        /* \"contracts/GeckoGold_flattened.sol\":23475:23488  return _owner */\n      swap1\n      pop\n        /* \"contracts/GeckoGold_flattened.sol\":23410:23495  function owner() public view virtual returns (address) {... */\n      swap1\n      jump\t// out\n        /* \"contracts/GeckoGold_flattened.sol\":28336:28377  uint256 public constant MAX_TAX_RATE = 10 */\n    tag_122:\n        /* \"contracts/GeckoGold_flattened.sol\":28375:28377  10 */\n      0x0a\n        /* \"contracts/GeckoGold_flattened.sol\":28336:28377  uint256 public constant MAX_TAX_RATE = 10 */\n      dup2\n      jump\t// out\n        /* \"contracts/GeckoGold_flattened.sol\":28222:28287  uint256 public constant TOTAL_SUPPLY = 420_690_000_000 * 10 ** 18 */\n    tag_125:\n        /* \"contracts/GeckoGold_flattened.sol\":28261:28287  420_690_000_000 * 10 ** 18 */\n      0x054f529ca52576bc6892000000\n        /* \"contracts/GeckoGold_flattened.sol\":28222:28287  uint256 public constant TOTAL_SUPPLY = 420_690_000_000 * 10 ** 18 */\n      dup2\n      jump\t// out\n        /* \"contracts/GeckoGold_flattened.sol\":12881:12974  function symbol() public view virtual returns (string memory) {... */\n    tag_128:\n        /* \"contracts/GeckoGold_flattened.sol\":12928:12941  string memory */\n      0x60\n        /* \"contracts/GeckoGold_flattened.sol\":12960:12967  _symbol */\n      0x04\n        /* \"contracts/GeckoGold_flattened.sol\":12953:12967  return _symbol */\n      dup1\n      sload\n      tag_244\n      swap1\n      tag_168\n      jump\t// in\n    tag_244:\n      dup1\n      0x1f\n      add\n      0x20\n      dup1\n      swap2\n      div\n      mul\n      0x20\n      add\n      mload(0x40)\n      swap1\n      dup2\n      add\n      0x40\n      mstore\n      dup1\n      swap3\n      swap2\n      swap1\n      dup2\n      dup2\n      mstore\n      0x20\n      add\n      dup3\n      dup1\n      sload\n      tag_245\n      swap1\n      tag_168\n      jump\t// in\n    tag_245:\n      dup1\n      iszero\n      tag_246\n      jumpi\n      dup1\n      0x1f\n      lt\n      tag_247\n      jumpi\n      0x0100\n      dup1\n      dup4\n      sload\n      div\n      mul\n      dup4\n      mstore\n      swap2\n      0x20\n      add\n      swap2\n      jump(tag_246)\n    tag_247:\n      dup3\n      add\n      swap2\n      swap1\n      0x00\n      mstore\n      keccak256(0x00, 0x20)\n      swap1\n    tag_248:\n      dup2\n      sload\n      dup2\n      mstore\n      swap1\n      0x01\n      add\n      swap1\n      0x20\n      add\n      dup1\n      dup4\n      gt\n      tag_248\n      jumpi\n      dup3\n      swap1\n      sub\n      0x1f\n      and\n      dup3\n      add\n      swap2\n    tag_246:\n      pop\n      pop\n      pop\n      pop\n      pop\n      swap1\n      pop\n        /* \"contracts/GeckoGold_flattened.sol\":12881:12974  function symbol() public view virtual returns (string memory) {... */\n      swap1\n      jump\t// out\n        /* \"contracts/GeckoGold_flattened.sol\":31461:31965  function transfer(address recipient, uint256 amount) public override notBlacklisted(msg.sender) tradingGuard(msg.sender) whenNotPaused noSelfTransfer(recipient) returns (bool) {... */\n    tag_132:\n        /* \"contracts/GeckoGold_flattened.sol\":31631:31635  bool */\n      0x00\n        /* \"contracts/GeckoGold_flattened.sol\":31545:31555  msg.sender */\n      caller\n        /* \"contracts/GeckoGold_flattened.sol\":29840:29860  blacklistedAddresses */\n      0x08\n        /* \"contracts/GeckoGold_flattened.sol\":29840:29870  blacklistedAddresses[_address] */\n      0x00\n        /* \"contracts/GeckoGold_flattened.sol\":29861:29869  _address */\n      dup3\n        /* \"contracts/GeckoGold_flattened.sol\":29840:29870  blacklistedAddresses[_address] */\n      0xffffffffffffffffffffffffffffffffffffffff\n      and\n      0xffffffffffffffffffffffffffffffffffffffff\n      and\n      dup2\n      mstore\n      0x20\n      add\n      swap1\n      dup2\n      mstore\n      0x20\n      add\n      0x00\n      keccak256\n      0x00\n      swap1\n      sload\n      swap1\n      0x0100\n      exp\n      swap1\n      div\n      0xff\n      and\n        /* \"contracts/GeckoGold_flattened.sol\":29839:29870  !blacklistedAddresses[_address] */\n      iszero\n        /* \"contracts/GeckoGold_flattened.sol\":29831:29897  require(!blacklistedAddresses[_address], \"Address is blacklisted\") */\n      tag_250\n      jumpi\n      mload(0x40)\n      0x08c379a000000000000000000000000000000000000000000000000000000000\n      dup2\n      mstore\n      0x04\n      add\n      tag_251\n      swap1\n      tag_252\n      jump\t// in\n    tag_251:\n      mload(0x40)\n      dup1\n      swap2\n      sub\n      swap1\n      revert\n    tag_250:\n        /* \"contracts/GeckoGold_flattened.sol\":31570:31580  msg.sender */\n      caller\n        /* \"contracts/GeckoGold_flattened.sol\":30049:30063  tradingEnabled */\n      0x0d\n      0x00\n      swap1\n      sload\n      swap1\n      0x0100\n      exp\n      swap1\n      div\n      0xff\n      and\n        /* \"contracts/GeckoGold_flattened.sol\":30049:30093  tradingEnabled || whitelistAddresses[sender] */\n      dup1\n      tag_254\n      jumpi\n      pop\n        /* \"contracts/GeckoGold_flattened.sol\":30067:30085  whitelistAddresses */\n      0x09\n        /* \"contracts/GeckoGold_flattened.sol\":30067:30093  whitelistAddresses[sender] */\n      0x00\n        /* \"contracts/GeckoGold_flattened.sol\":30086:30092  sender */\n      dup3\n        /* \"contracts/GeckoGold_flattened.sol\":30067:30093  whitelistAddresses[sender] */\n      0xffffffffffffffffffffffffffffffffffffffff\n      and\n      0xffffffffffffffffffffffffffffffffffffffff\n      and\n      dup2\n      mstore\n      0x20\n      add\n      swap1\n      dup2\n      mstore\n      0x20\n      add\n      0x00\n      keccak256\n      0x00\n      swap1\n      sload\n      swap1\n      0x0100\n      exp\n      swap1\n      div\n      0xff\n      and\n        /* \"contracts/GeckoGold_flattened.sol\":30049:30093  tradingEnabled || whitelistAddresses[sender] */\n    tag_254:\n        /* \"contracts/GeckoGold_flattened.sol\":30041:30120  require(tradingEnabled || whitelistAddresses[sender], \"Trading is not enabled\") */\n      tag_255\n      jumpi\n      mload(0x40)\n      0x08c379a000000000000000000000000000000000000000000000000000000000\n      dup2\n      mstore\n      0x04\n      add\n      tag_256\n      swap1\n      tag_257\n      jump\t// in\n    tag_256:\n      mload(0x40)\n      dup1\n      swap2\n      sub\n      swap1\n      revert\n    tag_255:\n        /* \"contracts/GeckoGold_flattened.sol\":30239:30245  paused */\n      0x0d\n      0x01\n      swap1\n      sload\n      swap1\n      0x0100\n      exp\n      swap1\n      div\n      0xff\n      and\n        /* \"contracts/GeckoGold_flattened.sol\":30238:30245  !paused */\n      iszero\n        /* \"contracts/GeckoGold_flattened.sol\":30230:30268  require(!paused, \"Contract is paused\") */\n      tag_259\n      jumpi\n      mload(0x40)\n      0x08c379a000000000000000000000000000000000000000000000000000000000\n      dup2\n      mstore\n      0x04\n      add\n      tag_260\n      swap1\n      tag_261\n      jump\t// in\n    tag_260:\n      mload(0x40)\n      dup1\n      swap2\n      sub\n      swap1\n      revert\n    tag_259:\n        /* \"contracts/GeckoGold_flattened.sol\":31611:31620  recipient */\n      dup5\n        /* \"contracts/GeckoGold_flattened.sol\":30619:30623  this */\n      address\n        /* \"contracts/GeckoGold_flattened.sol\":30598:30624  recipient != address(this) */\n      0xffffffffffffffffffffffffffffffffffffffff\n      and\n        /* \"contracts/GeckoGold_flattened.sol\":30598:30607  recipient */\n      dup2\n        /* \"contracts/GeckoGold_flattened.sol\":30598:30624  recipient != address(this) */\n      0xffffffffffffffffffffffffffffffffffffffff\n      and\n      sub\n        /* \"contracts/GeckoGold_flattened.sol\":30590:30667  require(recipient != address(this), \"Cannot transfer to the contract itself\") */\n      tag_263\n      jumpi\n      mload(0x40)\n      0x08c379a000000000000000000000000000000000000000000000000000000000\n      dup2\n      mstore\n      0x04\n      add\n      tag_264\n      swap1\n      tag_265\n      jump\t// in\n    tag_264:\n      mload(0x40)\n      dup1\n      swap2\n      sub\n      swap1\n      revert\n    tag_263:\n        /* \"contracts/GeckoGold_flattened.sol\":28463:28483  1_000_000 * 10 ** 18 */\n      0xd3c21bcecceda1000000\n        /* \"contracts/GeckoGold_flattened.sol\":31655:31661  amount */\n      dup6\n        /* \"contracts/GeckoGold_flattened.sol\":31655:31684  amount <= MAX_TRANSFER_AMOUNT */\n      gt\n      iszero\n        /* \"contracts/GeckoGold_flattened.sol\":31647:31720  require(amount <= MAX_TRANSFER_AMOUNT, \"Exceeds maximum transfer amount\") */\n      tag_267\n      jumpi\n      mload(0x40)\n      0x08c379a000000000000000000000000000000000000000000000000000000000\n      dup2\n      mstore\n      0x04\n      add\n      tag_268\n      swap1\n      tag_269\n      jump\t// in\n    tag_268:\n      mload(0x40)\n      dup1\n      swap2\n      sub\n      swap1\n      revert\n    tag_267:\n        /* \"contracts/GeckoGold_flattened.sol\":31731:31742  uint256 tax */\n      0x00\n        /* \"contracts/GeckoGold_flattened.sol\":31766:31769  100 */\n      0x64\n        /* \"contracts/GeckoGold_flattened.sol\":31755:31762  taxRate */\n      sload(0x07)\n        /* \"contracts/GeckoGold_flattened.sol\":31746:31752  amount */\n      dup8\n        /* \"contracts/GeckoGold_flattened.sol\":31746:31762  amount * taxRate */\n      tag_270\n      swap2\n      swap1\n      tag_271\n      jump\t// in\n    tag_270:\n        /* \"contracts/GeckoGold_flattened.sol\":31745:31769  (amount * taxRate) / 100 */\n      tag_272\n      swap2\n      swap1\n      tag_273\n      jump\t// in\n    tag_272:\n        /* \"contracts/GeckoGold_flattened.sol\":31731:31769  uint256 tax = (amount * taxRate) / 100 */\n      swap1\n      pop\n        /* \"contracts/GeckoGold_flattened.sol\":31779:31801  uint256 amountAfterTax */\n      0x00\n        /* \"contracts/GeckoGold_flattened.sol\":31813:31816  tax */\n      dup2\n        /* \"contracts/GeckoGold_flattened.sol\":31804:31810  amount */\n      dup8\n        /* \"contracts/GeckoGold_flattened.sol\":31804:31816  amount - tax */\n      tag_274\n      swap2\n      swap1\n      tag_189\n      jump\t// in\n    tag_274:\n        /* \"contracts/GeckoGold_flattened.sol\":31779:31816  uint256 amountAfterTax = amount - tax */\n      swap1\n      pop\n        /* \"contracts/GeckoGold_flattened.sol\":31865:31900  _transfer(msg.sender, owner(), tax) */\n      tag_275\n        /* \"contracts/GeckoGold_flattened.sol\":31875:31885  msg.sender */\n      caller\n        /* \"contracts/GeckoGold_flattened.sol\":31887:31894  owner() */\n      tag_276\n        /* \"contracts/GeckoGold_flattened.sol\":31887:31892  owner */\n      tag_118\n        /* \"contracts/GeckoGold_flattened.sol\":31887:31894  owner() */\n      jump\t// in\n    tag_276:\n        /* \"contracts/GeckoGold_flattened.sol\":31896:31899  tax */\n      dup5\n        /* \"contracts/GeckoGold_flattened.sol\":31865:31874  _transfer */\n      tag_197\n        /* \"contracts/GeckoGold_flattened.sol\":31865:31900  _transfer(msg.sender, owner(), tax) */\n      jump\t// in\n    tag_275:\n        /* \"contracts/GeckoGold_flattened.sol\":31917:31958  super.transfer(recipient, amountAfterTax) */\n      tag_277\n        /* \"contracts/GeckoGold_flattened.sol\":31932:31941  recipient */\n      dup9\n        /* \"contracts/GeckoGold_flattened.sol\":31943:31957  amountAfterTax */\n      dup3\n        /* \"contracts/GeckoGold_flattened.sol\":31917:31931  super.transfer */\n      tag_278\n        /* \"contracts/GeckoGold_flattened.sol\":31917:31958  super.transfer(recipient, amountAfterTax) */\n      jump\t// in\n    tag_277:\n        /* \"contracts/GeckoGold_flattened.sol\":31910:31958  return super.transfer(recipient, amountAfterTax) */\n      swap6\n      pop\n      pop\n      pop\n        /* \"contracts/GeckoGold_flattened.sol\":30278:30279  _ */\n      pop\n        /* \"contracts/GeckoGold_flattened.sol\":29907:29908  _ */\n      pop\n        /* \"contracts/GeckoGold_flattened.sol\":31461:31965  function transfer(address recipient, uint256 amount) public override notBlacklisted(msg.sender) tradingGuard(msg.sender) whenNotPaused noSelfTransfer(recipient) returns (bool) {... */\n      pop\n      swap3\n      swap2\n      pop\n      pop\n      jump\t// out\n        /* \"contracts/GeckoGold_flattened.sol\":32415:32725  function updateEngagementPoints(address user, uint256 points) external onlyOwner {... */\n    tag_136:\n        /* \"contracts/GeckoGold_flattened.sol\":23303:23316  _checkOwner() */\n      tag_280\n        /* \"contracts/GeckoGold_flattened.sol\":23303:23314  _checkOwner */\n      tag_180\n        /* \"contracts/GeckoGold_flattened.sol\":23303:23316  _checkOwner() */\n      jump\t// in\n    tag_280:\n        /* \"contracts/GeckoGold_flattened.sol\":28573:28578  10000 */\n      0x2710\n        /* \"contracts/GeckoGold_flattened.sol\":32539:32545  points */\n      dup2\n        /* \"contracts/GeckoGold_flattened.sol\":32514:32530  engagementPoints */\n      0x0a\n        /* \"contracts/GeckoGold_flattened.sol\":32514:32536  engagementPoints[user] */\n      0x00\n        /* \"contracts/GeckoGold_flattened.sol\":32531:32535  user */\n      dup6\n        /* \"contracts/GeckoGold_flattened.sol\":32514:32536  engagementPoints[user] */\n      0xffffffffffffffffffffffffffffffffffffffff\n      and\n      0xffffffffffffffffffffffffffffffffffffffff\n      and\n      dup2\n      mstore\n      0x20\n      add\n      swap1\n      dup2\n      mstore\n      0x20\n      add\n      0x00\n      keccak256\n      sload\n        /* \"contracts/GeckoGold_flattened.sol\":32514:32545  engagementPoints[user] + points */\n      tag_282\n      swap2\n      swap1\n      tag_283\n      jump\t// in\n    tag_282:\n        /* \"contracts/GeckoGold_flattened.sol\":32514:32570  engagementPoints[user] + points <= MAX_ENGAGEMENT_POINTS */\n      gt\n      iszero\n        /* \"contracts/GeckoGold_flattened.sol\":32506:32608  require(engagementPoints[user] + points <= MAX_ENGAGEMENT_POINTS, \"Exceeds maximum engagement points\") */\n      tag_284\n      jumpi\n      mload(0x40)\n      0x08c379a000000000000000000000000000000000000000000000000000000000\n      dup2\n      mstore\n      0x04\n      add\n      tag_285\n      swap1\n      tag_286\n      jump\t// in\n    tag_285:\n      mload(0x40)\n      dup1\n      swap2\n      sub\n      swap1\n      revert\n    tag_284:\n        /* \"contracts/GeckoGold_flattened.sol\":32644:32650  points */\n      dup1\n        /* \"contracts/GeckoGold_flattened.sol\":32618:32634  engagementPoints */\n      0x0a\n        /* \"contracts/GeckoGold_flattened.sol\":32618:32640  engagementPoints[user] */\n      0x00\n        /* \"contracts/GeckoGold_flattened.sol\":32635:32639  user */\n      dup5\n        /* \"contracts/GeckoGold_flattened.sol\":32618:32640  engagementPoints[user] */\n      0xffffffffffffffffffffffffffffffffffffffff\n      and\n      0xffffffffffffffffffffffffffffffffffffffff\n      and\n      dup2\n      mstore\n      0x20\n      add\n      swap1\n      dup2\n      mstore\n      0x20\n      add\n      0x00\n      keccak256\n      0x00\n        /* \"contracts/GeckoGold_flattened.sol\":32618:32650  engagementPoints[user] += points */\n      dup3\n      dup3\n      sload\n      tag_287\n      swap2\n      swap1\n      tag_283\n      jump\t// in\n    tag_287:\n      swap3\n      pop\n      pop\n      dup2\n      swap1\n      sstore\n      pop\n        /* \"contracts/GeckoGold_flattened.sol\":32689:32693  user */\n      dup2\n        /* \"contracts/GeckoGold_flattened.sol\":32665:32718  EngagementPointsUpdated(user, engagementPoints[user]) */\n      0xffffffffffffffffffffffffffffffffffffffff\n      and\n      0x40547f371cf37574d1a01eeeb1593f8db1a3e44286bba3b92cf2867707c9e473\n        /* \"contracts/GeckoGold_flattened.sol\":32695:32711  engagementPoints */\n      0x0a\n        /* \"contracts/GeckoGold_flattened.sol\":32695:32717  engagementPoints[user] */\n      0x00\n        /* \"contracts/GeckoGold_flattened.sol\":32712:32716  user */\n      dup6\n        /* \"contracts/GeckoGold_flattened.sol\":32695:32717  engagementPoints[user] */\n      0xffffffffffffffffffffffffffffffffffffffff\n      and\n      0xffffffffffffffffffffffffffffffffffffffff\n      and\n      dup2\n      mstore\n      0x20\n      add\n      swap1\n      dup2\n      mstore\n      0x20\n      add\n      0x00\n      keccak256\n      sload\n        /* \"contracts/GeckoGold_flattened.sol\":32665:32718  EngagementPointsUpdated(user, engagementPoints[user]) */\n      mload(0x40)\n      tag_288\n      swap2\n      swap1\n      tag_66\n      jump\t// in\n    tag_288:\n      mload(0x40)\n      dup1\n      swap2\n      sub\n      swap1\n      log2\n        /* \"contracts/GeckoGold_flattened.sol\":32415:32725  function updateEngagementPoints(address user, uint256 points) external onlyOwner {... */\n      pop\n      pop\n      jump\t// out\n        /* \"contracts/GeckoGold_flattened.sol\":33111:33705  function claimReward() external whenNotPaused notBlacklisted(msg.sender) cooldownPeriod(msg.sender) {... */\n    tag_138:\n        /* \"contracts/GeckoGold_flattened.sol\":30239:30245  paused */\n      0x0d\n      0x01\n      swap1\n      sload\n      swap1\n      0x0100\n      exp\n      swap1\n      div\n      0xff\n      and\n        /* \"contracts/GeckoGold_flattened.sol\":30238:30245  !paused */\n      iszero\n        /* \"contracts/GeckoGold_flattened.sol\":30230:30268  require(!paused, \"Contract is paused\") */\n      tag_290\n      jumpi\n      mload(0x40)\n      0x08c379a000000000000000000000000000000000000000000000000000000000\n      dup2\n      mstore\n      0x04\n      add\n      tag_291\n      swap1\n      tag_261\n      jump\t// in\n    tag_291:\n      mload(0x40)\n      dup1\n      swap2\n      sub\n      swap1\n      revert\n    tag_290:\n        /* \"contracts/GeckoGold_flattened.sol\":33172:33182  msg.sender */\n      caller\n        /* \"contracts/GeckoGold_flattened.sol\":29840:29860  blacklistedAddresses */\n      0x08\n        /* \"contracts/GeckoGold_flattened.sol\":29840:29870  blacklistedAddresses[_address] */\n      0x00\n        /* \"contracts/GeckoGold_flattened.sol\":29861:29869  _address */\n      dup3\n        /* \"contracts/GeckoGold_flattened.sol\":29840:29870  blacklistedAddresses[_address] */\n      0xffffffffffffffffffffffffffffffffffffffff\n      and\n      0xffffffffffffffffffffffffffffffffffffffff\n      and\n      dup2\n      mstore\n      0x20\n      add\n      swap1\n      dup2\n      mstore\n      0x20\n      add\n      0x00\n      keccak256\n      0x00\n      swap1\n      sload\n      swap1\n      0x0100\n      exp\n      swap1\n      div\n      0xff\n      and\n        /* \"contracts/GeckoGold_flattened.sol\":29839:29870  !blacklistedAddresses[_address] */\n      iszero\n        /* \"contracts/GeckoGold_flattened.sol\":29831:29897  require(!blacklistedAddresses[_address], \"Address is blacklisted\") */\n      tag_293\n      jumpi\n      mload(0x40)\n      0x08c379a000000000000000000000000000000000000000000000000000000000\n      dup2\n      mstore\n      0x04\n      add\n      tag_294\n      swap1\n      tag_252\n      jump\t// in\n    tag_294:\n      mload(0x40)\n      dup1\n      swap2\n      sub\n      swap1\n      revert\n    tag_293:\n        /* \"contracts/GeckoGold_flattened.sol\":33199:33209  msg.sender */\n      caller\n        /* \"contracts/GeckoGold_flattened.sol\":30440:30446  1 days */\n      0x015180\n        /* \"contracts/GeckoGold_flattened.sol\":30420:30431  lastClaimed */\n      0x0b\n        /* \"contracts/GeckoGold_flattened.sol\":30420:30437  lastClaimed[user] */\n      0x00\n        /* \"contracts/GeckoGold_flattened.sol\":30432:30436  user */\n      dup4\n        /* \"contracts/GeckoGold_flattened.sol\":30420:30437  lastClaimed[user] */\n      0xffffffffffffffffffffffffffffffffffffffff\n      and\n      0xffffffffffffffffffffffffffffffffffffffff\n      and\n      dup2\n      mstore\n      0x20\n      add\n      swap1\n      dup2\n      mstore\n      0x20\n      add\n      0x00\n      keccak256\n      sload\n        /* \"contracts/GeckoGold_flattened.sol\":30420:30446  lastClaimed[user] + 1 days */\n      tag_296\n      swap2\n      swap1\n      tag_283\n      jump\t// in\n    tag_296:\n        /* \"contracts/GeckoGold_flattened.sol\":30401:30416  block.timestamp */\n      timestamp\n        /* \"contracts/GeckoGold_flattened.sol\":30401:30446  block.timestamp >= lastClaimed[user] + 1 days */\n      lt\n      iszero\n        /* \"contracts/GeckoGold_flattened.sol\":30393:30472  require(block.timestamp >= lastClaimed[user] + 1 days, \"Claim cooldown active\") */\n      tag_297\n      jumpi\n      mload(0x40)\n      0x08c379a000000000000000000000000000000000000000000000000000000000\n      dup2\n      mstore\n      0x04\n      add\n      tag_298\n      swap1\n      tag_299\n      jump\t// in\n    tag_298:\n      mload(0x40)\n      dup1\n      swap2\n      sub\n      swap1\n      revert\n    tag_297:\n        /* \"contracts/GeckoGold_flattened.sol\":33221:33235  uint256 reward */\n      0x00\n        /* \"contracts/GeckoGold_flattened.sol\":33238:33254  engagementPoints */\n      0x0a\n        /* \"contracts/GeckoGold_flattened.sol\":33238:33266  engagementPoints[msg.sender] */\n      0x00\n        /* \"contracts/GeckoGold_flattened.sol\":33255:33265  msg.sender */\n      caller\n        /* \"contracts/GeckoGold_flattened.sol\":33238:33266  engagementPoints[msg.sender] */\n      0xffffffffffffffffffffffffffffffffffffffff\n      and\n      0xffffffffffffffffffffffffffffffffffffffff\n      and\n      dup2\n      mstore\n      0x20\n      add\n      swap1\n      dup2\n      mstore\n      0x20\n      add\n      0x00\n      keccak256\n      sload\n        /* \"contracts/GeckoGold_flattened.sol\":33221:33266  uint256 reward = engagementPoints[msg.sender] */\n      swap1\n      pop\n        /* \"contracts/GeckoGold_flattened.sol\":33293:33294  0 */\n      0x00\n        /* \"contracts/GeckoGold_flattened.sol\":33284:33290  reward */\n      dup2\n        /* \"contracts/GeckoGold_flattened.sol\":33284:33294  reward > 0 */\n      gt\n        /* \"contracts/GeckoGold_flattened.sol\":33276:33319  require(reward > 0, \"No rewards available\") */\n      tag_301\n      jumpi\n      mload(0x40)\n      0x08c379a000000000000000000000000000000000000000000000000000000000\n      dup2\n      mstore\n      0x04\n      add\n      tag_302\n      swap1\n      tag_303\n      jump\t// in\n    tag_302:\n      mload(0x40)\n      dup1\n      swap2\n      sub\n      swap1\n      revert\n    tag_301:\n        /* \"contracts/GeckoGold_flattened.sol\":33359:33365  reward */\n      dup1\n        /* \"contracts/GeckoGold_flattened.sol\":33337:33355  balanceOf(owner()) */\n      tag_304\n        /* \"contracts/GeckoGold_flattened.sol\":33347:33354  owner() */\n      tag_305\n        /* \"contracts/GeckoGold_flattened.sol\":33347:33352  owner */\n      tag_118\n        /* \"contracts/GeckoGold_flattened.sol\":33347:33354  owner() */\n      jump\t// in\n    tag_305:\n        /* \"contracts/GeckoGold_flattened.sol\":33337:33346  balanceOf */\n      tag_100\n        /* \"contracts/GeckoGold_flattened.sol\":33337:33355  balanceOf(owner()) */\n      jump\t// in\n    tag_304:\n        /* \"contracts/GeckoGold_flattened.sol\":33337:33365  balanceOf(owner()) >= reward */\n      lt\n      iszero\n        /* \"contracts/GeckoGold_flattened.sol\":33329:33396  require(balanceOf(owner()) >= reward, \"Insufficient reward supply\") */\n      tag_306\n      jumpi\n      mload(0x40)\n      0x08c379a000000000000000000000000000000000000000000000000000000000\n      dup2\n      mstore\n      0x04\n      add\n      tag_307\n      swap1\n      tag_308\n      jump\t// in\n    tag_307:\n      mload(0x40)\n      dup1\n      swap2\n      sub\n      swap1\n      revert\n    tag_306:\n        /* \"contracts/GeckoGold_flattened.sol\":33473:33474  0 */\n      0x00\n        /* \"contracts/GeckoGold_flattened.sol\":33442:33458  engagementPoints */\n      0x0a\n        /* \"contracts/GeckoGold_flattened.sol\":33442:33470  engagementPoints[msg.sender] */\n      0x00\n        /* \"contracts/GeckoGold_flattened.sol\":33459:33469  msg.sender */\n      caller\n        /* \"contracts/GeckoGold_flattened.sol\":33442:33470  engagementPoints[msg.sender] */\n      0xffffffffffffffffffffffffffffffffffffffff\n      and\n      0xffffffffffffffffffffffffffffffffffffffff\n      and\n      dup2\n      mstore\n      0x20\n      add\n      swap1\n      dup2\n      mstore\n      0x20\n      add\n      0x00\n      keccak256\n        /* \"contracts/GeckoGold_flattened.sol\":33442:33474  engagementPoints[msg.sender] = 0 */\n      dup2\n      swap1\n      sstore\n      pop\n        /* \"contracts/GeckoGold_flattened.sol\":33552:33567  block.timestamp */\n      timestamp\n        /* \"contracts/GeckoGold_flattened.sol\":33526:33537  lastClaimed */\n      0x0b\n        /* \"contracts/GeckoGold_flattened.sol\":33526:33549  lastClaimed[msg.sender] */\n      0x00\n        /* \"contracts/GeckoGold_flattened.sol\":33538:33548  msg.sender */\n      caller\n        /* \"contracts/GeckoGold_flattened.sol\":33526:33549  lastClaimed[msg.sender] */\n      0xffffffffffffffffffffffffffffffffffffffff\n      and\n      0xffffffffffffffffffffffffffffffffffffffff\n      and\n      dup2\n      mstore\n      0x20\n      add\n      swap1\n      dup2\n      mstore\n      0x20\n      add\n      0x00\n      keccak256\n        /* \"contracts/GeckoGold_flattened.sol\":33526:33567  lastClaimed[msg.sender] = block.timestamp */\n      dup2\n      swap1\n      sstore\n      pop\n        /* \"contracts/GeckoGold_flattened.sol\":33612:33650  _transfer(owner(), msg.sender, reward) */\n      tag_309\n        /* \"contracts/GeckoGold_flattened.sol\":33622:33629  owner() */\n      tag_310\n        /* \"contracts/GeckoGold_flattened.sol\":33622:33627  owner */\n      tag_118\n        /* \"contracts/GeckoGold_flattened.sol\":33622:33629  owner() */\n      jump\t// in\n    tag_310:\n        /* \"contracts/GeckoGold_flattened.sol\":33631:33641  msg.sender */\n      caller\n        /* \"contracts/GeckoGold_flattened.sol\":33643:33649  reward */\n      dup4\n        /* \"contracts/GeckoGold_flattened.sol\":33612:33621  _transfer */\n      tag_197\n        /* \"contracts/GeckoGold_flattened.sol\":33612:33650  _transfer(owner(), msg.sender, reward) */\n      jump\t// in\n    tag_309:\n        /* \"contracts/GeckoGold_flattened.sol\":33679:33689  msg.sender */\n      caller\n        /* \"contracts/GeckoGold_flattened.sol\":33665:33698  RewardClaimed(msg.sender, reward) */\n      0xffffffffffffffffffffffffffffffffffffffff\n      and\n      0x106f923f993c2149d49b4255ff723acafa1f2d94393f561d3eda32ae348f7241\n        /* \"contracts/GeckoGold_flattened.sol\":33691:33697  reward */\n      dup3\n        /* \"contracts/GeckoGold_flattened.sol\":33665:33698  RewardClaimed(msg.sender, reward) */\n      mload(0x40)\n      tag_311\n      swap2\n      swap1\n      tag_66\n      jump\t// in\n    tag_311:\n      mload(0x40)\n      dup1\n      swap2\n      sub\n      swap1\n      log2\n        /* \"contracts/GeckoGold_flattened.sol\":33211:33705  {... */\n      pop\n        /* \"contracts/GeckoGold_flattened.sol\":29907:29908  _ */\n      pop\n        /* \"contracts/GeckoGold_flattened.sol\":30278:30279  _ */\n      pop\n        /* \"contracts/GeckoGold_flattened.sol\":33111:33705  function claimReward() external whenNotPaused notBlacklisted(msg.sender) cooldownPeriod(msg.sender) {... */\n      jump\t// out\n        /* \"contracts/GeckoGold_flattened.sol\":31221:31396  function setTaxRate(uint256 newTaxRate) external onlyOwner {... */\n    tag_141:\n        /* \"contracts/GeckoGold_flattened.sol\":23303:23316  _checkOwner() */\n      tag_313\n        /* \"contracts/GeckoGold_flattened.sol\":23303:23314  _checkOwner */\n      tag_180\n        /* \"contracts/GeckoGold_flattened.sol\":23303:23316  _checkOwner() */\n      jump\t// in\n    tag_313:\n        /* \"contracts/GeckoGold_flattened.sol\":28375:28377  10 */\n      0x0a\n        /* \"contracts/GeckoGold_flattened.sol\":31298:31308  newTaxRate */\n      dup2\n        /* \"contracts/GeckoGold_flattened.sol\":31298:31324  newTaxRate <= MAX_TAX_RATE */\n      gt\n      iszero\n        /* \"contracts/GeckoGold_flattened.sol\":31290:31359  require(newTaxRate <= MAX_TAX_RATE, \"Tax rate exceeds maximum limit\") */\n      tag_315\n      jumpi\n      mload(0x40)\n      0x08c379a000000000000000000000000000000000000000000000000000000000\n      dup2\n      mstore\n      0x04\n      add\n      tag_316\n      swap1\n      tag_317\n      jump\t// in\n    tag_316:\n      mload(0x40)\n      dup1\n      swap2\n      sub\n      swap1\n      revert\n    tag_315:\n        /* \"contracts/GeckoGold_flattened.sol\":31379:31389  newTaxRate */\n      dup1\n        /* \"contracts/GeckoGold_flattened.sol\":31369:31376  taxRate */\n      0x07\n        /* \"contracts/GeckoGold_flattened.sol\":31369:31389  taxRate = newTaxRate */\n      dup2\n      swap1\n      sstore\n      pop\n        /* \"contracts/GeckoGold_flattened.sol\":31221:31396  function setTaxRate(uint256 newTaxRate) external onlyOwner {... */\n      pop\n      jump\t// out\n        /* \"contracts/GeckoGold_flattened.sol\":32227:32365  function burnSupply(uint256 amount) external onlyOwner {... */\n    tag_144:\n        /* \"contracts/GeckoGold_flattened.sol\":23303:23316  _checkOwner() */\n      tag_319\n        /* \"contracts/GeckoGold_flattened.sol\":23303:23314  _checkOwner */\n      tag_180\n        /* \"contracts/GeckoGold_flattened.sol\":23303:23316  _checkOwner() */\n      jump\t// in\n    tag_319:\n        /* \"contracts/GeckoGold_flattened.sol\":32292:32314  _burn(owner(), amount) */\n      tag_321\n        /* \"contracts/GeckoGold_flattened.sol\":32298:32305  owner() */\n      tag_322\n        /* \"contracts/GeckoGold_flattened.sol\":32298:32303  owner */\n      tag_118\n        /* \"contracts/GeckoGold_flattened.sol\":32298:32305  owner() */\n      jump\t// in\n    tag_322:\n        /* \"contracts/GeckoGold_flattened.sol\":32307:32313  amount */\n      dup3\n        /* \"contracts/GeckoGold_flattened.sol\":32292:32297  _burn */\n      tag_204\n        /* \"contracts/GeckoGold_flattened.sol\":32292:32314  _burn(owner(), amount) */\n      jump\t// in\n    tag_321:\n        /* \"contracts/GeckoGold_flattened.sol\":32342:32349  owner() */\n      tag_323\n        /* \"contracts/GeckoGold_flattened.sol\":32342:32347  owner */\n      tag_118\n        /* \"contracts/GeckoGold_flattened.sol\":32342:32349  owner() */\n      jump\t// in\n    tag_323:\n        /* \"contracts/GeckoGold_flattened.sol\":32329:32358  TokensBurned(owner(), amount) */\n      0xffffffffffffffffffffffffffffffffffffffff\n      and\n      0xfd38818f5291bf0bb3a2a48aadc06ba8757865d1dabd804585338aab3009dcb6\n        /* \"contracts/GeckoGold_flattened.sol\":32351:32357  amount */\n      dup3\n        /* \"contracts/GeckoGold_flattened.sol\":32329:32358  TokensBurned(owner(), amount) */\n      mload(0x40)\n      tag_324\n      swap2\n      swap1\n      tag_66\n      jump\t// in\n    tag_324:\n      mload(0x40)\n      dup1\n      swap2\n      sub\n      swap1\n      log2\n        /* \"contracts/GeckoGold_flattened.sol\":32227:32365  function burnSupply(uint256 amount) external onlyOwner {... */\n      pop\n      jump\t// out\n        /* \"contracts/GeckoGold_flattened.sol\":28849:28881  uint256 public tradingStartBlock */\n    tag_146:\n      sload(0x0c)\n      dup2\n      jump\t// out\n        /* \"contracts/GeckoGold_flattened.sol\":14451:14591  function allowance(address owner, address spender) public view virtual returns (uint256) {... */\n    tag_151:\n        /* \"contracts/GeckoGold_flattened.sol\":14531:14538  uint256 */\n      0x00\n        /* \"contracts/GeckoGold_flattened.sol\":14557:14568  _allowances */\n      0x01\n        /* \"contracts/GeckoGold_flattened.sol\":14557:14575  _allowances[owner] */\n      0x00\n        /* \"contracts/GeckoGold_flattened.sol\":14569:14574  owner */\n      dup5\n        /* \"contracts/GeckoGold_flattened.sol\":14557:14575  _allowances[owner] */\n      0xffffffffffffffffffffffffffffffffffffffff\n      and\n      0xffffffffffffffffffffffffffffffffffffffff\n      and\n      dup2\n      mstore\n      0x20\n      add\n      swap1\n      dup2\n      mstore\n      0x20\n      add\n      0x00\n      keccak256\n        /* \"contracts/GeckoGold_flattened.sol\":14557:14584  _allowances[owner][spender] */\n      0x00\n        /* \"contracts/GeckoGold_flattened.sol\":14576:14583  spender */\n      dup4\n        /* \"contracts/GeckoGold_flattened.sol\":14557:14584  _allowances[owner][spender] */\n      0xffffffffffffffffffffffffffffffffffffffff\n      and\n      0xffffffffffffffffffffffffffffffffffffffff\n      and\n      dup2\n      mstore\n      0x20\n      add\n      swap1\n      dup2\n      mstore\n      0x20\n      add\n      0x00\n      keccak256\n      sload\n        /* \"contracts/GeckoGold_flattened.sol\":14550:14584  return _allowances[owner][spender] */\n      swap1\n      pop\n        /* \"contracts/GeckoGold_flattened.sol\":14451:14591  function allowance(address owner, address spender) public view virtual returns (uint256) {... */\n      swap3\n      swap2\n      pop\n      pop\n      jump\t// out\n        /* \"contracts/GeckoGold_flattened.sol\":33766:33874  function balance(address account) external view returns (uint256) {... */\n    tag_155:\n        /* \"contracts/GeckoGold_flattened.sol\":33823:33830  uint256 */\n      0x00\n        /* \"contracts/GeckoGold_flattened.sol\":33849:33867  balanceOf(account) */\n      tag_327\n        /* \"contracts/GeckoGold_flattened.sol\":33859:33866  account */\n      dup3\n        /* \"contracts/GeckoGold_flattened.sol\":33849:33858  balanceOf */\n      tag_100\n        /* \"contracts/GeckoGold_flattened.sol\":33849:33867  balanceOf(account) */\n      jump\t// in\n    tag_327:\n        /* \"contracts/GeckoGold_flattened.sol\":33842:33867  return balanceOf(account) */\n      swap1\n      pop\n        /* \"contracts/GeckoGold_flattened.sol\":33766:33874  function balance(address account) external view returns (uint256) {... */\n      swap2\n      swap1\n      pop\n      jump\t// out\n        /* \"contracts/GeckoGold_flattened.sol\":30906:31019  function addToWhitelist(address _address) external onlyOwner {... */\n    tag_159:\n        /* \"contracts/GeckoGold_flattened.sol\":23303:23316  _checkOwner() */\n      tag_329\n        /* \"contracts/GeckoGold_flattened.sol\":23303:23314  _checkOwner */\n      tag_180\n        /* \"contracts/GeckoGold_flattened.sol\":23303:23316  _checkOwner() */\n      jump\t// in\n    tag_329:\n        /* \"contracts/GeckoGold_flattened.sol\":31008:31012  true */\n      0x01\n        /* \"contracts/GeckoGold_flattened.sol\":30977:30995  whitelistAddresses */\n      0x09\n        /* \"contracts/GeckoGold_flattened.sol\":30977:31005  whitelistAddresses[_address] */\n      0x00\n        /* \"contracts/GeckoGold_flattened.sol\":30996:31004  _address */\n      dup4\n        /* \"contracts/GeckoGold_flattened.sol\":30977:31005  whitelistAddresses[_address] */\n      0xffffffffffffffffffffffffffffffffffffffff\n      and\n      0xffffffffffffffffffffffffffffffffffffffff\n      and\n      dup2\n      mstore\n      0x20\n      add\n      swap1\n      dup2\n      mstore\n      0x20\n      add\n      0x00\n      keccak256\n      0x00\n        /* \"contracts/GeckoGold_flattened.sol\":30977:31012  whitelistAddresses[_address] = true */\n      0x0100\n      exp\n      dup2\n      sload\n      dup2\n      0xff\n      mul\n      not\n      and\n      swap1\n      dup4\n      iszero\n      iszero\n      mul\n      or\n      swap1\n      sstore\n      pop\n        /* \"contracts/GeckoGold_flattened.sol\":30906:31019  function addToWhitelist(address _address) external onlyOwner {... */\n      pop\n      jump\t// out\n        /* \"contracts/GeckoGold_flattened.sol\":24315:24530  function transferOwnership(address newOwner) public virtual onlyOwner {... */\n    tag_162:\n        /* \"contracts/GeckoGold_flattened.sol\":23303:23316  _checkOwner() */\n      tag_332\n        /* \"contracts/GeckoGold_flattened.sol\":23303:23314  _checkOwner */\n      tag_180\n        /* \"contracts/GeckoGold_flattened.sol\":23303:23316  _checkOwner() */\n      jump\t// in\n    tag_332:\n        /* \"contracts/GeckoGold_flattened.sol\":24419:24420  0 */\n      0x00\n        /* \"contracts/GeckoGold_flattened.sol\":24399:24421  newOwner == address(0) */\n      0xffffffffffffffffffffffffffffffffffffffff\n      and\n        /* \"contracts/GeckoGold_flattened.sol\":24399:24407  newOwner */\n      dup2\n        /* \"contracts/GeckoGold_flattened.sol\":24399:24421  newOwner == address(0) */\n      0xffffffffffffffffffffffffffffffffffffffff\n      and\n      sub\n        /* \"contracts/GeckoGold_flattened.sol\":24395:24486  if (newOwner == address(0)) {... */\n      tag_334\n      jumpi\n        /* \"contracts/GeckoGold_flattened.sol\":24472:24473  0 */\n      0x00\n        /* \"contracts/GeckoGold_flattened.sol\":24444:24475  OwnableInvalidOwner(address(0)) */\n      mload(0x40)\n      0x1e4fbdf700000000000000000000000000000000000000000000000000000000\n      dup2\n      mstore\n      0x04\n      add\n      tag_335\n      swap2\n      swap1\n      tag_120\n      jump\t// in\n    tag_335:\n      mload(0x40)\n      dup1\n      swap2\n      sub\n      swap1\n      revert\n        /* \"contracts/GeckoGold_flattened.sol\":24395:24486  if (newOwner == address(0)) {... */\n    tag_334:\n        /* \"contracts/GeckoGold_flattened.sol\":24495:24523  _transferOwnership(newOwner) */\n      tag_336\n        /* \"contracts/GeckoGold_flattened.sol\":24514:24522  newOwner */\n      dup2\n        /* \"contracts/GeckoGold_flattened.sol\":24495:24513  _transferOwnership */\n      tag_232\n        /* \"contracts/GeckoGold_flattened.sol\":24495:24523  _transferOwnership(newOwner) */\n      jump\t// in\n    tag_336:\n        /* \"contracts/GeckoGold_flattened.sol\":24315:24530  function transferOwnership(address newOwner) public virtual onlyOwner {... */\n      pop\n      jump\t// out\n        /* \"contracts/GeckoGold_flattened.sol\":28417:28483  uint256 public constant MAX_TRANSFER_AMOUNT = 1_000_000 * 10 ** 18 */\n    tag_164:\n        /* \"contracts/GeckoGold_flattened.sol\":28463:28483  1_000_000 * 10 ** 18 */\n      0xd3c21bcecceda1000000\n        /* \"contracts/GeckoGold_flattened.sol\":28417:28483  uint256 public constant MAX_TRANSFER_AMOUNT = 1_000_000 * 10 ** 18 */\n      dup2\n      jump\t// out\n        /* \"contracts/GeckoGold_flattened.sol\":4208:4304  function _msgSender() internal view virtual returns (address) {... */\n    tag_175:\n        /* \"contracts/GeckoGold_flattened.sol\":4261:4268  address */\n      0x00\n        /* \"contracts/GeckoGold_flattened.sol\":4287:4297  msg.sender */\n      caller\n        /* \"contracts/GeckoGold_flattened.sol\":4280:4297  return msg.sender */\n      swap1\n      pop\n        /* \"contracts/GeckoGold_flattened.sol\":4208:4304  function _msgSender() internal view virtual returns (address) {... */\n      swap1\n      jump\t// out\n        /* \"contracts/GeckoGold_flattened.sol\":19626:19754  function _approve(address owner, address spender, uint256 value) internal {... */\n    tag_177:\n        /* \"contracts/GeckoGold_flattened.sol\":19710:19747  _approve(owner, spender, value, true) */\n      tag_339\n        /* \"contracts/GeckoGold_flattened.sol\":19719:19724  owner */\n      dup4\n        /* \"contracts/GeckoGold_flattened.sol\":19726:19733  spender */\n      dup4\n        /* \"contracts/GeckoGold_flattened.sol\":19735:19740  value */\n      dup4\n        /* \"contracts/GeckoGold_flattened.sol\":19742:19746  true */\n      0x01\n        /* \"contracts/GeckoGold_flattened.sol\":19710:19718  _approve */\n      tag_340\n        /* \"contracts/GeckoGold_flattened.sol\":19710:19747  _approve(owner, spender, value, true) */\n      jump\t// in\n    tag_339:\n        /* \"contracts/GeckoGold_flattened.sol\":19626:19754  function _approve(address owner, address spender, uint256 value) internal {... */\n      pop\n      pop\n      pop\n      jump\t// out\n        /* \"contracts/GeckoGold_flattened.sol\":23568:23730  function _checkOwner() internal view virtual {... */\n    tag_180:\n        /* \"contracts/GeckoGold_flattened.sol\":23638:23650  _msgSender() */\n      tag_342\n        /* \"contracts/GeckoGold_flattened.sol\":23638:23648  _msgSender */\n      tag_175\n        /* \"contracts/GeckoGold_flattened.sol\":23638:23650  _msgSender() */\n      jump\t// in\n    tag_342:\n        /* \"contracts/GeckoGold_flattened.sol\":23627:23650  owner() != _msgSender() */\n      0xffffffffffffffffffffffffffffffffffffffff\n      and\n        /* \"contracts/GeckoGold_flattened.sol\":23627:23634  owner() */\n      tag_343\n        /* \"contracts/GeckoGold_flattened.sol\":23627:23632  owner */\n      tag_118\n        /* \"contracts/GeckoGold_flattened.sol\":23627:23634  owner() */\n      jump\t// in\n    tag_343:\n        /* \"contracts/GeckoGold_flattened.sol\":23627:23650  owner() != _msgSender() */\n      0xffffffffffffffffffffffffffffffffffffffff\n      and\n      eq\n        /* \"contracts/GeckoGold_flattened.sol\":23623:23724  if (owner() != _msgSender()) {... */\n      tag_344\n      jumpi\n        /* \"contracts/GeckoGold_flattened.sol\":23700:23712  _msgSender() */\n      tag_345\n        /* \"contracts/GeckoGold_flattened.sol\":23700:23710  _msgSender */\n      tag_175\n        /* \"contracts/GeckoGold_flattened.sol\":23700:23712  _msgSender() */\n      jump\t// in\n    tag_345:\n        /* \"contracts/GeckoGold_flattened.sol\":23673:23713  OwnableUnauthorizedAccount(_msgSender()) */\n      mload(0x40)\n      0x118cdaa700000000000000000000000000000000000000000000000000000000\n      dup2\n      mstore\n      0x04\n      add\n      tag_346\n      swap2\n      swap1\n      tag_120\n      jump\t// in\n    tag_346:\n      mload(0x40)\n      dup1\n      swap2\n      sub\n      swap1\n      revert\n        /* \"contracts/GeckoGold_flattened.sol\":23623:23724  if (owner() != _msgSender()) {... */\n    tag_344:\n        /* \"contracts/GeckoGold_flattened.sol\":23568:23730  function _checkOwner() internal view virtual {... */\n      jump\t// out\n        /* \"contracts/GeckoGold_flattened.sol\":21315:21792  function _spendAllowance(address owner, address spender, uint256 value) internal virtual {... */\n    tag_195:\n        /* \"contracts/GeckoGold_flattened.sol\":21414:21438  uint256 currentAllowance */\n      0x00\n        /* \"contracts/GeckoGold_flattened.sol\":21441:21466  allowance(owner, spender) */\n      tag_348\n        /* \"contracts/GeckoGold_flattened.sol\":21451:21456  owner */\n      dup5\n        /* \"contracts/GeckoGold_flattened.sol\":21458:21465  spender */\n      dup5\n        /* \"contracts/GeckoGold_flattened.sol\":21441:21450  allowance */\n      tag_151\n        /* \"contracts/GeckoGold_flattened.sol\":21441:21466  allowance(owner, spender) */\n      jump\t// in\n    tag_348:\n        /* \"contracts/GeckoGold_flattened.sol\":21414:21466  uint256 currentAllowance = allowance(owner, spender) */\n      swap1\n      pop\n        /* \"contracts/GeckoGold_flattened.sol\":21500:21517  type(uint256).max */\n      0xffffffffffffffffffffffffffffffffffffffffffffffffffffffffffffffff\n        /* \"contracts/GeckoGold_flattened.sol\":21480:21496  currentAllowance */\n      dup2\n        /* \"contracts/GeckoGold_flattened.sol\":21480:21517  currentAllowance != type(uint256).max */\n      eq\n        /* \"contracts/GeckoGold_flattened.sol\":21476:21786  if (currentAllowance != type(uint256).max) {... */\n      tag_349\n      jumpi\n        /* \"contracts/GeckoGold_flattened.sol\":21556:21561  value */\n      dup2\n        /* \"contracts/GeckoGold_flattened.sol\":21537:21553  currentAllowance */\n      dup2\n        /* \"contracts/GeckoGold_flattened.sol\":21537:21561  currentAllowance < value */\n      lt\n        /* \"contracts/GeckoGold_flattened.sol\":21533:21663  if (currentAllowance < value) {... */\n      iszero\n      tag_350\n      jumpi\n        /* \"contracts/GeckoGold_flattened.sol\":21615:21622  spender */\n      dup3\n        /* \"contracts/GeckoGold_flattened.sol\":21624:21640  currentAllowance */\n      dup2\n        /* \"contracts/GeckoGold_flattened.sol\":21642:21647  value */\n      dup4\n        /* \"contracts/GeckoGold_flattened.sol\":21588:21648  ERC20InsufficientAllowance(spender, currentAllowance, value) */\n      mload(0x40)\n      0xfb8f41b200000000000000000000000000000000000000000000000000000000\n      dup2\n      mstore\n      0x04\n      add\n      tag_351\n      swap4\n      swap3\n      swap2\n      swap1\n      tag_352\n      jump\t// in\n    tag_351:\n      mload(0x40)\n      dup1\n      swap2\n      sub\n      swap1\n      revert\n        /* \"contracts/GeckoGold_flattened.sol\":21533:21663  if (currentAllowance < value) {... */\n    tag_350:\n        /* \"contracts/GeckoGold_flattened.sol\":21704:21761  _approve(owner, spender, currentAllowance - value, false) */\n      tag_353\n        /* \"contracts/GeckoGold_flattened.sol\":21713:21718  owner */\n      dup5\n        /* \"contracts/GeckoGold_flattened.sol\":21720:21727  spender */\n      dup5\n        /* \"contracts/GeckoGold_flattened.sol\":21748:21753  value */\n      dup5\n        /* \"contracts/GeckoGold_flattened.sol\":21729:21745  currentAllowance */\n      dup5\n        /* \"contracts/GeckoGold_flattened.sol\":21729:21753  currentAllowance - value */\n      sub\n        /* \"contracts/GeckoGold_flattened.sol\":21755:21760  false */\n      0x00\n        /* \"contracts/GeckoGold_flattened.sol\":21704:21712  _approve */\n      tag_340\n        /* \"contracts/GeckoGold_flattened.sol\":21704:21761  _approve(owner, spender, currentAllowance - value, false) */\n      jump\t// in\n    tag_353:\n        /* \"contracts/GeckoGold_flattened.sol\":21476:21786  if (currentAllowance != type(uint256).max) {... */\n    tag_349:\n        /* \"contracts/GeckoGold_flattened.sol\":21404:21792  {... */\n      pop\n        /* \"contracts/GeckoGold_flattened.sol\":21315:21792  function _spendAllowance(address owner, address spender, uint256 value) internal virtual {... */\n      pop\n      pop\n      pop\n      jump\t// out\n        /* \"contracts/GeckoGold_flattened.sol\":16293:16593  function _transfer(address from, address to, uint256 value) internal {... */\n    tag_197:\n        /* \"contracts/GeckoGold_flattened.sol\":16392:16393  0 */\n      0x00\n        /* \"contracts/GeckoGold_flattened.sol\":16376:16394  from == address(0) */\n      0xffffffffffffffffffffffffffffffffffffffff\n      and\n        /* \"contracts/GeckoGold_flattened.sol\":16376:16380  from */\n      dup4\n        /* \"contracts/GeckoGold_flattened.sol\":16376:16394  from == address(0) */\n      0xffffffffffffffffffffffffffffffffffffffff\n      and\n      sub\n        /* \"contracts/GeckoGold_flattened.sol\":16372:16458  if (from == address(0)) {... */\n      tag_355\n      jumpi\n        /* \"contracts/GeckoGold_flattened.sol\":16444:16445  0 */\n      0x00\n        /* \"contracts/GeckoGold_flattened.sol\":16417:16447  ERC20InvalidSender(address(0)) */\n      mload(0x40)\n      0x96c6fd1e00000000000000000000000000000000000000000000000000000000\n      dup2\n      mstore\n      0x04\n      add\n      tag_356\n      swap2\n      swap1\n      tag_120\n      jump\t// in\n    tag_356:\n      mload(0x40)\n      dup1\n      swap2\n      sub\n      swap1\n      revert\n        /* \"contracts/GeckoGold_flattened.sol\":16372:16458  if (from == address(0)) {... */\n    tag_355:\n        /* \"contracts/GeckoGold_flattened.sol\":16485:16486  0 */\n      0x00\n        /* \"contracts/GeckoGold_flattened.sol\":16471:16487  to == address(0) */\n      0xffffffffffffffffffffffffffffffffffffffff\n      and\n        /* \"contracts/GeckoGold_flattened.sol\":16471:16473  to */\n      dup3\n        /* \"contracts/GeckoGold_flattened.sol\":16471:16487  to == address(0) */\n      0xffffffffffffffffffffffffffffffffffffffff\n      and\n      sub\n        /* \"contracts/GeckoGold_flattened.sol\":16467:16553  if (to == address(0)) {... */\n      tag_357\n      jumpi\n        /* \"contracts/GeckoGold_flattened.sol\":16539:16540  0 */\n      0x00\n        /* \"contracts/GeckoGold_flattened.sol\":16510:16542  ERC20InvalidReceiver(address(0)) */\n      mload(0x40)\n      0xec442f0500000000000000000000000000000000000000000000000000000000\n      dup2\n      mstore\n      0x04\n      add\n      tag_358\n      swap2\n      swap1\n      tag_120\n      jump\t// in\n    tag_358:\n      mload(0x40)\n      dup1\n      swap2\n      sub\n      swap1\n      revert\n        /* \"contracts/GeckoGold_flattened.sol\":16467:16553  if (to == address(0)) {... */\n    tag_357:\n        /* \"contracts/GeckoGold_flattened.sol\":16562:16586  _update(from, to, value) */\n      tag_359\n        /* \"contracts/GeckoGold_flattened.sol\":16570:16574  from */\n      dup4\n        /* \"contracts/GeckoGold_flattened.sol\":16576:16578  to */\n      dup4\n        /* \"contracts/GeckoGold_flattened.sol\":16580:16585  value */\n      dup4\n        /* \"contracts/GeckoGold_flattened.sol\":16562:16569  _update */\n      tag_360\n        /* \"contracts/GeckoGold_flattened.sol\":16562:16586  _update(from, to, value) */\n      jump\t// in\n    tag_359:\n        /* \"contracts/GeckoGold_flattened.sol\":16293:16593  function _transfer(address from, address to, uint256 value) internal {... */\n      pop\n      pop\n      pop\n      jump\t// out\n        /* \"contracts/GeckoGold_flattened.sol\":18884:19090  function _burn(address account, uint256 value) internal {... */\n    tag_204:\n        /* \"contracts/GeckoGold_flattened.sol\":18973:18974  0 */\n      0x00\n        /* \"contracts/GeckoGold_flattened.sol\":18954:18975  account == address(0) */\n      0xffffffffffffffffffffffffffffffffffffffff\n      and\n        /* \"contracts/GeckoGold_flattened.sol\":18954:18961  account */\n      dup3\n        /* \"contracts/GeckoGold_flattened.sol\":18954:18975  account == address(0) */\n      0xffffffffffffffffffffffffffffffffffffffff\n      and\n      sub\n        /* \"contracts/GeckoGold_flattened.sol\":18950:19039  if (account == address(0)) {... */\n      tag_362\n      jumpi\n        /* \"contracts/GeckoGold_flattened.sol\":19025:19026  0 */\n      0x00\n        /* \"contracts/GeckoGold_flattened.sol\":18998:19028  ERC20InvalidSender(address(0)) */\n      mload(0x40)\n      0x96c6fd1e00000000000000000000000000000000000000000000000000000000\n      dup2\n      mstore\n      0x04\n      add\n      tag_363\n      swap2\n      swap1\n      tag_120\n      jump\t// in\n    tag_363:\n      mload(0x40)\n      dup1\n      swap2\n      sub\n      swap1\n      revert\n        /* \"contracts/GeckoGold_flattened.sol\":18950:19039  if (account == address(0)) {... */\n    tag_362:\n        /* \"contracts/GeckoGold_flattened.sol\":19048:19083  _update(account, address(0), value) */\n      tag_364\n        /* \"contracts/GeckoGold_flattened.sol\":19056:19063  account */\n      dup3\n        /* \"contracts/GeckoGold_flattened.sol\":19073:19074  0 */\n      0x00\n        /* \"contracts/GeckoGold_flattened.sol\":19077:19082  value */\n      dup4\n        /* \"contracts/GeckoGold_flattened.sol\":19048:19055  _update */\n      tag_360\n        /* \"contracts/GeckoGold_flattened.sol\":19048:19083  _update(account, address(0), value) */\n      jump\t// in\n    tag_364:\n        /* \"contracts/GeckoGold_flattened.sol\":18884:19090  function _burn(address account, uint256 value) internal {... */\n      pop\n      pop\n      jump\t// out\n        /* \"contracts/GeckoGold_flattened.sol\":27243:27530  function _nonReentrantBefore() private {... */\n    tag_220:\n        /* \"contracts/GeckoGold_flattened.sol\":26666:26667  2 */\n      0x02\n        /* \"contracts/GeckoGold_flattened.sol\":27375:27382  _status */\n      sload(0x06)\n        /* \"contracts/GeckoGold_flattened.sol\":27375:27394  _status != _ENTERED */\n      sub\n        /* \"contracts/GeckoGold_flattened.sol\":27367:27430  require(_status != _ENTERED, \"ReentrancyGuard: reentrant call\") */\n      tag_366\n      jumpi\n      mload(0x40)\n      0x08c379a000000000000000000000000000000000000000000000000000000000\n      dup2\n      mstore\n      0x04\n      add\n      tag_367\n      swap1\n      tag_368\n      jump\t// in\n    tag_367:\n      mload(0x40)\n      dup1\n      swap2\n      sub\n      swap1\n      revert\n    tag_366:\n        /* \"contracts/GeckoGold_flattened.sol\":26666:26667  2 */\n      0x02\n        /* \"contracts/GeckoGold_flattened.sol\":27505:27512  _status */\n      0x06\n        /* \"contracts/GeckoGold_flattened.sol\":27505:27523  _status = _ENTERED */\n      dup2\n      swap1\n      sstore\n      pop\n        /* \"contracts/GeckoGold_flattened.sol\":27243:27530  function _nonReentrantBefore() private {... */\n      jump\t// out\n        /* \"contracts/GeckoGold_flattened.sol\":27536:27745  function _nonReentrantAfter() private {... */\n    tag_226:\n        /* \"contracts/GeckoGold_flattened.sol\":26623:26624  1 */\n      0x01\n        /* \"contracts/GeckoGold_flattened.sol\":27716:27723  _status */\n      0x06\n        /* \"contracts/GeckoGold_flattened.sol\":27716:27738  _status = _NOT_ENTERED */\n      dup2\n      swap1\n      sstore\n      pop\n        /* \"contracts/GeckoGold_flattened.sol\":27536:27745  function _nonReentrantAfter() private {... */\n      jump\t// out\n        /* \"contracts/GeckoGold_flattened.sol\":24684:24871  function _transferOwnership(address newOwner) internal virtual {... */\n    tag_232:\n        /* \"contracts/GeckoGold_flattened.sol\":24757:24773  address oldOwner */\n      0x00\n        /* \"contracts/GeckoGold_flattened.sol\":24776:24782  _owner */\n      0x05\n      0x00\n      swap1\n      sload\n      swap1\n      0x0100\n      exp\n      swap1\n      div\n      0xffffffffffffffffffffffffffffffffffffffff\n      and\n        /* \"contracts/GeckoGold_flattened.sol\":24757:24782  address oldOwner = _owner */\n      swap1\n      pop\n        /* \"contracts/GeckoGold_flattened.sol\":24801:24809  newOwner */\n      dup2\n        /* \"contracts/GeckoGold_flattened.sol\":24792:24798  _owner */\n      0x05\n      0x00\n        /* \"contracts/GeckoGold_flattened.sol\":24792:24809  _owner = newOwner */\n      0x0100\n      exp\n      dup2\n      sload\n      dup2\n      0xffffffffffffffffffffffffffffffffffffffff\n      mul\n      not\n      and\n      swap1\n      dup4\n      0xffffffffffffffffffffffffffffffffffffffff\n      and\n      mul\n      or\n      swap1\n      sstore\n      pop\n        /* \"contracts/GeckoGold_flattened.sol\":24855:24863  newOwner */\n      dup2\n        /* \"contracts/GeckoGold_flattened.sol\":24824:24864  OwnershipTransferred(oldOwner, newOwner) */\n      0xffffffffffffffffffffffffffffffffffffffff\n      and\n        /* \"contracts/GeckoGold_flattened.sol\":24845:24853  oldOwner */\n      dup2\n        /* \"contracts/GeckoGold_flattened.sol\":24824:24864  OwnershipTransferred(oldOwner, newOwner) */\n      0xffffffffffffffffffffffffffffffffffffffff\n      and\n      0x8be0079c531659141344cd1fd0a4f28419497f9722a3daafe3b4186f6b6457e0\n      mload(0x40)\n      mload(0x40)\n      dup1\n      swap2\n      sub\n      swap1\n      log3\n        /* \"contracts/GeckoGold_flattened.sol\":24747:24871  {... */\n      pop\n        /* \"contracts/GeckoGold_flattened.sol\":24684:24871  function _transferOwnership(address newOwner) internal virtual {... */\n      pop\n      jump\t// out\n        /* \"contracts/GeckoGold_flattened.sol\":14215:14393  function transfer(address to, uint256 value) public virtual returns (bool) {... */\n    tag_278:\n        /* \"contracts/GeckoGold_flattened.sol\":14284:14288  bool */\n      0x00\n        /* \"contracts/GeckoGold_flattened.sol\":14300:14313  address owner */\n      dup1\n        /* \"contracts/GeckoGold_flattened.sol\":14316:14328  _msgSender() */\n      tag_372\n        /* \"contracts/GeckoGold_flattened.sol\":14316:14326  _msgSender */\n      tag_175\n        /* \"contracts/GeckoGold_flattened.sol\":14316:14328  _msgSender() */\n      jump\t// in\n    tag_372:\n        /* \"contracts/GeckoGold_flattened.sol\":14300:14328  address owner = _msgSender() */\n      swap1\n      pop\n        /* \"contracts/GeckoGold_flattened.sol\":14338:14365  _transfer(owner, to, value) */\n      tag_373\n        /* \"contracts/GeckoGold_flattened.sol\":14348:14353  owner */\n      dup2\n        /* \"contracts/GeckoGold_flattened.sol\":14355:14357  to */\n      dup6\n        /* \"contracts/GeckoGold_flattened.sol\":14359:14364  value */\n      dup6\n        /* \"contracts/GeckoGold_flattened.sol\":14338:14347  _transfer */\n      tag_197\n        /* \"contracts/GeckoGold_flattened.sol\":14338:14365  _transfer(owner, to, value) */\n      jump\t// in\n    tag_373:\n        /* \"contracts/GeckoGold_flattened.sol\":14382:14386  true */\n      0x01\n        /* \"contracts/GeckoGold_flattened.sol\":14375:14386  return true */\n      swap2\n      pop\n      pop\n        /* \"contracts/GeckoGold_flattened.sol\":14215:14393  function transfer(address to, uint256 value) public virtual returns (bool) {... */\n      swap3\n      swap2\n      pop\n      pop\n      jump\t// out\n        /* \"contracts/GeckoGold_flattened.sol\":20601:21033  function _approve(address owner, address spender, uint256 value, bool emitEvent) internal virtual {... */\n    tag_340:\n        /* \"contracts/GeckoGold_flattened.sol\":20730:20731  0 */\n      0x00\n        /* \"contracts/GeckoGold_flattened.sol\":20713:20732  owner == address(0) */\n      0xffffffffffffffffffffffffffffffffffffffff\n      and\n        /* \"contracts/GeckoGold_flattened.sol\":20713:20718  owner */\n      dup5\n        /* \"contracts/GeckoGold_flattened.sol\":20713:20732  owner == address(0) */\n      0xffffffffffffffffffffffffffffffffffffffff\n      and\n      sub\n        /* \"contracts/GeckoGold_flattened.sol\":20709:20798  if (owner == address(0)) {... */\n      tag_375\n      jumpi\n        /* \"contracts/GeckoGold_flattened.sol\":20784:20785  0 */\n      0x00\n        /* \"contracts/GeckoGold_flattened.sol\":20755:20787  ERC20InvalidApprover(address(0)) */\n      mload(0x40)\n      0xe602df0500000000000000000000000000000000000000000000000000000000\n      dup2\n      mstore\n      0x04\n      add\n      tag_376\n      swap2\n      swap1\n      tag_120\n      jump\t// in\n    tag_376:\n      mload(0x40)\n      dup1\n      swap2\n      sub\n      swap1\n      revert\n        /* \"contracts/GeckoGold_flattened.sol\":20709:20798  if (owner == address(0)) {... */\n    tag_375:\n        /* \"contracts/GeckoGold_flattened.sol\":20830:20831  0 */\n      0x00\n        /* \"contracts/GeckoGold_flattened.sol\":20811:20832  spender == address(0) */\n      0xffffffffffffffffffffffffffffffffffffffff\n      and\n        /* \"contracts/GeckoGold_flattened.sol\":20811:20818  spender */\n      dup4\n        /* \"contracts/GeckoGold_flattened.sol\":20811:20832  spender == address(0) */\n      0xffffffffffffffffffffffffffffffffffffffff\n      and\n      sub\n        /* \"contracts/GeckoGold_flattened.sol\":20807:20897  if (spender == address(0)) {... */\n      tag_377\n      jumpi\n        /* \"contracts/GeckoGold_flattened.sol\":20883:20884  0 */\n      0x00\n        /* \"contracts/GeckoGold_flattened.sol\":20855:20886  ERC20InvalidSpender(address(0)) */\n      mload(0x40)\n      0x94280d6200000000000000000000000000000000000000000000000000000000\n      dup2\n      mstore\n      0x04\n      add\n      tag_378\n      swap2\n      swap1\n      tag_120\n      jump\t// in\n    tag_378:\n      mload(0x40)\n      dup1\n      swap2\n      sub\n      swap1\n      revert\n        /* \"contracts/GeckoGold_flattened.sol\":20807:20897  if (spender == address(0)) {... */\n    tag_377:\n        /* \"contracts/GeckoGold_flattened.sol\":20936:20941  value */\n      dup2\n        /* \"contracts/GeckoGold_flattened.sol\":20906:20917  _allowances */\n      0x01\n        /* \"contracts/GeckoGold_flattened.sol\":20906:20924  _allowances[owner] */\n      0x00\n        /* \"contracts/GeckoGold_flattened.sol\":20918:20923  owner */\n      dup7\n        /* \"contracts/GeckoGold_flattened.sol\":20906:20924  _allowances[owner] */\n      0xffffffffffffffffffffffffffffffffffffffff\n      and\n      0xffffffffffffffffffffffffffffffffffffffff\n      and\n      dup2\n      mstore\n      0x20\n      add\n      swap1\n      dup2\n      mstore\n      0x20\n      add\n      0x00\n      keccak256\n        /* \"contracts/GeckoGold_flattened.sol\":20906:20933  _allowances[owner][spender] */\n      0x00\n        /* \"contracts/GeckoGold_flattened.sol\":20925:20932  spender */\n      dup6\n        /* \"contracts/GeckoGold_flattened.sol\":20906:20933  _allowances[owner][spender] */\n      0xffffffffffffffffffffffffffffffffffffffff\n      and\n      0xffffffffffffffffffffffffffffffffffffffff\n      and\n      dup2\n      mstore\n      0x20\n      add\n      swap1\n      dup2\n      mstore\n      0x20\n      add\n      0x00\n      keccak256\n        /* \"contracts/GeckoGold_flattened.sol\":20906:20941  _allowances[owner][spender] = value */\n      dup2\n      swap1\n      sstore\n      pop\n        /* \"contracts/GeckoGold_flattened.sol\":20955:20964  emitEvent */\n      dup1\n        /* \"contracts/GeckoGold_flattened.sol\":20951:21027  if (emitEvent) {... */\n      iszero\n      tag_379\n      jumpi\n        /* \"contracts/GeckoGold_flattened.sol\":21001:21008  spender */\n      dup3\n        /* \"contracts/GeckoGold_flattened.sol\":20985:21016  Approval(owner, spender, value) */\n      0xffffffffffffffffffffffffffffffffffffffff\n      and\n        /* \"contracts/GeckoGold_flattened.sol\":20994:20999  owner */\n      dup5\n        /* \"contracts/GeckoGold_flattened.sol\":20985:21016  Approval(owner, spender, value) */\n      0xffffffffffffffffffffffffffffffffffffffff\n      and\n      0x8c5be1e5ebec7d5bd14f71427d1e84f3dd0314c0f7b2291e5b200ac8c7c3b925\n        /* \"contracts/GeckoGold_flattened.sol\":21010:21015  value */\n      dup5\n        /* \"contracts/GeckoGold_flattened.sol\":20985:21016  Approval(owner, spender, value) */\n      mload(0x40)\n      tag_380\n      swap2\n      swap1\n      tag_66\n      jump\t// in\n    tag_380:\n      mload(0x40)\n      dup1\n      swap2\n      sub\n      swap1\n      log3\n        /* \"contracts/GeckoGold_flattened.sol\":20951:21027  if (emitEvent) {... */\n    tag_379:\n        /* \"contracts/GeckoGold_flattened.sol\":20601:21033  function _approve(address owner, address spender, uint256 value, bool emitEvent) internal virtual {... */\n      pop\n      pop\n      pop\n      pop\n      jump\t// out\n        /* \"contracts/GeckoGold_flattened.sol\":16908:18015  function _update(address from, address to, uint256 value) internal virtual {... */\n    tag_360:\n        /* \"contracts/GeckoGold_flattened.sol\":17013:17014  0 */\n      0x00\n        /* \"contracts/GeckoGold_flattened.sol\":16997:17015  from == address(0) */\n      0xffffffffffffffffffffffffffffffffffffffff\n      and\n        /* \"contracts/GeckoGold_flattened.sol\":16997:17001  from */\n      dup4\n        /* \"contracts/GeckoGold_flattened.sol\":16997:17015  from == address(0) */\n      0xffffffffffffffffffffffffffffffffffffffff\n      and\n      sub\n        /* \"contracts/GeckoGold_flattened.sol\":16993:17533  if (from == address(0)) {... */\n      tag_382\n      jumpi\n        /* \"contracts/GeckoGold_flattened.sol\":17149:17154  value */\n      dup1\n        /* \"contracts/GeckoGold_flattened.sol\":17133:17145  _totalSupply */\n      0x02\n      0x00\n        /* \"contracts/GeckoGold_flattened.sol\":17133:17154  _totalSupply += value */\n      dup3\n      dup3\n      sload\n      tag_383\n      swap2\n      swap1\n      tag_283\n      jump\t// in\n    tag_383:\n      swap3\n      pop\n      pop\n      dup2\n      swap1\n      sstore\n      pop\n        /* \"contracts/GeckoGold_flattened.sol\":16993:17533  if (from == address(0)) {... */\n      jump(tag_384)\n    tag_382:\n        /* \"contracts/GeckoGold_flattened.sol\":17185:17204  uint256 fromBalance */\n      0x00\n        /* \"contracts/GeckoGold_flattened.sol\":17207:17216  _balances */\n      dup1\n        /* \"contracts/GeckoGold_flattened.sol\":17207:17222  _balances[from] */\n      0x00\n        /* \"contracts/GeckoGold_flattened.sol\":17217:17221  from */\n      dup6\n        /* \"contracts/GeckoGold_flattened.sol\":17207:17222  _balances[from] */\n      0xffffffffffffffffffffffffffffffffffffffff\n      and\n      0xffffffffffffffffffffffffffffffffffffffff\n      and\n      dup2\n      mstore\n      0x20\n      add\n      swap1\n      dup2\n      mstore\n      0x20\n      add\n      0x00\n      keccak256\n      sload\n        /* \"contracts/GeckoGold_flattened.sol\":17185:17222  uint256 fromBalance = _balances[from] */\n      swap1\n      pop\n        /* \"contracts/GeckoGold_flattened.sol\":17254:17259  value */\n      dup2\n        /* \"contracts/GeckoGold_flattened.sol\":17240:17251  fromBalance */\n      dup2\n        /* \"contracts/GeckoGold_flattened.sol\":17240:17259  fromBalance < value */\n      lt\n        /* \"contracts/GeckoGold_flattened.sol\":17236:17351  if (fromBalance < value) {... */\n      iszero\n      tag_385\n      jumpi\n        /* \"contracts/GeckoGold_flattened.sol\":17311:17315  from */\n      dup4\n        /* \"contracts/GeckoGold_flattened.sol\":17317:17328  fromBalance */\n      dup2\n        /* \"contracts/GeckoGold_flattened.sol\":17330:17335  value */\n      dup4\n        /* \"contracts/GeckoGold_flattened.sol\":17286:17336  ERC20InsufficientBalance(from, fromBalance, value) */\n      mload(0x40)\n      0xe450d38c00000000000000000000000000000000000000000000000000000000\n      dup2\n      mstore\n      0x04\n      add\n      tag_386\n      swap4\n      swap3\n      swap2\n      swap1\n      tag_352\n      jump\t// in\n    tag_386:\n      mload(0x40)\n      dup1\n      swap2\n      sub\n      swap1\n      revert\n        /* \"contracts/GeckoGold_flattened.sol\":17236:17351  if (fromBalance < value) {... */\n    tag_385:\n        /* \"contracts/GeckoGold_flattened.sol\":17503:17508  value */\n      dup2\n        /* \"contracts/GeckoGold_flattened.sol\":17489:17500  fromBalance */\n      dup2\n        /* \"contracts/GeckoGold_flattened.sol\":17489:17508  fromBalance - value */\n      sub\n        /* \"contracts/GeckoGold_flattened.sol\":17471:17480  _balances */\n      0x00\n        /* \"contracts/GeckoGold_flattened.sol\":17471:17486  _balances[from] */\n      dup1\n        /* \"contracts/GeckoGold_flattened.sol\":17481:17485  from */\n      dup7\n        /* \"contracts/GeckoGold_flattened.sol\":17471:17486  _balances[from] */\n      0xffffffffffffffffffffffffffffffffffffffff\n      and\n      0xffffffffffffffffffffffffffffffffffffffff\n      and\n      dup2\n      mstore\n      0x20\n      add\n      swap1\n      dup2\n      mstore\n      0x20\n      add\n      0x00\n      keccak256\n        /* \"contracts/GeckoGold_flattened.sol\":17471:17508  _balances[from] = fromBalance - value */\n      dup2\n      swap1\n      sstore\n      pop\n        /* \"contracts/GeckoGold_flattened.sol\":17171:17533  {... */\n      pop\n        /* \"contracts/GeckoGold_flattened.sol\":16993:17533  if (from == address(0)) {... */\n    tag_384:\n        /* \"contracts/GeckoGold_flattened.sol\":17561:17562  0 */\n      0x00\n        /* \"contracts/GeckoGold_flattened.sol\":17547:17563  to == address(0) */\n      0xffffffffffffffffffffffffffffffffffffffff\n      and\n        /* \"contracts/GeckoGold_flattened.sol\":17547:17549  to */\n      dup3\n        /* \"contracts/GeckoGold_flattened.sol\":17547:17563  to == address(0) */\n      0xffffffffffffffffffffffffffffffffffffffff\n      and\n      sub\n        /* \"contracts/GeckoGold_flattened.sol\":17543:17968  if (to == address(0)) {... */\n      tag_387\n      jumpi\n        /* \"contracts/GeckoGold_flattened.sol\":17726:17731  value */\n      dup1\n        /* \"contracts/GeckoGold_flattened.sol\":17710:17722  _totalSupply */\n      0x02\n      0x00\n        /* \"contracts/GeckoGold_flattened.sol\":17710:17731  _totalSupply -= value */\n      dup3\n      dup3\n      sload\n      sub\n      swap3\n      pop\n      pop\n      dup2\n      swap1\n      sstore\n      pop\n        /* \"contracts/GeckoGold_flattened.sol\":17543:17968  if (to == address(0)) {... */\n      jump(tag_388)\n    tag_387:\n        /* \"contracts/GeckoGold_flattened.sol\":17938:17943  value */\n      dup1\n        /* \"contracts/GeckoGold_flattened.sol\":17921:17930  _balances */\n      0x00\n        /* \"contracts/GeckoGold_flattened.sol\":17921:17934  _balances[to] */\n      dup1\n        /* \"contracts/GeckoGold_flattened.sol\":17931:17933  to */\n      dup5\n        /* \"contracts/GeckoGold_flattened.sol\":17921:17934  _balances[to] */\n      0xffffffffffffffffffffffffffffffffffffffff\n      and\n      0xffffffffffffffffffffffffffffffffffffffff\n      and\n      dup2\n      mstore\n      0x20\n      add\n      swap1\n      dup2\n      mstore\n      0x20\n      add\n      0x00\n      keccak256\n      0x00\n        /* \"contracts/GeckoGold_flattened.sol\":17921:17943  _balances[to] += value */\n      dup3\n      dup3\n      sload\n      add\n      swap3\n      pop\n      pop\n      dup2\n      swap1\n      sstore\n      pop\n        /* \"contracts/GeckoGold_flattened.sol\":17543:17968  if (to == address(0)) {... */\n    tag_388:\n        /* \"contracts/GeckoGold_flattened.sol\":17998:18000  to */\n      dup2\n        /* \"contracts/GeckoGold_flattened.sol\":17983:18008  Transfer(from, to, value) */\n      0xffffffffffffffffffffffffffffffffffffffff\n      and\n        /* \"contracts/GeckoGold_flattened.sol\":17992:17996  from */\n      dup4\n        /* \"contracts/GeckoGold_flattened.sol\":17983:18008  Transfer(from, to, value) */\n      0xffffffffffffffffffffffffffffffffffffffff\n      and\n      0xddf252ad1be2c89b69c2b068fc378daa952ba7f163c4a11628f55a4df523b3ef\n        /* \"contracts/GeckoGold_flattened.sol\":18002:18007  value */\n      dup4\n        /* \"contracts/GeckoGold_flattened.sol\":17983:18008  Transfer(from, to, value) */\n      mload(0x40)\n      tag_389\n      swap2\n      swap1\n      tag_66\n      jump\t// in\n    tag_389:\n      mload(0x40)\n      dup1\n      swap2\n      sub\n      swap1\n      log3\n        /* \"contracts/GeckoGold_flattened.sol\":16908:18015  function _update(address from, address to, uint256 value) internal virtual {... */\n      pop\n      pop\n      pop\n      jump\t// out\n        /* \"#utility.yul\":7:106   */\n    tag_390:\n        /* \"#utility.yul\":59:65   */\n      0x00\n        /* \"#utility.yul\":93:98   */\n      dup2\n        /* \"#utility.yul\":87:99   */\n      mload\n        /* \"#utility.yul\":77:99   */\n      swap1\n      pop\n        /* \"#utility.yul\":7:106   */\n      swap2\n      swap1\n      pop\n      jump\t// out\n        /* \"#utility.yul\":112:281   */\n    tag_391:\n        /* \"#utility.yul\":196:207   */\n      0x00\n        /* \"#utility.yul\":230:236   */\n      dup3\n        /* \"#utility.yul\":225:228   */\n      dup3\n        /* \"#utility.yul\":218:237   */\n      mstore\n        /* \"#utility.yul\":270:274   */\n      0x20\n        /* \"#utility.yul\":265:268   */\n      dup3\n        /* \"#utility.yul\":261:275   */\n      add\n        /* \"#utility.yul\":246:275   */\n      swap1\n      pop\n        /* \"#utility.yul\":112:281   */\n      swap3\n      swap2\n      pop\n      pop\n      jump\t// out\n        /* \"#utility.yul\":287:533   */\n    tag_392:\n        /* \"#utility.yul\":368:369   */\n      0x00\n        /* \"#utility.yul\":378:491   */\n    tag_445:\n        /* \"#utility.yul\":392:398   */\n      dup4\n        /* \"#utility.yul\":389:390   */\n      dup2\n        /* \"#utility.yul\":386:399   */\n      lt\n        /* \"#utility.yul\":378:491   */\n      iszero\n      tag_447\n      jumpi\n        /* \"#utility.yul\":477:478   */\n      dup1\n        /* \"#utility.yul\":472:475   */\n      dup3\n        /* \"#utility.yul\":468:479   */\n      add\n        /* \"#utility.yul\":462:480   */\n      mload\n        /* \"#utility.yul\":458:459   */\n      dup2\n        /* \"#utility.yul\":453:456   */\n      dup5\n        /* \"#utility.yul\":449:460   */\n      add\n        /* \"#utility.yul\":442:481   */\n      mstore\n        /* \"#utility.yul\":414:416   */\n      0x20\n        /* \"#utility.yul\":411:412   */\n      dup2\n        /* \"#utility.yul\":407:417   */\n      add\n        /* \"#utility.yul\":402:417   */\n      swap1\n      pop\n        /* \"#utility.yul\":378:491   */\n      jump(tag_445)\n    tag_447:\n        /* \"#utility.yul\":525:526   */\n      0x00\n        /* \"#utility.yul\":516:522   */\n      dup5\n        /* \"#utility.yul\":511:514   */\n      dup5\n        /* \"#utility.yul\":507:523   */\n      add\n        /* \"#utility.yul\":500:527   */\n      mstore\n        /* \"#utility.yul\":349:533   */\n      pop\n        /* \"#utility.yul\":287:533   */\n      pop\n      pop\n      pop\n      jump\t// out\n        /* \"#utility.yul\":539:641   */\n    tag_393:\n        /* \"#utility.yul\":580:586   */\n      0x00\n        /* \"#utility.yul\":631:633   */\n      0x1f\n        /* \"#utility.yul\":627:634   */\n      not\n        /* \"#utility.yul\":622:624   */\n      0x1f\n        /* \"#utility.yul\":615:620   */\n      dup4\n        /* \"#utility.yul\":611:625   */\n      add\n        /* \"#utility.yul\":607:635   */\n      and\n        /* \"#utility.yul\":597:635   */\n      swap1\n      pop\n        /* \"#utility.yul\":539:641   */\n      swap2\n      swap1\n      pop\n      jump\t// out\n        /* \"#utility.yul\":647:1024   */\n    tag_394:\n        /* \"#utility.yul\":735:738   */\n      0x00\n        /* \"#utility.yul\":763:802   */\n      tag_450\n        /* \"#utility.yul\":796:801   */\n      dup3\n        /* \"#utility.yul\":763:802   */\n      tag_390\n      jump\t// in\n    tag_450:\n        /* \"#utility.yul\":818:889   */\n      tag_451\n        /* \"#utility.yul\":882:888   */\n      dup2\n        /* \"#utility.yul\":877:880   */\n      dup6\n        /* \"#utility.yul\":818:889   */\n      tag_391\n      jump\t// in\n    tag_451:\n        /* \"#utility.yul\":811:889   */\n      swap4\n      pop\n        /* \"#utility.yul\":898:963   */\n      tag_452\n        /* \"#utility.yul\":956:962   */\n      dup2\n        /* \"#utility.yul\":951:954   */\n      dup6\n        /* \"#utility.yul\":944:948   */\n      0x20\n        /* \"#utility.yul\":937:942   */\n      dup7\n        /* \"#utility.yul\":933:949   */\n      add\n        /* \"#utility.yul\":898:963   */\n      tag_392\n      jump\t// in\n    tag_452:\n        /* \"#utility.yul\":988:1017   */\n      tag_453\n        /* \"#utility.yul\":1010:1016   */\n      dup2\n        /* \"#utility.yul\":988:1017   */\n      tag_393\n      jump\t// in\n    tag_453:\n        /* \"#utility.yul\":983:986   */\n      dup5\n        /* \"#utility.yul\":979:1018   */\n      add\n        /* \"#utility.yul\":972:1018   */\n      swap2\n      pop\n        /* \"#utility.yul\":739:1024   */\n      pop\n        /* \"#utility.yul\":647:1024   */\n      swap3\n      swap2\n      pop\n      pop\n      jump\t// out\n        /* \"#utility.yul\":1030:1343   */\n    tag_49:\n        /* \"#utility.yul\":1143:1147   */\n      0x00\n        /* \"#utility.yul\":1181:1183   */\n      0x20\n        /* \"#utility.yul\":1170:1179   */\n      dup3\n        /* \"#utility.yul\":1166:1184   */\n      add\n        /* \"#utility.yul\":1158:1184   */\n      swap1\n      pop\n        /* \"#utility.yul\":1230:1239   */\n      dup2\n        /* \"#utility.yul\":1224:1228   */\n      dup2\n        /* \"#utility.yul\":1220:1240   */\n      sub\n        /* \"#utility.yul\":1216:1217   */\n      0x00\n        /* \"#utility.yul\":1205:1214   */\n      dup4\n        /* \"#utility.yul\":1201:1218   */\n      add\n        /* \"#utility.yul\":1194:1241   */\n      mstore\n        /* \"#utility.yul\":1258:1336   */\n      tag_455\n        /* \"#utility.yul\":1331:1335   */\n      dup2\n        /* \"#utility.yul\":1322:1328   */\n      dup5\n        /* \"#utility.yul\":1258:1336   */\n      tag_394\n      jump\t// in\n    tag_455:\n        /* \"#utility.yul\":1250:1336   */\n      swap1\n      pop\n        /* \"#utility.yul\":1030:1343   */\n      swap3\n      swap2\n      pop\n      pop\n      jump\t// out\n        /* \"#utility.yul\":1430:1547   */\n    tag_396:\n        /* \"#utility.yul\":1539:1540   */\n      0x00\n        /* \"#utility.yul\":1536:1537   */\n      dup1\n        /* \"#utility.yul\":1529:1541   */\n      revert\n        /* \"#utility.yul\":1676:1802   */\n    tag_398:\n        /* \"#utility.yul\":1713:1720   */\n      0x00\n        /* \"#utility.yul\":1753:1795   */\n      0xffffffffffffffffffffffffffffffffffffffff\n        /* \"#utility.yul\":1746:1751   */\n      dup3\n        /* \"#utility.yul\":1742:1796   */\n      and\n        /* \"#utility.yul\":1731:1796   */\n      swap1\n      pop\n        /* \"#utility.yul\":1676:1802   */\n      swap2\n      swap1\n      pop\n      jump\t// out\n        /* \"#utility.yul\":1808:1904   */\n    tag_399:\n        /* \"#utility.yul\":1845:1852   */\n      0x00\n        /* \"#utility.yul\":1874:1898   */\n      tag_461\n        /* \"#utility.yul\":1892:1897   */\n      dup3\n        /* \"#utility.yul\":1874:1898   */\n      tag_398\n      jump\t// in\n    tag_461:\n        /* \"#utility.yul\":1863:1898   */\n      swap1\n      pop\n        /* \"#utility.yul\":1808:1904   */\n      swap2\n      swap1\n      pop\n      jump\t// out\n        /* \"#utility.yul\":1910:2032   */\n    tag_400:\n        /* \"#utility.yul\":1983:2007   */\n      tag_463\n        /* \"#utility.yul\":2001:2006   */\n      dup2\n        /* \"#utility.yul\":1983:2007   */\n      tag_399\n      jump\t// in\n    tag_463:\n        /* \"#utility.yul\":1976:1981   */\n      dup2\n        /* \"#utility.yul\":1973:2008   */\n      eq\n        /* \"#utility.yul\":1963:2026   */\n      tag_464\n      jumpi\n        /* \"#utility.yul\":2022:2023   */\n      0x00\n        /* \"#utility.yul\":2019:2020   */\n      dup1\n        /* \"#utility.yul\":2012:2024   */\n      revert\n        /* \"#utility.yul\":1963:2026   */\n    tag_464:\n        /* \"#utility.yul\":1910:2032   */\n      pop\n      jump\t// out\n        /* \"#utility.yul\":2038:2177   */\n    tag_401:\n        /* \"#utility.yul\":2084:2089   */\n      0x00\n        /* \"#utility.yul\":2122:2128   */\n      dup2\n        /* \"#utility.yul\":2109:2129   */\n      calldataload\n        /* \"#utility.yul\":2100:2129   */\n      swap1\n      pop\n        /* \"#utility.yul\":2138:2171   */\n      tag_466\n        /* \"#utility.yul\":2165:2170   */\n      dup2\n        /* \"#utility.yul\":2138:2171   */\n      tag_400\n      jump\t// in\n    tag_466:\n        /* \"#utility.yul\":2038:2177   */\n      swap3\n      swap2\n      pop\n      pop\n      jump\t// out\n        /* \"#utility.yul\":2183:2260   */\n    tag_402:\n        /* \"#utility.yul\":2220:2227   */\n      0x00\n        /* \"#utility.yul\":2249:2254   */\n      dup2\n        /* \"#utility.yul\":2238:2254   */\n      swap1\n      pop\n        /* \"#utility.yul\":2183:2260   */\n      swap2\n      swap1\n      pop\n      jump\t// out\n        /* \"#utility.yul\":2266:2388   */\n    tag_403:\n        /* \"#utility.yul\":2339:2363   */\n      tag_469\n        /* \"#utility.yul\":2357:2362   */\n      dup2\n        /* \"#utility.yul\":2339:2363   */\n      tag_402\n      jump\t// in\n    tag_469:\n        /* \"#utility.yul\":2332:2337   */\n      dup2\n        /* \"#utility.yul\":2329:2364   */\n      eq\n        /* \"#utility.yul\":2319:2382   */\n      tag_470\n      jumpi\n        /* \"#utility.yul\":2378:2379   */\n      0x00\n        /* \"#utility.yul\":2375:2376   */\n      dup1\n        /* \"#utility.yul\":2368:2380   */\n      revert\n        /* \"#utility.yul\":2319:2382   */\n    tag_470:\n        /* \"#utility.yul\":2266:2388   */\n      pop\n      jump\t// out\n        /* \"#utility.yul\":2394:2533   */\n    tag_404:\n        /* \"#utility.yul\":2440:2445   */\n      0x00\n        /* \"#utility.yul\":2478:2484   */\n      dup2\n        /* \"#utility.yul\":2465:2485   */\n      calldataload\n        /* \"#utility.yul\":2456:2485   */\n      swap1\n      pop\n        /* \"#utility.yul\":2494:2527   */\n      tag_472\n        /* \"#utility.yul\":2521:2526   */\n      dup2\n        /* \"#utility.yul\":2494:2527   */\n      tag_403\n      jump\t// in\n    tag_472:\n        /* \"#utility.yul\":2394:2533   */\n      swap3\n      swap2\n      pop\n      pop\n      jump\t// out\n        /* \"#utility.yul\":2539:3013   */\n    tag_52:\n        /* \"#utility.yul\":2607:2613   */\n      0x00\n        /* \"#utility.yul\":2615:2621   */\n      dup1\n        /* \"#utility.yul\":2664:2666   */\n      0x40\n        /* \"#utility.yul\":2652:2661   */\n      dup4\n        /* \"#utility.yul\":2643:2650   */\n      dup6\n        /* \"#utility.yul\":2639:2662   */\n      sub\n        /* \"#utility.yul\":2635:2667   */\n      slt\n        /* \"#utility.yul\":2632:2751   */\n      iszero\n      tag_474\n      jumpi\n        /* \"#utility.yul\":2670:2749   */\n      tag_475\n      tag_396\n      jump\t// in\n    tag_475:\n        /* \"#utility.yul\":2632:2751   */\n    tag_474:\n        /* \"#utility.yul\":2790:2791   */\n      0x00\n        /* \"#utility.yul\":2815:2868   */\n      tag_476\n        /* \"#utility.yul\":2860:2867   */\n      dup6\n        /* \"#utility.yul\":2851:2857   */\n      dup3\n        /* \"#utility.yul\":2840:2849   */\n      dup7\n        /* \"#utility.yul\":2836:2858   */\n      add\n        /* \"#utility.yul\":2815:2868   */\n      tag_401\n      jump\t// in\n    tag_476:\n        /* \"#utility.yul\":2805:2868   */\n      swap3\n      pop\n        /* \"#utility.yul\":2761:2878   */\n      pop\n        /* \"#utility.yul\":2917:2919   */\n      0x20\n        /* \"#utility.yul\":2943:2996   */\n      tag_477\n        /* \"#utility.yul\":2988:2995   */\n      dup6\n        /* \"#utility.yul\":2979:2985   */\n      dup3\n        /* \"#utility.yul\":2968:2977   */\n      dup7\n        /* \"#utility.yul\":2964:2986   */\n      add\n        /* \"#utility.yul\":2943:2996   */\n      tag_404\n      jump\t// in\n    tag_477:\n        /* \"#utility.yul\":2933:2996   */\n      swap2\n      pop\n        /* \"#utility.yul\":2888:3006   */\n      pop\n        /* \"#utility.yul\":2539:3013   */\n      swap3\n      pop\n      swap3\n      swap1\n      pop\n      jump\t// out\n        /* \"#utility.yul\":3019:3109   */\n    tag_405:\n        /* \"#utility.yul\":3053:3060   */\n      0x00\n        /* \"#utility.yul\":3096:3101   */\n      dup2\n        /* \"#utility.yul\":3089:3102   */\n      iszero\n        /* \"#utility.yul\":3082:3103   */\n      iszero\n        /* \"#utility.yul\":3071:3103   */\n      swap1\n      pop\n        /* \"#utility.yul\":3019:3109   */\n      swap2\n      swap1\n      pop\n      jump\t// out\n        /* \"#utility.yul\":3115:3224   */\n    tag_406:\n        /* \"#utility.yul\":3196:3217   */\n      tag_480\n        /* \"#utility.yul\":3211:3216   */\n      dup2\n        /* \"#utility.yul\":3196:3217   */\n      tag_405\n      jump\t// in\n    tag_480:\n        /* \"#utility.yul\":3191:3194   */\n      dup3\n        /* \"#utility.yul\":3184:3218   */\n      mstore\n        /* \"#utility.yul\":3115:3224   */\n      pop\n      pop\n      jump\t// out\n        /* \"#utility.yul\":3230:3440   */\n    tag_55:\n        /* \"#utility.yul\":3317:3321   */\n      0x00\n        /* \"#utility.yul\":3355:3357   */\n      0x20\n        /* \"#utility.yul\":3344:3353   */\n      dup3\n        /* \"#utility.yul\":3340:3358   */\n      add\n        /* \"#utility.yul\":3332:3358   */\n      swap1\n      pop\n        /* \"#utility.yul\":3368:3433   */\n      tag_482\n        /* \"#utility.yul\":3430:3431   */\n      0x00\n        /* \"#utility.yul\":3419:3428   */\n      dup4\n        /* \"#utility.yul\":3415:3432   */\n      add\n        /* \"#utility.yul\":3406:3412   */\n      dup5\n        /* \"#utility.yul\":3368:3433   */\n      tag_406\n      jump\t// in\n    tag_482:\n        /* \"#utility.yul\":3230:3440   */\n      swap3\n      swap2\n      pop\n      pop\n      jump\t// out\n        /* \"#utility.yul\":3446:3562   */\n    tag_407:\n        /* \"#utility.yul\":3516:3537   */\n      tag_484\n        /* \"#utility.yul\":3531:3536   */\n      dup2\n        /* \"#utility.yul\":3516:3537   */\n      tag_405\n      jump\t// in\n    tag_484:\n        /* \"#utility.yul\":3509:3514   */\n      dup2\n        /* \"#utility.yul\":3506:3538   */\n      eq\n        /* \"#utility.yul\":3496:3556   */\n      tag_485\n      jumpi\n        /* \"#utility.yul\":3552:3553   */\n      0x00\n        /* \"#utility.yul\":3549:3550   */\n      dup1\n        /* \"#utility.yul\":3542:3554   */\n      revert\n        /* \"#utility.yul\":3496:3556   */\n    tag_485:\n        /* \"#utility.yul\":3446:3562   */\n      pop\n      jump\t// out\n        /* \"#utility.yul\":3568:3701   */\n    tag_408:\n        /* \"#utility.yul\":3611:3616   */\n      0x00\n        /* \"#utility.yul\":3649:3655   */\n      dup2\n        /* \"#utility.yul\":3636:3656   */\n      calldataload\n        /* \"#utility.yul\":3627:3656   */\n      swap1\n      pop\n        /* \"#utility.yul\":3665:3695   */\n      tag_487\n        /* \"#utility.yul\":3689:3694   */\n      dup2\n        /* \"#utility.yul\":3665:3695   */\n      tag_407\n      jump\t// in\n    tag_487:\n        /* \"#utility.yul\":3568:3701   */\n      swap3\n      swap2\n      pop\n      pop\n      jump\t// out\n        /* \"#utility.yul\":3707:4175   */\n    tag_58:\n        /* \"#utility.yul\":3772:3778   */\n      0x00\n        /* \"#utility.yul\":3780:3786   */\n      dup1\n        /* \"#utility.yul\":3829:3831   */\n      0x40\n        /* \"#utility.yul\":3817:3826   */\n      dup4\n        /* \"#utility.yul\":3808:3815   */\n      dup6\n        /* \"#utility.yul\":3804:3827   */\n      sub\n        /* \"#utility.yul\":3800:3832   */\n      slt\n        /* \"#utility.yul\":3797:3916   */\n      iszero\n      tag_489\n      jumpi\n        /* \"#utility.yul\":3835:3914   */\n      tag_490\n      tag_396\n      jump\t// in\n    tag_490:\n        /* \"#utility.yul\":3797:3916   */\n    tag_489:\n        /* \"#utility.yul\":3955:3956   */\n      0x00\n        /* \"#utility.yul\":3980:4033   */\n      tag_491\n        /* \"#utility.yul\":4025:4032   */\n      dup6\n        /* \"#utility.yul\":4016:4022   */\n      dup3\n        /* \"#utility.yul\":4005:4014   */\n      dup7\n        /* \"#utility.yul\":4001:4023   */\n      add\n        /* \"#utility.yul\":3980:4033   */\n      tag_401\n      jump\t// in\n    tag_491:\n        /* \"#utility.yul\":3970:4033   */\n      swap3\n      pop\n        /* \"#utility.yul\":3926:4043   */\n      pop\n        /* \"#utility.yul\":4082:4084   */\n      0x20\n        /* \"#utility.yul\":4108:4158   */\n      tag_492\n        /* \"#utility.yul\":4150:4157   */\n      dup6\n        /* \"#utility.yul\":4141:4147   */\n      dup3\n        /* \"#utility.yul\":4130:4139   */\n      dup7\n        /* \"#utility.yul\":4126:4148   */\n      add\n        /* \"#utility.yul\":4108:4158   */\n      tag_408\n      jump\t// in\n    tag_492:\n        /* \"#utility.yul\":4098:4158   */\n      swap2\n      pop\n        /* \"#utility.yul\":4053:4168   */\n      pop\n        /* \"#utility.yul\":3707:4175   */\n      swap3\n      pop\n      swap3\n      swap1\n      pop\n      jump\t// out\n        /* \"#utility.yul\":4181:4299   */\n    tag_409:\n        /* \"#utility.yul\":4268:4292   */\n      tag_494\n        /* \"#utility.yul\":4286:4291   */\n      dup2\n        /* \"#utility.yul\":4268:4292   */\n      tag_402\n      jump\t// in\n    tag_494:\n        /* \"#utility.yul\":4263:4266   */\n      dup3\n        /* \"#utility.yul\":4256:4293   */\n      mstore\n        /* \"#utility.yul\":4181:4299   */\n      pop\n      pop\n      jump\t// out\n        /* \"#utility.yul\":4305:4527   */\n    tag_66:\n        /* \"#utility.yul\":4398:4402   */\n      0x00\n        /* \"#utility.yul\":4436:4438   */\n      0x20\n        /* \"#utility.yul\":4425:4434   */\n      dup3\n        /* \"#utility.yul\":4421:4439   */\n      add\n        /* \"#utility.yul\":4413:4439   */\n      swap1\n      pop\n        /* \"#utility.yul\":4449:4520   */\n      tag_496\n        /* \"#utility.yul\":4517:4518   */\n      0x00\n        /* \"#utility.yul\":4506:4515   */\n      dup4\n        /* \"#utility.yul\":4502:4519   */\n      add\n        /* \"#utility.yul\":4493:4499   */\n      dup5\n        /* \"#utility.yul\":4449:4520   */\n      tag_409\n      jump\t// in\n    tag_496:\n        /* \"#utility.yul\":4305:4527   */\n      swap3\n      swap2\n      pop\n      pop\n      jump\t// out\n        /* \"#utility.yul\":4533:5152   */\n    tag_69:\n        /* \"#utility.yul\":4610:4616   */\n      0x00\n        /* \"#utility.yul\":4618:4624   */\n      dup1\n        /* \"#utility.yul\":4626:4632   */\n      0x00\n        /* \"#utility.yul\":4675:4677   */\n      0x60\n        /* \"#utility.yul\":4663:4672   */\n      dup5\n        /* \"#utility.yul\":4654:4661   */\n      dup7\n        /* \"#utility.yul\":4650:4673   */\n      sub\n        /* \"#utility.yul\":4646:4678   */\n      slt\n        /* \"#utility.yul\":4643:4762   */\n      iszero\n      tag_498\n      jumpi\n        /* \"#utility.yul\":4681:4760   */\n      tag_499\n      tag_396\n      jump\t// in\n    tag_499:\n        /* \"#utility.yul\":4643:4762   */\n    tag_498:\n        /* \"#utility.yul\":4801:4802   */\n      0x00\n        /* \"#utility.yul\":4826:4879   */\n      tag_500\n        /* \"#utility.yul\":4871:4878   */\n      dup7\n        /* \"#utility.yul\":4862:4868   */\n      dup3\n        /* \"#utility.yul\":4851:4860   */\n      dup8\n        /* \"#utility.yul\":4847:4869   */\n      add\n        /* \"#utility.yul\":4826:4879   */\n      tag_401\n      jump\t// in\n    tag_500:\n        /* \"#utility.yul\":4816:4879   */\n      swap4\n      pop\n        /* \"#utility.yul\":4772:4889   */\n      pop\n        /* \"#utility.yul\":4928:4930   */\n      0x20\n        /* \"#utility.yul\":4954:5007   */\n      tag_501\n        /* \"#utility.yul\":4999:5006   */\n      dup7\n        /* \"#utility.yul\":4990:4996   */\n      dup3\n        /* \"#utility.yul\":4979:4988   */\n      dup8\n        /* \"#utility.yul\":4975:4997   */\n      add\n        /* \"#utility.yul\":4954:5007   */\n      tag_401\n      jump\t// in\n    tag_501:\n        /* \"#utility.yul\":4944:5007   */\n      swap3\n      pop\n        /* \"#utility.yul\":4899:5017   */\n      pop\n        /* \"#utility.yul\":5056:5058   */\n      0x40\n        /* \"#utility.yul\":5082:5135   */\n      tag_502\n        /* \"#utility.yul\":5127:5134   */\n      dup7\n        /* \"#utility.yul\":5118:5124   */\n      dup3\n        /* \"#utility.yul\":5107:5116   */\n      dup8\n        /* \"#utility.yul\":5103:5125   */\n      add\n        /* \"#utility.yul\":5082:5135   */\n      tag_404\n      jump\t// in\n    tag_502:\n        /* \"#utility.yul\":5072:5135   */\n      swap2\n      pop\n        /* \"#utility.yul\":5027:5145   */\n      pop\n        /* \"#utility.yul\":4533:5152   */\n      swap3\n      pop\n      swap3\n      pop\n      swap3\n      jump\t// out\n        /* \"#utility.yul\":5158:5487   */\n    tag_74:\n        /* \"#utility.yul\":5217:5223   */\n      0x00\n        /* \"#utility.yul\":5266:5268   */\n      0x20\n        /* \"#utility.yul\":5254:5263   */\n      dup3\n        /* \"#utility.yul\":5245:5252   */\n      dup5\n        /* \"#utility.yul\":5241:5264   */\n      sub\n        /* \"#utility.yul\":5237:5269   */\n      slt\n        /* \"#utility.yul\":5234:5353   */\n      iszero\n      tag_504\n      jumpi\n        /* \"#utility.yul\":5272:5351   */\n      tag_505\n      tag_396\n      jump\t// in\n    tag_505:\n        /* \"#utility.yul\":5234:5353   */\n    tag_504:\n        /* \"#utility.yul\":5392:5393   */\n      0x00\n        /* \"#utility.yul\":5417:5470   */\n      tag_506\n        /* \"#utility.yul\":5462:5469   */\n      dup5\n        /* \"#utility.yul\":5453:5459   */\n      dup3\n        /* \"#utility.yul\":5442:5451   */\n      dup6\n        /* \"#utility.yul\":5438:5460   */\n      add\n        /* \"#utility.yul\":5417:5470   */\n      tag_401\n      jump\t// in\n    tag_506:\n        /* \"#utility.yul\":5407:5470   */\n      swap2\n      pop\n        /* \"#utility.yul\":5363:5480   */\n      pop\n        /* \"#utility.yul\":5158:5487   */\n      swap3\n      swap2\n      pop\n      pop\n      jump\t// out\n        /* \"#utility.yul\":5493:5579   */\n    tag_410:\n        /* \"#utility.yul\":5528:5535   */\n      0x00\n        /* \"#utility.yul\":5568:5572   */\n      0xff\n        /* \"#utility.yul\":5561:5566   */\n      dup3\n        /* \"#utility.yul\":5557:5573   */\n      and\n        /* \"#utility.yul\":5546:5573   */\n      swap1\n      pop\n        /* \"#utility.yul\":5493:5579   */\n      swap2\n      swap1\n      pop\n      jump\t// out\n        /* \"#utility.yul\":5585:5697   */\n    tag_411:\n        /* \"#utility.yul\":5668:5690   */\n      tag_509\n        /* \"#utility.yul\":5684:5689   */\n      dup2\n        /* \"#utility.yul\":5668:5690   */\n      tag_410\n      jump\t// in\n    tag_509:\n        /* \"#utility.yul\":5663:5666   */\n      dup3\n        /* \"#utility.yul\":5656:5691   */\n      mstore\n        /* \"#utility.yul\":5585:5697   */\n      pop\n      pop\n      jump\t// out\n        /* \"#utility.yul\":5703:5917   */\n    tag_80:\n        /* \"#utility.yul\":5792:5796   */\n      0x00\n        /* \"#utility.yul\":5830:5832   */\n      0x20\n        /* \"#utility.yul\":5819:5828   */\n      dup3\n        /* \"#utility.yul\":5815:5833   */\n      add\n        /* \"#utility.yul\":5807:5833   */\n      swap1\n      pop\n        /* \"#utility.yul\":5843:5910   */\n      tag_511\n        /* \"#utility.yul\":5907:5908   */\n      0x00\n        /* \"#utility.yul\":5896:5905   */\n      dup4\n        /* \"#utility.yul\":5892:5909   */\n      add\n        /* \"#utility.yul\":5883:5889   */\n      dup5\n        /* \"#utility.yul\":5843:5910   */\n      tag_411\n      jump\t// in\n    tag_511:\n        /* \"#utility.yul\":5703:5917   */\n      swap3\n      swap2\n      pop\n      pop\n      jump\t// out\n        /* \"#utility.yul\":5923:6252   */\n    tag_85:\n        /* \"#utility.yul\":5982:5988   */\n      0x00\n        /* \"#utility.yul\":6031:6033   */\n      0x20\n        /* \"#utility.yul\":6019:6028   */\n      dup3\n        /* \"#utility.yul\":6010:6017   */\n      dup5\n        /* \"#utility.yul\":6006:6029   */\n      sub\n        /* \"#utility.yul\":6002:6034   */\n      slt\n        /* \"#utility.yul\":5999:6118   */\n      iszero\n      tag_513\n      jumpi\n        /* \"#utility.yul\":6037:6116   */\n      tag_514\n      tag_396\n      jump\t// in\n    tag_514:\n        /* \"#utility.yul\":5999:6118   */\n    tag_513:\n        /* \"#utility.yul\":6157:6158   */\n      0x00\n        /* \"#utility.yul\":6182:6235   */\n      tag_515\n        /* \"#utility.yul\":6227:6234   */\n      dup5\n        /* \"#utility.yul\":6218:6224   */\n      dup3\n        /* \"#utility.yul\":6207:6216   */\n      dup6\n        /* \"#utility.yul\":6203:6225   */\n      add\n        /* \"#utility.yul\":6182:6235   */\n      tag_404\n      jump\t// in\n    tag_515:\n        /* \"#utility.yul\":6172:6235   */\n      swap2\n      pop\n        /* \"#utility.yul\":6128:6245   */\n      pop\n        /* \"#utility.yul\":5923:6252   */\n      swap3\n      swap2\n      pop\n      pop\n      jump\t// out\n        /* \"#utility.yul\":6258:6376   */\n    tag_412:\n        /* \"#utility.yul\":6345:6369   */\n      tag_517\n        /* \"#utility.yul\":6363:6368   */\n      dup2\n        /* \"#utility.yul\":6345:6369   */\n      tag_399\n      jump\t// in\n    tag_517:\n        /* \"#utility.yul\":6340:6343   */\n      dup3\n        /* \"#utility.yul\":6333:6370   */\n      mstore\n        /* \"#utility.yul\":6258:6376   */\n      pop\n      pop\n      jump\t// out\n        /* \"#utility.yul\":6382:6604   */\n    tag_120:\n        /* \"#utility.yul\":6475:6479   */\n      0x00\n        /* \"#utility.yul\":6513:6515   */\n      0x20\n        /* \"#utility.yul\":6502:6511   */\n      dup3\n        /* \"#utility.yul\":6498:6516   */\n      add\n        /* \"#utility.yul\":6490:6516   */\n      swap1\n      pop\n        /* \"#utility.yul\":6526:6597   */\n      tag_519\n        /* \"#utility.yul\":6594:6595   */\n      0x00\n        /* \"#utility.yul\":6583:6592   */\n      dup4\n        /* \"#utility.yul\":6579:6596   */\n      add\n        /* \"#utility.yul\":6570:6576   */\n      dup5\n        /* \"#utility.yul\":6526:6597   */\n      tag_412\n      jump\t// in\n    tag_519:\n        /* \"#utility.yul\":6382:6604   */\n      swap3\n      swap2\n      pop\n      pop\n      jump\t// out\n        /* \"#utility.yul\":6610:7084   */\n    tag_150:\n        /* \"#utility.yul\":6678:6684   */\n      0x00\n        /* \"#utility.yul\":6686:6692   */\n      dup1\n        /* \"#utility.yul\":6735:6737   */\n      0x40\n        /* \"#utility.yul\":6723:6732   */\n      dup4\n        /* \"#utility.yul\":6714:6721   */\n      dup6\n        /* \"#utility.yul\":6710:6733   */\n      sub\n        /* \"#utility.yul\":6706:6738   */\n      slt\n        /* \"#utility.yul\":6703:6822   */\n      iszero\n      tag_521\n      jumpi\n        /* \"#utility.yul\":6741:6820   */\n      tag_522\n      tag_396\n      jump\t// in\n    tag_522:\n        /* \"#utility.yul\":6703:6822   */\n    tag_521:\n        /* \"#utility.yul\":6861:6862   */\n      0x00\n        /* \"#utility.yul\":6886:6939   */\n      tag_523\n        /* \"#utility.yul\":6931:6938   */\n      dup6\n        /* \"#utility.yul\":6922:6928   */\n      dup3\n        /* \"#utility.yul\":6911:6920   */\n      dup7\n        /* \"#utility.yul\":6907:6929   */\n      add\n        /* \"#utility.yul\":6886:6939   */\n      tag_401\n      jump\t// in\n    tag_523:\n        /* \"#utility.yul\":6876:6939   */\n      swap3\n      pop\n        /* \"#utility.yul\":6832:6949   */\n      pop\n        /* \"#utility.yul\":6988:6990   */\n      0x20\n        /* \"#utility.yul\":7014:7067   */\n      tag_524\n        /* \"#utility.yul\":7059:7066   */\n      dup6\n        /* \"#utility.yul\":7050:7056   */\n      dup3\n        /* \"#utility.yul\":7039:7048   */\n      dup7\n        /* \"#utility.yul\":7035:7057   */\n      add\n        /* \"#utility.yul\":7014:7067   */\n      tag_401\n      jump\t// in\n    tag_524:\n        /* \"#utility.yul\":7004:7067   */\n      swap2\n      pop\n        /* \"#utility.yul\":6959:7077   */\n      pop\n        /* \"#utility.yul\":6610:7084   */\n      swap3\n      pop\n      swap3\n      swap1\n      pop\n      jump\t// out\n        /* \"#utility.yul\":7090:7270   */\n    tag_413:\n        /* \"#utility.yul\":7138:7215   */\n      0x4e487b7100000000000000000000000000000000000000000000000000000000\n        /* \"#utility.yul\":7135:7136   */\n      0x00\n        /* \"#utility.yul\":7128:7216   */\n      mstore\n        /* \"#utility.yul\":7235:7239   */\n      0x22\n        /* \"#utility.yul\":7232:7233   */\n      0x04\n        /* \"#utility.yul\":7225:7240   */\n      mstore\n        /* \"#utility.yul\":7259:7263   */\n      0x24\n        /* \"#utility.yul\":7256:7257   */\n      0x00\n        /* \"#utility.yul\":7249:7264   */\n      revert\n        /* \"#utility.yul\":7276:7596   */\n    tag_168:\n        /* \"#utility.yul\":7320:7326   */\n      0x00\n        /* \"#utility.yul\":7357:7358   */\n      0x02\n        /* \"#utility.yul\":7351:7355   */\n      dup3\n        /* \"#utility.yul\":7347:7359   */\n      div\n        /* \"#utility.yul\":7337:7359   */\n      swap1\n      pop\n        /* \"#utility.yul\":7404:7405   */\n      0x01\n        /* \"#utility.yul\":7398:7402   */\n      dup3\n        /* \"#utility.yul\":7394:7406   */\n      and\n        /* \"#utility.yul\":7425:7443   */\n      dup1\n        /* \"#utility.yul\":7415:7496   */\n      tag_527\n      jumpi\n        /* \"#utility.yul\":7481:7485   */\n      0x7f\n        /* \"#utility.yul\":7473:7479   */\n      dup3\n        /* \"#utility.yul\":7469:7486   */\n      and\n        /* \"#utility.yul\":7459:7486   */\n      swap2\n      pop\n        /* \"#utility.yul\":7415:7496   */\n    tag_527:\n        /* \"#utility.yul\":7543:7545   */\n      0x20\n        /* \"#utility.yul\":7535:7541   */\n      dup3\n        /* \"#utility.yul\":7532:7546   */\n      lt\n        /* \"#utility.yul\":7512:7530   */\n      dup2\n        /* \"#utility.yul\":7509:7547   */\n      sub\n        /* \"#utility.yul\":7506:7590   */\n      tag_528\n      jumpi\n        /* \"#utility.yul\":7562:7580   */\n      tag_529\n      tag_413\n      jump\t// in\n    tag_529:\n        /* \"#utility.yul\":7506:7590   */\n    tag_528:\n        /* \"#utility.yul\":7327:7596   */\n      pop\n        /* \"#utility.yul\":7276:7596   */\n      swap2\n      swap1\n      pop\n      jump\t// out\n        /* \"#utility.yul\":7602:7769   */\n    tag_414:\n        /* \"#utility.yul\":7742:7761   */\n      0x4e6f7420656e6f75676820706f696e7473000000000000000000000000000000\n        /* \"#utility.yul\":7738:7739   */\n      0x00\n        /* \"#utility.yul\":7730:7736   */\n      dup3\n        /* \"#utility.yul\":7726:7740   */\n      add\n        /* \"#utility.yul\":7719:7762   */\n      mstore\n        /* \"#utility.yul\":7602:7769   */\n      pop\n      jump\t// out\n        /* \"#utility.yul\":7775:8141   */\n    tag_415:\n        /* \"#utility.yul\":7917:7920   */\n      0x00\n        /* \"#utility.yul\":7938:8005   */\n      tag_532\n        /* \"#utility.yul\":8002:8004   */\n      0x11\n        /* \"#utility.yul\":7997:8000   */\n      dup4\n        /* \"#utility.yul\":7938:8005   */\n      tag_391\n      jump\t// in\n    tag_532:\n        /* \"#utility.yul\":7931:8005   */\n      swap2\n      pop\n        /* \"#utility.yul\":8014:8107   */\n      tag_533\n        /* \"#utility.yul\":8103:8106   */\n      dup3\n        /* \"#utility.yul\":8014:8107   */\n      tag_414\n      jump\t// in\n    tag_533:\n        /* \"#utility.yul\":8132:8134   */\n      0x20\n        /* \"#utility.yul\":8127:8130   */\n      dup3\n        /* \"#utility.yul\":8123:8135   */\n      add\n        /* \"#utility.yul\":8116:8135   */\n      swap1\n      pop\n        /* \"#utility.yul\":7775:8141   */\n      swap2\n      swap1\n      pop\n      jump\t// out\n        /* \"#utility.yul\":8147:8566   */\n    tag_187:\n        /* \"#utility.yul\":8313:8317   */\n      0x00\n        /* \"#utility.yul\":8351:8353   */\n      0x20\n        /* \"#utility.yul\":8340:8349   */\n      dup3\n        /* \"#utility.yul\":8336:8354   */\n      add\n        /* \"#utility.yul\":8328:8354   */\n      swap1\n      pop\n        /* \"#utility.yul\":8400:8409   */\n      dup2\n        /* \"#utility.yul\":8394:8398   */\n      dup2\n        /* \"#utility.yul\":8390:8410   */\n      sub\n        /* \"#utility.yul\":8386:8387   */\n      0x00\n        /* \"#utility.yul\":8375:8384   */\n      dup4\n        /* \"#utility.yul\":8371:8388   */\n      add\n        /* \"#utility.yul\":8364:8411   */\n      mstore\n        /* \"#utility.yul\":8428:8559   */\n      tag_535\n        /* \"#utility.yul\":8554:8558   */\n      dup2\n        /* \"#utility.yul\":8428:8559   */\n      tag_415\n      jump\t// in\n    tag_535:\n        /* \"#utility.yul\":8420:8559   */\n      swap1\n      pop\n        /* \"#utility.yul\":8147:8566   */\n      swap2\n      swap1\n      pop\n      jump\t// out\n        /* \"#utility.yul\":8572:8752   */\n    tag_416:\n        /* \"#utility.yul\":8620:8697   */\n      0x4e487b7100000000000000000000000000000000000000000000000000000000\n        /* \"#utility.yul\":8617:8618   */\n      0x00\n        /* \"#utility.yul\":8610:8698   */\n      mstore\n        /* \"#utility.yul\":8717:8721   */\n      0x11\n        /* \"#utility.yul\":8714:8715   */\n      0x04\n        /* \"#utility.yul\":8707:8722   */\n      mstore\n        /* \"#utility.yul\":8741:8745   */\n      0x24\n        /* \"#utility.yul\":8738:8739   */\n      0x00\n        /* \"#utility.yul\":8731:8746   */\n      revert\n        /* \"#utility.yul\":8758:8952   */\n    tag_189:\n        /* \"#utility.yul\":8798:8802   */\n      0x00\n        /* \"#utility.yul\":8818:8838   */\n      tag_538\n        /* \"#utility.yul\":8836:8837   */\n      dup3\n        /* \"#utility.yul\":8818:8838   */\n      tag_402\n      jump\t// in\n    tag_538:\n        /* \"#utility.yul\":8813:8838   */\n      swap2\n      pop\n        /* \"#utility.yul\":8852:8872   */\n      tag_539\n        /* \"#utility.yul\":8870:8871   */\n      dup4\n        /* \"#utility.yul\":8852:8872   */\n      tag_402\n      jump\t// in\n    tag_539:\n        /* \"#utility.yul\":8847:8872   */\n      swap3\n      pop\n        /* \"#utility.yul\":8896:8897   */\n      dup3\n        /* \"#utility.yul\":8893:8894   */\n      dup3\n        /* \"#utility.yul\":8889:8898   */\n      sub\n        /* \"#utility.yul\":8881:8898   */\n      swap1\n      pop\n        /* \"#utility.yul\":8920:8921   */\n      dup2\n        /* \"#utility.yul\":8914:8918   */\n      dup2\n        /* \"#utility.yul\":8911:8922   */\n      gt\n        /* \"#utility.yul\":8908:8945   */\n      iszero\n      tag_540\n      jumpi\n        /* \"#utility.yul\":8925:8943   */\n      tag_541\n      tag_416\n      jump\t// in\n    tag_541:\n        /* \"#utility.yul\":8908:8945   */\n    tag_540:\n        /* \"#utility.yul\":8758:8952   */\n      swap3\n      swap2\n      pop\n      pop\n      jump\t// out\n        /* \"#utility.yul\":8958:9290   */\n    tag_211:\n        /* \"#utility.yul\":9079:9083   */\n      0x00\n        /* \"#utility.yul\":9117:9119   */\n      0x40\n        /* \"#utility.yul\":9106:9115   */\n      dup3\n        /* \"#utility.yul\":9102:9120   */\n      add\n        /* \"#utility.yul\":9094:9120   */\n      swap1\n      pop\n        /* \"#utility.yul\":9130:9201   */\n      tag_543\n        /* \"#utility.yul\":9198:9199   */\n      0x00\n        /* \"#utility.yul\":9187:9196   */\n      dup4\n        /* \"#utility.yul\":9183:9200   */\n      add\n        /* \"#utility.yul\":9174:9180   */\n      dup6\n        /* \"#utility.yul\":9130:9201   */\n      tag_412\n      jump\t// in\n    tag_543:\n        /* \"#utility.yul\":9211:9283   */\n      tag_544\n        /* \"#utility.yul\":9279:9281   */\n      0x20\n        /* \"#utility.yul\":9268:9277   */\n      dup4\n        /* \"#utility.yul\":9264:9282   */\n      add\n        /* \"#utility.yul\":9255:9261   */\n      dup5\n        /* \"#utility.yul\":9211:9283   */\n      tag_409\n      jump\t// in\n    tag_544:\n        /* \"#utility.yul\":8958:9290   */\n      swap4\n      swap3\n      pop\n      pop\n      pop\n      jump\t// out\n        /* \"#utility.yul\":9296:9433   */\n    tag_417:\n        /* \"#utility.yul\":9350:9355   */\n      0x00\n        /* \"#utility.yul\":9381:9387   */\n      dup2\n        /* \"#utility.yul\":9375:9388   */\n      mload\n        /* \"#utility.yul\":9366:9388   */\n      swap1\n      pop\n        /* \"#utility.yul\":9397:9427   */\n      tag_546\n        /* \"#utility.yul\":9421:9426   */\n      dup2\n        /* \"#utility.yul\":9397:9427   */\n      tag_407\n      jump\t// in\n    tag_546:\n        /* \"#utility.yul\":9296:9433   */\n      swap3\n      swap2\n      pop\n      pop\n      jump\t// out\n        /* \"#utility.yul\":9439:9784   */\n    tag_215:\n        /* \"#utility.yul\":9506:9512   */\n      0x00\n        /* \"#utility.yul\":9555:9557   */\n      0x20\n        /* \"#utility.yul\":9543:9552   */\n      dup3\n        /* \"#utility.yul\":9534:9541   */\n      dup5\n        /* \"#utility.yul\":9530:9553   */\n      sub\n        /* \"#utility.yul\":9526:9558   */\n      slt\n        /* \"#utility.yul\":9523:9642   */\n      iszero\n      tag_548\n      jumpi\n        /* \"#utility.yul\":9561:9640   */\n      tag_549\n      tag_396\n      jump\t// in\n    tag_549:\n        /* \"#utility.yul\":9523:9642   */\n    tag_548:\n        /* \"#utility.yul\":9681:9682   */\n      0x00\n        /* \"#utility.yul\":9706:9767   */\n      tag_550\n        /* \"#utility.yul\":9759:9766   */\n      dup5\n        /* \"#utility.yul\":9750:9756   */\n      dup3\n        /* \"#utility.yul\":9739:9748   */\n      dup6\n        /* \"#utility.yul\":9735:9757   */\n      add\n        /* \"#utility.yul\":9706:9767   */\n      tag_417\n      jump\t// in\n    tag_550:\n        /* \"#utility.yul\":9696:9767   */\n      swap2\n      pop\n        /* \"#utility.yul\":9652:9777   */\n      pop\n        /* \"#utility.yul\":9439:9784   */\n      swap3\n      swap2\n      pop\n      pop\n      jump\t// out\n        /* \"#utility.yul\":9790:9962   */\n    tag_418:\n        /* \"#utility.yul\":9930:9954   */\n      0x4164647265737320697320626c61636b6c697374656400000000000000000000\n        /* \"#utility.yul\":9926:9927   */\n      0x00\n        /* \"#utility.yul\":9918:9924   */\n      dup3\n        /* \"#utility.yul\":9914:9928   */\n      add\n        /* \"#utility.yul\":9907:9955   */\n      mstore\n        /* \"#utility.yul\":9790:9962   */\n      pop\n      jump\t// out\n        /* \"#utility.yul\":9968:10334   */\n    tag_419:\n        /* \"#utility.yul\":10110:10113   */\n      0x00\n        /* \"#utility.yul\":10131:10198   */\n      tag_553\n        /* \"#utility.yul\":10195:10197   */\n      0x16\n        /* \"#utility.yul\":10190:10193   */\n      dup4\n        /* \"#utility.yul\":10131:10198   */\n      tag_391\n      jump\t// in\n    tag_553:\n        /* \"#utility.yul\":10124:10198   */\n      swap2\n      pop\n        /* \"#utility.yul\":10207:10300   */\n      tag_554\n        /* \"#utility.yul\":10296:10299   */\n      dup3\n        /* \"#utility.yul\":10207:10300   */\n      tag_418\n      jump\t// in\n    tag_554:\n        /* \"#utility.yul\":10325:10327   */\n      0x20\n        /* \"#utility.yul\":10320:10323   */\n      dup3\n        /* \"#utility.yul\":10316:10328   */\n      add\n        /* \"#utility.yul\":10309:10328   */\n      swap1\n      pop\n        /* \"#utility.yul\":9968:10334   */\n      swap2\n      swap1\n      pop\n      jump\t// out\n        /* \"#utility.yul\":10340:10759   */\n    tag_252:\n        /* \"#utility.yul\":10506:10510   */\n      0x00\n        /* \"#utility.yul\":10544:10546   */\n      0x20\n        /* \"#utility.yul\":10533:10542   */\n      dup3\n        /* \"#utility.yul\":10529:10547   */\n      add\n        /* \"#utility.yul\":10521:10547   */\n      swap1\n      pop\n        /* \"#utility.yul\":10593:10602   */\n      dup2\n        /* \"#utility.yul\":10587:10591   */\n      dup2\n        /* \"#utility.yul\":10583:10603   */\n      sub\n        /* \"#utility.yul\":10579:10580   */\n      0x00\n        /* \"#utility.yul\":10568:10577   */\n      dup4\n        /* \"#utility.yul\":10564:10581   */\n      add\n        /* \"#utility.yul\":10557:10604   */\n      mstore\n        /* \"#utility.yul\":10621:10752   */\n      tag_556\n        /* \"#utility.yul\":10747:10751   */\n      dup2\n        /* \"#utility.yul\":10621:10752   */\n      tag_419\n      jump\t// in\n    tag_556:\n        /* \"#utility.yul\":10613:10752   */\n      swap1\n      pop\n        /* \"#utility.yul\":10340:10759   */\n      swap2\n      swap1\n      pop\n      jump\t// out\n        /* \"#utility.yul\":10765:10937   */\n    tag_420:\n        /* \"#utility.yul\":10905:10929   */\n      0x54726164696e67206973206e6f7420656e61626c656400000000000000000000\n        /* \"#utility.yul\":10901:10902   */\n      0x00\n        /* \"#utility.yul\":10893:10899   */\n      dup3\n        /* \"#utility.yul\":10889:10903   */\n      add\n        /* \"#utility.yul\":10882:10930   */\n      mstore\n        /* \"#utility.yul\":10765:10937   */\n      pop\n      jump\t// out\n        /* \"#utility.yul\":10943:11309   */\n    tag_421:\n        /* \"#utility.yul\":11085:11088   */\n      0x00\n        /* \"#utility.yul\":11106:11173   */\n      tag_559\n        /* \"#utility.yul\":11170:11172   */\n      0x16\n        /* \"#utility.yul\":11165:11168   */\n      dup4\n        /* \"#utility.yul\":11106:11173   */\n      tag_391\n      jump\t// in\n    tag_559:\n        /* \"#utility.yul\":11099:11173   */\n      swap2\n      pop\n        /* \"#utility.yul\":11182:11275   */\n      tag_560\n        /* \"#utility.yul\":11271:11274   */\n      dup3\n        /* \"#utility.yul\":11182:11275   */\n      tag_420\n      jump\t// in\n    tag_560:\n        /* \"#utility.yul\":11300:11302   */\n      0x20\n        /* \"#utility.yul\":11295:11298   */\n      dup3\n        /* \"#utility.yul\":11291:11303   */\n      add\n        /* \"#utility.yul\":11284:11303   */\n      swap1\n      pop\n        /* \"#utility.yul\":10943:11309   */\n      swap2\n      swap1\n      pop\n      jump\t// out\n        /* \"#utility.yul\":11315:11734   */\n    tag_257:\n        /* \"#utility.yul\":11481:11485   */\n      0x00\n        /* \"#utility.yul\":11519:11521   */\n      0x20\n        /* \"#utility.yul\":11508:11517   */\n      dup3\n        /* \"#utility.yul\":11504:11522   */\n      add\n        /* \"#utility.yul\":11496:11522   */\n      swap1\n      pop\n        /* \"#utility.yul\":11568:11577   */\n      dup2\n        /* \"#utility.yul\":11562:11566   */\n      dup2\n        /* \"#utility.yul\":11558:11578   */\n      sub\n        /* \"#utility.yul\":11554:11555   */\n      0x00\n        /* \"#utility.yul\":11543:11552   */\n      dup4\n        /* \"#utility.yul\":11539:11556   */\n      add\n        /* \"#utility.yul\":11532:11579   */\n      mstore\n        /* \"#utility.yul\":11596:11727   */\n      tag_562\n        /* \"#utility.yul\":11722:11726   */\n      dup2\n        /* \"#utility.yul\":11596:11727   */\n      tag_421\n      jump\t// in\n    tag_562:\n        /* \"#utility.yul\":11588:11727   */\n      swap1\n      pop\n        /* \"#utility.yul\":11315:11734   */\n      swap2\n      swap1\n      pop\n      jump\t// out\n        /* \"#utility.yul\":11740:11908   */\n    tag_422:\n        /* \"#utility.yul\":11880:11900   */\n      0x436f6e7472616374206973207061757365640000000000000000000000000000\n        /* \"#utility.yul\":11876:11877   */\n      0x00\n        /* \"#utility.yul\":11868:11874   */\n      dup3\n        /* \"#utility.yul\":11864:11878   */\n      add\n        /* \"#utility.yul\":11857:11901   */\n      mstore\n        /* \"#utility.yul\":11740:11908   */\n      pop\n      jump\t// out\n        /* \"#utility.yul\":11914:12280   */\n    tag_423:\n        /* \"#utility.yul\":12056:12059   */\n      0x00\n        /* \"#utility.yul\":12077:12144   */\n      tag_565\n        /* \"#utility.yul\":12141:12143   */\n      0x12\n        /* \"#utility.yul\":12136:12139   */\n      dup4\n        /* \"#utility.yul\":12077:12144   */\n      tag_391\n      jump\t// in\n    tag_565:\n        /* \"#utility.yul\":12070:12144   */\n      swap2\n      pop\n        /* \"#utility.yul\":12153:12246   */\n      tag_566\n        /* \"#utility.yul\":12242:12245   */\n      dup3\n        /* \"#utility.yul\":12153:12246   */\n      tag_422\n      jump\t// in\n    tag_566:\n        /* \"#utility.yul\":12271:12273   */\n      0x20\n        /* \"#utility.yul\":12266:12269   */\n      dup3\n        /* \"#utility.yul\":12262:12274   */\n      add\n        /* \"#utility.yul\":12255:12274   */\n      swap1\n      pop\n        /* \"#utility.yul\":11914:12280   */\n      swap2\n      swap1\n      pop\n      jump\t// out\n        /* \"#utility.yul\":12286:12705   */\n    tag_261:\n        /* \"#utility.yul\":12452:12456   */\n      0x00\n        /* \"#utility.yul\":12490:12492   */\n      0x20\n        /* \"#utility.yul\":12479:12488   */\n      dup3\n        /* \"#utility.yul\":12475:12493   */\n      add\n        /* \"#utility.yul\":12467:12493   */\n      swap1\n      pop\n        /* \"#utility.yul\":12539:12548   */\n      dup2\n        /* \"#utility.yul\":12533:12537   */\n      dup2\n        /* \"#utility.yul\":12529:12549   */\n      sub\n        /* \"#utility.yul\":12525:12526   */\n      0x00\n        /* \"#utility.yul\":12514:12523   */\n      dup4\n        /* \"#utility.yul\":12510:12527   */\n      add\n        /* \"#utility.yul\":12503:12550   */\n      mstore\n        /* \"#utility.yul\":12567:12698   */\n      tag_568\n        /* \"#utility.yul\":12693:12697   */\n      dup2\n        /* \"#utility.yul\":12567:12698   */\n      tag_423\n      jump\t// in\n    tag_568:\n        /* \"#utility.yul\":12559:12698   */\n      swap1\n      pop\n        /* \"#utility.yul\":12286:12705   */\n      swap2\n      swap1\n      pop\n      jump\t// out\n        /* \"#utility.yul\":12711:12936   */\n    tag_424:\n        /* \"#utility.yul\":12851:12885   */\n      0x43616e6e6f74207472616e7366657220746f2074686520636f6e747261637420\n        /* \"#utility.yul\":12847:12848   */\n      0x00\n        /* \"#utility.yul\":12839:12845   */\n      dup3\n        /* \"#utility.yul\":12835:12849   */\n      add\n        /* \"#utility.yul\":12828:12886   */\n      mstore\n        /* \"#utility.yul\":12920:12928   */\n      0x697473656c660000000000000000000000000000000000000000000000000000\n        /* \"#utility.yul\":12915:12917   */\n      0x20\n        /* \"#utility.yul\":12907:12913   */\n      dup3\n        /* \"#utility.yul\":12903:12918   */\n      add\n        /* \"#utility.yul\":12896:12929   */\n      mstore\n        /* \"#utility.yul\":12711:12936   */\n      pop\n      jump\t// out\n        /* \"#utility.yul\":12942:13308   */\n    tag_425:\n        /* \"#utility.yul\":13084:13087   */\n      0x00\n        /* \"#utility.yul\":13105:13172   */\n      tag_571\n        /* \"#utility.yul\":13169:13171   */\n      0x26\n        /* \"#utility.yul\":13164:13167   */\n      dup4\n        /* \"#utility.yul\":13105:13172   */\n      tag_391\n      jump\t// in\n    tag_571:\n        /* \"#utility.yul\":13098:13172   */\n      swap2\n      pop\n        /* \"#utility.yul\":13181:13274   */\n      tag_572\n        /* \"#utility.yul\":13270:13273   */\n      dup3\n        /* \"#utility.yul\":13181:13274   */\n      tag_424\n      jump\t// in\n    tag_572:\n        /* \"#utility.yul\":13299:13301   */\n      0x40\n        /* \"#utility.yul\":13294:13297   */\n      dup3\n        /* \"#utility.yul\":13290:13302   */\n      add\n        /* \"#utility.yul\":13283:13302   */\n      swap1\n      pop\n        /* \"#utility.yul\":12942:13308   */\n      swap2\n      swap1\n      pop\n      jump\t// out\n        /* \"#utility.yul\":13314:13733   */\n    tag_265:\n        /* \"#utility.yul\":13480:13484   */\n      0x00\n        /* \"#utility.yul\":13518:13520   */\n      0x20\n        /* \"#utility.yul\":13507:13516   */\n      dup3\n        /* \"#utility.yul\":13503:13521   */\n      add\n        /* \"#utility.yul\":13495:13521   */\n      swap1\n      pop\n        /* \"#utility.yul\":13567:13576   */\n      dup2\n        /* \"#utility.yul\":13561:13565   */\n      dup2\n        /* \"#utility.yul\":13557:13577   */\n      sub\n        /* \"#utility.yul\":13553:13554   */\n      0x00\n        /* \"#utility.yul\":13542:13551   */\n      dup4\n        /* \"#utility.yul\":13538:13555   */\n      add\n        /* \"#utility.yul\":13531:13578   */\n      mstore\n        /* \"#utility.yul\":13595:13726   */\n      tag_574\n        /* \"#utility.yul\":13721:13725   */\n      dup2\n        /* \"#utility.yul\":13595:13726   */\n      tag_425\n      jump\t// in\n    tag_574:\n        /* \"#utility.yul\":13587:13726   */\n      swap1\n      pop\n        /* \"#utility.yul\":13314:13733   */\n      swap2\n      swap1\n      pop\n      jump\t// out\n        /* \"#utility.yul\":13739:13920   */\n    tag_426:\n        /* \"#utility.yul\":13879:13912   */\n      0x45786365656473206d6178696d756d207472616e7366657220616d6f756e7400\n        /* \"#utility.yul\":13875:13876   */\n      0x00\n        /* \"#utility.yul\":13867:13873   */\n      dup3\n        /* \"#utility.yul\":13863:13877   */\n      add\n        /* \"#utility.yul\":13856:13913   */\n      mstore\n        /* \"#utility.yul\":13739:13920   */\n      pop\n      jump\t// out\n        /* \"#utility.yul\":13926:14292   */\n    tag_427:\n        /* \"#utility.yul\":14068:14071   */\n      0x00\n        /* \"#utility.yul\":14089:14156   */\n      tag_577\n        /* \"#utility.yul\":14153:14155   */\n      0x1f\n        /* \"#utility.yul\":14148:14151   */\n      dup4\n        /* \"#utility.yul\":14089:14156   */\n      tag_391\n      jump\t// in\n    tag_577:\n        /* \"#utility.yul\":14082:14156   */\n      swap2\n      pop\n        /* \"#utility.yul\":14165:14258   */\n      tag_578\n        /* \"#utility.yul\":14254:14257   */\n      dup3\n        /* \"#utility.yul\":14165:14258   */\n      tag_426\n      jump\t// in\n    tag_578:\n        /* \"#utility.yul\":14283:14285   */\n      0x20\n        /* \"#utility.yul\":14278:14281   */\n      dup3\n        /* \"#utility.yul\":14274:14286   */\n      add\n        /* \"#utility.yul\":14267:14286   */\n      swap1\n      pop\n        /* \"#utility.yul\":13926:14292   */\n      swap2\n      swap1\n      pop\n      jump\t// out\n        /* \"#utility.yul\":14298:14717   */\n    tag_269:\n        /* \"#utility.yul\":14464:14468   */\n      0x00\n        /* \"#utility.yul\":14502:14504   */\n      0x20\n        /* \"#utility.yul\":14491:14500   */\n      dup3\n        /* \"#utility.yul\":14487:14505   */\n      add\n        /* \"#utility.yul\":14479:14505   */\n      swap1\n      pop\n        /* \"#utility.yul\":14551:14560   */\n      dup2\n        /* \"#utility.yul\":14545:14549   */\n      dup2\n        /* \"#utility.yul\":14541:14561   */\n      sub\n        /* \"#utility.yul\":14537:14538   */\n      0x00\n        /* \"#utility.yul\":14526:14535   */\n      dup4\n        /* \"#utility.yul\":14522:14539   */\n      add\n        /* \"#utility.yul\":14515:14562   */\n      mstore\n        /* \"#utility.yul\":14579:14710   */\n      tag_580\n        /* \"#utility.yul\":14705:14709   */\n      dup2\n        /* \"#utility.yul\":14579:14710   */\n      tag_427\n      jump\t// in\n    tag_580:\n        /* \"#utility.yul\":14571:14710   */\n      swap1\n      pop\n        /* \"#utility.yul\":14298:14717   */\n      swap2\n      swap1\n      pop\n      jump\t// out\n        /* \"#utility.yul\":14723:15133   */\n    tag_271:\n        /* \"#utility.yul\":14763:14770   */\n      0x00\n        /* \"#utility.yul\":14786:14806   */\n      tag_582\n        /* \"#utility.yul\":14804:14805   */\n      dup3\n        /* \"#utility.yul\":14786:14806   */\n      tag_402\n      jump\t// in\n    tag_582:\n        /* \"#utility.yul\":14781:14806   */\n      swap2\n      pop\n        /* \"#utility.yul\":14820:14840   */\n      tag_583\n        /* \"#utility.yul\":14838:14839   */\n      dup4\n        /* \"#utility.yul\":14820:14840   */\n      tag_402\n      jump\t// in\n    tag_583:\n        /* \"#utility.yul\":14815:14840   */\n      swap3\n      pop\n        /* \"#utility.yul\":14875:14876   */\n      dup3\n        /* \"#utility.yul\":14872:14873   */\n      dup3\n        /* \"#utility.yul\":14868:14877   */\n      mul\n        /* \"#utility.yul\":14897:14927   */\n      tag_584\n        /* \"#utility.yul\":14915:14926   */\n      dup2\n        /* \"#utility.yul\":14897:14927   */\n      tag_402\n      jump\t// in\n    tag_584:\n        /* \"#utility.yul\":14886:14927   */\n      swap2\n      pop\n        /* \"#utility.yul\":15076:15077   */\n      dup3\n        /* \"#utility.yul\":15067:15074   */\n      dup3\n        /* \"#utility.yul\":15063:15078   */\n      div\n        /* \"#utility.yul\":15060:15061   */\n      dup5\n        /* \"#utility.yul\":15057:15079   */\n      eq\n        /* \"#utility.yul\":15037:15038   */\n      dup4\n        /* \"#utility.yul\":15030:15039   */\n      iszero\n        /* \"#utility.yul\":15010:15093   */\n      or\n        /* \"#utility.yul\":14987:15126   */\n      tag_585\n      jumpi\n        /* \"#utility.yul\":15106:15124   */\n      tag_586\n      tag_416\n      jump\t// in\n    tag_586:\n        /* \"#utility.yul\":14987:15126   */\n    tag_585:\n        /* \"#utility.yul\":14771:15133   */\n      pop\n        /* \"#utility.yul\":14723:15133   */\n      swap3\n      swap2\n      pop\n      pop\n      jump\t// out\n        /* \"#utility.yul\":15139:15319   */\n    tag_428:\n        /* \"#utility.yul\":15187:15264   */\n      0x4e487b7100000000000000000000000000000000000000000000000000000000\n        /* \"#utility.yul\":15184:15185   */\n      0x00\n        /* \"#utility.yul\":15177:15265   */\n      mstore\n        /* \"#utility.yul\":15284:15288   */\n      0x12\n        /* \"#utility.yul\":15281:15282   */\n      0x04\n        /* \"#utility.yul\":15274:15289   */\n      mstore\n        /* \"#utility.yul\":15308:15312   */\n      0x24\n        /* \"#utility.yul\":15305:15306   */\n      0x00\n        /* \"#utility.yul\":15298:15313   */\n      revert\n        /* \"#utility.yul\":15325:15510   */\n    tag_273:\n        /* \"#utility.yul\":15365:15366   */\n      0x00\n        /* \"#utility.yul\":15382:15402   */\n      tag_589\n        /* \"#utility.yul\":15400:15401   */\n      dup3\n        /* \"#utility.yul\":15382:15402   */\n      tag_402\n      jump\t// in\n    tag_589:\n        /* \"#utility.yul\":15377:15402   */\n      swap2\n      pop\n        /* \"#utility.yul\":15416:15436   */\n      tag_590\n        /* \"#utility.yul\":15434:15435   */\n      dup4\n        /* \"#utility.yul\":15416:15436   */\n      tag_402\n      jump\t// in\n    tag_590:\n        /* \"#utility.yul\":15411:15436   */\n      swap3\n      pop\n        /* \"#utility.yul\":15455:15456   */\n      dup3\n        /* \"#utility.yul\":15445:15480   */\n      tag_591\n      jumpi\n        /* \"#utility.yul\":15460:15478   */\n      tag_592\n      tag_428\n      jump\t// in\n    tag_592:\n        /* \"#utility.yul\":15445:15480   */\n    tag_591:\n        /* \"#utility.yul\":15502:15503   */\n      dup3\n        /* \"#utility.yul\":15499:15500   */\n      dup3\n        /* \"#utility.yul\":15495:15504   */\n      div\n        /* \"#utility.yul\":15490:15504   */\n      swap1\n      pop\n        /* \"#utility.yul\":15325:15510   */\n      swap3\n      swap2\n      pop\n      pop\n      jump\t// out\n        /* \"#utility.yul\":15516:15707   */\n    tag_283:\n        /* \"#utility.yul\":15556:15559   */\n      0x00\n        /* \"#utility.yul\":15575:15595   */\n      tag_594\n        /* \"#utility.yul\":15593:15594   */\n      dup3\n        /* \"#utility.yul\":15575:15595   */\n      tag_402\n      jump\t// in\n    tag_594:\n        /* \"#utility.yul\":15570:15595   */\n      swap2\n      pop\n        /* \"#utility.yul\":15609:15629   */\n      tag_595\n        /* \"#utility.yul\":15627:15628   */\n      dup4\n        /* \"#utility.yul\":15609:15629   */\n      tag_402\n      jump\t// in\n    tag_595:\n        /* \"#utility.yul\":15604:15629   */\n      swap3\n      pop\n        /* \"#utility.yul\":15652:15653   */\n      dup3\n        /* \"#utility.yul\":15649:15650   */\n      dup3\n        /* \"#utility.yul\":15645:15654   */\n      add\n        /* \"#utility.yul\":15638:15654   */\n      swap1\n      pop\n        /* \"#utility.yul\":15673:15676   */\n      dup1\n        /* \"#utility.yul\":15670:15671   */\n      dup3\n        /* \"#utility.yul\":15667:15677   */\n      gt\n        /* \"#utility.yul\":15664:15700   */\n      iszero\n      tag_596\n      jumpi\n        /* \"#utility.yul\":15680:15698   */\n      tag_597\n      tag_416\n      jump\t// in\n    tag_597:\n        /* \"#utility.yul\":15664:15700   */\n    tag_596:\n        /* \"#utility.yul\":15516:15707   */\n      swap3\n      swap2\n      pop\n      pop\n      jump\t// out\n        /* \"#utility.yul\":15713:15933   */\n    tag_429:\n        /* \"#utility.yul\":15853:15887   */\n      0x45786365656473206d6178696d756d20656e676167656d656e7420706f696e74\n        /* \"#utility.yul\":15849:15850   */\n      0x00\n        /* \"#utility.yul\":15841:15847   */\n      dup3\n        /* \"#utility.yul\":15837:15851   */\n      add\n        /* \"#utility.yul\":15830:15888   */\n      mstore\n        /* \"#utility.yul\":15922:15925   */\n      0x7300000000000000000000000000000000000000000000000000000000000000\n        /* \"#utility.yul\":15917:15919   */\n      0x20\n        /* \"#utility.yul\":15909:15915   */\n      dup3\n        /* \"#utility.yul\":15905:15920   */\n      add\n        /* \"#utility.yul\":15898:15926   */\n      mstore\n        /* \"#utility.yul\":15713:15933   */\n      pop\n      jump\t// out\n        /* \"#utility.yul\":15939:16305   */\n    tag_430:\n        /* \"#utility.yul\":16081:16084   */\n      0x00\n        /* \"#utility.yul\":16102:16169   */\n      tag_600\n        /* \"#utility.yul\":16166:16168   */\n      0x21\n        /* \"#utility.yul\":16161:16164   */\n      dup4\n        /* \"#utility.yul\":16102:16169   */\n      tag_391\n      jump\t// in\n    tag_600:\n        /* \"#utility.yul\":16095:16169   */\n      swap2\n      pop\n        /* \"#utility.yul\":16178:16271   */\n      tag_601\n        /* \"#utility.yul\":16267:16270   */\n      dup3\n        /* \"#utility.yul\":16178:16271   */\n      tag_429\n      jump\t// in\n    tag_601:\n        /* \"#utility.yul\":16296:16298   */\n      0x40\n        /* \"#utility.yul\":16291:16294   */\n      dup3\n        /* \"#utility.yul\":16287:16299   */\n      add\n        /* \"#utility.yul\":16280:16299   */\n      swap1\n      pop\n        /* \"#utility.yul\":15939:16305   */\n      swap2\n      swap1\n      pop\n      jump\t// out\n        /* \"#utility.yul\":16311:16730   */\n    tag_286:\n        /* \"#utility.yul\":16477:16481   */\n      0x00\n        /* \"#utility.yul\":16515:16517   */\n      0x20\n        /* \"#utility.yul\":16504:16513   */\n      dup3\n        /* \"#utility.yul\":16500:16518   */\n      add\n        /* \"#utility.yul\":16492:16518   */\n      swap1\n      pop\n        /* \"#utility.yul\":16564:16573   */\n      dup2\n        /* \"#utility.yul\":16558:16562   */\n      dup2\n        /* \"#utility.yul\":16554:16574   */\n      sub\n        /* \"#utility.yul\":16550:16551   */\n      0x00\n        /* \"#utility.yul\":16539:16548   */\n      dup4\n        /* \"#utility.yul\":16535:16552   */\n      add\n        /* \"#utility.yul\":16528:16575   */\n      mstore\n        /* \"#utility.yul\":16592:16723   */\n      tag_603\n        /* \"#utility.yul\":16718:16722   */\n      dup2\n        /* \"#utility.yul\":16592:16723   */\n      tag_430\n      jump\t// in\n    tag_603:\n        /* \"#utility.yul\":16584:16723   */\n      swap1\n      pop\n        /* \"#utility.yul\":16311:16730   */\n      swap2\n      swap1\n      pop\n      jump\t// out\n        /* \"#utility.yul\":16736:16907   */\n    tag_431:\n        /* \"#utility.yul\":16876:16899   */\n      0x436c61696d20636f6f6c646f776e206163746976650000000000000000000000\n        /* \"#utility.yul\":16872:16873   */\n      0x00\n        /* \"#utility.yul\":16864:16870   */\n      dup3\n        /* \"#utility.yul\":16860:16874   */\n      add\n        /* \"#utility.yul\":16853:16900   */\n      mstore\n        /* \"#utility.yul\":16736:16907   */\n      pop\n      jump\t// out\n        /* \"#utility.yul\":16913:17279   */\n    tag_432:\n        /* \"#utility.yul\":17055:17058   */\n      0x00\n        /* \"#utility.yul\":17076:17143   */\n      tag_606\n        /* \"#utility.yul\":17140:17142   */\n      0x15\n        /* \"#utility.yul\":17135:17138   */\n      dup4\n        /* \"#utility.yul\":17076:17143   */\n      tag_391\n      jump\t// in\n    tag_606:\n        /* \"#utility.yul\":17069:17143   */\n      swap2\n      pop\n        /* \"#utility.yul\":17152:17245   */\n      tag_607\n        /* \"#utility.yul\":17241:17244   */\n      dup3\n        /* \"#utility.yul\":17152:17245   */\n      tag_431\n      jump\t// in\n    tag_607:\n        /* \"#utility.yul\":17270:17272   */\n      0x20\n        /* \"#utility.yul\":17265:17268   */\n      dup3\n        /* \"#utility.yul\":17261:17273   */\n      add\n        /* \"#utility.yul\":17254:17273   */\n      swap1\n      pop\n        /* \"#utility.yul\":16913:17279   */\n      swap2\n      swap1\n      pop\n      jump\t// out\n        /* \"#utility.yul\":17285:17704   */\n    tag_299:\n        /* \"#utility.yul\":17451:17455   */\n      0x00\n        /* \"#utility.yul\":17489:17491   */\n      0x20\n        /* \"#utility.yul\":17478:17487   */\n      dup3\n        /* \"#utility.yul\":17474:17492   */\n      add\n        /* \"#utility.yul\":17466:17492   */\n      swap1\n      pop\n        /* \"#utility.yul\":17538:17547   */\n      dup2\n        /* \"#utility.yul\":17532:17536   */\n      dup2\n        /* \"#utility.yul\":17528:17548   */\n      sub\n        /* \"#utility.yul\":17524:17525   */\n      0x00\n        /* \"#utility.yul\":17513:17522   */\n      dup4\n        /* \"#utility.yul\":17509:17526   */\n      add\n        /* \"#utility.yul\":17502:17549   */\n      mstore\n        /* \"#utility.yul\":17566:17697   */\n      tag_609\n        /* \"#utility.yul\":17692:17696   */\n      dup2\n        /* \"#utility.yul\":17566:17697   */\n      tag_432\n      jump\t// in\n    tag_609:\n        /* \"#utility.yul\":17558:17697   */\n      swap1\n      pop\n        /* \"#utility.yul\":17285:17704   */\n      swap2\n      swap1\n      pop\n      jump\t// out\n        /* \"#utility.yul\":17710:17880   */\n    tag_433:\n        /* \"#utility.yul\":17850:17872   */\n      0x4e6f207265776172647320617661696c61626c65000000000000000000000000\n        /* \"#utility.yul\":17846:17847   */\n      0x00\n        /* \"#utility.yul\":17838:17844   */\n      dup3\n        /* \"#utility.yul\":17834:17848   */\n      add\n        /* \"#utility.yul\":17827:17873   */\n      mstore\n        /* \"#utility.yul\":17710:17880   */\n      pop\n      jump\t// out\n        /* \"#utility.yul\":17886:18252   */\n    tag_434:\n        /* \"#utility.yul\":18028:18031   */\n      0x00\n        /* \"#utility.yul\":18049:18116   */\n      tag_612\n        /* \"#utility.yul\":18113:18115   */\n      0x14\n        /* \"#utility.yul\":18108:18111   */\n      dup4\n        /* \"#utility.yul\":18049:18116   */\n      tag_391\n      jump\t// in\n    tag_612:\n        /* \"#utility.yul\":18042:18116   */\n      swap2\n      pop\n        /* \"#utility.yul\":18125:18218   */\n      tag_613\n        /* \"#utility.yul\":18214:18217   */\n      dup3\n        /* \"#utility.yul\":18125:18218   */\n      tag_433\n      jump\t// in\n    tag_613:\n        /* \"#utility.yul\":18243:18245   */\n      0x20\n        /* \"#utility.yul\":18238:18241   */\n      dup3\n        /* \"#utility.yul\":18234:18246   */\n      add\n        /* \"#utility.yul\":18227:18246   */\n      swap1\n      pop\n        /* \"#utility.yul\":17886:18252   */\n      swap2\n      swap1\n      pop\n      jump\t// out\n        /* \"#utility.yul\":18258:18677   */\n    tag_303:\n        /* \"#utility.yul\":18424:18428   */\n      0x00\n        /* \"#utility.yul\":18462:18464   */\n      0x20\n        /* \"#utility.yul\":18451:18460   */\n      dup3\n        /* \"#utility.yul\":18447:18465   */\n      add\n        /* \"#utility.yul\":18439:18465   */\n      swap1\n      pop\n        /* \"#utility.yul\":18511:18520   */\n      dup2\n        /* \"#utility.yul\":18505:18509   */\n      dup2\n        /* \"#utility.yul\":18501:18521   */\n      sub\n        /* \"#utility.yul\":18497:18498   */\n      0x00\n        /* \"#utility.yul\":18486:18495   */\n      dup4\n        /* \"#utility.yul\":18482:18499   */\n      add\n        /* \"#utility.yul\":18475:18522   */\n      mstore\n        /* \"#utility.yul\":18539:18670   */\n      tag_615\n        /* \"#utility.yul\":18665:18669   */\n      dup2\n        /* \"#utility.yul\":18539:18670   */\n      tag_434\n      jump\t// in\n    tag_615:\n        /* \"#utility.yul\":18531:18670   */\n      swap1\n      pop\n        /* \"#utility.yul\":18258:18677   */\n      swap2\n      swap1\n      pop\n      jump\t// out\n        /* \"#utility.yul\":18683:18859   */\n    tag_435:\n        /* \"#utility.yul\":18823:18851   */\n      0x496e73756666696369656e742072657761726420737570706c79000000000000\n        /* \"#utility.yul\":18819:18820   */\n      0x00\n        /* \"#utility.yul\":18811:18817   */\n      dup3\n        /* \"#utility.yul\":18807:18821   */\n      add\n        /* \"#utility.yul\":18800:18852   */\n      mstore\n        /* \"#utility.yul\":18683:18859   */\n      pop\n      jump\t// out\n        /* \"#utility.yul\":18865:19231   */\n    tag_436:\n        /* \"#utility.yul\":19007:19010   */\n      0x00\n        /* \"#utility.yul\":19028:19095   */\n      tag_618\n        /* \"#utility.yul\":19092:19094   */\n      0x1a\n        /* \"#utility.yul\":19087:19090   */\n      dup4\n        /* \"#utility.yul\":19028:19095   */\n      tag_391\n      jump\t// in\n    tag_618:\n        /* \"#utility.yul\":19021:19095   */\n      swap2\n      pop\n        /* \"#utility.yul\":19104:19197   */\n      tag_619\n        /* \"#utility.yul\":19193:19196   */\n      dup3\n        /* \"#utility.yul\":19104:19197   */\n      tag_435\n      jump\t// in\n    tag_619:\n        /* \"#utility.yul\":19222:19224   */\n      0x20\n        /* \"#utility.yul\":19217:19220   */\n      dup3\n        /* \"#utility.yul\":19213:19225   */\n      add\n        /* \"#utility.yul\":19206:19225   */\n      swap1\n      pop\n        /* \"#utility.yul\":18865:19231   */\n      swap2\n      swap1\n      pop\n      jump\t// out\n        /* \"#utility.yul\":19237:19656   */\n    tag_308:\n        /* \"#utility.yul\":19403:19407   */\n      0x00\n        /* \"#utility.yul\":19441:19443   */\n      0x20\n        /* \"#utility.yul\":19430:19439   */\n      dup3\n        /* \"#utility.yul\":19426:19444   */\n      add\n        /* \"#utility.yul\":19418:19444   */\n      swap1\n      pop\n        /* \"#utility.yul\":19490:19499   */\n      dup2\n        /* \"#utility.yul\":19484:19488   */\n      dup2\n        /* \"#utility.yul\":19480:19500   */\n      sub\n        /* \"#utility.yul\":19476:19477   */\n      0x00\n        /* \"#utility.yul\":19465:19474   */\n      dup4\n        /* \"#utility.yul\":19461:19478   */\n      add\n        /* \"#utility.yul\":19454:19501   */\n      mstore\n        /* \"#utility.yul\":19518:19649   */\n      tag_621\n        /* \"#utility.yul\":19644:19648   */\n      dup2\n        /* \"#utility.yul\":19518:19649   */\n      tag_436\n      jump\t// in\n    tag_621:\n        /* \"#utility.yul\":19510:19649   */\n      swap1\n      pop\n        /* \"#utility.yul\":19237:19656   */\n      swap2\n      swap1\n      pop\n      jump\t// out\n        /* \"#utility.yul\":19662:19842   */\n    tag_437:\n        /* \"#utility.yul\":19802:19834   */\n      0x54617820726174652065786365656473206d6178696d756d206c696d69740000\n        /* \"#utility.yul\":19798:19799   */\n      0x00\n        /* \"#utility.yul\":19790:19796   */\n      dup3\n        /* \"#utility.yul\":19786:19800   */\n      add\n        /* \"#utility.yul\":19779:19835   */\n      mstore\n        /* \"#utility.yul\":19662:19842   */\n      pop\n      jump\t// out\n        /* \"#utility.yul\":19848:20214   */\n    tag_438:\n        /* \"#utility.yul\":19990:19993   */\n      0x00\n        /* \"#utility.yul\":20011:20078   */\n      tag_624\n        /* \"#utility.yul\":20075:20077   */\n      0x1e\n        /* \"#utility.yul\":20070:20073   */\n      dup4\n        /* \"#utility.yul\":20011:20078   */\n      tag_391\n      jump\t// in\n    tag_624:\n        /* \"#utility.yul\":20004:20078   */\n      swap2\n      pop\n        /* \"#utility.yul\":20087:20180   */\n      tag_625\n        /* \"#utility.yul\":20176:20179   */\n      dup3\n        /* \"#utility.yul\":20087:20180   */\n      tag_437\n      jump\t// in\n    tag_625:\n        /* \"#utility.yul\":20205:20207   */\n      0x20\n        /* \"#utility.yul\":20200:20203   */\n      dup3\n        /* \"#utility.yul\":20196:20208   */\n      add\n        /* \"#utility.yul\":20189:20208   */\n      swap1\n      pop\n        /* \"#utility.yul\":19848:20214   */\n      swap2\n      swap1\n      pop\n      jump\t// out\n        /* \"#utility.yul\":20220:20639   */\n    tag_317:\n        /* \"#utility.yul\":20386:20390   */\n      0x00\n        /* \"#utility.yul\":20424:20426   */\n      0x20\n        /* \"#utility.yul\":20413:20422   */\n      dup3\n        /* \"#utility.yul\":20409:20427   */\n      add\n        /* \"#utility.yul\":20401:20427   */\n      swap1\n      pop\n        /* \"#utility.yul\":20473:20482   */\n      dup2\n        /* \"#utility.yul\":20467:20471   */\n      dup2\n        /* \"#utility.yul\":20463:20483   */\n      sub\n        /* \"#utility.yul\":20459:20460   */\n      0x00\n        /* \"#utility.yul\":20448:20457   */\n      dup4\n        /* \"#utility.yul\":20444:20461   */\n      add\n        /* \"#utility.yul\":20437:20484   */\n      mstore\n        /* \"#utility.yul\":20501:20632   */\n      tag_627\n        /* \"#utility.yul\":20627:20631   */\n      dup2\n        /* \"#utility.yul\":20501:20632   */\n      tag_438\n      jump\t// in\n    tag_627:\n        /* \"#utility.yul\":20493:20632   */\n      swap1\n      pop\n        /* \"#utility.yul\":20220:20639   */\n      swap2\n      swap1\n      pop\n      jump\t// out\n        /* \"#utility.yul\":20645:21087   */\n    tag_352:\n        /* \"#utility.yul\":20794:20798   */\n      0x00\n        /* \"#utility.yul\":20832:20834   */\n      0x60\n        /* \"#utility.yul\":20821:20830   */\n      dup3\n        /* \"#utility.yul\":20817:20835   */\n      add\n        /* \"#utility.yul\":20809:20835   */\n      swap1\n      pop\n        /* \"#utility.yul\":20845:20916   */\n      tag_629\n        /* \"#utility.yul\":20913:20914   */\n      0x00\n        /* \"#utility.yul\":20902:20911   */\n      dup4\n        /* \"#utility.yul\":20898:20915   */\n      add\n        /* \"#utility.yul\":20889:20895   */\n      dup7\n        /* \"#utility.yul\":20845:20916   */\n      tag_412\n      jump\t// in\n    tag_629:\n        /* \"#utility.yul\":20926:20998   */\n      tag_630\n        /* \"#utility.yul\":20994:20996   */\n      0x20\n        /* \"#utility.yul\":20983:20992   */\n      dup4\n        /* \"#utility.yul\":20979:20997   */\n      add\n        /* \"#utility.yul\":20970:20976   */\n      dup6\n        /* \"#utility.yul\":20926:20998   */\n      tag_409\n      jump\t// in\n    tag_630:\n        /* \"#utility.yul\":21008:21080   */\n      tag_631\n        /* \"#utility.yul\":21076:21078   */\n      0x40\n        /* \"#utility.yul\":21065:21074   */\n      dup4\n        /* \"#utility.yul\":21061:21079   */\n      add\n        /* \"#utility.yul\":21052:21058   */\n      dup5\n        /* \"#utility.yul\":21008:21080   */\n      tag_409\n      jump\t// in\n    tag_631:\n        /* \"#utility.yul\":20645:21087   */\n      swap5\n      swap4\n      pop\n      pop\n      pop\n      pop\n      jump\t// out\n        /* \"#utility.yul\":21093:21274   */\n    tag_439:\n        /* \"#utility.yul\":21233:21266   */\n      0x5265656e7472616e637947756172643a207265656e7472616e742063616c6c00\n        /* \"#utility.yul\":21229:21230   */\n      0x00\n        /* \"#utility.yul\":21221:21227   */\n      dup3\n        /* \"#utility.yul\":21217:21231   */\n      add\n        /* \"#utility.yul\":21210:21267   */\n      mstore\n        /* \"#utility.yul\":21093:21274   */\n      pop\n      jump\t// out\n        /* \"#utility.yul\":21280:21646   */\n    tag_440:\n        /* \"#utility.yul\":21422:21425   */\n      0x00\n        /* \"#utility.yul\":21443:21510   */\n      tag_634\n        /* \"#utility.yul\":21507:21509   */\n      0x1f\n        /* \"#utility.yul\":21502:21505   */\n      dup4\n        /* \"#utility.yul\":21443:21510   */\n      tag_391\n      jump\t// in\n    tag_634:\n        /* \"#utility.yul\":21436:21510   */\n      swap2\n      pop\n        /* \"#utility.yul\":21519:21612   */\n      tag_635\n        /* \"#utility.yul\":21608:21611   */\n      dup3\n        /* \"#utility.yul\":21519:21612   */\n      tag_439\n      jump\t// in\n    tag_635:\n        /* \"#utility.yul\":21637:21639   */\n      0x20\n        /* \"#utility.yul\":21632:21635   */\n      dup3\n        /* \"#utility.yul\":21628:21640   */\n      add\n        /* \"#utility.yul\":21621:21640   */\n      swap1\n      pop\n        /* \"#utility.yul\":21280:21646   */\n      swap2\n      swap1\n      pop\n      jump\t// out\n        /* \"#utility.yul\":21652:22071   */\n    tag_368:\n        /* \"#utility.yul\":21818:21822   */\n      0x00\n        /* \"#utility.yul\":21856:21858   */\n      0x20\n        /* \"#utility.yul\":21845:21854   */\n      dup3\n        /* \"#utility.yul\":21841:21859   */\n      add\n        /* \"#utility.yul\":21833:21859   */\n      swap1\n      pop\n        /* \"#utility.yul\":21905:21914   */\n      dup2\n        /* \"#utility.yul\":21899:21903   */\n      dup2\n        /* \"#utility.yul\":21895:21915   */\n      sub\n        /* \"#utility.yul\":21891:21892   */\n      0x00\n        /* \"#utility.yul\":21880:21889   */\n      dup4\n        /* \"#utility.yul\":21876:21893   */\n      add\n        /* \"#utility.yul\":21869:21916   */\n      mstore\n        /* \"#utility.yul\":21933:22064   */\n      tag_637\n        /* \"#utility.yul\":22059:22063   */\n      dup2\n        /* \"#utility.yul\":21933:22064   */\n      tag_440\n      jump\t// in\n    tag_637:\n        /* \"#utility.yul\":21925:22064   */\n      swap1\n      pop\n        /* \"#utility.yul\":21652:22071   */\n      swap2\n      swap1\n      pop\n      jump\t// out\n\n    auxdata: 0xa26469706673582212201743beba566feb8ca221b790df761d7a29b0b19dc3a787fe0008d4e506b60fcb64736f6c63430008140033\n}\n",
				"bytecode": {
					"linkReferences": {},
					"object": "608060405260026007555f600d5f6101000a81548160ff0219169083151502179055505f600d60016101000a81548160ff02191690831515021790555034801562000048575f80fd5b50336040518060400160405280600981526020017f4765636b6f476f6c6400000000000000000000000000000000000000000000008152506040518060400160405280600581526020017f4745434b4f0000000000000000000000000000000000000000000000000000008152508160039081620000c791906200081d565b508060049081620000d991906200081d565b5050505f73ffffffffffffffffffffffffffffffffffffffff168173ffffffffffffffffffffffffffffffffffffffff16036200014f575f6040517f1e4fbdf700000000000000000000000000000000000000000000000000000000815260040162000146919062000944565b60405180910390fd5b62000160816200024860201b60201c565b506001600681905550620001a433606460196c054f529ca52576bc68920000006200018c91906200098c565b62000198919062000a03565b6200030b60201b60201c565b620001f37302bff1b7b4e9f2483b429afba11ddb474f552678606460196c054f529ca52576bc6892000000620001db91906200098c565b620001e7919062000a03565b6200030b60201b60201c565b620002427378f48f0a33277ac7ff8672f9a71596759cf489d2606460326c054f529ca52576bc68920000006200022a91906200098c565b62000236919062000a03565b6200030b60201b60201c565b62000adb565b5f60055f9054906101000a900473ffffffffffffffffffffffffffffffffffffffff1690508160055f6101000a81548173ffffffffffffffffffffffffffffffffffffffff021916908373ffffffffffffffffffffffffffffffffffffffff1602179055508173ffffffffffffffffffffffffffffffffffffffff168173ffffffffffffffffffffffffffffffffffffffff167f8be0079c531659141344cd1fd0a4f28419497f9722a3daafe3b4186f6b6457e060405160405180910390a35050565b5f73ffffffffffffffffffffffffffffffffffffffff168273ffffffffffffffffffffffffffffffffffffffff16036200037e575f6040517fec442f0500000000000000000000000000000000000000000000000000000000815260040162000375919062000944565b60405180910390fd5b620003915f83836200039560201b60201c565b5050565b5f73ffffffffffffffffffffffffffffffffffffffff168373ffffffffffffffffffffffffffffffffffffffff1603620003e9578060025f828254620003dc919062000a3a565b92505081905550620004ba565b5f805f8573ffffffffffffffffffffffffffffffffffffffff1673ffffffffffffffffffffffffffffffffffffffff1681526020019081526020015f205490508181101562000475578381836040517fe450d38c0000000000000000000000000000000000000000000000000000000081526004016200046c9392919062000a85565b60405180910390fd5b8181035f808673ffffffffffffffffffffffffffffffffffffffff1673ffffffffffffffffffffffffffffffffffffffff1681526020019081526020015f2081905550505b5f73ffffffffffffffffffffffffffffffffffffffff168273ffffffffffffffffffffffffffffffffffffffff160362000503578060025f82825403925050819055506200054d565b805f808473ffffffffffffffffffffffffffffffffffffffff1673ffffffffffffffffffffffffffffffffffffffff1681526020019081526020015f205f82825401925050819055505b8173ffffffffffffffffffffffffffffffffffffffff168373ffffffffffffffffffffffffffffffffffffffff167fddf252ad1be2c89b69c2b068fc378daa952ba7f163c4a11628f55a4df523b3ef83604051620005ac919062000ac0565b60405180910390a3505050565b5f81519050919050565b7f4e487b71000000000000000000000000000000000000000000000000000000005f52604160045260245ffd5b7f4e487b71000000000000000000000000000000000000000000000000000000005f52602260045260245ffd5b5f60028204905060018216806200063557607f821691505b6020821081036200064b576200064a620005f0565b5b50919050565b5f819050815f5260205f209050919050565b5f6020601f8301049050919050565b5f82821b905092915050565b5f60088302620006af7fffffffffffffffffffffffffffffffffffffffffffffffffffffffffffffffff8262000672565b620006bb868362000672565b95508019841693508086168417925050509392505050565b5f819050919050565b5f819050919050565b5f62000705620006ff620006f984620006d3565b620006dc565b620006d3565b9050919050565b5f819050919050565b6200072083620006e5565b620007386200072f826200070c565b8484546200067e565b825550505050565b5f90565b6200074e62000740565b6200075b81848462000715565b505050565b5b818110156200078257620007765f8262000744565b60018101905062000761565b5050565b601f821115620007d1576200079b8162000651565b620007a68462000663565b81016020851015620007b6578190505b620007ce620007c58562000663565b83018262000760565b50505b505050565b5f82821c905092915050565b5f620007f35f1984600802620007d6565b1980831691505092915050565b5f6200080d8383620007e2565b9150826002028217905092915050565b6200082882620005b9565b67ffffffffffffffff811115620008445762000843620005c3565b5b6200085082546200061d565b6200085d82828562000786565b5f60209050601f83116001811462000893575f84156200087e578287015190505b6200088a858262000800565b865550620008f9565b601f198416620008a38662000651565b5f5b82811015620008cc57848901518255600182019150602085019450602081019050620008a5565b86831015620008ec5784890151620008e8601f891682620007e2565b8355505b6001600288020188555050505b505050505050565b5f73ffffffffffffffffffffffffffffffffffffffff82169050919050565b5f6200092c8262000901565b9050919050565b6200093e8162000920565b82525050565b5f602082019050620009595f83018462000933565b92915050565b7f4e487b71000000000000000000000000000000000000000000000000000000005f52601160045260245ffd5b5f6200099882620006d3565b9150620009a583620006d3565b9250828202620009b581620006d3565b91508282048414831517620009cf57620009ce6200095f565b5b5092915050565b7f4e487b71000000000000000000000000000000000000000000000000000000005f52601260045260245ffd5b5f62000a0f82620006d3565b915062000a1c83620006d3565b92508262000a2f5762000a2e620009d6565b5b828204905092915050565b5f62000a4682620006d3565b915062000a5383620006d3565b925082820190508082111562000a6e5762000a6d6200095f565b5b92915050565b62000a7f81620006d3565b82525050565b5f60608201905062000a9a5f83018662000933565b62000aa9602083018562000a74565b62000ab8604083018462000a74565b949350505050565b5f60208201905062000ad55f83018462000a74565b92915050565b6128dd8062000ae95f395ff3fe608060405234801561000f575f80fd5b506004361061021a575f3560e01c80638456cb5911610123578063b88a802f116100ab578063dd62ed3e1161007a578063dd62ed3e14610592578063e3d670d7146105c2578063e43252d7146105f2578063f2fde38b1461060e578063fc1b31131461062a5761021a565b8063b88a802f14610532578063c6d69a301461053c578063d595c33114610558578063d798cbd2146105745761021a565b80638fa81732116100f25780638fa817321461048c578063902d55a5146104aa57806395d89b41146104c8578063a9059cbb146104e6578063aabd801d146105165761021a565b80638456cb591461043e5780638a8c523c146104485780638ab1d681146104525780638da5cb5b1461046e5761021a565b806342966c68116101a65780635fd8c710116101755780635fd8c710146103be57806370a08231146103c8578063715018a6146103f8578063771a3a1d14610402578063819edfbc146104205761021a565b806342966c681461034a5780634ada218b1461036657806357376198146103845780635c975abb146103a05761021a565b806318160ddd116101ed57806318160ddd146102a457806323b872dd146102c25780632576f999146102f2578063313ce567146103225780633f4ba83a146103405761021a565b806306fdde031461021e578063095ea7b31461023c578063153b0d1e1461026c57806317386e2c14610288575b5f80fd5b610226610648565b6040516102339190611e60565b60405180910390f35b61025660048036038101906102519190611f11565b6106d8565b6040516102639190611f69565b60405180910390f35b61028660048036038101906102819190611fac565b6106fa565b005b6102a2600480360381019061029d9190611f11565b61075a565b005b6102ac6108c4565b6040516102b99190611ff9565b60405180910390f35b6102dc60048036038101906102d79190612012565b6108cd565b6040516102e99190611f69565b60405180910390f35b61030c60048036038101906103079190612062565b6108fb565b6040516103199190611ff9565b60405180910390f35b61032a610910565b60405161033791906120a8565b60405180910390f35b610348610918565b005b610364600480360381019061035f91906120c1565b61093c565b005b61036e610997565b60405161037b9190611f69565b60405180910390f35b61039e60048036038101906103999190611f11565b6109a9565b005b6103a8610a38565b6040516103b59190611f69565b60405180910390f35b6103c6610a4b565b005b6103e260048036038101906103dd9190612062565b610ab0565b6040516103ef9190611ff9565b60405180910390f35b610400610af5565b005b61040a610b08565b6040516104179190611ff9565b60405180910390f35b610428610b0e565b6040516104359190611ff9565b60405180910390f35b610446610b14565b005b610450610b39565b005b61046c60048036038101906104679190612062565b610b64565b005b610476610bc3565b60405161048391906120fb565b60405180910390f35b610494610beb565b6040516104a19190611ff9565b60405180910390f35b6104b2610bf0565b6040516104bf9190611ff9565b60405180910390f35b6104d0610c01565b6040516104dd9190611e60565b60405180910390f35b61050060048036038101906104fb9190611f11565b610c91565b60405161050d9190611f69565b60405180910390f35b610530600480360381019061052b9190611f11565b610f1e565b005b61053a611095565b005b610556600480360381019061055191906120c1565b6113bd565b005b610572600480360381019061056d91906120c1565b611413565b005b61057c611484565b6040516105899190611ff9565b60405180910390f35b6105ac60048036038101906105a79190612114565b61148a565b6040516105b99190611ff9565b60405180910390f35b6105dc60048036038101906105d79190612062565b61150c565b6040516105e99190611ff9565b60405180910390f35b61060c60048036038101906106079190612062565b61151d565b005b61062860048036038101906106239190612062565b61157d565b005b610632611601565b60405161063f9190611ff9565b60405180910390f35b6060600380546106579061217f565b80601f01602080910402602001604051908101604052809291908181526020018280546106839061217f565b80156106ce5780601f106106a5576101008083540402835291602001916106ce565b820191905f5260205f20905b8154815290600101906020018083116106b157829003601f168201915b5050505050905090565b5f806106e261160f565b90506106ef818585611616565b600191505092915050565b610702611628565b8060085f8473ffffffffffffffffffffffffffffffffffffffff1673ffffffffffffffffffffffffffffffffffffffff1681526020019081526020015f205f6101000a81548160ff0219169083151502179055505050565b610762611628565b80600a5f8473ffffffffffffffffffffffffffffffffffffffff1673ffffffffffffffffffffffffffffffffffffffff1681526020019081526020015f205410156107e2576040517f08c379a00000000000000000000000000000000000000000000000000000000081526004016107d9906121f9565b60405180910390fd5b80600a5f8473ffffffffffffffffffffffffffffffffffffffff1673ffffffffffffffffffffffffffffffffffffffff1681526020019081526020015f205f82825461082e9190612244565b925050819055508173ffffffffffffffffffffffffffffffffffffffff167f40547f371cf37574d1a01eeeb1593f8db1a3e44286bba3b92cf2867707c9e473600a5f8573ffffffffffffffffffffffffffffffffffffffff1673ffffffffffffffffffffffffffffffffffffffff1681526020019081526020015f20546040516108b89190611ff9565b60405180910390a25050565b5f600254905090565b5f806108d761160f565b90506108e48582856116af565b6108ef858585611741565b60019150509392505050565b600a602052805f5260405f205f915090505481565b5f6012905090565b610920611628565b5f600d60016101000a81548160ff021916908315150217905550565b6109463382611831565b3373ffffffffffffffffffffffffffffffffffffffff167ffd38818f5291bf0bb3a2a48aadc06ba8757865d1dabd804585338aab3009dcb68260405161098c9190611ff9565b60405180910390a250565b600d5f9054906101000a900460ff1681565b6109b1611628565b8173ffffffffffffffffffffffffffffffffffffffff1663a9059cbb6109d5610bc3565b836040518363ffffffff1660e01b81526004016109f3929190612277565b6020604051808303815f875af1158015610a0f573d5f803e3d5ffd5b505050506040513d601f19601f82011682018060405250810190610a3391906122b2565b505050565b600d60019054906101000a900460ff1681565b610a53611628565b610a5b6118b0565b610a63610bc3565b73ffffffffffffffffffffffffffffffffffffffff166108fc4790811502906040515f60405180830381858888f19350505050158015610aa5573d5f803e3d5ffd5b50610aae6118ff565b565b5f805f8373ffffffffffffffffffffffffffffffffffffffff1673ffffffffffffffffffffffffffffffffffffffff1681526020019081526020015f20549050919050565b610afd611628565b610b065f611909565b565b60075481565b61271081565b610b1c611628565b6001600d60016101000a81548160ff021916908315150217905550565b610b41611628565b6001600d5f6101000a81548160ff02191690831515021790555043600c81905550565b610b6c611628565b5f60095f8373ffffffffffffffffffffffffffffffffffffffff1673ffffffffffffffffffffffffffffffffffffffff1681526020019081526020015f205f6101000a81548160ff02191690831515021790555050565b5f60055f9054906101000a900473ffffffffffffffffffffffffffffffffffffffff16905090565b600a81565b6c054f529ca52576bc689200000081565b606060048054610c109061217f565b80601f0160208091040260200160405190810160405280929190818152602001828054610c3c9061217f565b8015610c875780601f10610c5e57610100808354040283529160200191610c87565b820191905f5260205f20905b815481529060010190602001808311610c6a57829003601f168201915b5050505050905090565b5f3360085f8273ffffffffffffffffffffffffffffffffffffffff1673ffffffffffffffffffffffffffffffffffffffff1681526020019081526020015f205f9054906101000a900460ff1615610d1d576040517f08c379a0000000000000000000000000000000000000000000000000000000008152600401610d1490612327565b60405180910390fd5b33600d5f9054906101000a900460ff1680610d7e575060095f8273ffffffffffffffffffffffffffffffffffffffff1673ffffffffffffffffffffffffffffffffffffffff1681526020019081526020015f205f9054906101000a900460ff165b610dbd576040517f08c379a0000000000000000000000000000000000000000000000000000000008152600401610db49061238f565b60405180910390fd5b600d60019054906101000a900460ff1615610e0d576040517f08c379a0000000000000000000000000000000000000000000000000000000008152600401610e04906123f7565b60405180910390fd5b843073ffffffffffffffffffffffffffffffffffffffff168173ffffffffffffffffffffffffffffffffffffffff1603610e7c576040517f08c379a0000000000000000000000000000000000000000000000000000000008152600401610e7390612485565b60405180910390fd5b69d3c21bcecceda1000000851115610ec9576040517f08c379a0000000000000000000000000000000000000000000000000000000008152600401610ec0906124ed565b60405180910390fd5b5f606460075487610eda919061250b565b610ee49190612579565b90505f8187610ef39190612244565b9050610f0733610f01610bc3565b84611741565b610f1188826119cc565b9550505050505092915050565b610f26611628565b61271081600a5f8573ffffffffffffffffffffffffffffffffffffffff1673ffffffffffffffffffffffffffffffffffffffff1681526020019081526020015f2054610f7291906125a9565b1115610fb3576040517f08c379a0000000000000000000000000000000000000000000000000000000008152600401610faa9061264c565b60405180910390fd5b80600a5f8473ffffffffffffffffffffffffffffffffffffffff1673ffffffffffffffffffffffffffffffffffffffff1681526020019081526020015f205f828254610fff91906125a9565b925050819055508173ffffffffffffffffffffffffffffffffffffffff167f40547f371cf37574d1a01eeeb1593f8db1a3e44286bba3b92cf2867707c9e473600a5f8573ffffffffffffffffffffffffffffffffffffffff1673ffffffffffffffffffffffffffffffffffffffff1681526020019081526020015f20546040516110899190611ff9565b60405180910390a25050565b600d60019054906101000a900460ff16156110e5576040517f08c379a00000000000000000000000000000000000000000000000000000000081526004016110dc906123f7565b60405180910390fd5b3360085f8273ffffffffffffffffffffffffffffffffffffffff1673ffffffffffffffffffffffffffffffffffffffff1681526020019081526020015f205f9054906101000a900460ff1615611170576040517f08c379a000000000000000000000000000000000000000000000000000000000815260040161116790612327565b60405180910390fd5b3362015180600b5f8373ffffffffffffffffffffffffffffffffffffffff1673ffffffffffffffffffffffffffffffffffffffff1681526020019081526020015f20546111bd91906125a9565b4210156111ff576040517f08c379a00000000000000000000000000000000000000000000000000000000081526004016111f6906126b4565b60405180910390fd5b5f600a5f3373ffffffffffffffffffffffffffffffffffffffff1673ffffffffffffffffffffffffffffffffffffffff1681526020019081526020015f205490505f8111611282576040517f08c379a00000000000000000000000000000000000000000000000000000000081526004016112799061271c565b60405180910390fd5b8061129361128e610bc3565b610ab0565b10156112d4576040517f08c379a00000000000000000000000000000000000000000000000000000000081526004016112cb90612784565b60405180910390fd5b5f600a5f3373ffffffffffffffffffffffffffffffffffffffff1673ffffffffffffffffffffffffffffffffffffffff1681526020019081526020015f208190555042600b5f3373ffffffffffffffffffffffffffffffffffffffff1673ffffffffffffffffffffffffffffffffffffffff1681526020019081526020015f208190555061136a611363610bc3565b3383611741565b3373ffffffffffffffffffffffffffffffffffffffff167f106f923f993c2149d49b4255ff723acafa1f2d94393f561d3eda32ae348f7241826040516113b09190611ff9565b60405180910390a2505050565b6113c5611628565b600a811115611409576040517f08c379a0000000000000000000000000000000000000000000000000000000008152600401611400906127ec565b60405180910390fd5b8060078190555050565b61141b611628565b61142c611426610bc3565b82611831565b611434610bc3565b73ffffffffffffffffffffffffffffffffffffffff167ffd38818f5291bf0bb3a2a48aadc06ba8757865d1dabd804585338aab3009dcb6826040516114799190611ff9565b60405180910390a250565b600c5481565b5f60015f8473ffffffffffffffffffffffffffffffffffffffff1673ffffffffffffffffffffffffffffffffffffffff1681526020019081526020015f205f8373ffffffffffffffffffffffffffffffffffffffff1673ffffffffffffffffffffffffffffffffffffffff1681526020019081526020015f2054905092915050565b5f61151682610ab0565b9050919050565b611525611628565b600160095f8373ffffffffffffffffffffffffffffffffffffffff1673ffffffffffffffffffffffffffffffffffffffff1681526020019081526020015f205f6101000a81548160ff02191690831515021790555050565b611585611628565b5f73ffffffffffffffffffffffffffffffffffffffff168173ffffffffffffffffffffffffffffffffffffffff16036115f5575f6040517f1e4fbdf70000000000000000000000000000000000000000000000000000000081526004016115ec91906120fb565b60405180910390fd5b6115fe81611909565b50565b69d3c21bcecceda100000081565b5f33905090565b61162383838360016119ee565b505050565b61163061160f565b73ffffffffffffffffffffffffffffffffffffffff1661164e610bc3565b73ffffffffffffffffffffffffffffffffffffffff16146116ad5761167161160f565b6040517f118cdaa70000000000000000000000000000000000000000000000000000000081526004016116a491906120fb565b60405180910390fd5b565b5f6116ba848461148a565b90507fffffffffffffffffffffffffffffffffffffffffffffffffffffffffffffffff811461173b578181101561172c578281836040517ffb8f41b20000000000000000000000000000000000000000000000000000000081526004016117239392919061280a565b60405180910390fd5b61173a84848484035f6119ee565b5b50505050565b5f73ffffffffffffffffffffffffffffffffffffffff168373ffffffffffffffffffffffffffffffffffffffff16036117b1575f6040517f96c6fd1e0000000000000000000000000000000000000000000000000000000081526004016117a891906120fb565b60405180910390fd5b5f73ffffffffffffffffffffffffffffffffffffffff168273ffffffffffffffffffffffffffffffffffffffff1603611821575f6040517fec442f0500000000000000000000000000000000000000000000000000000000815260040161181891906120fb565b60405180910390fd5b61182c838383611bbd565b505050565b5f73ffffffffffffffffffffffffffffffffffffffff168273ffffffffffffffffffffffffffffffffffffffff16036118a1575f6040517f96c6fd1e00000000000000000000000000000000000000000000000000000000815260040161189891906120fb565b60405180910390fd5b6118ac825f83611bbd565b5050565b6002600654036118f5576040517f08c379a00000000000000000000000000000000000000000000000000000000081526004016118ec90612889565b60405180910390fd5b6002600681905550565b6001600681905550565b5f60055f9054906101000a900473ffffffffffffffffffffffffffffffffffffffff1690508160055f6101000a81548173ffffffffffffffffffffffffffffffffffffffff021916908373ffffffffffffffffffffffffffffffffffffffff1602179055508173ffffffffffffffffffffffffffffffffffffffff168173ffffffffffffffffffffffffffffffffffffffff167f8be0079c531659141344cd1fd0a4f28419497f9722a3daafe3b4186f6b6457e060405160405180910390a35050565b5f806119d661160f565b90506119e3818585611741565b600191505092915050565b5f73ffffffffffffffffffffffffffffffffffffffff168473ffffffffffffffffffffffffffffffffffffffff1603611a5e575f6040517fe602df05000000000000000000000000000000000000000000000000000000008152600401611a5591906120fb565b60405180910390fd5b5f73ffffffffffffffffffffffffffffffffffffffff168373ffffffffffffffffffffffffffffffffffffffff1603611ace575f6040517f94280d62000000000000000000000000000000000000000000000000000000008152600401611ac591906120fb565b60405180910390fd5b8160015f8673ffffffffffffffffffffffffffffffffffffffff1673ffffffffffffffffffffffffffffffffffffffff1681526020019081526020015f205f8573ffffffffffffffffffffffffffffffffffffffff1673ffffffffffffffffffffffffffffffffffffffff1681526020019081526020015f20819055508015611bb7578273ffffffffffffffffffffffffffffffffffffffff168473ffffffffffffffffffffffffffffffffffffffff167f8c5be1e5ebec7d5bd14f71427d1e84f3dd0314c0f7b2291e5b200ac8c7c3b92584604051611bae9190611ff9565b60405180910390a35b50505050565b5f73ffffffffffffffffffffffffffffffffffffffff168373ffffffffffffffffffffffffffffffffffffffff1603611c0d578060025f828254611c0191906125a9565b92505081905550611cdb565b5f805f8573ffffffffffffffffffffffffffffffffffffffff1673ffffffffffffffffffffffffffffffffffffffff1681526020019081526020015f2054905081811015611c96578381836040517fe450d38c000000000000000000000000000000000000000000000000000000008152600401611c8d9392919061280a565b60405180910390fd5b8181035f808673ffffffffffffffffffffffffffffffffffffffff1673ffffffffffffffffffffffffffffffffffffffff1681526020019081526020015f2081905550505b5f73ffffffffffffffffffffffffffffffffffffffff168273ffffffffffffffffffffffffffffffffffffffff1603611d22578060025f8282540392505081905550611d6c565b805f808473ffffffffffffffffffffffffffffffffffffffff1673ffffffffffffffffffffffffffffffffffffffff1681526020019081526020015f205f82825401925050819055505b8173ffffffffffffffffffffffffffffffffffffffff168373ffffffffffffffffffffffffffffffffffffffff167fddf252ad1be2c89b69c2b068fc378daa952ba7f163c4a11628f55a4df523b3ef83604051611dc99190611ff9565b60405180910390a3505050565b5f81519050919050565b5f82825260208201905092915050565b5f5b83811015611e0d578082015181840152602081019050611df2565b5f8484015250505050565b5f601f19601f8301169050919050565b5f611e3282611dd6565b611e3c8185611de0565b9350611e4c818560208601611df0565b611e5581611e18565b840191505092915050565b5f6020820190508181035f830152611e788184611e28565b905092915050565b5f80fd5b5f73ffffffffffffffffffffffffffffffffffffffff82169050919050565b5f611ead82611e84565b9050919050565b611ebd81611ea3565b8114611ec7575f80fd5b50565b5f81359050611ed881611eb4565b92915050565b5f819050919050565b611ef081611ede565b8114611efa575f80fd5b50565b5f81359050611f0b81611ee7565b92915050565b5f8060408385031215611f2757611f26611e80565b5b5f611f3485828601611eca565b9250506020611f4585828601611efd565b9150509250929050565b5f8115159050919050565b611f6381611f4f565b82525050565b5f602082019050611f7c5f830184611f5a565b92915050565b611f8b81611f4f565b8114611f95575f80fd5b50565b5f81359050611fa681611f82565b92915050565b5f8060408385031215611fc257611fc1611e80565b5b5f611fcf85828601611eca565b9250506020611fe085828601611f98565b9150509250929050565b611ff381611ede565b82525050565b5f60208201905061200c5f830184611fea565b92915050565b5f805f6060848603121561202957612028611e80565b5b5f61203686828701611eca565b935050602061204786828701611eca565b925050604061205886828701611efd565b9150509250925092565b5f6020828403121561207757612076611e80565b5b5f61208484828501611eca565b91505092915050565b5f60ff82169050919050565b6120a28161208d565b82525050565b5f6020820190506120bb5f830184612099565b92915050565b5f602082840312156120d6576120d5611e80565b5b5f6120e384828501611efd565b91505092915050565b6120f581611ea3565b82525050565b5f60208201905061210e5f8301846120ec565b92915050565b5f806040838503121561212a57612129611e80565b5b5f61213785828601611eca565b925050602061214885828601611eca565b9150509250929050565b7f4e487b71000000000000000000000000000000000000000000000000000000005f52602260045260245ffd5b5f600282049050600182168061219657607f821691505b6020821081036121a9576121a8612152565b5b50919050565b7f4e6f7420656e6f75676820706f696e74730000000000000000000000000000005f82015250565b5f6121e3601183611de0565b91506121ee826121af565b602082019050919050565b5f6020820190508181035f830152612210816121d7565b9050919050565b7f4e487b71000000000000000000000000000000000000000000000000000000005f52601160045260245ffd5b5f61224e82611ede565b915061225983611ede565b925082820390508181111561227157612270612217565b5b92915050565b5f60408201905061228a5f8301856120ec565b6122976020830184611fea565b9392505050565b5f815190506122ac81611f82565b92915050565b5f602082840312156122c7576122c6611e80565b5b5f6122d48482850161229e565b91505092915050565b7f4164647265737320697320626c61636b6c6973746564000000000000000000005f82015250565b5f612311601683611de0565b915061231c826122dd565b602082019050919050565b5f6020820190508181035f83015261233e81612305565b9050919050565b7f54726164696e67206973206e6f7420656e61626c6564000000000000000000005f82015250565b5f612379601683611de0565b915061238482612345565b602082019050919050565b5f6020820190508181035f8301526123a68161236d565b9050919050565b7f436f6e74726163742069732070617573656400000000000000000000000000005f82015250565b5f6123e1601283611de0565b91506123ec826123ad565b602082019050919050565b5f6020820190508181035f83015261240e816123d5565b9050919050565b7f43616e6e6f74207472616e7366657220746f2074686520636f6e7472616374205f8201527f697473656c660000000000000000000000000000000000000000000000000000602082015250565b5f61246f602683611de0565b915061247a82612415565b604082019050919050565b5f6020820190508181035f83015261249c81612463565b9050919050565b7f45786365656473206d6178696d756d207472616e7366657220616d6f756e74005f82015250565b5f6124d7601f83611de0565b91506124e2826124a3565b602082019050919050565b5f6020820190508181035f830152612504816124cb565b9050919050565b5f61251582611ede565b915061252083611ede565b925082820261252e81611ede565b9150828204841483151761254557612544612217565b5b5092915050565b7f4e487b71000000000000000000000000000000000000000000000000000000005f52601260045260245ffd5b5f61258382611ede565b915061258e83611ede565b92508261259e5761259d61254c565b5b828204905092915050565b5f6125b382611ede565b91506125be83611ede565b92508282019050808211156125d6576125d5612217565b5b92915050565b7f45786365656473206d6178696d756d20656e676167656d656e7420706f696e745f8201527f7300000000000000000000000000000000000000000000000000000000000000602082015250565b5f612636602183611de0565b9150612641826125dc565b604082019050919050565b5f6020820190508181035f8301526126638161262a565b9050919050565b7f436c61696d20636f6f6c646f776e2061637469766500000000000000000000005f82015250565b5f61269e601583611de0565b91506126a98261266a565b602082019050919050565b5f6020820190508181035f8301526126cb81612692565b9050919050565b7f4e6f207265776172647320617661696c61626c650000000000000000000000005f82015250565b5f612706601483611de0565b9150612711826126d2565b602082019050919050565b5f6020820190508181035f830152612733816126fa565b9050919050565b7f496e73756666696369656e742072657761726420737570706c790000000000005f82015250565b5f61276e601a83611de0565b91506127798261273a565b602082019050919050565b5f6020820190508181035f83015261279b81612762565b9050919050565b7f54617820726174652065786365656473206d6178696d756d206c696d697400005f82015250565b5f6127d6601e83611de0565b91506127e1826127a2565b602082019050919050565b5f6020820190508181035f830152612803816127ca565b9050919050565b5f60608201905061281d5f8301866120ec565b61282a6020830185611fea565b6128376040830184611fea565b949350505050565b7f5265656e7472616e637947756172643a207265656e7472616e742063616c6c005f82015250565b5f612873601f83611de0565b915061287e8261283f565b602082019050919050565b5f6020820190508181035f8301526128a081612867565b905091905056fea26469706673582212201743beba566feb8ca221b790df761d7a29b0b19dc3a787fe0008d4e506b60fcb64736f6c63430008140033",
					"opcodes": "PUSH1 0x80 PUSH1 0x40 MSTORE PUSH1 0x2 PUSH1 0x7 SSTORE PUSH0 PUSH1 0xD PUSH0 PUSH2 0x100 EXP DUP2 SLOAD DUP2 PUSH1 0xFF MUL NOT AND SWAP1 DUP4 ISZERO ISZERO MUL OR SWAP1 SSTORE POP PUSH0 PUSH1 0xD PUSH1 0x1 PUSH2 0x100 EXP DUP2 SLOAD DUP2 PUSH1 0xFF MUL NOT AND SWAP1 DUP4 ISZERO ISZERO MUL OR SWAP1 SSTORE POP CALLVALUE DUP1 ISZERO PUSH3 0x48 JUMPI PUSH0 DUP1 REVERT JUMPDEST POP CALLER PUSH1 0x40 MLOAD DUP1 PUSH1 0x40 ADD PUSH1 0x40 MSTORE DUP1 PUSH1 0x9 DUP2 MSTORE PUSH1 0x20 ADD PUSH32 0x4765636B6F476F6C640000000000000000000000000000000000000000000000 DUP2 MSTORE POP PUSH1 0x40 MLOAD DUP1 PUSH1 0x40 ADD PUSH1 0x40 MSTORE DUP1 PUSH1 0x5 DUP2 MSTORE PUSH1 0x20 ADD PUSH32 0x4745434B4F000000000000000000000000000000000000000000000000000000 DUP2 MSTORE POP DUP2 PUSH1 0x3 SWAP1 DUP2 PUSH3 0xC7 SWAP2 SWAP1 PUSH3 0x81D JUMP JUMPDEST POP DUP1 PUSH1 0x4 SWAP1 DUP2 PUSH3 0xD9 SWAP2 SWAP1 PUSH3 0x81D JUMP JUMPDEST POP POP POP PUSH0 PUSH20 0xFFFFFFFFFFFFFFFFFFFFFFFFFFFFFFFFFFFFFFFF AND DUP2 PUSH20 0xFFFFFFFFFFFFFFFFFFFFFFFFFFFFFFFFFFFFFFFF AND SUB PUSH3 0x14F JUMPI PUSH0 PUSH1 0x40 MLOAD PUSH32 0x1E4FBDF700000000000000000000000000000000000000000000000000000000 DUP2 MSTORE PUSH1 0x4 ADD PUSH3 0x146 SWAP2 SWAP1 PUSH3 0x944 JUMP JUMPDEST PUSH1 0x40 MLOAD DUP1 SWAP2 SUB SWAP1 REVERT JUMPDEST PUSH3 0x160 DUP2 PUSH3 0x248 PUSH1 0x20 SHL PUSH1 0x20 SHR JUMP JUMPDEST POP PUSH1 0x1 PUSH1 0x6 DUP2 SWAP1 SSTORE POP PUSH3 0x1A4 CALLER PUSH1 0x64 PUSH1 0x19 PUSH13 0x54F529CA52576BC6892000000 PUSH3 0x18C SWAP2 SWAP1 PUSH3 0x98C JUMP JUMPDEST PUSH3 0x198 SWAP2 SWAP1 PUSH3 0xA03 JUMP JUMPDEST PUSH3 0x30B PUSH1 0x20 SHL PUSH1 0x20 SHR JUMP JUMPDEST PUSH3 0x1F3 PUSH20 0x2BFF1B7B4E9F2483B429AFBA11DDB474F552678 PUSH1 0x64 PUSH1 0x19 PUSH13 0x54F529CA52576BC6892000000 PUSH3 0x1DB SWAP2 SWAP1 PUSH3 0x98C JUMP JUMPDEST PUSH3 0x1E7 SWAP2 SWAP1 PUSH3 0xA03 JUMP JUMPDEST PUSH3 0x30B PUSH1 0x20 SHL PUSH1 0x20 SHR JUMP JUMPDEST PUSH3 0x242 PUSH20 0x78F48F0A33277AC7FF8672F9A71596759CF489D2 PUSH1 0x64 PUSH1 0x32 PUSH13 0x54F529CA52576BC6892000000 PUSH3 0x22A SWAP2 SWAP1 PUSH3 0x98C JUMP JUMPDEST PUSH3 0x236 SWAP2 SWAP1 PUSH3 0xA03 JUMP JUMPDEST PUSH3 0x30B PUSH1 0x20 SHL PUSH1 0x20 SHR JUMP JUMPDEST PUSH3 0xADB JUMP JUMPDEST PUSH0 PUSH1 0x5 PUSH0 SWAP1 SLOAD SWAP1 PUSH2 0x100 EXP SWAP1 DIV PUSH20 0xFFFFFFFFFFFFFFFFFFFFFFFFFFFFFFFFFFFFFFFF AND SWAP1 POP DUP2 PUSH1 0x5 PUSH0 PUSH2 0x100 EXP DUP2 SLOAD DUP2 PUSH20 0xFFFFFFFFFFFFFFFFFFFFFFFFFFFFFFFFFFFFFFFF MUL NOT AND SWAP1 DUP4 PUSH20 0xFFFFFFFFFFFFFFFFFFFFFFFFFFFFFFFFFFFFFFFF AND MUL OR SWAP1 SSTORE POP DUP2 PUSH20 0xFFFFFFFFFFFFFFFFFFFFFFFFFFFFFFFFFFFFFFFF AND DUP2 PUSH20 0xFFFFFFFFFFFFFFFFFFFFFFFFFFFFFFFFFFFFFFFF AND PUSH32 0x8BE0079C531659141344CD1FD0A4F28419497F9722A3DAAFE3B4186F6B6457E0 PUSH1 0x40 MLOAD PUSH1 0x40 MLOAD DUP1 SWAP2 SUB SWAP1 LOG3 POP POP JUMP JUMPDEST PUSH0 PUSH20 0xFFFFFFFFFFFFFFFFFFFFFFFFFFFFFFFFFFFFFFFF AND DUP3 PUSH20 0xFFFFFFFFFFFFFFFFFFFFFFFFFFFFFFFFFFFFFFFF AND SUB PUSH3 0x37E JUMPI PUSH0 PUSH1 0x40 MLOAD PUSH32 0xEC442F0500000000000000000000000000000000000000000000000000000000 DUP2 MSTORE PUSH1 0x4 ADD PUSH3 0x375 SWAP2 SWAP1 PUSH3 0x944 JUMP JUMPDEST PUSH1 0x40 MLOAD DUP1 SWAP2 SUB SWAP1 REVERT JUMPDEST PUSH3 0x391 PUSH0 DUP4 DUP4 PUSH3 0x395 PUSH1 0x20 SHL PUSH1 0x20 SHR JUMP JUMPDEST POP POP JUMP JUMPDEST PUSH0 PUSH20 0xFFFFFFFFFFFFFFFFFFFFFFFFFFFFFFFFFFFFFFFF AND DUP4 PUSH20 0xFFFFFFFFFFFFFFFFFFFFFFFFFFFFFFFFFFFFFFFF AND SUB PUSH3 0x3E9 JUMPI DUP1 PUSH1 0x2 PUSH0 DUP3 DUP3 SLOAD PUSH3 0x3DC SWAP2 SWAP1 PUSH3 0xA3A JUMP JUMPDEST SWAP3 POP POP DUP2 SWAP1 SSTORE POP PUSH3 0x4BA JUMP JUMPDEST PUSH0 DUP1 PUSH0 DUP6 PUSH20 0xFFFFFFFFFFFFFFFFFFFFFFFFFFFFFFFFFFFFFFFF AND PUSH20 0xFFFFFFFFFFFFFFFFFFFFFFFFFFFFFFFFFFFFFFFF AND DUP2 MSTORE PUSH1 0x20 ADD SWAP1 DUP2 MSTORE PUSH1 0x20 ADD PUSH0 KECCAK256 SLOAD SWAP1 POP DUP2 DUP2 LT ISZERO PUSH3 0x475 JUMPI DUP4 DUP2 DUP4 PUSH1 0x40 MLOAD PUSH32 0xE450D38C00000000000000000000000000000000000000000000000000000000 DUP2 MSTORE PUSH1 0x4 ADD PUSH3 0x46C SWAP4 SWAP3 SWAP2 SWAP1 PUSH3 0xA85 JUMP JUMPDEST PUSH1 0x40 MLOAD DUP1 SWAP2 SUB SWAP1 REVERT JUMPDEST DUP2 DUP2 SUB PUSH0 DUP1 DUP7 PUSH20 0xFFFFFFFFFFFFFFFFFFFFFFFFFFFFFFFFFFFFFFFF AND PUSH20 0xFFFFFFFFFFFFFFFFFFFFFFFFFFFFFFFFFFFFFFFF AND DUP2 MSTORE PUSH1 0x20 ADD SWAP1 DUP2 MSTORE PUSH1 0x20 ADD PUSH0 KECCAK256 DUP2 SWAP1 SSTORE POP POP JUMPDEST PUSH0 PUSH20 0xFFFFFFFFFFFFFFFFFFFFFFFFFFFFFFFFFFFFFFFF AND DUP3 PUSH20 0xFFFFFFFFFFFFFFFFFFFFFFFFFFFFFFFFFFFFFFFF AND SUB PUSH3 0x503 JUMPI DUP1 PUSH1 0x2 PUSH0 DUP3 DUP3 SLOAD SUB SWAP3 POP POP DUP2 SWAP1 SSTORE POP PUSH3 0x54D JUMP JUMPDEST DUP1 PUSH0 DUP1 DUP5 PUSH20 0xFFFFFFFFFFFFFFFFFFFFFFFFFFFFFFFFFFFFFFFF AND PUSH20 0xFFFFFFFFFFFFFFFFFFFFFFFFFFFFFFFFFFFFFFFF AND DUP2 MSTORE PUSH1 0x20 ADD SWAP1 DUP2 MSTORE PUSH1 0x20 ADD PUSH0 KECCAK256 PUSH0 DUP3 DUP3 SLOAD ADD SWAP3 POP POP DUP2 SWAP1 SSTORE POP JUMPDEST DUP2 PUSH20 0xFFFFFFFFFFFFFFFFFFFFFFFFFFFFFFFFFFFFFFFF AND DUP4 PUSH20 0xFFFFFFFFFFFFFFFFFFFFFFFFFFFFFFFFFFFFFFFF AND PUSH32 0xDDF252AD1BE2C89B69C2B068FC378DAA952BA7F163C4A11628F55A4DF523B3EF DUP4 PUSH1 0x40 MLOAD PUSH3 0x5AC SWAP2 SWAP1 PUSH3 0xAC0 JUMP JUMPDEST PUSH1 0x40 MLOAD DUP1 SWAP2 SUB SWAP1 LOG3 POP POP POP JUMP JUMPDEST PUSH0 DUP2 MLOAD SWAP1 POP SWAP2 SWAP1 POP JUMP JUMPDEST PUSH32 0x4E487B7100000000000000000000000000000000000000000000000000000000 PUSH0 MSTORE PUSH1 0x41 PUSH1 0x4 MSTORE PUSH1 0x24 PUSH0 REVERT JUMPDEST PUSH32 0x4E487B7100000000000000000000000000000000000000000000000000000000 PUSH0 MSTORE PUSH1 0x22 PUSH1 0x4 MSTORE PUSH1 0x24 PUSH0 REVERT JUMPDEST PUSH0 PUSH1 0x2 DUP3 DIV SWAP1 POP PUSH1 0x1 DUP3 AND DUP1 PUSH3 0x635 JUMPI PUSH1 0x7F DUP3 AND SWAP2 POP JUMPDEST PUSH1 0x20 DUP3 LT DUP2 SUB PUSH3 0x64B JUMPI PUSH3 0x64A PUSH3 0x5F0 JUMP JUMPDEST JUMPDEST POP SWAP2 SWAP1 POP JUMP JUMPDEST PUSH0 DUP2 SWAP1 POP DUP2 PUSH0 MSTORE PUSH1 0x20 PUSH0 KECCAK256 SWAP1 POP SWAP2 SWAP1 POP JUMP JUMPDEST PUSH0 PUSH1 0x20 PUSH1 0x1F DUP4 ADD DIV SWAP1 POP SWAP2 SWAP1 POP JUMP JUMPDEST PUSH0 DUP3 DUP3 SHL SWAP1 POP SWAP3 SWAP2 POP POP JUMP JUMPDEST PUSH0 PUSH1 0x8 DUP4 MUL PUSH3 0x6AF PUSH32 0xFFFFFFFFFFFFFFFFFFFFFFFFFFFFFFFFFFFFFFFFFFFFFFFFFFFFFFFFFFFFFFFF DUP3 PUSH3 0x672 JUMP JUMPDEST PUSH3 0x6BB DUP7 DUP4 PUSH3 0x672 JUMP JUMPDEST SWAP6 POP DUP1 NOT DUP5 AND SWAP4 POP DUP1 DUP7 AND DUP5 OR SWAP3 POP POP POP SWAP4 SWAP3 POP POP POP JUMP JUMPDEST PUSH0 DUP2 SWAP1 POP SWAP2 SWAP1 POP JUMP JUMPDEST PUSH0 DUP2 SWAP1 POP SWAP2 SWAP1 POP JUMP JUMPDEST PUSH0 PUSH3 0x705 PUSH3 0x6FF PUSH3 0x6F9 DUP5 PUSH3 0x6D3 JUMP JUMPDEST PUSH3 0x6DC JUMP JUMPDEST PUSH3 0x6D3 JUMP JUMPDEST SWAP1 POP SWAP2 SWAP1 POP JUMP JUMPDEST PUSH0 DUP2 SWAP1 POP SWAP2 SWAP1 POP JUMP JUMPDEST PUSH3 0x720 DUP4 PUSH3 0x6E5 JUMP JUMPDEST PUSH3 0x738 PUSH3 0x72F DUP3 PUSH3 0x70C JUMP JUMPDEST DUP5 DUP5 SLOAD PUSH3 0x67E JUMP JUMPDEST DUP3 SSTORE POP POP POP POP JUMP JUMPDEST PUSH0 SWAP1 JUMP JUMPDEST PUSH3 0x74E PUSH3 0x740 JUMP JUMPDEST PUSH3 0x75B DUP2 DUP5 DUP5 PUSH3 0x715 JUMP JUMPDEST POP POP POP JUMP JUMPDEST JUMPDEST DUP2 DUP2 LT ISZERO PUSH3 0x782 JUMPI PUSH3 0x776 PUSH0 DUP3 PUSH3 0x744 JUMP JUMPDEST PUSH1 0x1 DUP2 ADD SWAP1 POP PUSH3 0x761 JUMP JUMPDEST POP POP JUMP JUMPDEST PUSH1 0x1F DUP3 GT ISZERO PUSH3 0x7D1 JUMPI PUSH3 0x79B DUP2 PUSH3 0x651 JUMP JUMPDEST PUSH3 0x7A6 DUP5 PUSH3 0x663 JUMP JUMPDEST DUP2 ADD PUSH1 0x20 DUP6 LT ISZERO PUSH3 0x7B6 JUMPI DUP2 SWAP1 POP JUMPDEST PUSH3 0x7CE PUSH3 0x7C5 DUP6 PUSH3 0x663 JUMP JUMPDEST DUP4 ADD DUP3 PUSH3 0x760 JUMP JUMPDEST POP POP JUMPDEST POP POP POP JUMP JUMPDEST PUSH0 DUP3 DUP3 SHR SWAP1 POP SWAP3 SWAP2 POP POP JUMP JUMPDEST PUSH0 PUSH3 0x7F3 PUSH0 NOT DUP5 PUSH1 0x8 MUL PUSH3 0x7D6 JUMP JUMPDEST NOT DUP1 DUP4 AND SWAP2 POP POP SWAP3 SWAP2 POP POP JUMP JUMPDEST PUSH0 PUSH3 0x80D DUP4 DUP4 PUSH3 0x7E2 JUMP JUMPDEST SWAP2 POP DUP3 PUSH1 0x2 MUL DUP3 OR SWAP1 POP SWAP3 SWAP2 POP POP JUMP JUMPDEST PUSH3 0x828 DUP3 PUSH3 0x5B9 JUMP JUMPDEST PUSH8 0xFFFFFFFFFFFFFFFF DUP2 GT ISZERO PUSH3 0x844 JUMPI PUSH3 0x843 PUSH3 0x5C3 JUMP JUMPDEST JUMPDEST PUSH3 0x850 DUP3 SLOAD PUSH3 0x61D JUMP JUMPDEST PUSH3 0x85D DUP3 DUP3 DUP6 PUSH3 0x786 JUMP JUMPDEST PUSH0 PUSH1 0x20 SWAP1 POP PUSH1 0x1F DUP4 GT PUSH1 0x1 DUP2 EQ PUSH3 0x893 JUMPI PUSH0 DUP5 ISZERO PUSH3 0x87E JUMPI DUP3 DUP8 ADD MLOAD SWAP1 POP JUMPDEST PUSH3 0x88A DUP6 DUP3 PUSH3 0x800 JUMP JUMPDEST DUP7 SSTORE POP PUSH3 0x8F9 JUMP JUMPDEST PUSH1 0x1F NOT DUP5 AND PUSH3 0x8A3 DUP7 PUSH3 0x651 JUMP JUMPDEST PUSH0 JUMPDEST DUP3 DUP2 LT ISZERO PUSH3 0x8CC JUMPI DUP5 DUP10 ADD MLOAD DUP3 SSTORE PUSH1 0x1 DUP3 ADD SWAP2 POP PUSH1 0x20 DUP6 ADD SWAP5 POP PUSH1 0x20 DUP2 ADD SWAP1 POP PUSH3 0x8A5 JUMP JUMPDEST DUP7 DUP4 LT ISZERO PUSH3 0x8EC JUMPI DUP5 DUP10 ADD MLOAD PUSH3 0x8E8 PUSH1 0x1F DUP10 AND DUP3 PUSH3 0x7E2 JUMP JUMPDEST DUP4 SSTORE POP JUMPDEST PUSH1 0x1 PUSH1 0x2 DUP9 MUL ADD DUP9 SSTORE POP POP POP JUMPDEST POP POP POP POP POP POP JUMP JUMPDEST PUSH0 PUSH20 0xFFFFFFFFFFFFFFFFFFFFFFFFFFFFFFFFFFFFFFFF DUP3 AND SWAP1 POP SWAP2 SWAP1 POP JUMP JUMPDEST PUSH0 PUSH3 0x92C DUP3 PUSH3 0x901 JUMP JUMPDEST SWAP1 POP SWAP2 SWAP1 POP JUMP JUMPDEST PUSH3 0x93E DUP2 PUSH3 0x920 JUMP JUMPDEST DUP3 MSTORE POP POP JUMP JUMPDEST PUSH0 PUSH1 0x20 DUP3 ADD SWAP1 POP PUSH3 0x959 PUSH0 DUP4 ADD DUP5 PUSH3 0x933 JUMP JUMPDEST SWAP3 SWAP2 POP POP JUMP JUMPDEST PUSH32 0x4E487B7100000000000000000000000000000000000000000000000000000000 PUSH0 MSTORE PUSH1 0x11 PUSH1 0x4 MSTORE PUSH1 0x24 PUSH0 REVERT JUMPDEST PUSH0 PUSH3 0x998 DUP3 PUSH3 0x6D3 JUMP JUMPDEST SWAP2 POP PUSH3 0x9A5 DUP4 PUSH3 0x6D3 JUMP JUMPDEST SWAP3 POP DUP3 DUP3 MUL PUSH3 0x9B5 DUP2 PUSH3 0x6D3 JUMP JUMPDEST SWAP2 POP DUP3 DUP3 DIV DUP5 EQ DUP4 ISZERO OR PUSH3 0x9CF JUMPI PUSH3 0x9CE PUSH3 0x95F JUMP JUMPDEST JUMPDEST POP SWAP3 SWAP2 POP POP JUMP JUMPDEST PUSH32 0x4E487B7100000000000000000000000000000000000000000000000000000000 PUSH0 MSTORE PUSH1 0x12 PUSH1 0x4 MSTORE PUSH1 0x24 PUSH0 REVERT JUMPDEST PUSH0 PUSH3 0xA0F DUP3 PUSH3 0x6D3 JUMP JUMPDEST SWAP2 POP PUSH3 0xA1C DUP4 PUSH3 0x6D3 JUMP JUMPDEST SWAP3 POP DUP3 PUSH3 0xA2F JUMPI PUSH3 0xA2E PUSH3 0x9D6 JUMP JUMPDEST JUMPDEST DUP3 DUP3 DIV SWAP1 POP SWAP3 SWAP2 POP POP JUMP JUMPDEST PUSH0 PUSH3 0xA46 DUP3 PUSH3 0x6D3 JUMP JUMPDEST SWAP2 POP PUSH3 0xA53 DUP4 PUSH3 0x6D3 JUMP JUMPDEST SWAP3 POP DUP3 DUP3 ADD SWAP1 POP DUP1 DUP3 GT ISZERO PUSH3 0xA6E JUMPI PUSH3 0xA6D PUSH3 0x95F JUMP JUMPDEST JUMPDEST SWAP3 SWAP2 POP POP JUMP JUMPDEST PUSH3 0xA7F DUP2 PUSH3 0x6D3 JUMP JUMPDEST DUP3 MSTORE POP POP JUMP JUMPDEST PUSH0 PUSH1 0x60 DUP3 ADD SWAP1 POP PUSH3 0xA9A PUSH0 DUP4 ADD DUP7 PUSH3 0x933 JUMP JUMPDEST PUSH3 0xAA9 PUSH1 0x20 DUP4 ADD DUP6 PUSH3 0xA74 JUMP JUMPDEST PUSH3 0xAB8 PUSH1 0x40 DUP4 ADD DUP5 PUSH3 0xA74 JUMP JUMPDEST SWAP5 SWAP4 POP POP POP POP JUMP JUMPDEST PUSH0 PUSH1 0x20 DUP3 ADD SWAP1 POP PUSH3 0xAD5 PUSH0 DUP4 ADD DUP5 PUSH3 0xA74 JUMP JUMPDEST SWAP3 SWAP2 POP POP JUMP JUMPDEST PUSH2 0x28DD DUP1 PUSH3 0xAE9 PUSH0 CODECOPY PUSH0 RETURN INVALID PUSH1 0x80 PUSH1 0x40 MSTORE CALLVALUE DUP1 ISZERO PUSH2 0xF JUMPI PUSH0 DUP1 REVERT JUMPDEST POP PUSH1 0x4 CALLDATASIZE LT PUSH2 0x21A JUMPI PUSH0 CALLDATALOAD PUSH1 0xE0 SHR DUP1 PUSH4 0x8456CB59 GT PUSH2 0x123 JUMPI DUP1 PUSH4 0xB88A802F GT PUSH2 0xAB JUMPI DUP1 PUSH4 0xDD62ED3E GT PUSH2 0x7A JUMPI DUP1 PUSH4 0xDD62ED3E EQ PUSH2 0x592 JUMPI DUP1 PUSH4 0xE3D670D7 EQ PUSH2 0x5C2 JUMPI DUP1 PUSH4 0xE43252D7 EQ PUSH2 0x5F2 JUMPI DUP1 PUSH4 0xF2FDE38B EQ PUSH2 0x60E JUMPI DUP1 PUSH4 0xFC1B3113 EQ PUSH2 0x62A JUMPI PUSH2 0x21A JUMP JUMPDEST DUP1 PUSH4 0xB88A802F EQ PUSH2 0x532 JUMPI DUP1 PUSH4 0xC6D69A30 EQ PUSH2 0x53C JUMPI DUP1 PUSH4 0xD595C331 EQ PUSH2 0x558 JUMPI DUP1 PUSH4 0xD798CBD2 EQ PUSH2 0x574 JUMPI PUSH2 0x21A JUMP JUMPDEST DUP1 PUSH4 0x8FA81732 GT PUSH2 0xF2 JUMPI DUP1 PUSH4 0x8FA81732 EQ PUSH2 0x48C JUMPI DUP1 PUSH4 0x902D55A5 EQ PUSH2 0x4AA JUMPI DUP1 PUSH4 0x95D89B41 EQ PUSH2 0x4C8 JUMPI DUP1 PUSH4 0xA9059CBB EQ PUSH2 0x4E6 JUMPI DUP1 PUSH4 0xAABD801D EQ PUSH2 0x516 JUMPI PUSH2 0x21A JUMP JUMPDEST DUP1 PUSH4 0x8456CB59 EQ PUSH2 0x43E JUMPI DUP1 PUSH4 0x8A8C523C EQ PUSH2 0x448 JUMPI DUP1 PUSH4 0x8AB1D681 EQ PUSH2 0x452 JUMPI DUP1 PUSH4 0x8DA5CB5B EQ PUSH2 0x46E JUMPI PUSH2 0x21A JUMP JUMPDEST DUP1 PUSH4 0x42966C68 GT PUSH2 0x1A6 JUMPI DUP1 PUSH4 0x5FD8C710 GT PUSH2 0x175 JUMPI DUP1 PUSH4 0x5FD8C710 EQ PUSH2 0x3BE JUMPI DUP1 PUSH4 0x70A08231 EQ PUSH2 0x3C8 JUMPI DUP1 PUSH4 0x715018A6 EQ PUSH2 0x3F8 JUMPI DUP1 PUSH4 0x771A3A1D EQ PUSH2 0x402 JUMPI DUP1 PUSH4 0x819EDFBC EQ PUSH2 0x420 JUMPI PUSH2 0x21A JUMP JUMPDEST DUP1 PUSH4 0x42966C68 EQ PUSH2 0x34A JUMPI DUP1 PUSH4 0x4ADA218B EQ PUSH2 0x366 JUMPI DUP1 PUSH4 0x57376198 EQ PUSH2 0x384 JUMPI DUP1 PUSH4 0x5C975ABB EQ PUSH2 0x3A0 JUMPI PUSH2 0x21A JUMP JUMPDEST DUP1 PUSH4 0x18160DDD GT PUSH2 0x1ED JUMPI DUP1 PUSH4 0x18160DDD EQ PUSH2 0x2A4 JUMPI DUP1 PUSH4 0x23B872DD EQ PUSH2 0x2C2 JUMPI DUP1 PUSH4 0x2576F999 EQ PUSH2 0x2F2 JUMPI DUP1 PUSH4 0x313CE567 EQ PUSH2 0x322 JUMPI DUP1 PUSH4 0x3F4BA83A EQ PUSH2 0x340 JUMPI PUSH2 0x21A JUMP JUMPDEST DUP1 PUSH4 0x6FDDE03 EQ PUSH2 0x21E JUMPI DUP1 PUSH4 0x95EA7B3 EQ PUSH2 0x23C JUMPI DUP1 PUSH4 0x153B0D1E EQ PUSH2 0x26C JUMPI DUP1 PUSH4 0x17386E2C EQ PUSH2 0x288 JUMPI JUMPDEST PUSH0 DUP1 REVERT JUMPDEST PUSH2 0x226 PUSH2 0x648 JUMP JUMPDEST PUSH1 0x40 MLOAD PUSH2 0x233 SWAP2 SWAP1 PUSH2 0x1E60 JUMP JUMPDEST PUSH1 0x40 MLOAD DUP1 SWAP2 SUB SWAP1 RETURN JUMPDEST PUSH2 0x256 PUSH1 0x4 DUP1 CALLDATASIZE SUB DUP2 ADD SWAP1 PUSH2 0x251 SWAP2 SWAP1 PUSH2 0x1F11 JUMP JUMPDEST PUSH2 0x6D8 JUMP JUMPDEST PUSH1 0x40 MLOAD PUSH2 0x263 SWAP2 SWAP1 PUSH2 0x1F69 JUMP JUMPDEST PUSH1 0x40 MLOAD DUP1 SWAP2 SUB SWAP1 RETURN JUMPDEST PUSH2 0x286 PUSH1 0x4 DUP1 CALLDATASIZE SUB DUP2 ADD SWAP1 PUSH2 0x281 SWAP2 SWAP1 PUSH2 0x1FAC JUMP JUMPDEST PUSH2 0x6FA JUMP JUMPDEST STOP JUMPDEST PUSH2 0x2A2 PUSH1 0x4 DUP1 CALLDATASIZE SUB DUP2 ADD SWAP1 PUSH2 0x29D SWAP2 SWAP1 PUSH2 0x1F11 JUMP JUMPDEST PUSH2 0x75A JUMP JUMPDEST STOP JUMPDEST PUSH2 0x2AC PUSH2 0x8C4 JUMP JUMPDEST PUSH1 0x40 MLOAD PUSH2 0x2B9 SWAP2 SWAP1 PUSH2 0x1FF9 JUMP JUMPDEST PUSH1 0x40 MLOAD DUP1 SWAP2 SUB SWAP1 RETURN JUMPDEST PUSH2 0x2DC PUSH1 0x4 DUP1 CALLDATASIZE SUB DUP2 ADD SWAP1 PUSH2 0x2D7 SWAP2 SWAP1 PUSH2 0x2012 JUMP JUMPDEST PUSH2 0x8CD JUMP JUMPDEST PUSH1 0x40 MLOAD PUSH2 0x2E9 SWAP2 SWAP1 PUSH2 0x1F69 JUMP JUMPDEST PUSH1 0x40 MLOAD DUP1 SWAP2 SUB SWAP1 RETURN JUMPDEST PUSH2 0x30C PUSH1 0x4 DUP1 CALLDATASIZE SUB DUP2 ADD SWAP1 PUSH2 0x307 SWAP2 SWAP1 PUSH2 0x2062 JUMP JUMPDEST PUSH2 0x8FB JUMP JUMPDEST PUSH1 0x40 MLOAD PUSH2 0x319 SWAP2 SWAP1 PUSH2 0x1FF9 JUMP JUMPDEST PUSH1 0x40 MLOAD DUP1 SWAP2 SUB SWAP1 RETURN JUMPDEST PUSH2 0x32A PUSH2 0x910 JUMP JUMPDEST PUSH1 0x40 MLOAD PUSH2 0x337 SWAP2 SWAP1 PUSH2 0x20A8 JUMP JUMPDEST PUSH1 0x40 MLOAD DUP1 SWAP2 SUB SWAP1 RETURN JUMPDEST PUSH2 0x348 PUSH2 0x918 JUMP JUMPDEST STOP JUMPDEST PUSH2 0x364 PUSH1 0x4 DUP1 CALLDATASIZE SUB DUP2 ADD SWAP1 PUSH2 0x35F SWAP2 SWAP1 PUSH2 0x20C1 JUMP JUMPDEST PUSH2 0x93C JUMP JUMPDEST STOP JUMPDEST PUSH2 0x36E PUSH2 0x997 JUMP JUMPDEST PUSH1 0x40 MLOAD PUSH2 0x37B SWAP2 SWAP1 PUSH2 0x1F69 JUMP JUMPDEST PUSH1 0x40 MLOAD DUP1 SWAP2 SUB SWAP1 RETURN JUMPDEST PUSH2 0x39E PUSH1 0x4 DUP1 CALLDATASIZE SUB DUP2 ADD SWAP1 PUSH2 0x399 SWAP2 SWAP1 PUSH2 0x1F11 JUMP JUMPDEST PUSH2 0x9A9 JUMP JUMPDEST STOP JUMPDEST PUSH2 0x3A8 PUSH2 0xA38 JUMP JUMPDEST PUSH1 0x40 MLOAD PUSH2 0x3B5 SWAP2 SWAP1 PUSH2 0x1F69 JUMP JUMPDEST PUSH1 0x40 MLOAD DUP1 SWAP2 SUB SWAP1 RETURN JUMPDEST PUSH2 0x3C6 PUSH2 0xA4B JUMP JUMPDEST STOP JUMPDEST PUSH2 0x3E2 PUSH1 0x4 DUP1 CALLDATASIZE SUB DUP2 ADD SWAP1 PUSH2 0x3DD SWAP2 SWAP1 PUSH2 0x2062 JUMP JUMPDEST PUSH2 0xAB0 JUMP JUMPDEST PUSH1 0x40 MLOAD PUSH2 0x3EF SWAP2 SWAP1 PUSH2 0x1FF9 JUMP JUMPDEST PUSH1 0x40 MLOAD DUP1 SWAP2 SUB SWAP1 RETURN JUMPDEST PUSH2 0x400 PUSH2 0xAF5 JUMP JUMPDEST STOP JUMPDEST PUSH2 0x40A PUSH2 0xB08 JUMP JUMPDEST PUSH1 0x40 MLOAD PUSH2 0x417 SWAP2 SWAP1 PUSH2 0x1FF9 JUMP JUMPDEST PUSH1 0x40 MLOAD DUP1 SWAP2 SUB SWAP1 RETURN JUMPDEST PUSH2 0x428 PUSH2 0xB0E JUMP JUMPDEST PUSH1 0x40 MLOAD PUSH2 0x435 SWAP2 SWAP1 PUSH2 0x1FF9 JUMP JUMPDEST PUSH1 0x40 MLOAD DUP1 SWAP2 SUB SWAP1 RETURN JUMPDEST PUSH2 0x446 PUSH2 0xB14 JUMP JUMPDEST STOP JUMPDEST PUSH2 0x450 PUSH2 0xB39 JUMP JUMPDEST STOP JUMPDEST PUSH2 0x46C PUSH1 0x4 DUP1 CALLDATASIZE SUB DUP2 ADD SWAP1 PUSH2 0x467 SWAP2 SWAP1 PUSH2 0x2062 JUMP JUMPDEST PUSH2 0xB64 JUMP JUMPDEST STOP JUMPDEST PUSH2 0x476 PUSH2 0xBC3 JUMP JUMPDEST PUSH1 0x40 MLOAD PUSH2 0x483 SWAP2 SWAP1 PUSH2 0x20FB JUMP JUMPDEST PUSH1 0x40 MLOAD DUP1 SWAP2 SUB SWAP1 RETURN JUMPDEST PUSH2 0x494 PUSH2 0xBEB JUMP JUMPDEST PUSH1 0x40 MLOAD PUSH2 0x4A1 SWAP2 SWAP1 PUSH2 0x1FF9 JUMP JUMPDEST PUSH1 0x40 MLOAD DUP1 SWAP2 SUB SWAP1 RETURN JUMPDEST PUSH2 0x4B2 PUSH2 0xBF0 JUMP JUMPDEST PUSH1 0x40 MLOAD PUSH2 0x4BF SWAP2 SWAP1 PUSH2 0x1FF9 JUMP JUMPDEST PUSH1 0x40 MLOAD DUP1 SWAP2 SUB SWAP1 RETURN JUMPDEST PUSH2 0x4D0 PUSH2 0xC01 JUMP JUMPDEST PUSH1 0x40 MLOAD PUSH2 0x4DD SWAP2 SWAP1 PUSH2 0x1E60 JUMP JUMPDEST PUSH1 0x40 MLOAD DUP1 SWAP2 SUB SWAP1 RETURN JUMPDEST PUSH2 0x500 PUSH1 0x4 DUP1 CALLDATASIZE SUB DUP2 ADD SWAP1 PUSH2 0x4FB SWAP2 SWAP1 PUSH2 0x1F11 JUMP JUMPDEST PUSH2 0xC91 JUMP JUMPDEST PUSH1 0x40 MLOAD PUSH2 0x50D SWAP2 SWAP1 PUSH2 0x1F69 JUMP JUMPDEST PUSH1 0x40 MLOAD DUP1 SWAP2 SUB SWAP1 RETURN JUMPDEST PUSH2 0x530 PUSH1 0x4 DUP1 CALLDATASIZE SUB DUP2 ADD SWAP1 PUSH2 0x52B SWAP2 SWAP1 PUSH2 0x1F11 JUMP JUMPDEST PUSH2 0xF1E JUMP JUMPDEST STOP JUMPDEST PUSH2 0x53A PUSH2 0x1095 JUMP JUMPDEST STOP JUMPDEST PUSH2 0x556 PUSH1 0x4 DUP1 CALLDATASIZE SUB DUP2 ADD SWAP1 PUSH2 0x551 SWAP2 SWAP1 PUSH2 0x20C1 JUMP JUMPDEST PUSH2 0x13BD JUMP JUMPDEST STOP JUMPDEST PUSH2 0x572 PUSH1 0x4 DUP1 CALLDATASIZE SUB DUP2 ADD SWAP1 PUSH2 0x56D SWAP2 SWAP1 PUSH2 0x20C1 JUMP JUMPDEST PUSH2 0x1413 JUMP JUMPDEST STOP JUMPDEST PUSH2 0x57C PUSH2 0x1484 JUMP JUMPDEST PUSH1 0x40 MLOAD PUSH2 0x589 SWAP2 SWAP1 PUSH2 0x1FF9 JUMP JUMPDEST PUSH1 0x40 MLOAD DUP1 SWAP2 SUB SWAP1 RETURN JUMPDEST PUSH2 0x5AC PUSH1 0x4 DUP1 CALLDATASIZE SUB DUP2 ADD SWAP1 PUSH2 0x5A7 SWAP2 SWAP1 PUSH2 0x2114 JUMP JUMPDEST PUSH2 0x148A JUMP JUMPDEST PUSH1 0x40 MLOAD PUSH2 0x5B9 SWAP2 SWAP1 PUSH2 0x1FF9 JUMP JUMPDEST PUSH1 0x40 MLOAD DUP1 SWAP2 SUB SWAP1 RETURN JUMPDEST PUSH2 0x5DC PUSH1 0x4 DUP1 CALLDATASIZE SUB DUP2 ADD SWAP1 PUSH2 0x5D7 SWAP2 SWAP1 PUSH2 0x2062 JUMP JUMPDEST PUSH2 0x150C JUMP JUMPDEST PUSH1 0x40 MLOAD PUSH2 0x5E9 SWAP2 SWAP1 PUSH2 0x1FF9 JUMP JUMPDEST PUSH1 0x40 MLOAD DUP1 SWAP2 SUB SWAP1 RETURN JUMPDEST PUSH2 0x60C PUSH1 0x4 DUP1 CALLDATASIZE SUB DUP2 ADD SWAP1 PUSH2 0x607 SWAP2 SWAP1 PUSH2 0x2062 JUMP JUMPDEST PUSH2 0x151D JUMP JUMPDEST STOP JUMPDEST PUSH2 0x628 PUSH1 0x4 DUP1 CALLDATASIZE SUB DUP2 ADD SWAP1 PUSH2 0x623 SWAP2 SWAP1 PUSH2 0x2062 JUMP JUMPDEST PUSH2 0x157D JUMP JUMPDEST STOP JUMPDEST PUSH2 0x632 PUSH2 0x1601 JUMP JUMPDEST PUSH1 0x40 MLOAD PUSH2 0x63F SWAP2 SWAP1 PUSH2 0x1FF9 JUMP JUMPDEST PUSH1 0x40 MLOAD DUP1 SWAP2 SUB SWAP1 RETURN JUMPDEST PUSH1 0x60 PUSH1 0x3 DUP1 SLOAD PUSH2 0x657 SWAP1 PUSH2 0x217F JUMP JUMPDEST DUP1 PUSH1 0x1F ADD PUSH1 0x20 DUP1 SWAP2 DIV MUL PUSH1 0x20 ADD PUSH1 0x40 MLOAD SWAP1 DUP2 ADD PUSH1 0x40 MSTORE DUP1 SWAP3 SWAP2 SWAP1 DUP2 DUP2 MSTORE PUSH1 0x20 ADD DUP3 DUP1 SLOAD PUSH2 0x683 SWAP1 PUSH2 0x217F JUMP JUMPDEST DUP1 ISZERO PUSH2 0x6CE JUMPI DUP1 PUSH1 0x1F LT PUSH2 0x6A5 JUMPI PUSH2 0x100 DUP1 DUP4 SLOAD DIV MUL DUP4 MSTORE SWAP2 PUSH1 0x20 ADD SWAP2 PUSH2 0x6CE JUMP JUMPDEST DUP3 ADD SWAP2 SWAP1 PUSH0 MSTORE PUSH1 0x20 PUSH0 KECCAK256 SWAP1 JUMPDEST DUP2 SLOAD DUP2 MSTORE SWAP1 PUSH1 0x1 ADD SWAP1 PUSH1 0x20 ADD DUP1 DUP4 GT PUSH2 0x6B1 JUMPI DUP3 SWAP1 SUB PUSH1 0x1F AND DUP3 ADD SWAP2 JUMPDEST POP POP POP POP POP SWAP1 POP SWAP1 JUMP JUMPDEST PUSH0 DUP1 PUSH2 0x6E2 PUSH2 0x160F JUMP JUMPDEST SWAP1 POP PUSH2 0x6EF DUP2 DUP6 DUP6 PUSH2 0x1616 JUMP JUMPDEST PUSH1 0x1 SWAP2 POP POP SWAP3 SWAP2 POP POP JUMP JUMPDEST PUSH2 0x702 PUSH2 0x1628 JUMP JUMPDEST DUP1 PUSH1 0x8 PUSH0 DUP5 PUSH20 0xFFFFFFFFFFFFFFFFFFFFFFFFFFFFFFFFFFFFFFFF AND PUSH20 0xFFFFFFFFFFFFFFFFFFFFFFFFFFFFFFFFFFFFFFFF AND DUP2 MSTORE PUSH1 0x20 ADD SWAP1 DUP2 MSTORE PUSH1 0x20 ADD PUSH0 KECCAK256 PUSH0 PUSH2 0x100 EXP DUP2 SLOAD DUP2 PUSH1 0xFF MUL NOT AND SWAP1 DUP4 ISZERO ISZERO MUL OR SWAP1 SSTORE POP POP POP JUMP JUMPDEST PUSH2 0x762 PUSH2 0x1628 JUMP JUMPDEST DUP1 PUSH1 0xA PUSH0 DUP5 PUSH20 0xFFFFFFFFFFFFFFFFFFFFFFFFFFFFFFFFFFFFFFFF AND PUSH20 0xFFFFFFFFFFFFFFFFFFFFFFFFFFFFFFFFFFFFFFFF AND DUP2 MSTORE PUSH1 0x20 ADD SWAP1 DUP2 MSTORE PUSH1 0x20 ADD PUSH0 KECCAK256 SLOAD LT ISZERO PUSH2 0x7E2 JUMPI PUSH1 0x40 MLOAD PUSH32 0x8C379A000000000000000000000000000000000000000000000000000000000 DUP2 MSTORE PUSH1 0x4 ADD PUSH2 0x7D9 SWAP1 PUSH2 0x21F9 JUMP JUMPDEST PUSH1 0x40 MLOAD DUP1 SWAP2 SUB SWAP1 REVERT JUMPDEST DUP1 PUSH1 0xA PUSH0 DUP5 PUSH20 0xFFFFFFFFFFFFFFFFFFFFFFFFFFFFFFFFFFFFFFFF AND PUSH20 0xFFFFFFFFFFFFFFFFFFFFFFFFFFFFFFFFFFFFFFFF AND DUP2 MSTORE PUSH1 0x20 ADD SWAP1 DUP2 MSTORE PUSH1 0x20 ADD PUSH0 KECCAK256 PUSH0 DUP3 DUP3 SLOAD PUSH2 0x82E SWAP2 SWAP1 PUSH2 0x2244 JUMP JUMPDEST SWAP3 POP POP DUP2 SWAP1 SSTORE POP DUP2 PUSH20 0xFFFFFFFFFFFFFFFFFFFFFFFFFFFFFFFFFFFFFFFF AND PUSH32 0x40547F371CF37574D1A01EEEB1593F8DB1A3E44286BBA3B92CF2867707C9E473 PUSH1 0xA PUSH0 DUP6 PUSH20 0xFFFFFFFFFFFFFFFFFFFFFFFFFFFFFFFFFFFFFFFF AND PUSH20 0xFFFFFFFFFFFFFFFFFFFFFFFFFFFFFFFFFFFFFFFF AND DUP2 MSTORE PUSH1 0x20 ADD SWAP1 DUP2 MSTORE PUSH1 0x20 ADD PUSH0 KECCAK256 SLOAD PUSH1 0x40 MLOAD PUSH2 0x8B8 SWAP2 SWAP1 PUSH2 0x1FF9 JUMP JUMPDEST PUSH1 0x40 MLOAD DUP1 SWAP2 SUB SWAP1 LOG2 POP POP JUMP JUMPDEST PUSH0 PUSH1 0x2 SLOAD SWAP1 POP SWAP1 JUMP JUMPDEST PUSH0 DUP1 PUSH2 0x8D7 PUSH2 0x160F JUMP JUMPDEST SWAP1 POP PUSH2 0x8E4 DUP6 DUP3 DUP6 PUSH2 0x16AF JUMP JUMPDEST PUSH2 0x8EF DUP6 DUP6 DUP6 PUSH2 0x1741 JUMP JUMPDEST PUSH1 0x1 SWAP2 POP POP SWAP4 SWAP3 POP POP POP JUMP JUMPDEST PUSH1 0xA PUSH1 0x20 MSTORE DUP1 PUSH0 MSTORE PUSH1 0x40 PUSH0 KECCAK256 PUSH0 SWAP2 POP SWAP1 POP SLOAD DUP2 JUMP JUMPDEST PUSH0 PUSH1 0x12 SWAP1 POP SWAP1 JUMP JUMPDEST PUSH2 0x920 PUSH2 0x1628 JUMP JUMPDEST PUSH0 PUSH1 0xD PUSH1 0x1 PUSH2 0x100 EXP DUP2 SLOAD DUP2 PUSH1 0xFF MUL NOT AND SWAP1 DUP4 ISZERO ISZERO MUL OR SWAP1 SSTORE POP JUMP JUMPDEST PUSH2 0x946 CALLER DUP3 PUSH2 0x1831 JUMP JUMPDEST CALLER PUSH20 0xFFFFFFFFFFFFFFFFFFFFFFFFFFFFFFFFFFFFFFFF AND PUSH32 0xFD38818F5291BF0BB3A2A48AADC06BA8757865D1DABD804585338AAB3009DCB6 DUP3 PUSH1 0x40 MLOAD PUSH2 0x98C SWAP2 SWAP1 PUSH2 0x1FF9 JUMP JUMPDEST PUSH1 0x40 MLOAD DUP1 SWAP2 SUB SWAP1 LOG2 POP JUMP JUMPDEST PUSH1 0xD PUSH0 SWAP1 SLOAD SWAP1 PUSH2 0x100 EXP SWAP1 DIV PUSH1 0xFF AND DUP2 JUMP JUMPDEST PUSH2 0x9B1 PUSH2 0x1628 JUMP JUMPDEST DUP2 PUSH20 0xFFFFFFFFFFFFFFFFFFFFFFFFFFFFFFFFFFFFFFFF AND PUSH4 0xA9059CBB PUSH2 0x9D5 PUSH2 0xBC3 JUMP JUMPDEST DUP4 PUSH1 0x40 MLOAD DUP4 PUSH4 0xFFFFFFFF AND PUSH1 0xE0 SHL DUP2 MSTORE PUSH1 0x4 ADD PUSH2 0x9F3 SWAP3 SWAP2 SWAP1 PUSH2 0x2277 JUMP JUMPDEST PUSH1 0x20 PUSH1 0x40 MLOAD DUP1 DUP4 SUB DUP2 PUSH0 DUP8 GAS CALL ISZERO DUP1 ISZERO PUSH2 0xA0F JUMPI RETURNDATASIZE PUSH0 DUP1 RETURNDATACOPY RETURNDATASIZE PUSH0 REVERT JUMPDEST POP POP POP POP PUSH1 0x40 MLOAD RETURNDATASIZE PUSH1 0x1F NOT PUSH1 0x1F DUP3 ADD AND DUP3 ADD DUP1 PUSH1 0x40 MSTORE POP DUP2 ADD SWAP1 PUSH2 0xA33 SWAP2 SWAP1 PUSH2 0x22B2 JUMP JUMPDEST POP POP POP JUMP JUMPDEST PUSH1 0xD PUSH1 0x1 SWAP1 SLOAD SWAP1 PUSH2 0x100 EXP SWAP1 DIV PUSH1 0xFF AND DUP2 JUMP JUMPDEST PUSH2 0xA53 PUSH2 0x1628 JUMP JUMPDEST PUSH2 0xA5B PUSH2 0x18B0 JUMP JUMPDEST PUSH2 0xA63 PUSH2 0xBC3 JUMP JUMPDEST PUSH20 0xFFFFFFFFFFFFFFFFFFFFFFFFFFFFFFFFFFFFFFFF AND PUSH2 0x8FC SELFBALANCE SWAP1 DUP2 ISZERO MUL SWAP1 PUSH1 0x40 MLOAD PUSH0 PUSH1 0x40 MLOAD DUP1 DUP4 SUB DUP2 DUP6 DUP9 DUP9 CALL SWAP4 POP POP POP POP ISZERO DUP1 ISZERO PUSH2 0xAA5 JUMPI RETURNDATASIZE PUSH0 DUP1 RETURNDATACOPY RETURNDATASIZE PUSH0 REVERT JUMPDEST POP PUSH2 0xAAE PUSH2 0x18FF JUMP JUMPDEST JUMP JUMPDEST PUSH0 DUP1 PUSH0 DUP4 PUSH20 0xFFFFFFFFFFFFFFFFFFFFFFFFFFFFFFFFFFFFFFFF AND PUSH20 0xFFFFFFFFFFFFFFFFFFFFFFFFFFFFFFFFFFFFFFFF AND DUP2 MSTORE PUSH1 0x20 ADD SWAP1 DUP2 MSTORE PUSH1 0x20 ADD PUSH0 KECCAK256 SLOAD SWAP1 POP SWAP2 SWAP1 POP JUMP JUMPDEST PUSH2 0xAFD PUSH2 0x1628 JUMP JUMPDEST PUSH2 0xB06 PUSH0 PUSH2 0x1909 JUMP JUMPDEST JUMP JUMPDEST PUSH1 0x7 SLOAD DUP2 JUMP JUMPDEST PUSH2 0x2710 DUP2 JUMP JUMPDEST PUSH2 0xB1C PUSH2 0x1628 JUMP JUMPDEST PUSH1 0x1 PUSH1 0xD PUSH1 0x1 PUSH2 0x100 EXP DUP2 SLOAD DUP2 PUSH1 0xFF MUL NOT AND SWAP1 DUP4 ISZERO ISZERO MUL OR SWAP1 SSTORE POP JUMP JUMPDEST PUSH2 0xB41 PUSH2 0x1628 JUMP JUMPDEST PUSH1 0x1 PUSH1 0xD PUSH0 PUSH2 0x100 EXP DUP2 SLOAD DUP2 PUSH1 0xFF MUL NOT AND SWAP1 DUP4 ISZERO ISZERO MUL OR SWAP1 SSTORE POP NUMBER PUSH1 0xC DUP2 SWAP1 SSTORE POP JUMP JUMPDEST PUSH2 0xB6C PUSH2 0x1628 JUMP JUMPDEST PUSH0 PUSH1 0x9 PUSH0 DUP4 PUSH20 0xFFFFFFFFFFFFFFFFFFFFFFFFFFFFFFFFFFFFFFFF AND PUSH20 0xFFFFFFFFFFFFFFFFFFFFFFFFFFFFFFFFFFFFFFFF AND DUP2 MSTORE PUSH1 0x20 ADD SWAP1 DUP2 MSTORE PUSH1 0x20 ADD PUSH0 KECCAK256 PUSH0 PUSH2 0x100 EXP DUP2 SLOAD DUP2 PUSH1 0xFF MUL NOT AND SWAP1 DUP4 ISZERO ISZERO MUL OR SWAP1 SSTORE POP POP JUMP JUMPDEST PUSH0 PUSH1 0x5 PUSH0 SWAP1 SLOAD SWAP1 PUSH2 0x100 EXP SWAP1 DIV PUSH20 0xFFFFFFFFFFFFFFFFFFFFFFFFFFFFFFFFFFFFFFFF AND SWAP1 POP SWAP1 JUMP JUMPDEST PUSH1 0xA DUP2 JUMP JUMPDEST PUSH13 0x54F529CA52576BC6892000000 DUP2 JUMP JUMPDEST PUSH1 0x60 PUSH1 0x4 DUP1 SLOAD PUSH2 0xC10 SWAP1 PUSH2 0x217F JUMP JUMPDEST DUP1 PUSH1 0x1F ADD PUSH1 0x20 DUP1 SWAP2 DIV MUL PUSH1 0x20 ADD PUSH1 0x40 MLOAD SWAP1 DUP2 ADD PUSH1 0x40 MSTORE DUP1 SWAP3 SWAP2 SWAP1 DUP2 DUP2 MSTORE PUSH1 0x20 ADD DUP3 DUP1 SLOAD PUSH2 0xC3C SWAP1 PUSH2 0x217F JUMP JUMPDEST DUP1 ISZERO PUSH2 0xC87 JUMPI DUP1 PUSH1 0x1F LT PUSH2 0xC5E JUMPI PUSH2 0x100 DUP1 DUP4 SLOAD DIV MUL DUP4 MSTORE SWAP2 PUSH1 0x20 ADD SWAP2 PUSH2 0xC87 JUMP JUMPDEST DUP3 ADD SWAP2 SWAP1 PUSH0 MSTORE PUSH1 0x20 PUSH0 KECCAK256 SWAP1 JUMPDEST DUP2 SLOAD DUP2 MSTORE SWAP1 PUSH1 0x1 ADD SWAP1 PUSH1 0x20 ADD DUP1 DUP4 GT PUSH2 0xC6A JUMPI DUP3 SWAP1 SUB PUSH1 0x1F AND DUP3 ADD SWAP2 JUMPDEST POP POP POP POP POP SWAP1 POP SWAP1 JUMP JUMPDEST PUSH0 CALLER PUSH1 0x8 PUSH0 DUP3 PUSH20 0xFFFFFFFFFFFFFFFFFFFFFFFFFFFFFFFFFFFFFFFF AND PUSH20 0xFFFFFFFFFFFFFFFFFFFFFFFFFFFFFFFFFFFFFFFF AND DUP2 MSTORE PUSH1 0x20 ADD SWAP1 DUP2 MSTORE PUSH1 0x20 ADD PUSH0 KECCAK256 PUSH0 SWAP1 SLOAD SWAP1 PUSH2 0x100 EXP SWAP1 DIV PUSH1 0xFF AND ISZERO PUSH2 0xD1D JUMPI PUSH1 0x40 MLOAD PUSH32 0x8C379A000000000000000000000000000000000000000000000000000000000 DUP2 MSTORE PUSH1 0x4 ADD PUSH2 0xD14 SWAP1 PUSH2 0x2327 JUMP JUMPDEST PUSH1 0x40 MLOAD DUP1 SWAP2 SUB SWAP1 REVERT JUMPDEST CALLER PUSH1 0xD PUSH0 SWAP1 SLOAD SWAP1 PUSH2 0x100 EXP SWAP1 DIV PUSH1 0xFF AND DUP1 PUSH2 0xD7E JUMPI POP PUSH1 0x9 PUSH0 DUP3 PUSH20 0xFFFFFFFFFFFFFFFFFFFFFFFFFFFFFFFFFFFFFFFF AND PUSH20 0xFFFFFFFFFFFFFFFFFFFFFFFFFFFFFFFFFFFFFFFF AND DUP2 MSTORE PUSH1 0x20 ADD SWAP1 DUP2 MSTORE PUSH1 0x20 ADD PUSH0 KECCAK256 PUSH0 SWAP1 SLOAD SWAP1 PUSH2 0x100 EXP SWAP1 DIV PUSH1 0xFF AND JUMPDEST PUSH2 0xDBD JUMPI PUSH1 0x40 MLOAD PUSH32 0x8C379A000000000000000000000000000000000000000000000000000000000 DUP2 MSTORE PUSH1 0x4 ADD PUSH2 0xDB4 SWAP1 PUSH2 0x238F JUMP JUMPDEST PUSH1 0x40 MLOAD DUP1 SWAP2 SUB SWAP1 REVERT JUMPDEST PUSH1 0xD PUSH1 0x1 SWAP1 SLOAD SWAP1 PUSH2 0x100 EXP SWAP1 DIV PUSH1 0xFF AND ISZERO PUSH2 0xE0D JUMPI PUSH1 0x40 MLOAD PUSH32 0x8C379A000000000000000000000000000000000000000000000000000000000 DUP2 MSTORE PUSH1 0x4 ADD PUSH2 0xE04 SWAP1 PUSH2 0x23F7 JUMP JUMPDEST PUSH1 0x40 MLOAD DUP1 SWAP2 SUB SWAP1 REVERT JUMPDEST DUP5 ADDRESS PUSH20 0xFFFFFFFFFFFFFFFFFFFFFFFFFFFFFFFFFFFFFFFF AND DUP2 PUSH20 0xFFFFFFFFFFFFFFFFFFFFFFFFFFFFFFFFFFFFFFFF AND SUB PUSH2 0xE7C JUMPI PUSH1 0x40 MLOAD PUSH32 0x8C379A000000000000000000000000000000000000000000000000000000000 DUP2 MSTORE PUSH1 0x4 ADD PUSH2 0xE73 SWAP1 PUSH2 0x2485 JUMP JUMPDEST PUSH1 0x40 MLOAD DUP1 SWAP2 SUB SWAP1 REVERT JUMPDEST PUSH10 0xD3C21BCECCEDA1000000 DUP6 GT ISZERO PUSH2 0xEC9 JUMPI PUSH1 0x40 MLOAD PUSH32 0x8C379A000000000000000000000000000000000000000000000000000000000 DUP2 MSTORE PUSH1 0x4 ADD PUSH2 0xEC0 SWAP1 PUSH2 0x24ED JUMP JUMPDEST PUSH1 0x40 MLOAD DUP1 SWAP2 SUB SWAP1 REVERT JUMPDEST PUSH0 PUSH1 0x64 PUSH1 0x7 SLOAD DUP8 PUSH2 0xEDA SWAP2 SWAP1 PUSH2 0x250B JUMP JUMPDEST PUSH2 0xEE4 SWAP2 SWAP1 PUSH2 0x2579 JUMP JUMPDEST SWAP1 POP PUSH0 DUP2 DUP8 PUSH2 0xEF3 SWAP2 SWAP1 PUSH2 0x2244 JUMP JUMPDEST SWAP1 POP PUSH2 0xF07 CALLER PUSH2 0xF01 PUSH2 0xBC3 JUMP JUMPDEST DUP5 PUSH2 0x1741 JUMP JUMPDEST PUSH2 0xF11 DUP9 DUP3 PUSH2 0x19CC JUMP JUMPDEST SWAP6 POP POP POP POP POP POP SWAP3 SWAP2 POP POP JUMP JUMPDEST PUSH2 0xF26 PUSH2 0x1628 JUMP JUMPDEST PUSH2 0x2710 DUP2 PUSH1 0xA PUSH0 DUP6 PUSH20 0xFFFFFFFFFFFFFFFFFFFFFFFFFFFFFFFFFFFFFFFF AND PUSH20 0xFFFFFFFFFFFFFFFFFFFFFFFFFFFFFFFFFFFFFFFF AND DUP2 MSTORE PUSH1 0x20 ADD SWAP1 DUP2 MSTORE PUSH1 0x20 ADD PUSH0 KECCAK256 SLOAD PUSH2 0xF72 SWAP2 SWAP1 PUSH2 0x25A9 JUMP JUMPDEST GT ISZERO PUSH2 0xFB3 JUMPI PUSH1 0x40 MLOAD PUSH32 0x8C379A000000000000000000000000000000000000000000000000000000000 DUP2 MSTORE PUSH1 0x4 ADD PUSH2 0xFAA SWAP1 PUSH2 0x264C JUMP JUMPDEST PUSH1 0x40 MLOAD DUP1 SWAP2 SUB SWAP1 REVERT JUMPDEST DUP1 PUSH1 0xA PUSH0 DUP5 PUSH20 0xFFFFFFFFFFFFFFFFFFFFFFFFFFFFFFFFFFFFFFFF AND PUSH20 0xFFFFFFFFFFFFFFFFFFFFFFFFFFFFFFFFFFFFFFFF AND DUP2 MSTORE PUSH1 0x20 ADD SWAP1 DUP2 MSTORE PUSH1 0x20 ADD PUSH0 KECCAK256 PUSH0 DUP3 DUP3 SLOAD PUSH2 0xFFF SWAP2 SWAP1 PUSH2 0x25A9 JUMP JUMPDEST SWAP3 POP POP DUP2 SWAP1 SSTORE POP DUP2 PUSH20 0xFFFFFFFFFFFFFFFFFFFFFFFFFFFFFFFFFFFFFFFF AND PUSH32 0x40547F371CF37574D1A01EEEB1593F8DB1A3E44286BBA3B92CF2867707C9E473 PUSH1 0xA PUSH0 DUP6 PUSH20 0xFFFFFFFFFFFFFFFFFFFFFFFFFFFFFFFFFFFFFFFF AND PUSH20 0xFFFFFFFFFFFFFFFFFFFFFFFFFFFFFFFFFFFFFFFF AND DUP2 MSTORE PUSH1 0x20 ADD SWAP1 DUP2 MSTORE PUSH1 0x20 ADD PUSH0 KECCAK256 SLOAD PUSH1 0x40 MLOAD PUSH2 0x1089 SWAP2 SWAP1 PUSH2 0x1FF9 JUMP JUMPDEST PUSH1 0x40 MLOAD DUP1 SWAP2 SUB SWAP1 LOG2 POP POP JUMP JUMPDEST PUSH1 0xD PUSH1 0x1 SWAP1 SLOAD SWAP1 PUSH2 0x100 EXP SWAP1 DIV PUSH1 0xFF AND ISZERO PUSH2 0x10E5 JUMPI PUSH1 0x40 MLOAD PUSH32 0x8C379A000000000000000000000000000000000000000000000000000000000 DUP2 MSTORE PUSH1 0x4 ADD PUSH2 0x10DC SWAP1 PUSH2 0x23F7 JUMP JUMPDEST PUSH1 0x40 MLOAD DUP1 SWAP2 SUB SWAP1 REVERT JUMPDEST CALLER PUSH1 0x8 PUSH0 DUP3 PUSH20 0xFFFFFFFFFFFFFFFFFFFFFFFFFFFFFFFFFFFFFFFF AND PUSH20 0xFFFFFFFFFFFFFFFFFFFFFFFFFFFFFFFFFFFFFFFF AND DUP2 MSTORE PUSH1 0x20 ADD SWAP1 DUP2 MSTORE PUSH1 0x20 ADD PUSH0 KECCAK256 PUSH0 SWAP1 SLOAD SWAP1 PUSH2 0x100 EXP SWAP1 DIV PUSH1 0xFF AND ISZERO PUSH2 0x1170 JUMPI PUSH1 0x40 MLOAD PUSH32 0x8C379A000000000000000000000000000000000000000000000000000000000 DUP2 MSTORE PUSH1 0x4 ADD PUSH2 0x1167 SWAP1 PUSH2 0x2327 JUMP JUMPDEST PUSH1 0x40 MLOAD DUP1 SWAP2 SUB SWAP1 REVERT JUMPDEST CALLER PUSH3 0x15180 PUSH1 0xB PUSH0 DUP4 PUSH20 0xFFFFFFFFFFFFFFFFFFFFFFFFFFFFFFFFFFFFFFFF AND PUSH20 0xFFFFFFFFFFFFFFFFFFFFFFFFFFFFFFFFFFFFFFFF AND DUP2 MSTORE PUSH1 0x20 ADD SWAP1 DUP2 MSTORE PUSH1 0x20 ADD PUSH0 KECCAK256 SLOAD PUSH2 0x11BD SWAP2 SWAP1 PUSH2 0x25A9 JUMP JUMPDEST TIMESTAMP LT ISZERO PUSH2 0x11FF JUMPI PUSH1 0x40 MLOAD PUSH32 0x8C379A000000000000000000000000000000000000000000000000000000000 DUP2 MSTORE PUSH1 0x4 ADD PUSH2 0x11F6 SWAP1 PUSH2 0x26B4 JUMP JUMPDEST PUSH1 0x40 MLOAD DUP1 SWAP2 SUB SWAP1 REVERT JUMPDEST PUSH0 PUSH1 0xA PUSH0 CALLER PUSH20 0xFFFFFFFFFFFFFFFFFFFFFFFFFFFFFFFFFFFFFFFF AND PUSH20 0xFFFFFFFFFFFFFFFFFFFFFFFFFFFFFFFFFFFFFFFF AND DUP2 MSTORE PUSH1 0x20 ADD SWAP1 DUP2 MSTORE PUSH1 0x20 ADD PUSH0 KECCAK256 SLOAD SWAP1 POP PUSH0 DUP2 GT PUSH2 0x1282 JUMPI PUSH1 0x40 MLOAD PUSH32 0x8C379A000000000000000000000000000000000000000000000000000000000 DUP2 MSTORE PUSH1 0x4 ADD PUSH2 0x1279 SWAP1 PUSH2 0x271C JUMP JUMPDEST PUSH1 0x40 MLOAD DUP1 SWAP2 SUB SWAP1 REVERT JUMPDEST DUP1 PUSH2 0x1293 PUSH2 0x128E PUSH2 0xBC3 JUMP JUMPDEST PUSH2 0xAB0 JUMP JUMPDEST LT ISZERO PUSH2 0x12D4 JUMPI PUSH1 0x40 MLOAD PUSH32 0x8C379A000000000000000000000000000000000000000000000000000000000 DUP2 MSTORE PUSH1 0x4 ADD PUSH2 0x12CB SWAP1 PUSH2 0x2784 JUMP JUMPDEST PUSH1 0x40 MLOAD DUP1 SWAP2 SUB SWAP1 REVERT JUMPDEST PUSH0 PUSH1 0xA PUSH0 CALLER PUSH20 0xFFFFFFFFFFFFFFFFFFFFFFFFFFFFFFFFFFFFFFFF AND PUSH20 0xFFFFFFFFFFFFFFFFFFFFFFFFFFFFFFFFFFFFFFFF AND DUP2 MSTORE PUSH1 0x20 ADD SWAP1 DUP2 MSTORE PUSH1 0x20 ADD PUSH0 KECCAK256 DUP2 SWAP1 SSTORE POP TIMESTAMP PUSH1 0xB PUSH0 CALLER PUSH20 0xFFFFFFFFFFFFFFFFFFFFFFFFFFFFFFFFFFFFFFFF AND PUSH20 0xFFFFFFFFFFFFFFFFFFFFFFFFFFFFFFFFFFFFFFFF AND DUP2 MSTORE PUSH1 0x20 ADD SWAP1 DUP2 MSTORE PUSH1 0x20 ADD PUSH0 KECCAK256 DUP2 SWAP1 SSTORE POP PUSH2 0x136A PUSH2 0x1363 PUSH2 0xBC3 JUMP JUMPDEST CALLER DUP4 PUSH2 0x1741 JUMP JUMPDEST CALLER PUSH20 0xFFFFFFFFFFFFFFFFFFFFFFFFFFFFFFFFFFFFFFFF AND PUSH32 0x106F923F993C2149D49B4255FF723ACAFA1F2D94393F561D3EDA32AE348F7241 DUP3 PUSH1 0x40 MLOAD PUSH2 0x13B0 SWAP2 SWAP1 PUSH2 0x1FF9 JUMP JUMPDEST PUSH1 0x40 MLOAD DUP1 SWAP2 SUB SWAP1 LOG2 POP POP POP JUMP JUMPDEST PUSH2 0x13C5 PUSH2 0x1628 JUMP JUMPDEST PUSH1 0xA DUP2 GT ISZERO PUSH2 0x1409 JUMPI PUSH1 0x40 MLOAD PUSH32 0x8C379A000000000000000000000000000000000000000000000000000000000 DUP2 MSTORE PUSH1 0x4 ADD PUSH2 0x1400 SWAP1 PUSH2 0x27EC JUMP JUMPDEST PUSH1 0x40 MLOAD DUP1 SWAP2 SUB SWAP1 REVERT JUMPDEST DUP1 PUSH1 0x7 DUP2 SWAP1 SSTORE POP POP JUMP JUMPDEST PUSH2 0x141B PUSH2 0x1628 JUMP JUMPDEST PUSH2 0x142C PUSH2 0x1426 PUSH2 0xBC3 JUMP JUMPDEST DUP3 PUSH2 0x1831 JUMP JUMPDEST PUSH2 0x1434 PUSH2 0xBC3 JUMP JUMPDEST PUSH20 0xFFFFFFFFFFFFFFFFFFFFFFFFFFFFFFFFFFFFFFFF AND PUSH32 0xFD38818F5291BF0BB3A2A48AADC06BA8757865D1DABD804585338AAB3009DCB6 DUP3 PUSH1 0x40 MLOAD PUSH2 0x1479 SWAP2 SWAP1 PUSH2 0x1FF9 JUMP JUMPDEST PUSH1 0x40 MLOAD DUP1 SWAP2 SUB SWAP1 LOG2 POP JUMP JUMPDEST PUSH1 0xC SLOAD DUP2 JUMP JUMPDEST PUSH0 PUSH1 0x1 PUSH0 DUP5 PUSH20 0xFFFFFFFFFFFFFFFFFFFFFFFFFFFFFFFFFFFFFFFF AND PUSH20 0xFFFFFFFFFFFFFFFFFFFFFFFFFFFFFFFFFFFFFFFF AND DUP2 MSTORE PUSH1 0x20 ADD SWAP1 DUP2 MSTORE PUSH1 0x20 ADD PUSH0 KECCAK256 PUSH0 DUP4 PUSH20 0xFFFFFFFFFFFFFFFFFFFFFFFFFFFFFFFFFFFFFFFF AND PUSH20 0xFFFFFFFFFFFFFFFFFFFFFFFFFFFFFFFFFFFFFFFF AND DUP2 MSTORE PUSH1 0x20 ADD SWAP1 DUP2 MSTORE PUSH1 0x20 ADD PUSH0 KECCAK256 SLOAD SWAP1 POP SWAP3 SWAP2 POP POP JUMP JUMPDEST PUSH0 PUSH2 0x1516 DUP3 PUSH2 0xAB0 JUMP JUMPDEST SWAP1 POP SWAP2 SWAP1 POP JUMP JUMPDEST PUSH2 0x1525 PUSH2 0x1628 JUMP JUMPDEST PUSH1 0x1 PUSH1 0x9 PUSH0 DUP4 PUSH20 0xFFFFFFFFFFFFFFFFFFFFFFFFFFFFFFFFFFFFFFFF AND PUSH20 0xFFFFFFFFFFFFFFFFFFFFFFFFFFFFFFFFFFFFFFFF AND DUP2 MSTORE PUSH1 0x20 ADD SWAP1 DUP2 MSTORE PUSH1 0x20 ADD PUSH0 KECCAK256 PUSH0 PUSH2 0x100 EXP DUP2 SLOAD DUP2 PUSH1 0xFF MUL NOT AND SWAP1 DUP4 ISZERO ISZERO MUL OR SWAP1 SSTORE POP POP JUMP JUMPDEST PUSH2 0x1585 PUSH2 0x1628 JUMP JUMPDEST PUSH0 PUSH20 0xFFFFFFFFFFFFFFFFFFFFFFFFFFFFFFFFFFFFFFFF AND DUP2 PUSH20 0xFFFFFFFFFFFFFFFFFFFFFFFFFFFFFFFFFFFFFFFF AND SUB PUSH2 0x15F5 JUMPI PUSH0 PUSH1 0x40 MLOAD PUSH32 0x1E4FBDF700000000000000000000000000000000000000000000000000000000 DUP2 MSTORE PUSH1 0x4 ADD PUSH2 0x15EC SWAP2 SWAP1 PUSH2 0x20FB JUMP JUMPDEST PUSH1 0x40 MLOAD DUP1 SWAP2 SUB SWAP1 REVERT JUMPDEST PUSH2 0x15FE DUP2 PUSH2 0x1909 JUMP JUMPDEST POP JUMP JUMPDEST PUSH10 0xD3C21BCECCEDA1000000 DUP2 JUMP JUMPDEST PUSH0 CALLER SWAP1 POP SWAP1 JUMP JUMPDEST PUSH2 0x1623 DUP4 DUP4 DUP4 PUSH1 0x1 PUSH2 0x19EE JUMP JUMPDEST POP POP POP JUMP JUMPDEST PUSH2 0x1630 PUSH2 0x160F JUMP JUMPDEST PUSH20 0xFFFFFFFFFFFFFFFFFFFFFFFFFFFFFFFFFFFFFFFF AND PUSH2 0x164E PUSH2 0xBC3 JUMP JUMPDEST PUSH20 0xFFFFFFFFFFFFFFFFFFFFFFFFFFFFFFFFFFFFFFFF AND EQ PUSH2 0x16AD JUMPI PUSH2 0x1671 PUSH2 0x160F JUMP JUMPDEST PUSH1 0x40 MLOAD PUSH32 0x118CDAA700000000000000000000000000000000000000000000000000000000 DUP2 MSTORE PUSH1 0x4 ADD PUSH2 0x16A4 SWAP2 SWAP1 PUSH2 0x20FB JUMP JUMPDEST PUSH1 0x40 MLOAD DUP1 SWAP2 SUB SWAP1 REVERT JUMPDEST JUMP JUMPDEST PUSH0 PUSH2 0x16BA DUP5 DUP5 PUSH2 0x148A JUMP JUMPDEST SWAP1 POP PUSH32 0xFFFFFFFFFFFFFFFFFFFFFFFFFFFFFFFFFFFFFFFFFFFFFFFFFFFFFFFFFFFFFFFF DUP2 EQ PUSH2 0x173B JUMPI DUP2 DUP2 LT ISZERO PUSH2 0x172C JUMPI DUP3 DUP2 DUP4 PUSH1 0x40 MLOAD PUSH32 0xFB8F41B200000000000000000000000000000000000000000000000000000000 DUP2 MSTORE PUSH1 0x4 ADD PUSH2 0x1723 SWAP4 SWAP3 SWAP2 SWAP1 PUSH2 0x280A JUMP JUMPDEST PUSH1 0x40 MLOAD DUP1 SWAP2 SUB SWAP1 REVERT JUMPDEST PUSH2 0x173A DUP5 DUP5 DUP5 DUP5 SUB PUSH0 PUSH2 0x19EE JUMP JUMPDEST JUMPDEST POP POP POP POP JUMP JUMPDEST PUSH0 PUSH20 0xFFFFFFFFFFFFFFFFFFFFFFFFFFFFFFFFFFFFFFFF AND DUP4 PUSH20 0xFFFFFFFFFFFFFFFFFFFFFFFFFFFFFFFFFFFFFFFF AND SUB PUSH2 0x17B1 JUMPI PUSH0 PUSH1 0x40 MLOAD PUSH32 0x96C6FD1E00000000000000000000000000000000000000000000000000000000 DUP2 MSTORE PUSH1 0x4 ADD PUSH2 0x17A8 SWAP2 SWAP1 PUSH2 0x20FB JUMP JUMPDEST PUSH1 0x40 MLOAD DUP1 SWAP2 SUB SWAP1 REVERT JUMPDEST PUSH0 PUSH20 0xFFFFFFFFFFFFFFFFFFFFFFFFFFFFFFFFFFFFFFFF AND DUP3 PUSH20 0xFFFFFFFFFFFFFFFFFFFFFFFFFFFFFFFFFFFFFFFF AND SUB PUSH2 0x1821 JUMPI PUSH0 PUSH1 0x40 MLOAD PUSH32 0xEC442F0500000000000000000000000000000000000000000000000000000000 DUP2 MSTORE PUSH1 0x4 ADD PUSH2 0x1818 SWAP2 SWAP1 PUSH2 0x20FB JUMP JUMPDEST PUSH1 0x40 MLOAD DUP1 SWAP2 SUB SWAP1 REVERT JUMPDEST PUSH2 0x182C DUP4 DUP4 DUP4 PUSH2 0x1BBD JUMP JUMPDEST POP POP POP JUMP JUMPDEST PUSH0 PUSH20 0xFFFFFFFFFFFFFFFFFFFFFFFFFFFFFFFFFFFFFFFF AND DUP3 PUSH20 0xFFFFFFFFFFFFFFFFFFFFFFFFFFFFFFFFFFFFFFFF AND SUB PUSH2 0x18A1 JUMPI PUSH0 PUSH1 0x40 MLOAD PUSH32 0x96C6FD1E00000000000000000000000000000000000000000000000000000000 DUP2 MSTORE PUSH1 0x4 ADD PUSH2 0x1898 SWAP2 SWAP1 PUSH2 0x20FB JUMP JUMPDEST PUSH1 0x40 MLOAD DUP1 SWAP2 SUB SWAP1 REVERT JUMPDEST PUSH2 0x18AC DUP3 PUSH0 DUP4 PUSH2 0x1BBD JUMP JUMPDEST POP POP JUMP JUMPDEST PUSH1 0x2 PUSH1 0x6 SLOAD SUB PUSH2 0x18F5 JUMPI PUSH1 0x40 MLOAD PUSH32 0x8C379A000000000000000000000000000000000000000000000000000000000 DUP2 MSTORE PUSH1 0x4 ADD PUSH2 0x18EC SWAP1 PUSH2 0x2889 JUMP JUMPDEST PUSH1 0x40 MLOAD DUP1 SWAP2 SUB SWAP1 REVERT JUMPDEST PUSH1 0x2 PUSH1 0x6 DUP2 SWAP1 SSTORE POP JUMP JUMPDEST PUSH1 0x1 PUSH1 0x6 DUP2 SWAP1 SSTORE POP JUMP JUMPDEST PUSH0 PUSH1 0x5 PUSH0 SWAP1 SLOAD SWAP1 PUSH2 0x100 EXP SWAP1 DIV PUSH20 0xFFFFFFFFFFFFFFFFFFFFFFFFFFFFFFFFFFFFFFFF AND SWAP1 POP DUP2 PUSH1 0x5 PUSH0 PUSH2 0x100 EXP DUP2 SLOAD DUP2 PUSH20 0xFFFFFFFFFFFFFFFFFFFFFFFFFFFFFFFFFFFFFFFF MUL NOT AND SWAP1 DUP4 PUSH20 0xFFFFFFFFFFFFFFFFFFFFFFFFFFFFFFFFFFFFFFFF AND MUL OR SWAP1 SSTORE POP DUP2 PUSH20 0xFFFFFFFFFFFFFFFFFFFFFFFFFFFFFFFFFFFFFFFF AND DUP2 PUSH20 0xFFFFFFFFFFFFFFFFFFFFFFFFFFFFFFFFFFFFFFFF AND PUSH32 0x8BE0079C531659141344CD1FD0A4F28419497F9722A3DAAFE3B4186F6B6457E0 PUSH1 0x40 MLOAD PUSH1 0x40 MLOAD DUP1 SWAP2 SUB SWAP1 LOG3 POP POP JUMP JUMPDEST PUSH0 DUP1 PUSH2 0x19D6 PUSH2 0x160F JUMP JUMPDEST SWAP1 POP PUSH2 0x19E3 DUP2 DUP6 DUP6 PUSH2 0x1741 JUMP JUMPDEST PUSH1 0x1 SWAP2 POP POP SWAP3 SWAP2 POP POP JUMP JUMPDEST PUSH0 PUSH20 0xFFFFFFFFFFFFFFFFFFFFFFFFFFFFFFFFFFFFFFFF AND DUP5 PUSH20 0xFFFFFFFFFFFFFFFFFFFFFFFFFFFFFFFFFFFFFFFF AND SUB PUSH2 0x1A5E JUMPI PUSH0 PUSH1 0x40 MLOAD PUSH32 0xE602DF0500000000000000000000000000000000000000000000000000000000 DUP2 MSTORE PUSH1 0x4 ADD PUSH2 0x1A55 SWAP2 SWAP1 PUSH2 0x20FB JUMP JUMPDEST PUSH1 0x40 MLOAD DUP1 SWAP2 SUB SWAP1 REVERT JUMPDEST PUSH0 PUSH20 0xFFFFFFFFFFFFFFFFFFFFFFFFFFFFFFFFFFFFFFFF AND DUP4 PUSH20 0xFFFFFFFFFFFFFFFFFFFFFFFFFFFFFFFFFFFFFFFF AND SUB PUSH2 0x1ACE JUMPI PUSH0 PUSH1 0x40 MLOAD PUSH32 0x94280D6200000000000000000000000000000000000000000000000000000000 DUP2 MSTORE PUSH1 0x4 ADD PUSH2 0x1AC5 SWAP2 SWAP1 PUSH2 0x20FB JUMP JUMPDEST PUSH1 0x40 MLOAD DUP1 SWAP2 SUB SWAP1 REVERT JUMPDEST DUP2 PUSH1 0x1 PUSH0 DUP7 PUSH20 0xFFFFFFFFFFFFFFFFFFFFFFFFFFFFFFFFFFFFFFFF AND PUSH20 0xFFFFFFFFFFFFFFFFFFFFFFFFFFFFFFFFFFFFFFFF AND DUP2 MSTORE PUSH1 0x20 ADD SWAP1 DUP2 MSTORE PUSH1 0x20 ADD PUSH0 KECCAK256 PUSH0 DUP6 PUSH20 0xFFFFFFFFFFFFFFFFFFFFFFFFFFFFFFFFFFFFFFFF AND PUSH20 0xFFFFFFFFFFFFFFFFFFFFFFFFFFFFFFFFFFFFFFFF AND DUP2 MSTORE PUSH1 0x20 ADD SWAP1 DUP2 MSTORE PUSH1 0x20 ADD PUSH0 KECCAK256 DUP2 SWAP1 SSTORE POP DUP1 ISZERO PUSH2 0x1BB7 JUMPI DUP3 PUSH20 0xFFFFFFFFFFFFFFFFFFFFFFFFFFFFFFFFFFFFFFFF AND DUP5 PUSH20 0xFFFFFFFFFFFFFFFFFFFFFFFFFFFFFFFFFFFFFFFF AND PUSH32 0x8C5BE1E5EBEC7D5BD14F71427D1E84F3DD0314C0F7B2291E5B200AC8C7C3B925 DUP5 PUSH1 0x40 MLOAD PUSH2 0x1BAE SWAP2 SWAP1 PUSH2 0x1FF9 JUMP JUMPDEST PUSH1 0x40 MLOAD DUP1 SWAP2 SUB SWAP1 LOG3 JUMPDEST POP POP POP POP JUMP JUMPDEST PUSH0 PUSH20 0xFFFFFFFFFFFFFFFFFFFFFFFFFFFFFFFFFFFFFFFF AND DUP4 PUSH20 0xFFFFFFFFFFFFFFFFFFFFFFFFFFFFFFFFFFFFFFFF AND SUB PUSH2 0x1C0D JUMPI DUP1 PUSH1 0x2 PUSH0 DUP3 DUP3 SLOAD PUSH2 0x1C01 SWAP2 SWAP1 PUSH2 0x25A9 JUMP JUMPDEST SWAP3 POP POP DUP2 SWAP1 SSTORE POP PUSH2 0x1CDB JUMP JUMPDEST PUSH0 DUP1 PUSH0 DUP6 PUSH20 0xFFFFFFFFFFFFFFFFFFFFFFFFFFFFFFFFFFFFFFFF AND PUSH20 0xFFFFFFFFFFFFFFFFFFFFFFFFFFFFFFFFFFFFFFFF AND DUP2 MSTORE PUSH1 0x20 ADD SWAP1 DUP2 MSTORE PUSH1 0x20 ADD PUSH0 KECCAK256 SLOAD SWAP1 POP DUP2 DUP2 LT ISZERO PUSH2 0x1C96 JUMPI DUP4 DUP2 DUP4 PUSH1 0x40 MLOAD PUSH32 0xE450D38C00000000000000000000000000000000000000000000000000000000 DUP2 MSTORE PUSH1 0x4 ADD PUSH2 0x1C8D SWAP4 SWAP3 SWAP2 SWAP1 PUSH2 0x280A JUMP JUMPDEST PUSH1 0x40 MLOAD DUP1 SWAP2 SUB SWAP1 REVERT JUMPDEST DUP2 DUP2 SUB PUSH0 DUP1 DUP7 PUSH20 0xFFFFFFFFFFFFFFFFFFFFFFFFFFFFFFFFFFFFFFFF AND PUSH20 0xFFFFFFFFFFFFFFFFFFFFFFFFFFFFFFFFFFFFFFFF AND DUP2 MSTORE PUSH1 0x20 ADD SWAP1 DUP2 MSTORE PUSH1 0x20 ADD PUSH0 KECCAK256 DUP2 SWAP1 SSTORE POP POP JUMPDEST PUSH0 PUSH20 0xFFFFFFFFFFFFFFFFFFFFFFFFFFFFFFFFFFFFFFFF AND DUP3 PUSH20 0xFFFFFFFFFFFFFFFFFFFFFFFFFFFFFFFFFFFFFFFF AND SUB PUSH2 0x1D22 JUMPI DUP1 PUSH1 0x2 PUSH0 DUP3 DUP3 SLOAD SUB SWAP3 POP POP DUP2 SWAP1 SSTORE POP PUSH2 0x1D6C JUMP JUMPDEST DUP1 PUSH0 DUP1 DUP5 PUSH20 0xFFFFFFFFFFFFFFFFFFFFFFFFFFFFFFFFFFFFFFFF AND PUSH20 0xFFFFFFFFFFFFFFFFFFFFFFFFFFFFFFFFFFFFFFFF AND DUP2 MSTORE PUSH1 0x20 ADD SWAP1 DUP2 MSTORE PUSH1 0x20 ADD PUSH0 KECCAK256 PUSH0 DUP3 DUP3 SLOAD ADD SWAP3 POP POP DUP2 SWAP1 SSTORE POP JUMPDEST DUP2 PUSH20 0xFFFFFFFFFFFFFFFFFFFFFFFFFFFFFFFFFFFFFFFF AND DUP4 PUSH20 0xFFFFFFFFFFFFFFFFFFFFFFFFFFFFFFFFFFFFFFFF AND PUSH32 0xDDF252AD1BE2C89B69C2B068FC378DAA952BA7F163C4A11628F55A4DF523B3EF DUP4 PUSH1 0x40 MLOAD PUSH2 0x1DC9 SWAP2 SWAP1 PUSH2 0x1FF9 JUMP JUMPDEST PUSH1 0x40 MLOAD DUP1 SWAP2 SUB SWAP1 LOG3 POP POP POP JUMP JUMPDEST PUSH0 DUP2 MLOAD SWAP1 POP SWAP2 SWAP1 POP JUMP JUMPDEST PUSH0 DUP3 DUP3 MSTORE PUSH1 0x20 DUP3 ADD SWAP1 POP SWAP3 SWAP2 POP POP JUMP JUMPDEST PUSH0 JUMPDEST DUP4 DUP2 LT ISZERO PUSH2 0x1E0D JUMPI DUP1 DUP3 ADD MLOAD DUP2 DUP5 ADD MSTORE PUSH1 0x20 DUP2 ADD SWAP1 POP PUSH2 0x1DF2 JUMP JUMPDEST PUSH0 DUP5 DUP5 ADD MSTORE POP POP POP POP JUMP JUMPDEST PUSH0 PUSH1 0x1F NOT PUSH1 0x1F DUP4 ADD AND SWAP1 POP SWAP2 SWAP1 POP JUMP JUMPDEST PUSH0 PUSH2 0x1E32 DUP3 PUSH2 0x1DD6 JUMP JUMPDEST PUSH2 0x1E3C DUP2 DUP6 PUSH2 0x1DE0 JUMP JUMPDEST SWAP4 POP PUSH2 0x1E4C DUP2 DUP6 PUSH1 0x20 DUP7 ADD PUSH2 0x1DF0 JUMP JUMPDEST PUSH2 0x1E55 DUP2 PUSH2 0x1E18 JUMP JUMPDEST DUP5 ADD SWAP2 POP POP SWAP3 SWAP2 POP POP JUMP JUMPDEST PUSH0 PUSH1 0x20 DUP3 ADD SWAP1 POP DUP2 DUP2 SUB PUSH0 DUP4 ADD MSTORE PUSH2 0x1E78 DUP2 DUP5 PUSH2 0x1E28 JUMP JUMPDEST SWAP1 POP SWAP3 SWAP2 POP POP JUMP JUMPDEST PUSH0 DUP1 REVERT JUMPDEST PUSH0 PUSH20 0xFFFFFFFFFFFFFFFFFFFFFFFFFFFFFFFFFFFFFFFF DUP3 AND SWAP1 POP SWAP2 SWAP1 POP JUMP JUMPDEST PUSH0 PUSH2 0x1EAD DUP3 PUSH2 0x1E84 JUMP JUMPDEST SWAP1 POP SWAP2 SWAP1 POP JUMP JUMPDEST PUSH2 0x1EBD DUP2 PUSH2 0x1EA3 JUMP JUMPDEST DUP2 EQ PUSH2 0x1EC7 JUMPI PUSH0 DUP1 REVERT JUMPDEST POP JUMP JUMPDEST PUSH0 DUP2 CALLDATALOAD SWAP1 POP PUSH2 0x1ED8 DUP2 PUSH2 0x1EB4 JUMP JUMPDEST SWAP3 SWAP2 POP POP JUMP JUMPDEST PUSH0 DUP2 SWAP1 POP SWAP2 SWAP1 POP JUMP JUMPDEST PUSH2 0x1EF0 DUP2 PUSH2 0x1EDE JUMP JUMPDEST DUP2 EQ PUSH2 0x1EFA JUMPI PUSH0 DUP1 REVERT JUMPDEST POP JUMP JUMPDEST PUSH0 DUP2 CALLDATALOAD SWAP1 POP PUSH2 0x1F0B DUP2 PUSH2 0x1EE7 JUMP JUMPDEST SWAP3 SWAP2 POP POP JUMP JUMPDEST PUSH0 DUP1 PUSH1 0x40 DUP4 DUP6 SUB SLT ISZERO PUSH2 0x1F27 JUMPI PUSH2 0x1F26 PUSH2 0x1E80 JUMP JUMPDEST JUMPDEST PUSH0 PUSH2 0x1F34 DUP6 DUP3 DUP7 ADD PUSH2 0x1ECA JUMP JUMPDEST SWAP3 POP POP PUSH1 0x20 PUSH2 0x1F45 DUP6 DUP3 DUP7 ADD PUSH2 0x1EFD JUMP JUMPDEST SWAP2 POP POP SWAP3 POP SWAP3 SWAP1 POP JUMP JUMPDEST PUSH0 DUP2 ISZERO ISZERO SWAP1 POP SWAP2 SWAP1 POP JUMP JUMPDEST PUSH2 0x1F63 DUP2 PUSH2 0x1F4F JUMP JUMPDEST DUP3 MSTORE POP POP JUMP JUMPDEST PUSH0 PUSH1 0x20 DUP3 ADD SWAP1 POP PUSH2 0x1F7C PUSH0 DUP4 ADD DUP5 PUSH2 0x1F5A JUMP JUMPDEST SWAP3 SWAP2 POP POP JUMP JUMPDEST PUSH2 0x1F8B DUP2 PUSH2 0x1F4F JUMP JUMPDEST DUP2 EQ PUSH2 0x1F95 JUMPI PUSH0 DUP1 REVERT JUMPDEST POP JUMP JUMPDEST PUSH0 DUP2 CALLDATALOAD SWAP1 POP PUSH2 0x1FA6 DUP2 PUSH2 0x1F82 JUMP JUMPDEST SWAP3 SWAP2 POP POP JUMP JUMPDEST PUSH0 DUP1 PUSH1 0x40 DUP4 DUP6 SUB SLT ISZERO PUSH2 0x1FC2 JUMPI PUSH2 0x1FC1 PUSH2 0x1E80 JUMP JUMPDEST JUMPDEST PUSH0 PUSH2 0x1FCF DUP6 DUP3 DUP7 ADD PUSH2 0x1ECA JUMP JUMPDEST SWAP3 POP POP PUSH1 0x20 PUSH2 0x1FE0 DUP6 DUP3 DUP7 ADD PUSH2 0x1F98 JUMP JUMPDEST SWAP2 POP POP SWAP3 POP SWAP3 SWAP1 POP JUMP JUMPDEST PUSH2 0x1FF3 DUP2 PUSH2 0x1EDE JUMP JUMPDEST DUP3 MSTORE POP POP JUMP JUMPDEST PUSH0 PUSH1 0x20 DUP3 ADD SWAP1 POP PUSH2 0x200C PUSH0 DUP4 ADD DUP5 PUSH2 0x1FEA JUMP JUMPDEST SWAP3 SWAP2 POP POP JUMP JUMPDEST PUSH0 DUP1 PUSH0 PUSH1 0x60 DUP5 DUP7 SUB SLT ISZERO PUSH2 0x2029 JUMPI PUSH2 0x2028 PUSH2 0x1E80 JUMP JUMPDEST JUMPDEST PUSH0 PUSH2 0x2036 DUP7 DUP3 DUP8 ADD PUSH2 0x1ECA JUMP JUMPDEST SWAP4 POP POP PUSH1 0x20 PUSH2 0x2047 DUP7 DUP3 DUP8 ADD PUSH2 0x1ECA JUMP JUMPDEST SWAP3 POP POP PUSH1 0x40 PUSH2 0x2058 DUP7 DUP3 DUP8 ADD PUSH2 0x1EFD JUMP JUMPDEST SWAP2 POP POP SWAP3 POP SWAP3 POP SWAP3 JUMP JUMPDEST PUSH0 PUSH1 0x20 DUP3 DUP5 SUB SLT ISZERO PUSH2 0x2077 JUMPI PUSH2 0x2076 PUSH2 0x1E80 JUMP JUMPDEST JUMPDEST PUSH0 PUSH2 0x2084 DUP5 DUP3 DUP6 ADD PUSH2 0x1ECA JUMP JUMPDEST SWAP2 POP POP SWAP3 SWAP2 POP POP JUMP JUMPDEST PUSH0 PUSH1 0xFF DUP3 AND SWAP1 POP SWAP2 SWAP1 POP JUMP JUMPDEST PUSH2 0x20A2 DUP2 PUSH2 0x208D JUMP JUMPDEST DUP3 MSTORE POP POP JUMP JUMPDEST PUSH0 PUSH1 0x20 DUP3 ADD SWAP1 POP PUSH2 0x20BB PUSH0 DUP4 ADD DUP5 PUSH2 0x2099 JUMP JUMPDEST SWAP3 SWAP2 POP POP JUMP JUMPDEST PUSH0 PUSH1 0x20 DUP3 DUP5 SUB SLT ISZERO PUSH2 0x20D6 JUMPI PUSH2 0x20D5 PUSH2 0x1E80 JUMP JUMPDEST JUMPDEST PUSH0 PUSH2 0x20E3 DUP5 DUP3 DUP6 ADD PUSH2 0x1EFD JUMP JUMPDEST SWAP2 POP POP SWAP3 SWAP2 POP POP JUMP JUMPDEST PUSH2 0x20F5 DUP2 PUSH2 0x1EA3 JUMP JUMPDEST DUP3 MSTORE POP POP JUMP JUMPDEST PUSH0 PUSH1 0x20 DUP3 ADD SWAP1 POP PUSH2 0x210E PUSH0 DUP4 ADD DUP5 PUSH2 0x20EC JUMP JUMPDEST SWAP3 SWAP2 POP POP JUMP JUMPDEST PUSH0 DUP1 PUSH1 0x40 DUP4 DUP6 SUB SLT ISZERO PUSH2 0x212A JUMPI PUSH2 0x2129 PUSH2 0x1E80 JUMP JUMPDEST JUMPDEST PUSH0 PUSH2 0x2137 DUP6 DUP3 DUP7 ADD PUSH2 0x1ECA JUMP JUMPDEST SWAP3 POP POP PUSH1 0x20 PUSH2 0x2148 DUP6 DUP3 DUP7 ADD PUSH2 0x1ECA JUMP JUMPDEST SWAP2 POP POP SWAP3 POP SWAP3 SWAP1 POP JUMP JUMPDEST PUSH32 0x4E487B7100000000000000000000000000000000000000000000000000000000 PUSH0 MSTORE PUSH1 0x22 PUSH1 0x4 MSTORE PUSH1 0x24 PUSH0 REVERT JUMPDEST PUSH0 PUSH1 0x2 DUP3 DIV SWAP1 POP PUSH1 0x1 DUP3 AND DUP1 PUSH2 0x2196 JUMPI PUSH1 0x7F DUP3 AND SWAP2 POP JUMPDEST PUSH1 0x20 DUP3 LT DUP2 SUB PUSH2 0x21A9 JUMPI PUSH2 0x21A8 PUSH2 0x2152 JUMP JUMPDEST JUMPDEST POP SWAP2 SWAP1 POP JUMP JUMPDEST PUSH32 0x4E6F7420656E6F75676820706F696E7473000000000000000000000000000000 PUSH0 DUP3 ADD MSTORE POP JUMP JUMPDEST PUSH0 PUSH2 0x21E3 PUSH1 0x11 DUP4 PUSH2 0x1DE0 JUMP JUMPDEST SWAP2 POP PUSH2 0x21EE DUP3 PUSH2 0x21AF JUMP JUMPDEST PUSH1 0x20 DUP3 ADD SWAP1 POP SWAP2 SWAP1 POP JUMP JUMPDEST PUSH0 PUSH1 0x20 DUP3 ADD SWAP1 POP DUP2 DUP2 SUB PUSH0 DUP4 ADD MSTORE PUSH2 0x2210 DUP2 PUSH2 0x21D7 JUMP JUMPDEST SWAP1 POP SWAP2 SWAP1 POP JUMP JUMPDEST PUSH32 0x4E487B7100000000000000000000000000000000000000000000000000000000 PUSH0 MSTORE PUSH1 0x11 PUSH1 0x4 MSTORE PUSH1 0x24 PUSH0 REVERT JUMPDEST PUSH0 PUSH2 0x224E DUP3 PUSH2 0x1EDE JUMP JUMPDEST SWAP2 POP PUSH2 0x2259 DUP4 PUSH2 0x1EDE JUMP JUMPDEST SWAP3 POP DUP3 DUP3 SUB SWAP1 POP DUP2 DUP2 GT ISZERO PUSH2 0x2271 JUMPI PUSH2 0x2270 PUSH2 0x2217 JUMP JUMPDEST JUMPDEST SWAP3 SWAP2 POP POP JUMP JUMPDEST PUSH0 PUSH1 0x40 DUP3 ADD SWAP1 POP PUSH2 0x228A PUSH0 DUP4 ADD DUP6 PUSH2 0x20EC JUMP JUMPDEST PUSH2 0x2297 PUSH1 0x20 DUP4 ADD DUP5 PUSH2 0x1FEA JUMP JUMPDEST SWAP4 SWAP3 POP POP POP JUMP JUMPDEST PUSH0 DUP2 MLOAD SWAP1 POP PUSH2 0x22AC DUP2 PUSH2 0x1F82 JUMP JUMPDEST SWAP3 SWAP2 POP POP JUMP JUMPDEST PUSH0 PUSH1 0x20 DUP3 DUP5 SUB SLT ISZERO PUSH2 0x22C7 JUMPI PUSH2 0x22C6 PUSH2 0x1E80 JUMP JUMPDEST JUMPDEST PUSH0 PUSH2 0x22D4 DUP5 DUP3 DUP6 ADD PUSH2 0x229E JUMP JUMPDEST SWAP2 POP POP SWAP3 SWAP2 POP POP JUMP JUMPDEST PUSH32 0x4164647265737320697320626C61636B6C697374656400000000000000000000 PUSH0 DUP3 ADD MSTORE POP JUMP JUMPDEST PUSH0 PUSH2 0x2311 PUSH1 0x16 DUP4 PUSH2 0x1DE0 JUMP JUMPDEST SWAP2 POP PUSH2 0x231C DUP3 PUSH2 0x22DD JUMP JUMPDEST PUSH1 0x20 DUP3 ADD SWAP1 POP SWAP2 SWAP1 POP JUMP JUMPDEST PUSH0 PUSH1 0x20 DUP3 ADD SWAP1 POP DUP2 DUP2 SUB PUSH0 DUP4 ADD MSTORE PUSH2 0x233E DUP2 PUSH2 0x2305 JUMP JUMPDEST SWAP1 POP SWAP2 SWAP1 POP JUMP JUMPDEST PUSH32 0x54726164696E67206973206E6F7420656E61626C656400000000000000000000 PUSH0 DUP3 ADD MSTORE POP JUMP JUMPDEST PUSH0 PUSH2 0x2379 PUSH1 0x16 DUP4 PUSH2 0x1DE0 JUMP JUMPDEST SWAP2 POP PUSH2 0x2384 DUP3 PUSH2 0x2345 JUMP JUMPDEST PUSH1 0x20 DUP3 ADD SWAP1 POP SWAP2 SWAP1 POP JUMP JUMPDEST PUSH0 PUSH1 0x20 DUP3 ADD SWAP1 POP DUP2 DUP2 SUB PUSH0 DUP4 ADD MSTORE PUSH2 0x23A6 DUP2 PUSH2 0x236D JUMP JUMPDEST SWAP1 POP SWAP2 SWAP1 POP JUMP JUMPDEST PUSH32 0x436F6E7472616374206973207061757365640000000000000000000000000000 PUSH0 DUP3 ADD MSTORE POP JUMP JUMPDEST PUSH0 PUSH2 0x23E1 PUSH1 0x12 DUP4 PUSH2 0x1DE0 JUMP JUMPDEST SWAP2 POP PUSH2 0x23EC DUP3 PUSH2 0x23AD JUMP JUMPDEST PUSH1 0x20 DUP3 ADD SWAP1 POP SWAP2 SWAP1 POP JUMP JUMPDEST PUSH0 PUSH1 0x20 DUP3 ADD SWAP1 POP DUP2 DUP2 SUB PUSH0 DUP4 ADD MSTORE PUSH2 0x240E DUP2 PUSH2 0x23D5 JUMP JUMPDEST SWAP1 POP SWAP2 SWAP1 POP JUMP JUMPDEST PUSH32 0x43616E6E6F74207472616E7366657220746F2074686520636F6E747261637420 PUSH0 DUP3 ADD MSTORE PUSH32 0x697473656C660000000000000000000000000000000000000000000000000000 PUSH1 0x20 DUP3 ADD MSTORE POP JUMP JUMPDEST PUSH0 PUSH2 0x246F PUSH1 0x26 DUP4 PUSH2 0x1DE0 JUMP JUMPDEST SWAP2 POP PUSH2 0x247A DUP3 PUSH2 0x2415 JUMP JUMPDEST PUSH1 0x40 DUP3 ADD SWAP1 POP SWAP2 SWAP1 POP JUMP JUMPDEST PUSH0 PUSH1 0x20 DUP3 ADD SWAP1 POP DUP2 DUP2 SUB PUSH0 DUP4 ADD MSTORE PUSH2 0x249C DUP2 PUSH2 0x2463 JUMP JUMPDEST SWAP1 POP SWAP2 SWAP1 POP JUMP JUMPDEST PUSH32 0x45786365656473206D6178696D756D207472616E7366657220616D6F756E7400 PUSH0 DUP3 ADD MSTORE POP JUMP JUMPDEST PUSH0 PUSH2 0x24D7 PUSH1 0x1F DUP4 PUSH2 0x1DE0 JUMP JUMPDEST SWAP2 POP PUSH2 0x24E2 DUP3 PUSH2 0x24A3 JUMP JUMPDEST PUSH1 0x20 DUP3 ADD SWAP1 POP SWAP2 SWAP1 POP JUMP JUMPDEST PUSH0 PUSH1 0x20 DUP3 ADD SWAP1 POP DUP2 DUP2 SUB PUSH0 DUP4 ADD MSTORE PUSH2 0x2504 DUP2 PUSH2 0x24CB JUMP JUMPDEST SWAP1 POP SWAP2 SWAP1 POP JUMP JUMPDEST PUSH0 PUSH2 0x2515 DUP3 PUSH2 0x1EDE JUMP JUMPDEST SWAP2 POP PUSH2 0x2520 DUP4 PUSH2 0x1EDE JUMP JUMPDEST SWAP3 POP DUP3 DUP3 MUL PUSH2 0x252E DUP2 PUSH2 0x1EDE JUMP JUMPDEST SWAP2 POP DUP3 DUP3 DIV DUP5 EQ DUP4 ISZERO OR PUSH2 0x2545 JUMPI PUSH2 0x2544 PUSH2 0x2217 JUMP JUMPDEST JUMPDEST POP SWAP3 SWAP2 POP POP JUMP JUMPDEST PUSH32 0x4E487B7100000000000000000000000000000000000000000000000000000000 PUSH0 MSTORE PUSH1 0x12 PUSH1 0x4 MSTORE PUSH1 0x24 PUSH0 REVERT JUMPDEST PUSH0 PUSH2 0x2583 DUP3 PUSH2 0x1EDE JUMP JUMPDEST SWAP2 POP PUSH2 0x258E DUP4 PUSH2 0x1EDE JUMP JUMPDEST SWAP3 POP DUP3 PUSH2 0x259E JUMPI PUSH2 0x259D PUSH2 0x254C JUMP JUMPDEST JUMPDEST DUP3 DUP3 DIV SWAP1 POP SWAP3 SWAP2 POP POP JUMP JUMPDEST PUSH0 PUSH2 0x25B3 DUP3 PUSH2 0x1EDE JUMP JUMPDEST SWAP2 POP PUSH2 0x25BE DUP4 PUSH2 0x1EDE JUMP JUMPDEST SWAP3 POP DUP3 DUP3 ADD SWAP1 POP DUP1 DUP3 GT ISZERO PUSH2 0x25D6 JUMPI PUSH2 0x25D5 PUSH2 0x2217 JUMP JUMPDEST JUMPDEST SWAP3 SWAP2 POP POP JUMP JUMPDEST PUSH32 0x45786365656473206D6178696D756D20656E676167656D656E7420706F696E74 PUSH0 DUP3 ADD MSTORE PUSH32 0x7300000000000000000000000000000000000000000000000000000000000000 PUSH1 0x20 DUP3 ADD MSTORE POP JUMP JUMPDEST PUSH0 PUSH2 0x2636 PUSH1 0x21 DUP4 PUSH2 0x1DE0 JUMP JUMPDEST SWAP2 POP PUSH2 0x2641 DUP3 PUSH2 0x25DC JUMP JUMPDEST PUSH1 0x40 DUP3 ADD SWAP1 POP SWAP2 SWAP1 POP JUMP JUMPDEST PUSH0 PUSH1 0x20 DUP3 ADD SWAP1 POP DUP2 DUP2 SUB PUSH0 DUP4 ADD MSTORE PUSH2 0x2663 DUP2 PUSH2 0x262A JUMP JUMPDEST SWAP1 POP SWAP2 SWAP1 POP JUMP JUMPDEST PUSH32 0x436C61696D20636F6F6C646F776E206163746976650000000000000000000000 PUSH0 DUP3 ADD MSTORE POP JUMP JUMPDEST PUSH0 PUSH2 0x269E PUSH1 0x15 DUP4 PUSH2 0x1DE0 JUMP JUMPDEST SWAP2 POP PUSH2 0x26A9 DUP3 PUSH2 0x266A JUMP JUMPDEST PUSH1 0x20 DUP3 ADD SWAP1 POP SWAP2 SWAP1 POP JUMP JUMPDEST PUSH0 PUSH1 0x20 DUP3 ADD SWAP1 POP DUP2 DUP2 SUB PUSH0 DUP4 ADD MSTORE PUSH2 0x26CB DUP2 PUSH2 0x2692 JUMP JUMPDEST SWAP1 POP SWAP2 SWAP1 POP JUMP JUMPDEST PUSH32 0x4E6F207265776172647320617661696C61626C65000000000000000000000000 PUSH0 DUP3 ADD MSTORE POP JUMP JUMPDEST PUSH0 PUSH2 0x2706 PUSH1 0x14 DUP4 PUSH2 0x1DE0 JUMP JUMPDEST SWAP2 POP PUSH2 0x2711 DUP3 PUSH2 0x26D2 JUMP JUMPDEST PUSH1 0x20 DUP3 ADD SWAP1 POP SWAP2 SWAP1 POP JUMP JUMPDEST PUSH0 PUSH1 0x20 DUP3 ADD SWAP1 POP DUP2 DUP2 SUB PUSH0 DUP4 ADD MSTORE PUSH2 0x2733 DUP2 PUSH2 0x26FA JUMP JUMPDEST SWAP1 POP SWAP2 SWAP1 POP JUMP JUMPDEST PUSH32 0x496E73756666696369656E742072657761726420737570706C79000000000000 PUSH0 DUP3 ADD MSTORE POP JUMP JUMPDEST PUSH0 PUSH2 0x276E PUSH1 0x1A DUP4 PUSH2 0x1DE0 JUMP JUMPDEST SWAP2 POP PUSH2 0x2779 DUP3 PUSH2 0x273A JUMP JUMPDEST PUSH1 0x20 DUP3 ADD SWAP1 POP SWAP2 SWAP1 POP JUMP JUMPDEST PUSH0 PUSH1 0x20 DUP3 ADD SWAP1 POP DUP2 DUP2 SUB PUSH0 DUP4 ADD MSTORE PUSH2 0x279B DUP2 PUSH2 0x2762 JUMP JUMPDEST SWAP1 POP SWAP2 SWAP1 POP JUMP JUMPDEST PUSH32 0x54617820726174652065786365656473206D6178696D756D206C696D69740000 PUSH0 DUP3 ADD MSTORE POP JUMP JUMPDEST PUSH0 PUSH2 0x27D6 PUSH1 0x1E DUP4 PUSH2 0x1DE0 JUMP JUMPDEST SWAP2 POP PUSH2 0x27E1 DUP3 PUSH2 0x27A2 JUMP JUMPDEST PUSH1 0x20 DUP3 ADD SWAP1 POP SWAP2 SWAP1 POP JUMP JUMPDEST PUSH0 PUSH1 0x20 DUP3 ADD SWAP1 POP DUP2 DUP2 SUB PUSH0 DUP4 ADD MSTORE PUSH2 0x2803 DUP2 PUSH2 0x27CA JUMP JUMPDEST SWAP1 POP SWAP2 SWAP1 POP JUMP JUMPDEST PUSH0 PUSH1 0x60 DUP3 ADD SWAP1 POP PUSH2 0x281D PUSH0 DUP4 ADD DUP7 PUSH2 0x20EC JUMP JUMPDEST PUSH2 0x282A PUSH1 0x20 DUP4 ADD DUP6 PUSH2 0x1FEA JUMP JUMPDEST PUSH2 0x2837 PUSH1 0x40 DUP4 ADD DUP5 PUSH2 0x1FEA JUMP JUMPDEST SWAP5 SWAP4 POP POP POP POP JUMP JUMPDEST PUSH32 0x5265656E7472616E637947756172643A207265656E7472616E742063616C6C00 PUSH0 DUP3 ADD MSTORE POP JUMP JUMPDEST PUSH0 PUSH2 0x2873 PUSH1 0x1F DUP4 PUSH2 0x1DE0 JUMP JUMPDEST SWAP2 POP PUSH2 0x287E DUP3 PUSH2 0x283F JUMP JUMPDEST PUSH1 0x20 DUP3 ADD SWAP1 POP SWAP2 SWAP1 POP JUMP JUMPDEST PUSH0 PUSH1 0x20 DUP3 ADD SWAP1 POP DUP2 DUP2 SUB PUSH0 DUP4 ADD MSTORE PUSH2 0x28A0 DUP2 PUSH2 0x2867 JUMP JUMPDEST SWAP1 POP SWAP2 SWAP1 POP JUMP INVALID LOG2 PUSH5 0x6970667358 0x22 SLT KECCAK256 OR NUMBER 0xBE 0xBA JUMP PUSH16 0xEB8CA221B790DF761D7A29B0B19DC3A7 DUP8 INVALID STOP ADDMOD 0xD4 0xE5 MOD 0xB6 0xF 0xCB PUSH5 0x736F6C6343 STOP ADDMOD EQ STOP CALLER "
				},
				"gasEstimates": {
					"creation": {
						"codeDepositCost": "2092200",
						"executionCost": "infinite",
						"totalCost": "infinite"
					},
					"external": {
						"MAX_ENGAGEMENT_POINTS()": "458",
						"MAX_TAX_RATE()": "370",
						"MAX_TRANSFER_AMOUNT()": "457",
						"TOTAL_SUPPLY()": "392",
						"addToWhitelist(address)": "infinite",
						"allowance(address,address)": "infinite",
						"approve(address,uint256)": "infinite",
						"balance(address)": "2937",
						"balanceOf(address)": "2896",
						"burn(uint256)": "infinite",
						"burnSupply(uint256)": "infinite",
						"claimReward()": "infinite",
						"decimals()": "450",
						"deductEngagementPoints(address,uint256)": "infinite",
						"enableTrading()": "infinite",
						"engagementPoints(address)": "2892",
						"name()": "infinite",
						"owner()": "2627",
						"pause()": "infinite",
						"paused()": "2629",
						"removeFromWhitelist(address)": "infinite",
						"renounceOwnership()": "infinite",
						"rescueTokens(address,uint256)": "infinite",
						"setBlacklist(address,bool)": "infinite",
						"setTaxRate(uint256)": "infinite",
						"symbol()": "infinite",
						"taxRate()": "2536",
						"totalSupply()": "2478",
						"tradingEnabled()": "2534",
						"tradingStartBlock()": "2536",
						"transfer(address,uint256)": "infinite",
						"transferFrom(address,address,uint256)": "infinite",
						"transferOwnership(address)": "infinite",
						"unpause()": "infinite",
						"updateEngagementPoints(address,uint256)": "infinite",
						"withdrawBalance()": "infinite"
					}
				},
				"methodIdentifiers": {
					"MAX_ENGAGEMENT_POINTS()": "819edfbc",
					"MAX_TAX_RATE()": "8fa81732",
					"MAX_TRANSFER_AMOUNT()": "fc1b3113",
					"TOTAL_SUPPLY()": "902d55a5",
					"addToWhitelist(address)": "e43252d7",
					"allowance(address,address)": "dd62ed3e",
					"approve(address,uint256)": "095ea7b3",
					"balance(address)": "e3d670d7",
					"balanceOf(address)": "70a08231",
					"burn(uint256)": "42966c68",
					"burnSupply(uint256)": "d595c331",
					"claimReward()": "b88a802f",
					"decimals()": "313ce567",
					"deductEngagementPoints(address,uint256)": "17386e2c",
					"enableTrading()": "8a8c523c",
					"engagementPoints(address)": "2576f999",
					"name()": "06fdde03",
					"owner()": "8da5cb5b",
					"pause()": "8456cb59",
					"paused()": "5c975abb",
					"removeFromWhitelist(address)": "8ab1d681",
					"renounceOwnership()": "715018a6",
					"rescueTokens(address,uint256)": "57376198",
					"setBlacklist(address,bool)": "153b0d1e",
					"setTaxRate(uint256)": "c6d69a30",
					"symbol()": "95d89b41",
					"taxRate()": "771a3a1d",
					"totalSupply()": "18160ddd",
					"tradingEnabled()": "4ada218b",
					"tradingStartBlock()": "d798cbd2",
					"transfer(address,uint256)": "a9059cbb",
					"transferFrom(address,address,uint256)": "23b872dd",
					"transferOwnership(address)": "f2fde38b",
					"unpause()": "3f4ba83a",
					"updateEngagementPoints(address,uint256)": "aabd801d",
					"withdrawBalance()": "5fd8c710"
				}
			},
			"storageLayout": {
				"storage": [
					{
						"astId": 279,
						"contract": "contracts/GeckoGold_flattened.sol:GeckoGold",
						"label": "_balances",
						"offset": 0,
						"slot": "0",
						"type": "t_mapping(t_address,t_uint256)"
					},
					{
						"astId": 285,
						"contract": "contracts/GeckoGold_flattened.sol:GeckoGold",
						"label": "_allowances",
						"offset": 0,
						"slot": "1",
						"type": "t_mapping(t_address,t_mapping(t_address,t_uint256))"
					},
					{
						"astId": 287,
						"contract": "contracts/GeckoGold_flattened.sol:GeckoGold",
						"label": "_totalSupply",
						"offset": 0,
						"slot": "2",
						"type": "t_uint256"
					},
					{
						"astId": 289,
						"contract": "contracts/GeckoGold_flattened.sol:GeckoGold",
						"label": "_name",
						"offset": 0,
						"slot": "3",
						"type": "t_string_storage"
					},
					{
						"astId": 291,
						"contract": "contracts/GeckoGold_flattened.sol:GeckoGold",
						"label": "_symbol",
						"offset": 0,
						"slot": "4",
						"type": "t_string_storage"
					},
					{
						"astId": 777,
						"contract": "contracts/GeckoGold_flattened.sol:GeckoGold",
						"label": "_owner",
						"offset": 0,
						"slot": "5",
						"type": "t_address"
					},
					{
						"astId": 926,
						"contract": "contracts/GeckoGold_flattened.sol:GeckoGold",
						"label": "_status",
						"offset": 0,
						"slot": "6",
						"type": "t_uint256"
					},
					{
						"astId": 997,
						"contract": "contracts/GeckoGold_flattened.sol:GeckoGold",
						"label": "taxRate",
						"offset": 0,
						"slot": "7",
						"type": "t_uint256"
					},
					{
						"astId": 1014,
						"contract": "contracts/GeckoGold_flattened.sol:GeckoGold",
						"label": "blacklistedAddresses",
						"offset": 0,
						"slot": "8",
						"type": "t_mapping(t_address,t_bool)"
					},
					{
						"astId": 1018,
						"contract": "contracts/GeckoGold_flattened.sol:GeckoGold",
						"label": "whitelistAddresses",
						"offset": 0,
						"slot": "9",
						"type": "t_mapping(t_address,t_bool)"
					},
					{
						"astId": 1022,
						"contract": "contracts/GeckoGold_flattened.sol:GeckoGold",
						"label": "engagementPoints",
						"offset": 0,
						"slot": "10",
						"type": "t_mapping(t_address,t_uint256)"
					},
					{
						"astId": 1026,
						"contract": "contracts/GeckoGold_flattened.sol:GeckoGold",
						"label": "lastClaimed",
						"offset": 0,
						"slot": "11",
						"type": "t_mapping(t_address,t_uint256)"
					},
					{
						"astId": 1028,
						"contract": "contracts/GeckoGold_flattened.sol:GeckoGold",
						"label": "tradingStartBlock",
						"offset": 0,
						"slot": "12",
						"type": "t_uint256"
					},
					{
						"astId": 1031,
						"contract": "contracts/GeckoGold_flattened.sol:GeckoGold",
						"label": "tradingEnabled",
						"offset": 0,
						"slot": "13",
						"type": "t_bool"
					},
					{
						"astId": 1034,
						"contract": "contracts/GeckoGold_flattened.sol:GeckoGold",
						"label": "paused",
						"offset": 1,
						"slot": "13",
						"type": "t_bool"
					}
				],
				"types": {
					"t_address": {
						"encoding": "inplace",
						"label": "address",
						"numberOfBytes": "20"
					},
					"t_bool": {
						"encoding": "inplace",
						"label": "bool",
						"numberOfBytes": "1"
					},
					"t_mapping(t_address,t_bool)": {
						"encoding": "mapping",
						"key": "t_address",
						"label": "mapping(address => bool)",
						"numberOfBytes": "32",
						"value": "t_bool"
					},
					"t_mapping(t_address,t_mapping(t_address,t_uint256))": {
						"encoding": "mapping",
						"key": "t_address",
						"label": "mapping(address => mapping(address => uint256))",
						"numberOfBytes": "32",
						"value": "t_mapping(t_address,t_uint256)"
					},
					"t_mapping(t_address,t_uint256)": {
						"encoding": "mapping",
						"key": "t_address",
						"label": "mapping(address => uint256)",
						"numberOfBytes": "32",
						"value": "t_uint256"
					},
					"t_string_storage": {
						"encoding": "bytes",
						"label": "string",
						"numberOfBytes": "32"
					},
					"t_uint256": {
						"encoding": "inplace",
						"label": "uint256",
						"numberOfBytes": "32"
					}
				}
			},
			"userdoc": {
				"kind": "user",
				"methods": {},
				"version": 1
			}
		}
	}
}